:020000040800F2
:1000000000C00020F5120008F5B9000839130008F7
:10001000F7B90008F9B90008FBB9000800000000B2
:100020000000000000000000000000002191000816
:10003000FDB9000800000000C191000801BA0008E5
:100040003913000839130008391300083913000860
:100050003913000839130008391300083913000850
:1000600069B500083913000839130008391300086E
:10007000391300083913000839130008C12000089B
:100080003913000839130008391300083913000820
:100090003913000839130008391300083913000810
:1000A0003913000839130008391300083913000800
:1000B000391300083913000875280008391300089F
:1000C00039130008491F0008B11E00083913000841
:1000D000391300080D4100083913000839130008CE
:1000E00015350008391300083913000839130008C2
:1000F00039130008391300083913000839130008B0
:10010000391300083913000855280008391300086E
:10011000853E000809400008F11500083913000861
:10012000391300083913000839130008391300087F
:1001300000000000000000000000000000000000BF
:1001400000000000000000000000000000000000AF
:10015000000000000000000000000000000000009F
:10016000000000000000000000000000000000008F
:10017000000000000000000000000000000000007F
:10018000000000000000000000000000000000006F
:10019000000000000000000000000000000000005F
:1001A000000000000000000000000000000000004F
:1001B000000000000000000000000000000000003F
:1001C000000000000000000000000000000000002F
:1001D000000000000000000000000000000000001F
:0401E0005FF8E0F1F3
:1001F00010B5054C237833B9044B13B10448AFF361
:1002000000800123237010BD5C0600200000000068
:100210007011010808B5034B1BB103490348AFF344
:10022000008008BD00000000600600207011010879
:10023000034613F8012B002AFBD1181A0138704726
:1002400081F0004102E000BF83F0004330B54FEA87
:1002500041044FEA430594EA050F08BF90EA020FF4
:100260001FBF54EA000C55EA020C7FEA645C7FEA87
:10027000655C00F0E2804FEA5454D4EB5555B8BFAA
:100280006D420CDD2C4480EA020281EA030382EA1B
:10029000000083EA010180EA020281EA0303362DAD
:1002A00088BF30BD11F0004F4FEA01314FF4801C80
:1002B0004CEA113102D0404261EB410113F0004F92
:1002C0004FEA03334CEA133302D0524263EB430349
:1002D00094EA050F00F0A780A4F10104D5F1200EE7
:1002E0000DDB02FA0EFC22FA05F2801841F1000142
:1002F00003FA0EF2801843FA05F359410EE0A5F116
:1003000020050EF1200E012A03FA0EFC28BF4CF046
:10031000020C43FA05F3C01851EBE37101F00045FC
:1003200007D54FF0000EDCF1000C7EEB00006EEB09
:100330000101B1F5801F1BD3B1F5001F0CD3490893
:100340005FEA30004FEA3C0C04F101044FEA4452EA
:1003500012F5800F80F09A80BCF1004F08BF5FEA71
:10036000500C50F1000041EB045141EA050130BD51
:100370005FEA4C0C404141EB0101013C28BFB1F563
:10038000801FE9D291F0000F04BF01460020B1FAAE
:1003900081F308BF2033A3F10B03B3F120020CDA81
:1003A0000C3208DD02F1140CC2F10C0201FA0CF05F
:1003B00021FA02F10CE002F11402D8BFC2F1200CC4
:1003C00001FA02F120FA0CFCDCBF41EA0C0190407A
:1003D000E41AA2BF01EB0451294330BD6FEA0404C3
:1003E0001F3C1CDA0C340EDC04F11404C4F12002AE
:1003F00020FA04F001FA02F340EA030021FA04F3C0
:1004000045EA030130BDC4F10C04C4F1200220FA16
:1004100002F001FA04F340EA0300294630BD21FA54
:1004200004F0294630BD94F0000F83F4801306BF1A
:1004300081F480110134013D4EE77FEA645C18BF0E
:100440007FEA655C29D094EA050F08BF90EA020FA5
:1004500005D054EA000C04BF1946104630BD91EA9D
:10046000030F1EBF0021002030BD5FEA545C05D1A0
:100470004000494128BF41F0004130BD14F58004DF
:100480003CBF01F5801130BD01F0004545F0FE4153
:1004900041F470014FF0000030BD7FEA645C1ABF88
:1004A000194610467FEA655C1CBF0B46024650EABF
:1004B000013406BF52EA033591EA030F41F40021EB
:1004C00030BD00BF90F0000F04BF0021704730B571
:1004D0004FF4806404F132044FF000054FF0000146
:1004E00050E700BF90F0000F04BF0021704730B507
:1004F0004FF4806404F1320410F0004548BF4042DC
:100500004FF000013EE700BF42004FEAE2014FEA30
:1005100031014FEA02701FBF12F07F4393F07F4F0B
:1005200081F06051704732F07F4208BF704793F00E
:100530007F4F04BF41F40021704730B54FF4607421
:1005400001F0004521F000411CE700BF50EA010224
:1005500008BF704730B54FF000050AE050EA0102CD
:1005600008BF704730B511F0004502D5404261EB3D
:1005700041014FF4806404F132045FEA915C3FF47E
:10058000D8AE4FF003025FEADC0C18BF03325FEA1B
:10059000DC0C18BF033202EBDC02C2F1200300FACC
:1005A00003FC20FA02F001FA03FE40EA0E0021FAF1
:1005B00002F11444BDE600BF70B54FF0FF0C4CF4DF
:1005C000E06C1CEA11541DBF1CEA135594EA0C0F91
:1005D00095EA0C0F00F0DEF82C4481EA030621EACC
:1005E0004C5123EA4C5350EA013518BF52EA033507
:1005F00041F4801143F4801338D0A0FB02CE4FF0B9
:100600000005E1FB02E506F00042E0FB03E54FF0E8
:100610000006E1FB03569CF0000F18BF4EF0010EE0
:10062000A4F1FF04B6F5007F64F5407404D25FEADC
:100630004E0E6D4146EB060642EAC62141EA55518F
:100640004FEAC52040EA5E504FEACE2EB4F1FD0CD1
:1006500088BFBCF5E06F1ED8BEF1004F08BF5FEA4F
:10066000500E50F1000041EB045170BD06F0004601
:1006700046EA010140EA020081EA0301B4EB5C04AE
:10068000C2BFD4EB0C0541EA045170BD41F48011A6
:100690004FF0000E013C00F3AB8014F1360FDEBFCB
:1006A000002001F0004170BDC4F10004203C35DAA7
:1006B0000C341BDC04F11404C4F1200500FA05F32A
:1006C00020FA04F001FA05F240EA020001F00042CB
:1006D00021F0004110EBD37021FA04F642EB060141
:1006E0005EEA430E08BF20EAD37070BDC4F10C046B
:1006F000C4F1200500FA04F320FA05F001FA04F22F
:1007000040EA020001F0004110EBD37041F100011A
:100710005EEA430E08BF20EAD37070BDC4F1200525
:1007200000FA05F24EEA020E20FA04F301FA05F28D
:1007300043EA020321FA04F001F0004121FA04F235
:1007400020EA020000EBD3705EEA430E08BF20EA05
:10075000D37070BD94F0000F0FD101F0004640003F
:1007600041EB010111F4801F08BF013CF7D041EAC1
:10077000060195F0000F18BF704703F000465200C5
:1007800043EB030313F4801F08BF013DF7D043EA96
:100790000603704794EA0C0F0CEA135518BF95EA4C
:1007A0000C0F0CD050EA410618BF52EA4306D1D1D3
:1007B00081EA030101F000414FF0000070BD50EAF2
:1007C000410606BF1046194652EA430619D094EA7C
:1007D0000C0F02D150EA013613D195EA0C0F05D166
:1007E00052EA03361CBF104619460AD181EA0301BA
:1007F00001F0004141F0FE4141F470014FF0000072
:1008000070BD41F0FE4141F4780170BD70B54FF00C
:10081000FF0C4CF4E06C1CEA11541DBF1CEA13558C
:1008200094EA0C0F95EA0C0F00F0A7F8A4EB05046E
:1008300081EA030E52EA03354FEA013100F0888065
:100840004FEA03334FF0805545EA131343EA12632E
:100850004FEA022245EA111545EA10654FEA0026E3
:100860000EF000419D4208BF964244F1FD0404F59C
:10087000407402D25B084FEA3202B61A65EB0305F8
:100880005B084FEA32024FF480104FF4002CB6EBB5
:10089000020E75EB030E22BFB61A754640EA0C0035
:1008A0005B084FEA3202B6EB020E75EB030E22BF75
:1008B000B61A754640EA5C005B084FEA3202B6EBB6
:1008C000020E75EB030E22BFB61A754640EA9C0075
:1008D0005B084FEA3202B6EB020E75EB030E22BF45
:1008E000B61A754640EADC0055EA060E18D04FEA03
:1008F000051545EA16754FEA06164FEAC30343EAA3
:1009000052734FEAC2025FEA1C1CC0D111F4801F6F
:100910000BD141EA00014FF000004FF0004CB6E768
:1009200011F4801F04BF01430020B4F1FD0C88BF07
:10093000BCF5E06F3FF6AFAEB5EB030C04BFB6EB12
:10094000020C5FEA500C50F1000041EB045170BD05
:100950000EF0004E4EEA113114EB5C04C2BFD4EB32
:100960000C0541EA045170BD41F480114FF0000EB6
:10097000013C90E645EA060E8DE60CEA135594EA32
:100980000C0F08BF95EA0C0F3FF43BAF94EA0C0F35
:100990000AD150EA01347FF434AF95EA0C0F7FF4AA
:1009A00025AF104619462CE795EA0C0F06D152EAFE
:1009B00003353FF4FDAE1046194622E750EA4106E2
:1009C00018BF52EA43067FF4C5AE50EA41047FF4F3
:1009D0000DAF52EA43057FF4EBAE12E74FF0FF3C58
:1009E00006E000BF4FF0010C02E000BF4FF0010C29
:1009F0004DF804CD4FEA410C7FEA6C5C4FEA430CA2
:100A000018BF7FEA6C5C1BD001B050EA410C0CBFF0
:100A100052EA430C91EA030F02BF90EA020F002052
:100A2000704710F1000F91EA030F58BF994208BFB9
:100A300090422CBFD8176FEAE37040F00100704776
:100A40004FEA410C7FEA6C5C02D150EA013C07D1CD
:100A50004FEA430C7FEA6C5CD6D152EA033CD3D018
:100A60005DF8040B704700BF8446104662468C4612
:100A70001946634600E000BF01B5FFF7B7FF002845
:100A800048BF10F1000F01BD4DF808EDFFF7F4FF6E
:100A90000CBF012000205DF808FB00BF4DF808EDF9
:100AA000FFF7EAFF34BF012000205DF808FB00BF1C
:100AB0004DF808EDFFF7E0FF94BF012000205DF83E
:100AC00008FB00BF4DF808EDFFF7CEFF94BF0120F3
:100AD00000205DF808FB00BF4DF808EDFFF7C4FFEC
:100AE00034BF012000205DF808FB00BF4FEA410C35
:100AF0007FEA6C5C02D150EA013C0AD14FEA430C18
:100B00007FEA6C5C02D152EA033C02D14FF0000054
:100B100070474FF0010070474FEA410212F5001292
:100B200015D211D56FF47873B3EB625212D94FEA34
:100B3000C12343F0004343EA505311F0004F23FA1E
:100B400002F018BF404270474FF00000704750EA73
:100B5000013005D111F0004008BF6FF00040704730
:100B60004FF00000704700BF4A0011D212F500128A
:100B700011D20DD56FF47873B3EB62520ED44FEAF5
:100B8000C12343F0004343EA505323FA02F0704775
:100B90004FF00000704750EA013002D14FF0FF30B3
:100BA00070474FF0000070474FEA4102B2F1E04356
:100BB00024BFB3F5001CDCF1FE5C0DD901F0004C44
:100BC0004FEAC0024CEA5070B2F1004F40EB830094
:100BD00008BF20F00100704711F0804F21D113F1C0
:100BE0003872BCBF01F00040704741F480114FEAF9
:100BF0005252C2F11802C2F1200C10FA0CF320FA82
:100C000002F018BF40F001004FEAC1234FEAD3239E
:100C100003FA0CFC40EA0C0023FA02F34FEA430308
:100C2000CCE77FEA625307D150EA01331EBF4FF091
:100C3000FE4040F44000704701F0004040F0FE40AC
:100C400040F40000704700BF80F0004002E000BFA9
:100C500081F0004142001FBF5FEA410392EA030FA7
:100C60007FEA226C7FEA236C6AD04FEA1262D2EBF1
:100C70001363C1BFD218414048404140B8BF5B42F6
:100C8000192B88BF704710F0004F40F4000020F08F
:100C90007F4018BF404211F0004F41F4000121F0A5
:100CA0007F4118BF494292EA030F3FD0A2F10102EF
:100CB00041FA03FC10EB0C00C3F1200301FA03F12D
:100CC00000F0004302D5494260EB4000B0F5000F50
:100CD00013D3B0F1807F06D340084FEA310102F10F
:100CE0000102FE2A51D2B1F1004F40EBC25008BFC1
:100CF00020F0010040EA03007047490040EB00008B
:100D0000013A28BFB0F5000FEDD2B0FA80FCACF18B
:100D1000080CB2EB0C0200FA0CF0AABF00EBC250B8
:100D200052421843BCBFD0401843704792F0000FA6
:100D300081F4000106BF80F400000132013BB5E7F9
:100D40004FEA41037FEA226C18BF7FEA236C21D06F
:100D500092EA030F04D092F0000F08BF08467047D4
:100D600090EA010F1CBF0020704712F07F4F04D1A2
:100D7000400028BF40F00040704712F100723CBFB5
:100D800000F50000704700F0004343F0FE4040F4DF
:100D9000000070477FEA226216BF08467FEA23639D
:100DA0000146420206BF5FEA412390EA010F40F488
:100DB000800070474FF0000304E000BF10F00043D4
:100DC00048BF40425FEA000C08BF704743F09643BB
:100DD00001464FF000001CE050EA010208BF7047D6
:100DE0004FF000030AE000BF50EA010208BF70475D
:100DF00011F0004302D5404261EB41015FEA010C72
:100E000002BF84460146002043F0B64308BFA3F169
:100E10008053A3F50003BCFA8CF2083AA3EBC2534B
:100E200010DB01FA02FC634400FA02FCC2F120026A
:100E3000BCF1004F20FA02F243EB020008BF20F0A1
:100E40000100704702F1200201FA02FCC2F1200207
:100E500050EA4C0021FA02F243EB020008BF20EAFC
:100E6000DC7070474FF0FF0C1CEAD0521EBF1CEA2A
:100E7000D15392EA0C0F93EA0C0F6FD01A4480EA18
:100E8000010C400218BF5FEA41211ED04FF0006301
:100E900043EA501043EA5111A0FB01310CF000402D
:100EA000B1F5000F3EBF490041EAD3715B0040EA53
:100EB000010062F17F02FD2A1DD8B3F1004F40EB23
:100EC000C25008BF20F00100704790F0000F0CF0F6
:100ED000004C08BF49024CEA502040EA51207F3ABA
:100EE000C2BFD2F1FF0340EAC250704740F4000095
:100EF0004FF00003013A5DDC12F1190FDCBF00F086
:100F000000407047C2F10002410021FA02F1C2F133
:100F1000200200FA02FC5FEA310040F1000053EACF
:100F20004C0308BF20EADC70704792F0000F00F01D
:100F3000004C02BF400010F4000F013AF9D040EA23
:100F40000C0093F0000F01F0004C02BF490011F4B7
:100F5000000F013BF9D041EA0C018FE70CEAD153B5
:100F600092EA0C0F18BF93EA0C0F0AD030F0004C35
:100F700018BF31F0004CD8D180EA010000F00040E9
:100F8000704790F0000F17BF90F0004F084691F0A7
:100F9000000F91F0004F14D092EA0C0F01D14202E1
:100FA0000FD193EA0C0F03D14B0218BF084608D1AA
:100FB00080EA010000F0004040F0FE4040F40000F4
:100FC000704740F0FE4040F4400070474FF0FF0C87
:100FD0001CEAD0521EBF1CEAD15392EA0C0F93EACE
:100FE0000C0F69D0A2EB030280EA010C49024FEA20
:100FF000402037D04FF0805343EA111143EA1013D9
:101000000CF000408B4238BF5B0042F17D024FF490
:10101000000C8B4224BF5B1A40EA0C00B3EB510F6B
:1010200024BFA3EB510340EA5C00B3EB910F24BF54
:10103000A3EB910340EA9C00B3EBD10F24BFA3EBD9
:10104000D10340EADC001B0118BF5FEA1C1CE0D1A1
:10105000FD2A3FF650AF8B4240EBC25008BF20F054
:10106000010070470CF0004C4CEA50207F32C2BFA8
:10107000D2F1FF0340EAC250704740F400004FF045
:101080000003013A37E792F0000F00F0004C02BF76
:10109000400010F4000F013AF9D040EA0C0093F040
:1010A000000F01F0004C02BF490011F4000F013B9A
:1010B000F9D041EA0C0195E70CEAD15392EA0C0F02
:1010C00008D142027FF47DAF93EA0C0F7FF470AF3A
:1010D000084676E793EA0C0F04D14B023FF44CAF7D
:1010E00008466EE730F0004C18BF31F0004CCAD112
:1010F00030F000427FF45CAF31F000437FF43CAF4E
:101100005FE700BF4FF0FF3C06E000BF4FF0010C6F
:1011100002E000BF4FF0010C4DF804CD4FEA400251
:101120004FEA41037FEA226C18BF7FEA236C11D09B
:1011300001B052EA530C18BF90EA010F58BFB2EB4E
:10114000030088BFC81738BF6FEAE17018BF40F0CE
:10115000010070477FEA226C02D15FEA402C05D182
:101160007FEA236CE4D15FEA412CE1D05DF8040B07
:10117000704700BF844608466146FFE70FB5FFF79A
:10118000C9FF002848BF10F1000F0FBD4DF808ED52
:10119000FFF7F4FF0CBF012000205DF808FB00BF43
:1011A0004DF808EDFFF7EAFF34BF012000205DF89D
:1011B00008FB00BF4DF808EDFFF7E0FF94BF0120EA
:1011C00000205DF808FB00BF4DF808EDFFF7D2FFE7
:1011D00094BF012000205DF808FB00BF4DF808ED2A
:1011E000FFF7C8FF34BF012000205DF808FB00BFF7
:1011F0004FEA4002B2F1FE4F0FD34FF09E03B3EB24
:1012000012620DD94FEA002343F0004310F0004F63
:1012100023FA02F018BF404270474FF000007047B9
:1012200012F1610F01D1420205D110F0004008BF58
:101230006FF0004070474FF00000704742000ED240
:10124000B2F1FE4F0BD34FF09E03B3EB126209D401
:101250004FEA002343F0004323FA02F070474FF0B7
:101260000000704712F1610F01D1420202D14FF02C
:10127000FF3070474FF00000704700BF38B505469B
:101280000C460022002328462146FFF707FC28B918
:1012900028462146BDE8384000F00AB8284604F147
:1012A000004100F005F8404261EB410138BD00BF4C
:1012B000D0B500220B4B06460F46FFF77DF9FFF72E
:1012C00053FC0446FFF7FEF80022074BFFF774F9C2
:1012D00002460B4630463946FEF7B6FFFFF744FCA0
:1012E0002146D0BD0000F03D0000F04180F313889E
:1012F00070470000002103E00A4B5B584350043163
:1013000009480A4B42189A42F6D3094A02E00023E0
:1013100042F8043B074B9A42F9D300F00FF80AF069
:10132000E1FA704730E10308000000205006002079
:101330005C0600203C9B0020FEE70000374B82B09B
:101340001A6842F001021A605968354A0A405A6028
:101350001A6822F0847222F480321A601A6822F429
:1013600080221A605A6822F4FE025A604FF41F026B
:101370009A600022009201921A6842F480321A6048
:101380001A6802F400320192009A01320092019A26
:101390001AB9009AB2F5A06FF2D11A6812F40032AD
:1013A00018BF01220192019A012A30D11D4A116809
:1013B00041F010011160116821F003011160116802
:1013C00041F0020111605A685A605A685A605A68BE
:1013D00042F480625A605A6822F47C125A605A6859
:1013E00042F4E8125A601A6842F080721A601A6871
:1013F0009201FCD55A6822F003025A605A6842F002
:1014000002025A605A6802F00C02082AFAD14FF020
:101410000062054B9A6002B0704700BF00100240A6
:101420000000FFF80020024000ED00E030B501218F
:1014300091B0042008F084FE00243023384805A928
:10144000ADF814308DF8174008F07EFC01210846F5
:1014500008F06AFE01214FF4007008F071FE314877
:1014600008F0CCFA304B80220593304B4FF480616A
:10147000CDE906344FF48073CDE90A2320230225F9
:10148000CDE90C134FF48053264805A9CDE90E345D
:10149000CDE9085408F02CFB0121224808F046FB56
:1014A00040F20113ADF804304FF460236946204840
:1014B000CDE9023400948DF8105008F0AFF84FF4E5
:1014C000404008F0E7FD052301220421184808F0F8
:1014D000F6F805232A461946154808F0F0F80121C8
:1014E000134808F0C8F80121114808F0BBF810486B
:1014F00008F0CAF80E4C204608F0CBF80028FAD1C4
:101500000B4808F0CAF80A4C204608F0CBF800282F
:10151000FAD10121064808F0C9F811B030BD00BF6A
:1015200000080140080002404C24014078060020D9
:10153000002401400C22024B1860024B1A707047C5
:10154000840600208E06002010B50849084C094882
:10155000234600220978006800F064FA20B1207860
:10156000A0F148035842584110BD00BF8E0600202C
:1015700088060020840600200346034903480A2207
:101580000978006800F071BA8E06002084060020F9
:1015900030B5012185B0102008F0DEFD002541F6B0
:1015A0001F420A23104C01A92046CDE901238DF8E2
:1015B0000C5008F091FE0D4B6846009307F0F0FFC9
:1015C0002046012109F008F901222046114608F0C1
:1015D000EEFF2946204609F036F82946204608F055
:1015E000CCFF05B030BD00BF00100040360900013F
:1015F00008B50121064809F0F3F840B1012104487B
:1016000009F0F9F8034AD36883F48053D36008BD26
:10161000001000400008014013B50A4C01210420CD
:1016200008F08EFD084B204601A9019308F08CFBC1
:101630004FF48051204608F0E5FBFFF7A9FF02B008
:1016400010BD00BF000801400010031008B5FFF7EF
:10165000E3FF0121264808F090FF642007F01EF9FF
:101660000021234808F089FF642007F017F90121C1
:101670001F4808F082FF642007F010F900211C4881
:1016800008F07BFF642007F009F90121184808F0F1
:1016900074FF642007F002F90021154808F06DFF7F
:1016A0004FF48051134808F0ADFB642007F0F6F8C2
:1016B000114C0F4D0F4E23781BB9142007F0EEF894
:1016C000F9E70121284608F058FF642007F0E6F802
:1016D0000021284608F051FF4FF48051304608F0B1
:1016E00091FB642007F0DAF8002332202370E5E74D
:1016F00000100040000801408F0600202DE9F04353
:10170000804689B00E460820012117461D46204C10
:1017100008F016FD01214FF0007008F01DFD1D4B73
:10172000694620464FF48079009308F00DFB48236A
:101730002046002469468DF80330ADF8009008F08B
:1017400003FB01214FF4EA1008F05EFB9DF84030E6
:1017500001A911488DF80630ADF80A40CDF80C907B
:101760008DF807808DF808708DF80960ADF8045089
:1017700007F0EAFF40F2011304A8CDE904440694FF
:10178000ADF81C3008F04AF8204609B0BDE8F083F7
:10179000000C01400002031800640040F0B5122361
:1017A000002487B00A468DF80E1001460DF10F0097
:1017B000CDE90133ADF80C400CF0C9F90C4801A992
:1017C00008F09EF806460A4F31463846A5B208F0A2
:1017D000E9F830B90134B4F5805FF5D1012007B0E4
:1017E000F0BD40F6FF73EB1A58425841F7E700BFCF
:1017F0000064004010B50446042007F003FF0A4BC4
:1018000001221C604FF47A735C43084B1A804FF03E
:10181000E0231A6942F002021A615C611A6942F01F
:1018200001021A6110BD00BF94060020900600203E
:1018300070B50B4B4FF0E0241B68656958430023DB
:10184000A169A2699142FCD095BFAE1A5B189B19A1
:101850009B1A98BF5B18834200D370BD1146F0E716
:101860009406002038B5044607F08CF901280DD005
:101870000A4D2888A04203D8B4FBF0F007F00EF818
:101880002B88B4FBF3F203FB1244A4B24FF47A703A
:101890006043BDE83840FFF7CBBF00BF9006002093
:1018A0000023F0B585B003932A4B01A81A7A596832
:1018B0008DF808209A7801918DF80920DA689B89C3
:1018C0000A21ADF80A30130C120E8DF80C308DF889
:1018D0000D2009F061FFADF80E0008F0A9F93420E1
:1018E00008F0BAF901AC1C4808F0E2F926461A4F94
:1018F0001A4D042811D1B37872781B0443EA0223ED
:101900003278F1781343384643EA0161043708F02E
:10191000EFF9AF4206F10406EBD108F095F90E4A53
:10192000A37861781B0443EA0123217852F8040B61
:101930000B43E178AA4243EA016306D0984204F1DE
:101940000404EDD0002005B0F0BDC31A5842584140
:10195000F9E700BFB06D002000F803080CF8030899
:1019600030B5002585B0CDE901551A4B0395D3F864
:1019700000280A210192D3F8042801A80292D3F882
:101980000838154C039309F007FF9DF80E20C3B2E9
:101990009A4205D19DF80F30C0F30F2083420AD040
:1019A0000E480BF0FDFE0E4B0FCB84E80F00FFF747
:1019B00077FF05B030BD9DF80830019A23729DF87D
:1019C00009306260A3709DF80D30E5701B06E3607E
:1019D000EFE700BF00F00308B06D00208811010898
:1019E0005004002008B500F0E7F9012008BD30B52B
:1019F000FF2A8BB004460E9D0AD10122009505A84E
:101A000000F0DCF9204605A900F0F6F90BB030BD76
:101A1000CDE90135012305A800931346002200F00B
:101A2000DBF9EFE707B500930123FFF7E0FF03B011
:101A30005DF804FB30B514468BB0FF2C05460E98BC
:101A40000AD10090002205A800F0B8F9284605A99F
:101A500000F0D2F90BB030BD0022CDE90130009288
:101A6000234605A800F0B8F9F0E71FB58DF80F3050
:101A70000DF10F0300930123FFF7DCFF05B05DF8C4
:101A800004FB2DE9F743984601249DF828900DF1B9
:101A9000070305460E46174604FA08F4FFF7C2FF8F
:101AA0009DF80730B9F1000F0BD02343DBB23A4663
:101AB000314628468DF80730FFF7D7FF03B0BDE861
:101AC000F08323EA0403F2E72DE9F3411C460DF10C
:101AD000070305460E4617469DF82080FFF7A2FF34
:101AE000C0B1A4EB080301249DF8242004FA08F4F3
:101AF0000133013C9C409A409DF80730D2B222400D
:101B000023EA0403134331463A4628468DF807304A
:101B1000FFF7ABFF02B0BDE8F08110B504460368E3
:101B20000021186C08F002F82368986C08F02AF875
:101B300023680021186808F031FA2368002118682A
:101B400008F038FA23680022BDE810400A21186C1A
:101B500007F0F7BF002307B501930A4B01A9186AE4
:101B600006F054FA019B4BB14FF0E0234FF0805246
:101B7000C3F8042DBFF34F8FBFF36F8F03B05DF831
:101B800004FB00BF0000002040F20121054B1A6851
:101B9000126811801B6800224FF4C061186808F0B9
:101BA00021BA00BF00000020002342F20F7282B071
:101BB00001930193019B934201D902B07047019BAD
:101BC00001330193F6E700002DE9F0430446036872
:101BD00089B0586A012108F0B3FA236801215869D5
:101BE00008F0AEFA23680121586808F0B5FA02A897
:101BF00008F0F9F841F20343ADF80A30236802A96E
:101C0000DA699869ADF8082008F09EF8236802A9FF
:101C1000DA6A986AADF8082008F096F823689F6A97
:101C2000B3F82C80384641469D699E8B08F0E8F851
:101C30004146384608F0DEF83146002800F09A8028
:101C4000284608F0DDF841463846FFF7ADFF08F0BA
:101C5000D9F841463846FFF7A7FF08F0D3F84146C8
:101C60003846FFF7A1FF08F0CBF83146284608F0C8
:101C7000C7F8DFF838913146284608F0BBF810B9AC
:101C8000B9F10109F7D1494D4146384608F0B2F89B
:101C900008B9013DF8D11C238DF80B30236802A947
:101CA000DA699869ADF8082008F04EF8236802A9AF
:101CB000DA6A986AADF8082008F046F82368072722
:101CC000186808F0E7F83A4A3A4B4FF48076CDE9C5
:101CD00005234FF48043ADF81C30236804A91A692A
:101CE00000250492186808F0EFF8236801224FF4E9
:101CF0008071186808F076F9236801A89B688DF850
:101D000005708DF80430ADF8066007F049FC2368D3
:101D100001A8DB688DF8043007F042FC236801213C
:101D2000986B08F001FA226803A81368C4E90B5500
:101D30001033A3628023C4E90F354FF40053C4E984
:101D40000D55C4E91155E364536C8DF80D708DF891
:101D50000C30ADF80E6007F023FC03222946012069
:101D600005F0F6FF2062012006F0D4F8606209B0A9
:101D7000BDE8F083284608F043F8DFF8309031469C
:101D8000284608F037F810B9B9F10109F7D1314602
:101D90002846FFF709FF08F035F831462846FFF7D7
:101DA00003FF08F02DF8FFF7FFFE41E7A1860100D1
:101DB0000000FFBF30000004FFF706BF0360009B78
:101DC000017182714FF6FF710022036102230273D9
:101DD000C181C27143717047C381019B017103606E
:101DE0000023C371029B9DF80010036102238171DF
:101DF000027343717047000038B500230D46044656
:101E000019464FF0FF32406A06F05AF92946231D61
:101E100005F1140251F8040B914243F8040BF9D177
:101E2000A57A012D0ED12146636863636369E3627D
:101E300051F8283B186C07F05BFE23682946186CA4
:101E400007F074FE2368002218684FF4806108F0E0
:101E5000C9F82368012218684FF4007108F0C2F82D
:101E600040F2011223681B681A8000234FF47A7233
:101E70001946206A06F024F901280BD1E57AB5FA53
:101E800085F56D090023606A1A46194605F088FF3A
:101E9000284638BD2046FFF740FE2046FFF794FE57
:101EA00002480BF0E3FC0025ECE700BFEB11010852
:101EB00010B5204C20492368186808F0AAF870B1C2
:101EC000637A5A1E6272002B2CD040F201122368F2
:101ED0001B681A8023681849186808F0B4F823684A
:101EE0001649186808F095F820B123681349186856
:101EF00008F0A9F823681249186808F08AF820B198
:101F000023680F49186808F09EF823680D4918687F
:101F100008F07FF868B123680A491868BDE81040E6
:101F200008F091B80123E372FFF714FEFFF72CFECF
:101F3000D0E710BD000000200004001000010010D8
:101F40000008001000020010F8B55C4C25682868F5
:101F5000818A8BB211F001011ED00023A361A37A04
:101F600023B14FF6FF73628A9A4209D00022217A88
:101F70002868490001F0FE01BDE8F84008F040B8CB
:101F80000121286808F022F8217A236849000122FB
:101F9000186801F0FE01EFE79E0741D5A27A638A37
:101FA0001AB14FF6FF72934219D0028B4FF6FF72AF
:101FB00093420CD0227C82B1190A08F01CF82368E5
:101FC000A17C186808F017F84FF6FF7363820122AE
:101FD00023684FF4806118685DE0D9B2F2E7636866
:101FE000012B19D107F0F2FF2368002218684FF483
:101FF000C06107F0F7FF23680122186C0A2107F07F
:10200000A0FD23680121186807F0C8FFBFF35F8FA8
:1020100023681B681B8BF8BD012107F0CBFFE3E7AA
:1020200013F004061ED0038B5D070BD5A37A012B9A
:1020300013D140F20113038023681A681388D9056D
:10204000FCD4E8E7D4E905656B1CA36107F0D5FF74
:102050007055A26963689A42EED1FFF77BFDFFF7E6
:1020600093FDE9E713F040050DD0D4E905756B1C2D
:10207000A36107F0C2FF7855A26963689A42CAD18A
:1020800032462368A5E71B06C5D5A37A012B06D1E6
:102090002A464FF48061BDE8F84007F0A3BFD4E9B9
:1020A0000523591CA161D15C07F0A5FFA2696368F3
:1020B0009A42B0D12A4623688BE700BF0000002077
:1020C00010B50F4C2368986C07F044FD30B12046E2
:1020D000FFF723FDFFF73EFDFFF756FD2368D86CA1
:1020E00007F038FD58B12368D86C07F04BFD012389
:1020F000E372FFF72FFDBDE81040FFF745BD10BDAF
:1021000000000020034600223C210148FFF7ADBC3F
:102110000000002008B54FF4FA70FFF7A3FB4FF45E
:10212000FA70FFF79FFBAE20FFF7ECFF2020FFF7D0
:10213000E9FF1020FFF7E6FFB020FFF7E3FFC8201C
:10214000FFF7E0FF0020FFF7DDFF1020FFF7DAFFC9
:102150004020FFF7D7FF8120FFF7D4FFFF20FFF7D4
:10216000D1FFA120FFF7CEFFA620FFF7CBFFA820CD
:10217000FFF7C8FF3F20FFF7C5FFA420FFF7C2FF0E
:10218000D320FFF7BFFF0020FFF7BCFFD520FFF7EC
:10219000B9FFF020FFF7B6FFD920FFF7B3FF2220E9
:1021A000FFF7B0FFDA20FFF7ADFF1220FFF7AAFF1D
:1021B000DB20FFF7A7FF2020FFF7A4FF8D20FFF70C
:1021C000A1FF1420FFF79EFFBDE80840AF20FFF7F6
:1021D00099BF10B50446A1F15000C0B2FFF792FFBD
:1021E000200940F01000FFF78DFF04F00F00BDE85C
:1021F0001040FFF787BF0000002130B5A3B07C225C
:1022000003A80291B0240BF031FC0C4D2046FFF7DF
:1022100079FF0020FFF776FF1020FFF773FF0134EE
:1022200002AB0093402280233C212846E4B2FFF712
:1022300001FCB82CEAD123B030BD00BF0000002063
:10224000012B2DE9F74F04460D46174622D0022BED
:1022500059D003B0BDE8F08F7E2C82BF0024013539
:10226000EDB22046203B2946DEB2FFF7B2FF06233F
:1022700003FB069640223C2150460096FFF7DAFB0E
:102280000634E4B208F101085FFA88F3FB5C002B26
:10229000E2D1DEE74FF00008DFF87890DFF878A0B1
:1022A000F2E7782C84BF00240135A6F1200688BF10
:1022B000EDB2F6B2204629464FEA061B09EB061698
:1022C000FFF787FF082340223C2150460096FFF786
:1022D000B1FB691C2046C9B20BF1080BFFF779FF6F
:1022E00009EB0B030093402208233C215046FFF7E3
:1022F000A1FB0834E4B208F101085FFA88F3FE5C40
:10230000002ECED1A5E74FF00008DFF81090DFF8DF
:1023100008A0F2E74013010800000020681501083A
:102320002DE9F34107460C461D46089EDFF828803C
:10233000AC4202D302B0BDE8F08121463846FFF737
:1023400048FF01340096802340223C214046FFF79D
:1023500071FBE4B28036EBE70000002010B52B4C97
:102360009EB06068FEF7D0F802460B4605A82849E3
:102370000BF084FA002105AA01230846FFF760FF4D
:102380002068FEF7C1F802460B46684621490BF06B
:1023900075FA01236A4619460020FFF751FF1E4BCC
:1023A0001E491A880AA80BF069FA0AAA0123022119
:1023B0000020FFF745FF1A4B1A4C1A881A490FA83C
:1023C0000BF05CFA01230FAA03210020FFF738FF6E
:1023D000B4F90020154914A80BF050FA012314AAEF
:1023E00004210020FFF72CFFB4F90220104919A89E
:1023F0000BF044FA0123052119AA0020FFF720FF62
:10240000322006F04BFA1EB010BD00BF7C06002043
:10241000AD120108C1120108D4060020D51201082E
:10242000DA0600209C060020E5120108F5120108DA
:10243000041301082DE9F041554EADF5A15D84B0BE
:102440003378052B0AD0FFF765FE524C3378042B06
:10245000FDD8DFE803F0074170949800322006F0C1
:102460001DFAEDE74C4901220DF20C4004F0FCFC92
:1024700005464FF420310DF20C4004F0A4FE1DBBC4
:102480004FF4897745480BF0F1F904AB0DF10808DA
:102490001D1F013F08D10DF20C4004F089FEFFF72B
:1024A000ABFE04233370D1E7434629464FF48062E4
:1024B0000DF20C4004F07AFD00210823802208462A
:1024C0000095FFF72DFFE4E7E368354883F010033C
:1024D000E3600BF0CBF9DEE701222F490DF20C404F
:1024E00004F0C2FCF8B9A1272C480BF0BFF904ABEB
:1024F0000DF108081D1F013F05D10DF20C4004F03D
:1025000057FE0323CEE7434629464FF480620DF27F
:102510000C4004F04BFD0021082380220846009562
:10252000FFF7FEFEE7E7E3681D4883F01003E36072
:102530000BF09CF9E1E7184901220DF20C4004F080
:1025400093FC05464FF4D9210DF20C4004F03BFEFC
:10255000002DE8D111480BF089F903AF04AB3946DF
:102560004FF48062083B0DF20C4004F01FFD08237D
:102570008022294628460097FFF7D2FEBDE7642057
:1025800006F08CF962E7FFF7E9FE3220F8E700BFBA
:10259000800000200010014075120108131301088B
:1025A0002A13010807B50121082007F0C9FD044BD3
:1025B000044801A9019307F0C7FB03B05DF804FBD1
:1025C00004000328000C014007B50121102007F08A
:1025D000B7FD044B044801A9019307F0B5FB03B014
:1025E0005DF804FB020003480010014013B5084CDD
:1025F0000121102007F0A4FD064B204601A90193FC
:1026000007F0A2FB1021204607F0FAFB02B010BD34
:10261000001001401000031030B5012189B040F6D0
:10262000040007F08DFD1A4B69461A4800250093F7
:1026300007F08AFB47224FF47A73174C01A9204612
:10264000CDE901238DF80C5007F046FE134B2046D0
:1026500004A90493ADF81850ADF8165007F086FEA3
:102660002046082107F0CBFF204604A9ADF81650FC
:1026700007F03EFF2046082107F0DBFF204601213E
:1026800007F07BFF0121204607F083FF09B030BD32
:102690000009031800080140002C014060000100FF
:1026A00010B5012188B0042007F04AFD1C4B694693
:1026B0001C48009307F048FB0121084607F04CFD39
:1026C000002447224FF47A7301A94FF08040CDE9EE
:1026D00001238DF80C4007F0FFFD134B04A94FF0C8
:1026E00080400493ADF81840ADF8164007F0C2FEE4
:1026F00008214FF0804007F094FF04A94FF080407C
:10270000ADF8164007F0F4FE08214FF0804007F0C6
:1027100090FF01214FF0804007F02FFF08B010BD5F
:102720000C000318000801406000010070B5012191
:1027300088B0082007F010FD0121052007F000FDFA
:10274000042303260DEB03011B488DF80730ADF879
:10275000046007F0F9FA02A807F0FEFE00254FF624
:10276000FF73164C02A92046CDE9025307F0B4FDD1
:102770002A462B463146204607F022FF05A807F0DF
:10278000F4FE0A23204605A9ADF81C3007F08EFFA1
:102790002046012108F020F801222046114607F0CA
:1027A00006FF2946204607F04EFF0121204607F08C
:1027B000E4FE08B070BD00BF00080140000C0040FE
:1027C00030B5012189B0042007F0C6FC01210920A1
:1027D00007F0B6FCC023ADF8043004231B480DEB12
:1027E00003018DF8073007F0AFFA02A807F0B4FE36
:1027F00000254FF6FF73164C02A92046CDE902537F
:1028000007F06AFD2A462B460321204607F0D8FE32
:1028100005A807F0AAFE0A23204605A9ADF81C303A
:1028200007F044FF2046012107F0D6FF0122204691
:10283000114607F0BCFE2946204607F004FF01219F
:10284000204607F09AFE09B030BD00BF000C0140E1
:102850000008004008B50121054807F0C1FF28B174
:10286000BDE808400121024807F0C5BF08BD00BF10
:10287000000C004008B50121054807F0B1FF28B160
:10288000BDE808400121024807F0B5BF08BD00BF00
:1028900000080040002205480549838C5B428B817B
:1028A000044B8284988CC8819A847047000C004045
:1028B0009C06002000080040B0F57A7F0B4B0BDC33
:1028C00010F57A7F10DB002808DA0022404280B23F
:1028D0009A86A3F8400070474FF47A70002280B2C5
:1028E0009886A3F8402070470148EEE7002C01408D
:1028F00018FCFFFFB0F57A7F0DDC10F57A7F14DB52
:1029000000280ADA4FF080430022404280B29887C4
:10291000A3F8402070474FF47A704FF080430022B4
:1029200080B29A87A3F8400070470148EAE700BFE9
:1029300018FCFFFF08B5FFF76FFEFFF7B1FE0020A0
:10294000FFF7BAFF0020FFF7D5FFFFF7EFFEBDE866
:102950000840FFF735BF00004FF47A72024B9A86A9
:10296000A3F84020704700BF002C01404FF0804387
:102970004FF47A729A87A3F8402070470000000055
:10298000F8B52D4CA388980B4FEA933204D12080E0
:10299000BDE8F840FFF790BF032805D1002323804E
:1029A000BDE8F840FFF7D8BF012AC3F30D000CBF04
:1029B00001254FF0FF35FDF795FD1BA3D3E900235B
:1029C000FDF724FF1AA3D3E90023FDF7F5FD064622
:1029D00028460F46FDF786FD02460B46304639462F
:1029E000FDF7EAFD0022154BFDF710FFFEF794F806
:1029F000A3891349C21A0B8892B2C3EB033003EBCD
:102A0000001023880A80184402EB820300EB830045
:102A10000C4B00B29842B8BF1846B0F57A7FA8BFF9
:102A20004FF47A702080B3E7A11B924183866940FE
:102A30000000000000A074409C06002000004940F7
:102A40009806002018FCFFFFF8B52D4CE388980B82
:102A50004FEA933204D16080BDE8F840FFF74ABFE7
:102A6000032805D100236380BDE8F840FFF77EBF4F
:102A7000012AC3F30D000CBF01254FF0FF35FDF710
:102A800031FD1BA3D3E90023FDF7C0FE1AA3D3E950
:102A90000023FDF791FD064628460F46FDF722FD6F
:102AA00002460B4630463946FDF786FD0022154B9F
:102AB000FDF7ACFEFEF730F8E3891349C21A0B8824
:102AC00092B2C3EB033003EB001063880A80184412
:102AD00002EB820300EB83000C4B00B29842B8BFBC
:102AE0001846B0F57A7FA8BF4FF47A706080B3E7DC
:102AF000A11B9241838669400000000000A0744041
:102B00009C060020000049409A06002018FCFFFFA8
:102B1000322010B5264CB4F90C305843FEF74EF96C
:102B20002449FEF753FAFDF7EFFC1FA3D3E9002376
:102B3000FDF742FDFDF7F0FF00B200281FDDC0F3F6
:102B40000D0040F4804020813220B4F90E3058430B
:102B5000FEF734F91749FEF739FAFDF7D5FC12A351
:102B6000D3E90023FDF728FDFDF7D6FF00B20028CA
:102B70000EDDC0F30D0040F48040608110BD0DBF3C
:102B8000A088C0F30D0040F4004000F44040DAE7B4
:102B90000DBFE088C0F30D0040F4004000F4404059
:102BA000EBE700BFAFF30080A11B92418386694031
:102BB0009C0600200000A54308B5304E3378042B56
:102BC00016D1FFF7B7FE2E4D2E4C3378052B01D0D2
:102BD000012B11D80020FFF76FFE0020FFF78AFEBF
:102BE000322005F05BFE08212748FEF7D7FDECE711
:102BF000642005F053FEE1E7FFF74CFEFFF788FF86
:102C000008F044F948B3B5F90000FFF755FEB5F9EF
:102C10000200FFF76FFE0120218800F0AFFE0220C6
:102C2000618800F0ABFE0320A18800F0A7FE04201D
:102C3000E18800F0A3FE0520218900F09FFE062018
:102C4000618900F09BFE0720A18900F097FE082013
:102C5000E18900F093FE1420C3E701F0ADFA0146CC
:102C600020B1FFF78DFEFFF7EFFED4E72860FFF7F6
:102C700023FE0846FFF73EFEEDE700BF8000002080
:102C80009C0600208200002080040020054B1A785A
:102C900032B96821044A1060044A117001221A7086
:102CA000704700BFCB060020B8060020CA060020EF
:102CB000034603490348192209780068FEF7D5BE88
:102CC000CA060020B8060020032307B50649019074
:102CD000064800931A22002309780068FEF7F4FEE4
:102CE00003B05DF804FB00BFCA060020B806002050
:102CF000022307B506490190064800931B220423CE
:102D000009780068FEF7E0FE03B05DF804FB00BF41
:102D1000CA060020B8060020022307B50649019024
:102D2000064800931C22042309780068FEF7CCFEB5
:102D300003B05DF804FB00BFCA060020B8060020FF
:102D4000032307B506490190064800931D2200237E
:102D500009780068FEF7B8FE03B05DF804FB00BF19
:102D6000CA060020B806002007B5064900900648AC
:102D70000623242209780068FEF783FE03B05DF87D
:102D800004FB00BFCA060020B806002007B50649AC
:102D9000009006480423242209780068FEF771FE9B
:102DA00003B05DF804FB00BFCA060020B80600208F
:102DB000042307B506490190064800932422032303
:102DC00009780068FEF780FE03B05DF804FB00BFE1
:102DD000CA060020B806002003280B460AD800EBDC
:102DE000400000F125020449044809780068D2B285
:102DF000FEF73BBE704700BFCA060020B8060020A1
:102E000003280B460AD800EB400000F126020449D3
:102E1000044809780068D2B2FEF727BE704700BFA9
:102E2000CA060020B8060020032807B50CD800EB1E
:102E30004000009100F12702054906480723097860
:102E40000068D2B2FEF71DFE03B05DF804FB00BFC0
:102E5000CA060020B8060020032807B50ED80423B0
:102E600000EB4000019100F127020649064800935B
:102E7000097803230068D2B2FEF726FE03B05DF89E
:102E800004FB00BFCA060020B8060020052307B5D2
:102E9000064901900648009334220423097800680B
:102EA000FEF712FE03B05DF804FB00BFCA06002067
:102EB000B806002007B506490090064807233722C8
:102EC00009780068FEF7DDFD03B05DF804FB00BF84
:102ED000CA060020B806002007B50649009006483B
:102EE0000623372209780068FEF7CBFD03B05DF8B2
:102EF00004FB00BFCA060020B806002007B506493B
:102F0000009006480523372209780068FEF7B9FDCE
:102F100003B05DF804FB00BFCA060020B80600201D
:102F200007B506490090064804233722097800684F
:102F3000FEF7A7FD03B05DF804FB00BFCA06002042
:102F4000B806002007B5064900900648012337223D
:102F500009780068FEF795FD03B05DF804FB00BF3B
:102F6000CA060020B8060020034603490348382259
:102F700009780068FEF779BDCA060020B80600206F
:102F800007B50649009006480023382209780068F2
:102F9000FEF777FD03B05DF804FB00BFCA06002012
:102FA000B806002007B50346009105480549672289
:102FB00009780068FEF765FD03B05DF804FB00BF0B
:102FC000B8060020CA06002007B50649009006484A
:102FD00005236A2209780068FEF753FD03B05DF807
:102FE00004FB00BFCA060020B8060020012307B575
:102FF0000549064800936B22072309780068FEF70D
:1030000040FD03B05DF804FBCA060020B8060020AE
:1030100007B506490090064806236B220978006828
:10302000FEF72FFD03B05DF804FB00BFCA060020C9
:10303000B806002007B580F0010000900549064859
:1030400003236B2209780068FEF71BFD03B05DF8CF
:1030500004FB00BFCA060020B8060020032307B502
:1030600006490190064800936B2202230978006804
:10307000FEF72AFD03B05DF804FB00BFCA0600207E
:10308000B806002010B50549054C064823467522B0
:1030900009780068FEF7C6FC207810BDCA0600203B
:1030A000BC060020B80600202DE9F04320254FF093
:1030B00010084FF400478BB001210D2007F040F8B5
:1030C0000121324806F0A0FE0121102007F038F857
:1030D00001214FF4004007F03FF82D4C2D4B2E4EB0
:1030E00002A92E48029306F02FFE204602A98DF871
:1030F0000B80ADF8085006F027FE304602A94FF4C9
:103100000059ADF8087006F01FFE4823204602A9BA
:103110008DF80B30ADF8089006F016FE0D21022058
:1031200006F0A2FE4FF44063CDF80C904FF0010979
:1031300003A8ADF810308DF8129006F025FD184B5D
:1031400001A8019306F02CFA4FF082720023CDE91A
:1031500005234FF00073CDE907380723DFF84480DB
:1031600005A94046ADF8243007F00EF84946404620
:1031700007F029F83946304606F042FE2946204637
:1031800006F040FE0BB0BDE8F08300BF0002300047
:10319000001001403800031800080140000C0140F5
:1031A00028060001003C0040014610B50A4807F01F
:1031B00016F8094C0221204607F016F80028F9D02D
:1031C0000121054807F010F80028F9D0024807F05F
:1031D00008F8C0B210BD00BF003C004070B5044606
:1031E0000A4E0D4630464FF4004106F00BFE44F007
:1031F0002000FFF7D9FF04462846FFF7D5FF3046E9
:103200004FF4004106F0FCFD204670BD000801406F
:1032100038B50446094D4FF40041284606F0F2FD4A
:103220002046FFF7C1FFA520FFF7BEFF04464FF47D
:103230000041284606F0E4FD204638BD0008014064
:1032400070B506460C460C484FF40041154606F092
:10325000D9FD3046FFF7A8FF06462544AC4206D10B
:103260004FF40041044806F0CBFD304670BD14F821
:10327000010BFFF799FFF1E70008014070B5064622
:103280000C460C484FF40041154606F0BBFD304695
:10329000FFF78AFF2544AC4206D1BDE870404FF4E9
:1032A0000041044806F0ACBDFF20FFF77DFF04F8A5
:1032B000010BF0E70008014070B504460D46084ECA
:1032C0002021304606F09EFD21462A46A820FFF721
:1032D000B7FF3046BDE87040202106F091BD00BF29
:1032E00000100140032110B504460846FFF776FFA1
:1032F000214605222A20FFF7A3FF2146BDE8104002
:1033000005223020FFF79CBF7D28014602D805200A
:10331000FFF764BF704710B504460620FFF778FF3B
:1033200000F0D70134B1022C07D0BDE810400620D0
:10333000FFF754BF41F02001F7E741F00801F4E73F
:1033400010B504460620FFF763FF022C00F0F801D9
:103350000AD0032C0BD0012C01D141F00201062030
:10336000BDE81040FFF73ABF41F00401F7E741F034
:103370000701F4E710B50620FFF74AFF04460420D2
:10338000FFF746FFA30654BF40F0100140F0500184
:10339000C9B20420BDE81040FFF720BF38B5214D69
:1033A0000446FFF781FE2048FFF79CFFA878FFF74F
:1033B000ABFFE878FFF7AFFF0320FFF7C1FFFFF790
:1033C000D9FF0420FFF724FF40F00301C9B2042015
:1033D000FFF704FF012C19D10F210020FFF7FEFE9B
:1033E00021461C20FFF7FAFE06211D20FFF7F6FEFE
:1033F00021462046FFF7F2FEFF21E120FFF7EEFE17
:10340000BDE83840FF21E220FFF7E8BE0E21002092
:10341000FFF7E4FE01211C20FFF7E0FE06211D203E
:10342000E8E700BFB06D0020B46D00201FB5124B5F
:1034300018681B7900908DF80430FFF735FE0522DF
:1034400069463020FFF7FCFE052202A91020FFF795
:1034500015FF6B46052202A913F8014B11F8010B69
:10346000844206D1013A12F0FF02F5D1012004B0E6
:1034700010BD0020FBE700BF581B010838B505460A
:103480006020FFF7C5FE431EDBB21F2B044612D897
:1034900020210A4806F0B6FC294661202246FFF7A3
:1034A000EDFE2021054806F0ABFCFF21E220FFF7EE
:1034B00095FE204638BD0024F7E700BF001001400C
:1034C00038B5002305460B7007200C46FFF7A0FE19
:1034D000C2060DD5FF21E120FFF780FE01247021F7
:1034E0000720FFF77BFE0720FFF792FE204638BD3E
:1034F000430605D52846FFF7C1FF20700324EEE7F9
:10350000C0F340104400EAE7014B1860704700BF69
:10351000CC0600204FF4005008B506F075FB0128DA
:1035200009D1054B1B6803B19847BDE808404FF42B
:10353000005006F077BB08BDCC06002013B5094C3F
:103540000121102006F0FCFD074B204601A9019344
:1035500006F0FAFB4FF40041204606F053FC02B09F
:1035600010BD00BF001001400080021013B5094CCF
:103570000121102006F0E4FD074B204601A901932C
:1035800006F0E2FB4FF48041204606F03BFC02B01F
:1035900010BD00BF001001400040021007B501211E
:1035A000102006F0CDFD044B044801A9019306F05C
:1035B000CBFB03B05DF804FB0100031000100140D9
:1035C0002DE98848FFF7BAFFFFF7D0FFFFF7E6FFC6
:1035D000FEF7FAFF764C4FF47A7005F05FF902219E
:1035E000204606F007FC0028F5D100F180400121BB
:1035F00000F5883006F004FC4FF400416C4806F0FA
:10360000FFFB4FF480416A4806F0FAFB684C022148
:10361000204606F0EFFB60B3DFF8988198F80030A1
:103620005BB30FF26C1BDBE900AB4FF06655022178
:103630005F4806F0DFFB20BB40F2DC5005F02EF9BE
:1036400002215B4806F0D6FB0028F0D1012341F2AD
:10365000707088F8003005F021F9554C02212046A1
:1036600006F0C8FB0028F9D00121514806F0CAFB3A
:10367000DDE7642005F012F9C9E7642005F00EF9D2
:10368000CCE74D4B1B78002B65D14FF400414848E7
:1036900006F0B8FB4FF48041454806F0B3FBDFF875
:1036A0001C91474CB9F8000080B2FDF783FB294616
:1036B000FDF7D8FBFCF728FF52465B46FCF77CFF82
:1036C0000022404BFCF778FF33A3D3E90023FCF73B
:1036D00073FF064620680F46FCF716FF30A3D3E9B8
:1036E0000023FCF769FF02460B4630463946FCF7DB
:1036F000ADFDFDF759FA2060B9F8020080B2FDF780
:1037000059FB2946FDF7AEFBFCF7FEFE52465B4631
:10371000FCF752FF24A3D3E90023FCF74DFF1EA3BF
:10372000D3E90023FCF748FF064660680F46FCF724
:10373000EBFE1BA3D3E90023FCF73EFF02460B463A
:1037400030463946FCF782FDFDF72EFA6060142002
:1037500005F0A4F86BE7012B05D14FF400411448A4
:1037600006F04EFB96E7022B0AD14FF400411048B9
:1037700006F048FB4FF480410D4806F041FB8EE710
:10378000032B8CD14FF40041094806F039FBF1E7D7
:103790006666666666660A409A9999999999C93FDC
:1037A0009A9999999999E93FCFF753E3A59B3440AA
:1037B0000010014080000020D00600207806002084
:1037C0007C0600200000264030B5012189B004208D
:1037D00006F0B6FC2A4B69462A48009306F0B4FA74
:1037E0000121082006F0ACFC274B694627480093CE
:1037F00006F0AAFA0121022006F0AEFC00254722BD
:1038000044F62063224C01A92046CDE901238DF81E
:103810000C5006F061FDADF8185040F2DC551D4B20
:10382000204604A90493ADF8165006F09FFD2046EB
:10383000082106F0E4FE204604A9ADF8165006F073
:10384000D9FD2046082106F0E2FE204604A9ADF885
:10385000165006F00FFE2046082106F0E2FE204634
:1038600004A9ADF8165006F043FE2046082106F0E4
:10387000E0FE0121204606F080FE09B030BD00BF09
:10388000C00003180008014003000318000C0140A9
:10389000000400406000010030B5012189B042F20F
:1038A000100006F04DFC254B694625480025009385
:1038B00006F04AFA472244F62063224C01A920462A
:1038C000CDE901238DF80C5006F006FDADF8185037
:1038D00040F2DC551C4B204604A90493ADF8165069
:1038E00006F044FD2046082106F089FE204604A982
:1038F000ADF8165006F07EFD2046082106F087FE42
:10390000204604A9ADF8165006F0B4FD2046082163
:1039100006F087FE204604A9ADF8165006F0E8FD33
:103920002046082106F085FE2046012106F025FEEE
:103930000121204606F02DFE09B030BDC00303185A
:1039400000100140003401406000010008B5FFF79D
:103950003BFFBDE80840FFF79FBF000008B50549E1
:10396000FDF780FA0449FDF775F9FDF767FC80B2B1
:1039700008BD00BF0000FA440000FA4308281BD825
:10398000A1F5FA73B3F5FA6F16D8042884BF04388A
:10399000C0B200F1FF308CBF084B094B03280BD895
:1039A000DFE800F00204060899867047198770471F
:1039B00099877047A3F84010704700BF003401405A
:1039C0000004004070B54FF07E5506680446294655
:1039D0003046FDF703FC08B1256006E000253046BF
:1039E0002946FDF7DDFB0028F6D170BD10B5012199
:1039F00086B04FF4804006F0AFFB224C01214CF220
:103A0000080006F09DFB204B69462046009306F017
:103A10009BF94FF40053ADF8003018236946204657
:103A20008DF8033006F090F94FF480436946204644
:103A3000ADF8003006F088F94FF40043694620469F
:103A4000ADF8003006F080F920464FF4805106F0C2
:103A5000D7F94FF082724FF40033CDE901230023F0
:103A60000A49A4F55444CDE903130723204601A9CC
:103A7000ADF8143006F088FB0121204606F0A3FBC8
:103A800006B010BD000C0140001003100100000240
:103A9000F8B54FF480530646164D174F2B600221A0
:103AA000384606F0A1FB044690B13146124806F0B4
:103AB00096FB4FF48053104E2B600121304606F0E8
:103AC00093FB044678B10C4806F08BFBC4B208E0C7
:103AD0002B685A1E2A60002BE1D12146074809F0C5
:103AE0005FFE2046F8BD2B685A1E2A60002BE4D1E9
:103AF0000121F3E794000020003800405E1B01081C
:103B000070B50E4604464FF480511148154606F034
:103B100079F90320FFF7BCFFC6F30740FFF7B8FFB2
:103B2000C6F30720FFF7B4FFF0B2FFF7B1FF25445B
:103B3000AC4206D1BDE870404FF48051044806F015
:103B40005FB9FF20FFF7A4FF04F8010BF0E700BF07
:103B5000000C0140F8B5104F4FF48051384606F084
:103B600051F99F20FFF794FFFF20FFF791FF0646D2
:103B7000FF20FFF78DFF0446FF20FFF789FF054672
:103B8000240238464FF4805144EA064406F038F9DE
:103B900044EA0500F8BD00BF000C014010B5084C18
:103BA0004FF48051204606F02DF90620FFF770FFF4
:103BB0002046BDE810404FF4805106F021B900BF07
:103BC000000C01400A484FF4805108B506F01AF97C
:103BD0000520FFF75DFFFF20FFF75AFFC307FAD468
:103BE000BDE808404FF48051014806F009B900BF14
:103BF000000C014038B50446104DFFF7CFFFFFF72A
:103C0000E1FF4FF48051284606F0FCF82020FFF732
:103C10003FFFC4F30740FFF73BFFC4F30720FFF764
:103C200037FFE0B2FFF734FF28464FF4805106F02B
:103C3000E7F8BDE83840FFF7C5BF00BF000C014002
:103C400070B50E4614460546FFF7A8FF4FF48051A5
:103C5000144806F0D7F80220FFF71AFFC6F3074012
:103C6000FFF716FFC6F30720FFF712FFF0B2FFF7CA
:103C70000FFFB4F5807F04D90B4809F0F7FD4FF42E
:103C800080742C44A54208D14FF48051054806F0B9
:103C9000B7F8BDE87040FFF795BF15F8010BFFF7C7
:103CA000F7FEEFE7000C01408D1B01082DE9F843FA
:103CB00011F0FF03154604460F464FEA12221AD1AF
:103CC0006AB14FEA022800EB0226A1EB0009B442D8
:103CD00004EB090107D1EAB207EB080101E02A462B
:103CE0003946204615E020464FF48072FFF7A8FFC2
:103CF00004F58074EBE75E42F6B272B9EAB296421E
:103D0000EDD21344DDB23246FFF79AFF2A46F1198D
:103D1000A019BDE8F843FFF793BF3246FFF790FFC5
:103D2000AD1B1FFA85F83444374408F47F46EDB2E2
:103D300004EB0608A7EB0409444504EB090103D191
:103D4000B9194DB12A46CCE720464FF48072FFF7EF
:103D500077FF04F58074EFE7BDE8F88310B5084CF1
:103D60004FF48051204606F04DF8AB20FFF790FE4F
:103D70002046BDE810404FF4805106F041B800BF26
:103D8000000C014030B5012189B00446112006F035
:103D9000D7F91E4D01214FF4002006F0DDF91C4B30
:103DA00069462846009305F0CFFF4FF40063ADF855
:103DB00000300423694628468DF80330002505F0BD
:103DC000C3FF4FF440230494124C04A92046CDE9CC
:103DD0000553ADF81C5006F013FD4FF4007302A913
:103DE00020460393029506F05DFD0B4B01A801935D
:103DF00005F0D6FB0122204640F2255106F06EFD6B
:103E00000121204606F05EFD09B030BD00100140E2
:103E100000040318004C00403406000180B5154C26
:103E20008021204606F07BFD0028F9D0552111485D
:103E300006F06DFD0023104C6420237004F02EFD6D
:103E40000E4E0F4F0B4D2378022B09D13846318887
:103E500009F0A6FC8021284606F061FD0028F9D073
:103E60002846552106F053FD00236420237004F0FA
:103E700015FDE8E7004C0040D6060020D4060020DF
:103E8000BE1B010838B540F225511B4806F04DFD18
:103E900090B11A4C237883B9174D2021284606F09B
:103EA0003EFD0028F9D0144806F035FD144B000201
:103EB000188023780133237038BD012B0BD00E4CB2
:103EC0002021204606F02BFD0028F9D0BDE838401F
:103ED000094806F020BD084D2021284606F01FFDA8
:103EE0000028F9D0044806F016FD054B1A88104347
:103EF00080B21880034BDBE7004C0040D606002060
:103F0000D2060020D406002030B5012189B0044635
:103F1000312006F015F901214FF4801006F01CF94C
:103F20001A4B69461A48009305F00EFF04236946B0
:103F300018480025ADF800308DF8033005F004FF77
:103F40004FF440230494144C04A92046CDE90553B2
:103F5000ADF81C5006F054FC4FF4007302A9204643
:103F60000393029506F09EFC0C4B01A8019305F00B
:103F700017FB0122204640F2255106F0AFFC01213B
:103F8000204606F09FFC09B030BD00BF00100318AA
:103F900000100140001401400050004035060001AF
:103FA00080B5154C8021204606F0B9FC0028F9D0D8
:103FB0005521114806F0ABFC0023104C64202370FF
:103FC00004F06CFC0E4E0F4F0B4D2378022B09D1E1
:103FD0003846318809F0E4FB8021284606F09FFC32
:103FE0000028F9D02846552106F091FC00236420D2
:103FF000237004F053FCE8E700500040DC0600208A
:10400000DA060020BE1B010838B540F225511B48D6
:1040100006F08BFC90B11A4C237883B9174D202100
:10402000284606F07CFC0028F9D0144806F073FC02
:10403000144B0002188023780133237038BD012B04
:104040000BD00E4C2021204606F069FC0028F9D048
:10405000BDE83840094806F05EBC084D20212846DE
:1040600006F05DFC0028F9D0044806F054FC054B2E
:104070001A88104380B21880034BDBE700500040E1
:10408000DC060020D8060020DA06002030B5012129
:1040900087B00446194D44F2040006F051F8184B5D
:1040A00069462846009305F04FFE4FF48063ADF853
:1040B00000300423694628468DF8033005F044FE9D
:1040C00000234FF4402202940E4C02A92046CDE971
:1040D0000332ADF8143006F093FB0B4B01A80193AB
:1040E00005F05EFA0122204640F2255106F0F6FB6B
:1040F0000121204606F0E6FB07B030BD0008014074
:1041000000020318003801402506000138B540F2CE
:104110002551254806F009FCA8B1234806F0FBFB11
:10412000224DC0B22B8823B9AA280CD101232B80A1
:1041300009E0012B0AD1AA2806D102234AF6AA22B5
:104140002B801B4B1A8038BD0023F0E7022B184C44
:1041500003D10323A0702B80F5E7032B05D10423A3
:1041600020282B801BD8E070EDE7E278911E8B426F
:1041700002DAE0540133DAE702F1FF3202D1A0841F
:104180002A80E0E793420AD1A38C214643EA002328
:10419000A384002307481A46006803F0CDFE0023DD
:1041A0002B80E370CFE700BF00380140DE0600201F
:1041B000E4060020E0060020014B1878704700BF9D
:1041C000DD06002070B583788AB0112B40D1AD4B4D
:1041D00068460093AC4B6C4659681A7A9B780191FB
:1041E0000A218DF808208DF8093007F0D5FA00254E
:1041F000A64EADF824009DF80330023BAB421ADC1A
:10420000A24C8021204606F08AFB0028F9D0BDF898
:1042100024109E4806F07BFB9C4C8021204606F033
:104220007EFB0028F9D0BDF824109848090A06F052
:104230006EFB0AB070BD8021304606F070FB00288E
:10424000F9D0304614F8011B06F061FB0135D2E7C6
:10425000092B00F00C81123BDAB20F2AE9D80F2BA0
:10426000E7D801A252F823F0A94200082943000828
:104270003342000899430008A34300083342000872
:10428000334200083342000833420008334200083A
:10429000334200086F4400083342000833420008EC
:1042A00033420008574400080279774B6C461A7174
:1042B000427900255A718279744E9A71C279DA7105
:1042C000027A1A72FDF7ECFA714B8DF804000521A1
:1042D0006846009307F060FAADF824009DF80330BB
:1042E000023BAB4213DC694C8021204606F017FBF1
:1042F0000028F9D0BDF82410644806F008FB634C90
:104300008021204606F00BFB0028F9D08BE78021A6
:10431000304606F004FB0028F9D0304614F8011BA3
:1043200006F0F5FA0135D9E70279574B6C469A70D9
:10433000FDF7B6FA574B8DF8040005216846009347
:1043400007F02AFA0025514EADF824009DF80330FD
:10435000023BAB4213DC4D4C8021204606F0DFFAD5
:104360000028F9D0BDF82410484806F0D0FA474C90
:104370008021204606F0D3FA0028F9D053E78021A7
:10438000304606F0CCFA0028F9D0304614F8011B6C
:1043900006F0BDFA0135D9E70AB0BDE8704006F075
:1043A00083BB002482883C4B017E1A80C2888DF832
:1043B00004405A8002896D469A804289334EDA80E1
:1043C00082891A81C2895A81028A9A81428ADA8153
:1043D000828A324B52BA9A80C28A684652BADA80CE
:1043E0002F4A11702F4A00921A895B89110A8DF8A1
:1043F00005108DF806200F211A0A8DF807208DF878
:10440000083007F0C9F9ADF824009DF80330023BED
:10441000A34213DC1D4C8021204606F080FA0028C0
:10442000F9D0BDF82410194806F071FA174C802114
:10443000204606F074FA0028F9D0F4E680213046D0
:1044400006F06DFA0028F9D0304615F8011B06F089
:104450005EFA0134D9E70379134A012B01D11370B5
:10446000E7E6022BFBD0032B18BF0023F7E700235E
:1044700001461A460D4800680AB0BDE8704003F0D6
:104480008FBC00BFAAAA190CB06D002000380140F3
:10449000AAAA1A07AAAA1B07820000209C060020CD
:1044A000D0060020AAAA1E11286E0020CC6D002084
:1044B000F0B5002226210A208BB003F049FC124EF1
:1044C000124D134F30600023C8226946306803F054
:1044D000F7FD0128044614D19DF8031068460239FF
:1044E00089B207F059F9BDF824100246814204D17F
:1044F0006846FFF767FE2C70E5E7384609F050F98B
:10450000E1E700232B70DEE7E0060020DD06002057
:10451000DA1B0108022808B505D909F0F9FA0923C0
:104520000360002008BD0120FCE70020704708B5AB
:1045300009F0EEFA162303604FF0FF3008BD0000CB
:10454000F8B50E4614460025084FABB2A34201DB76
:104550002046F8BD3846F15C06F0D9F9802138468E
:1045600006F0DDF90028F9D00135EEE7003801400A
:10457000F8B50E4614460025084FA54201DB20463B
:10458000F8BD2021054806F0CAF90028F9D03846C0
:1045900006F0C1F970550135EFE700BF0038014062
:1045A000022808B506D909F0B3FA092303604FF0D1
:1045B000FF3008BD0020FCE708B509F0A9FA09237F
:1045C00003604FF0FF3008BD022808B504D84FF44F
:1045D00000534B60002008BD09F09AFA09230360DC
:1045E000F8E7000010B5044645F2555005F030FDDF
:1045F000032005F033FD2046FBF774FF0022074B34
:10460000FBF7DAFFFCF7B0FA80B205F02DFD05F0FC
:1046100031FDBDE8104005F035BD00BF0000F43F9E
:104620002DE9F04F4568D1F808B0066884688BB072
:10463000D1F800A0D1F80490284659460396069573
:104640000994FCF70FFC494607462046FCF70AFC94
:1046500001463846FCF7FCFA514680460290204657
:10466000FCF700FC594607463046FCF7FBFB0146C9
:104670003846FCF7EDFA4946074605903046FCF708
:10468000F1FB514681462846FCF7ECFB01464846C3
:10469000FCF7DEFA3946814608902046FCF7E2FB3B
:1046A000494682462846FCF7DDFB01465046FCF7AA
:1046B000CFFA494601903046FCF7D4FB414681468B
:1046C0002046FCF7CFFB01464846FCF7C1FA4146BD
:1046D00004902846FCF7C6FB394680463046FCF776
:1046E000C1FB01464046FCF7B3FA3146079030461D
:1046F000FCF7B8FB294606462846FCF7B3FB014603
:104700003046FCF7A7FA214605462046FCF7AAFBEF
:1047100001462846FCF79EFA00F098FE01990446EF
:104720000846FCF79FFB049905460846FCF79AFBF0
:1047300001462846FCF78EFA079905460846FCF71D
:1047400091FB01462846FCF785FA00F07FFE0299AE
:1047500006460846FCF786FB059905460846FCF721
:1047600081FB01462846FCF775FA0899054608467C
:10477000FCF778FB01462846FCF76CFA00F066FE71
:10478000314605460198FCF76DFB314601900498CF
:10479000FCF768FB314604900798FCF763FB294659
:1047A00007900298FCF75EFB294602900598FCF7FB
:1047B00059FB294605900898FCF754FB21460890C0
:1047C0000398FCF74FFB214603900698FCF74AFB41
:1047D000214606900998FCF745FB0449099001A879
:1047E00001F050F90BB0BDE8F08F00BF5C0B00206A
:1047F0002DE9F04FB9B00446CDE9031218464FF049
:104800007C51FCF72FFB0646DFF8C4B29022002152
:1048100014A809F02BF9DBF810102068FCF718FA3F
:104820003146FCF71FFBDBF8141005466068FCF707
:104830000FFA3146FCF716FBDBF818108246A06829
:10484000FCF706FA3146FCF70DFB05F10043079330
:104850000AF10043089300F100430993DBF80030AC
:10486000DBF804800593DBF80C300446414628460B
:104870000693FCF7F7FA01460598FCF7E9F9DBF82F
:104880000870814639465046FCF7ECFA0146484626
:10489000FCF7DEF9069981462046FCF7E3FA01466B
:1048A0004846FCF7D5F90599CBF800000B9028464F
:1048B000FCF7D8FA4146FCF7CDF9069981465046F7
:1048C000FCF7D0FA01464846FCF7C2F93946814662
:1048D0002046FCF7C7FA01464846FCF7BBF90A90A8
:1048E0000699CBF804002846FCF7BCFA3946FCF7D9
:1048F000B1F9059981465046FCF7B4FA014648469D
:10490000FCF7A8F9414681462046FCF7ABFA014680
:104910004846FCF79DF93946CBF808000C9028462C
:10492000FCF7A0FA01460698FCF792F94146814649
:104930005046FCF797FA01464846FCF78BF9059973
:1049400081462046FCF78EFA01464846FCF782F97C
:104950000B9B81461946CBF80C001846FCF782FAEF
:104960000A990B900846FCF77DFA0B9B0146184606
:10497000FCF770F90C9A0A9011461046FCF772FA8F
:104980000A9B01461846FCF765F949460A904846D5
:10499000FCF768FA0A9B01461846FCF75BF900F041
:1049A00055FD81460146DBF80000FCF75BFA4946FD
:1049B000CBF80000DBF80400FCF754FA4946CBF8CA
:1049C0000400DBF80800FCF74DFA4946CBF8080074
:1049D000DBF80C00FCF746FA4146CBF80C003046F9
:1049E000FCF740FA394680463046FCF73BFA069918
:1049F00007463046FCF736FA059981463046FCF703
:104A000031FA344E079B00F100407360089BC6F8F2
:104A10001080B360099B7761F360089BC6F818901B
:104A2000B36207F100437363099BF5617462F0623E
:104A3000C6F83090C6F838A0F36374650724C6F84A
:104A400058A0079BDFF890A0C6F8508009F10049F4
:104A500008F100487564C6F84890F064F36577661D
:104A6000C6F86880F06622462146CDF804A030469C
:104A70001A4B009400F04CFE184B22461D4621466E
:104A80005046CDE90043334600F0DAFE144B22468F
:104A900021460095284600F089FD039A1168576861
:104AA00008469668FCF7DEF9394605463846FCF7B5
:104AB000D9F901462846FCF7CDF83146054630467F
:104AC000FCF7D0F901462846FCF7C4F80AE000BF1D
:104AD0005C0B0020980000209C0800202002002091
:104AE000E402002000F0B2FC039A0546014610687B
:104AF000FCF7B8F9039A294610605068FCF7B2F940
:104B0000039A294650609068FCF7ACF9039A9060CC
:104B1000049A1168576808469668FCF7A3F9394665
:104B200005463846FCF79EF901462846FCF792F800
:104B3000314605463046FCF795F901462846FCF714
:104B400089F800F083FC049A05461168FCF78AF99D
:104B5000049A0746516810602846FCF783F9049AC6
:104B60000646916850602846FCF77CF9049ADBF809
:104B70000080906041460F904046FCF76BF8DBF8F0
:104B80000450069029462846FCF764F8DBF808A094
:104B9000079051465046FCF75DF8DBF80C90059005
:104BA00049464846FCF756F8414609904046FCF70E
:104BB00059F9294613904046FCF754F951460A909A
:104BC0004046FCF74FF949460B904046FCF74AF93E
:104BD000294680462846FCF745F951460C90284660
:104BE000FCF740F949460D902846FCF73BF9514641
:104BF0000E905046FCF736F9494608905046FCF7AF
:104C000031F9494682464846FCF72CF93946814637
:104C10003846FCF71FF8314607463046FCF71AF8CD
:104C20000F9B064619461846FCF714F84146054600
:104C30000D98FCF70DF80E990F900B98FCF70AF8F9
:104C4000089910904FF07C50FCF702F84946FBF7AA
:104C5000FFFF3946FCF706F9314611900F98FCF733
:104C600001F9119B01461846FBF7F4FF2946119004
:104C70001098FCF7F7F8119B01461846FBF7EAFF7E
:104C80000C9912904FF07C50FBF7E2FF0D991190B8
:104C90004046FBF7DFFF3946FCF7E4F8494680461B
:104CA0001198FBF7D5FF3146FCF7DCF8014640468A
:104CB000FBF7D0FF0A9980465046FBF7C9FF29460B
:104CC000FCF7D0F801464046FBF7C4FF0B990D9066
:104CD0000E98FBF7BDFF514680460A98FBF7BAFFD6
:104CE000394682464046FCF7BDF8314607465046F5
:104CF000FCF7B8F801463846FBF7ACFF08990646C2
:104D00001198FBF7A5FF2946FCF7ACF801463046A1
:104D1000FBF7A0FF129907460846FCF7A3F80D9B86
:104D2000054619461846FCF79DF801462846FBF74C
:104D300091FF00F0A7FB4FF0404106464046FCF7CC
:104D400091F8B24B804618604FF040415046FCF756
:104D500089F8DFF8B8A2139A05464946CAF8040054
:104D60001046FBF777FF0146FBF774FF01464FF053
:104D70007E50FBF76DFF4946CAF808000B90089873
:104D8000FBF768FF0146FBF765FF01464FF07E50D9
:104D9000FBF75EFF3146FCF765F83946814608F1BE
:104DA0000040FCF75FF801464846FBF753FF0F99B8
:104DB000CAF80C000A900846FBF74CFF3146FCF796
:104DC00051F83946814605F10040FCF74BF80146A1
:104DD0004846FBF73FFF8D4B0899186182460C98B7
:104DE000FBF738FF0146FBF735FF01464FF07E50D9
:104DF000FBF72EFF3946FCF735F810998146084637
:104E0000FBF728FF3146FCF72DF801464846FBF733
:104E100021FF7E4B039A5861814641461068FBF79B
:104E200017FFDFF8E8812946C8F80000039A784D9B
:104E30005068FBF70DFF0B9B039A1946C8F8040056
:104E40009068FBF705FF0A9AC8F808001146049A13
:104E50001068FBF7FDFE049AC8F80C005068514634
:104E6000FBF7F6FE049AC8F8100090684946FBF775
:104E7000EFFE059A05992A60099A01F1004102F1B5
:104E80000043069A6B60AA60079A6B6202F10042C7
:104E9000EA60EA61069AC8F8140002F100422A6248
:104EA000A962AA63079A6B64EA63059A31462A6489
:104EB0000698FBF7D7FF394682460598FBF7D2FFE5
:104EC000814601465046FBF7C3FE314668650890AF
:104ED0000798FBF7C7FF394680460998FBF7C2FFE2
:104EE00001464046FBF7B6FE05990390A86506F11A
:104EF0000040FBF7B7FF394680460698FBF7B2FF44
:104F0000014604904046FBF7A3FE3946E865079842
:104F1000FBF7A8FF314607460998FBF7A3FF0646B3
:104F200001463846FBF794FE049B414628662867F5
:104F30001846FBF78DFE039A8046AA6751466867BC
:104F40004846FBF785FE3946E867C5F88C80304651
:104F5000FBF77EFE06264FF0010A089A2D4FC5F892
:104F60009420039ADFF8B0802B462146DFF8AC90FE
:104F7000C5F89000C5F89820294822460197009668
:104F800000F05EFC3B4622463146CDE900682846EB
:104F900000F0BEFB4B4632463146CDF8008040461D
:104FA00000F004FB314614AA4046DFF8788000F098
:104FB00087FC14AA1346214632463846CDE90068DC
:104FC00000F0A6FB184A21460192CDF800A0324617
:104FD00040460E4B00F09CFB52462146CDF800B0F7
:104FE0005846114B00F0E2FADBF80420DBF8001021
:104FF000DBF808300592DBF80C2008460493039296
:10500000FBF730FF059A824610E000BF780B0020C6
:1050100030070020240A0020CC0A0020A80300202A
:1050200020020020D80700208008002011461046EA
:10503000FBF718FF01465046FBF70CFE049B824627
:1050400019461846FBF70EFF01465046FBF702FED5
:10505000039982460846FBF705FF01465046FBF7D9
:10506000F9FD00F0F3F982460146DBF80000FBF79A
:10507000F9FE5146CBF80000DBF80400FBF7F2FE26
:105080005146CBF80400DBF80800FBF7EBFE514675
:10509000CBF80800DBF80C00FBF7E4FEDFF880A09B
:1050A000CBF80C002B46324621461E4D4046CDE93A
:1050B000004A00F02DFBDFF870B05346224621462F
:1050C000CDF800A0194800F0CAFA22462146504601
:1050D000CDE90045144B00F01BFB53462246214608
:1050E0002846CDE9004B00F0ABFB4B46324621464B
:1050F0004046CDE9006700F00BFB434632462146AF
:105100003846CDE9004A00F09BFB53462246214633
:105110005846CDF800B000F049FA39B0BDE8F08F3C
:105120009C08002060090020200200205C01002073
:105130002DE9F84FDFF854910446D9F80060544D3A
:1051400031463046FBF78EFE8046D9F8047039466A
:105150003846FBF787FE4146FBF77CFD0146FBF72F
:1051600079FD4FF07E51FBF773FDD9F808A0286058
:1051700051463846FBF776FED9F80C9083464946EF
:105180003046FBF76FFE01465846FBF763FD0146CC
:10519000FBF760FD494668603846FBF763FE514601
:1051A00083463046FBF75EFE01465846FBF750FD4E
:1051B0000146FBF74FFD4946A8605046FBF752FEFB
:1051C000394682463046FBF74DFE01465046FBF716
:1051D00041FD0146FBF73EFD4946064668614846EB
:1051E000FBF740FE4146FBF735FD0146FBF732FD7C
:1051F0004FF07E51FBF72CFD01462862304600F04F
:1052000057F824490646FBF7C1FF00B1224E26603D
:10521000AE684FF07E513046FBF7D6FF58BB3046A4
:105220001E49FBF7C7FF40BB06F1004000F032F912
:1052300029686060686800F03BF800210546FBF7CC
:10524000AFFFE0B9A560A56815492846FBF7BCFF8C
:1052500000B1002513492068FBF704FE11492060C6
:105260006068FBF7FFFD0F4960602846FBF7FAFD19
:10527000A060BDE8F88F0C48DAE70C48D8E728466C
:105280000749FBF7E7FCA060DDE700BF5C0B0020EF
:105290000C070020DB0F4940DB0F49C0000080BF36
:1052A000DB0FC940E12E6542DB0FC9BFDB0FC93FF1
:1052B0002DE9F8430E46054600213046FBF766FF10
:1052C000A0B100212846FBF761FF002840F0A08034
:1052D00000212846FBF782FF002840F09B80002138
:1052E0002846FBF75DFF002840F096800021284605
:1052F000FBF756FF002800F0838005F100440021F1
:105300003046FBF74DFF00287CD006F100484146AF
:105310002046FBF763FF002876D023460227444649
:10532000984641462046FBF751FE3C490446FBF7B0
:1053300055FFA8B120463A49FBF794FD4FF07E5146
:10534000FBF786FC2146FBF785FC36498046204664
:10535000FBF780FC01464046FBF738FE0446013768
:1053600000212046FBF71CFF00284FD004F100402D
:105370002D49FBF715FF20BB21462046FBF772FDA8
:1053800080462A49FBF76EFD2949FBF761FC41463F
:10539000FBF768FD274981464046FBF75BFC414629
:1053A000FBF760FD2449FBF755FC01464846FBF737
:1053B0000DFE2146FBF756FD01462046FBF74AFC51
:1053C0000446012F1D4BC8BF04F10044204653F88A
:1053D0002710FBF73FFC002104463046FBF7E0FEB8
:1053E00020B121461648FBF733FC0446002128462D
:1053F000FBF7D6FE08B104F100442046BDE8F8836F
:105400002C467CE7B04682E700278AE72046AFE7D4
:105410000024F2E70B4CF0E70B4CEEE7A330893E9B
:10542000AF673B3FD7B3DD3FF304B539AE5338BF69
:10543000A854B83F3C1298407E3F8A40301C010877
:10544000DB0F4940DB0FC93FDB0FC9BF10B50A4C6A
:105450000A49A4EB5004FBF705FD2146FBF702FDCA
:105460002146FBF7FFFC01460548FBF7F1FB21460F
:10547000FBF7F8FC10BD00BF12141F5F12D3363FBC
:10548000FF51D83F10B50446FFF7E0FF2146FBF778
:10549000E9FC10BD2DE9F04100210446FBF780FE38
:1054A000002855D0384F04F100444FF07C5120467D
:1054B000FBF794FE00284ED04FF07E512046FBF7BC
:1054C0008DFE00285DD121464FF07E50FBF7C0FBDA
:1054D0004FF07C51FBF7C6FC0546FFF7D3FF4FF0BA
:1054E0004041FBF7BFFC0126044628492846FBF74C
:1054F000B9FC2749FBF7AEFB2946FBF7B3FC25496E
:10550000FBF7A6FB2946FBF7ADFC2349804628465E
:10551000FBF79EFB2946FBF7A5FC2049FBF79AFB0E
:105520002946FBF79FFC1E49FBF792FB01464046CC
:10553000FBF74CFD2146FBF795FC01462046FBF7A7
:1055400089FB04466EB11749FBF784FB044608E06B
:105550004FF07E57A9E720461349FBF721FE064688
:1055600048B100213846FBF71BFE08B104F10044A6
:105570002046BDE8F08121462046FBF773FC054636
:10558000B3E70024F4E700BF000080BF3F3118BF3D
:10559000E0F93940201B304085572541F7EAC641E4
:1055A00058148441DB0FC93FF304B5394A432DE950
:1055B000F04F4FEA920904461D4680461F46CA46F0
:1055C00085B00E9E08F1100810371036BAF1000FA2
:1055D00010D10E9B04EB091402F0030605EB09152C
:1055E00004EB860603EB0919B4422FD1002005B065
:1055F000BDE8F08F58F8083C57F80C1C58F80C0C14
:1056000003920293FBF726FB57F8083C57F8101C4F
:10561000834658F8100C0193FBF71CFB46F80CBCB2
:1056200046F8100C57F8041C58F8040CFBF712FB52
:10563000029B834601991846FBF70CFB0AF1FF3ADF
:10564000039A46F8080C46F804BCBBE755F8041B5F
:1056500054F8040BFBF7FEFA49F8040BC4E74A437D
:105660002DE9F04F4FEA920904461D4680461F4639
:10567000CA4685B00E9E08F1100810371036BAF1F0
:10568000000F10D10E9B04EB091402F0030605EB8A
:10569000091504EB860603EB0919B4422FD100204B
:1056A00005B0BDE8F08F58F8083C57F80C1C58F8C6
:1056B0000C0C03920293FBF7CBFA57F8083C57F80F
:1056C000101C834658F8100C0193FBF7C1FA46F8FA
:1056D0000CBC46F8100C57F8041C58F8040CFBF7E7
:1056E000B7FA029B834601991846FBF7B1FA0AF113
:1056F000FF3A039A46F8080C46F804BCBBE755F895
:10570000041B54F8040BFBF7A3FA49F8040BC4E795
:105710002DE9F04F0D468FB0910806919100019050
:1057200003910146900802F0030292000A920C22B3
:105730000593BDF8603001EB00175A4308921A0137
:10574000099200224FEA830B00FB0BF189000791BD
:1057500002924FF00008199A0299059E02EB81020D
:1057600004920A9ABA180B92B2460024DDF804900B
:10577000069A09F110091ABBB946079A16440B9A02
:1057800091454FD1049A08F1010842F8044B1FFAE1
:1057900088F80492059A434502EB8806E4D1029A00
:1057A00003991A4492B20292019A013D0A44ADB2A1
:1057B00001920F44002DCCD128460FB0BDE8F08FE8
:1057C00059F8101CDAF80000CDE90C23FBF74AFB6E
:1057D0002146FBF73FFA04465AF80B1059F80C0C17
:1057E000FBF740FB2146FBF735FA044659F8081C45
:1057F0005AF81B00FBF736FB2146FBF72BFA044651
:10580000089B59F8041C5AF80300099B9A44FBF7BB
:1058100029FB2146FBF71EFA0C9A0446013A0D9B20
:1058200092B2A6E7316859F8040B0C93FBF71AFB08
:1058300001462046FBF70EFA5E4404460C9B9EE7A9
:105840002DE9F04F87B00393BDF8403017464FEA7B
:10585000820B9A00019204464FF000090022029147
:105860000299494527DC07B0BDE8F08F5AF82510AA
:1058700054F82500CDE90432FBF7F4FA014630462E
:10588000FBF7E8F9DDE90432064601351199AF422C
:1058900041F82860EADCDA4408F10108434507DCF6
:1058A000119901985C440144119109F10109D7E76C
:1058B00016460025EAE74FF00008DDF80CA0EDE7FA
:1058C0002DE9F04F0E460C4617464FF000094FF0F9
:1058D0007E584B1C8FB09B000893089B0A90043B9A
:1058E0000492151D0393FCB90025AA46049B069358
:1058F000B3000B93049B03EB860307930A9BCDE94C
:105900000163A3000C930A9B03EB84030593019BA3
:10591000F3B900212846FBF739FC003818BF0120F5
:1059200040420FB0BDE8F08F4A4600213846013CA6
:1059300008F09CF8284645F8048C0021A20008F0E5
:1059400095F8039B09F104091F44089B1D44CAE70D
:10595000029B27469846D3461D68B74234D351462A
:105960005846FBF713FC002840F088805146284633
:10597000FBF70CFC002840F08180DDE90178D8F8C5
:1059800000002946FBF722FB013F48F8040BF6D143
:10599000DDF81880079B98452AD1019BDDF810801F
:1059A0009B000993B7422BD1019B039A013B0193C2
:1059B000069B013413440693079B13440793089AEC
:1059C000029B134402939CE7D8F800905146484646
:1059D000FBF704FC48B159464846FBF7FFFB00B112
:1059E000CB46039B01379844B7E709F10049F2E73A
:1059F000D8F800002946FBF7E9FA48F8040BC9E794
:105A0000A74209D1099B059A1A44039B98440C9B11
:105A10000137D3180593C5E7DDF81490DDE901B22D
:105A200059F8045952F8041B28460D92FBF71AFA4C
:105A3000014659F8040FFBF70BF9BBF1010B0D9A66
:105A4000C9F80000EED1059A099BDDF818901A44B8
:105A5000A8F1040B079B994501D10B9BD6E759F898
:105A6000041B28460592FBF7FDF901465BF8040F7D
:105A7000FBF7EEF8059ACBF80000EBE74FF0FF30AC
:105A80004FE700002DE9F84305460C4600684FF04B
:105A90007E51FBF7DFF82969FBF7DCF8296AFBF791
:105AA000D9F84FF07A51FBF7DDF9064620F00040B7
:105AB000FFF7E8FC6A4920600746FBF78FFB0028E8
:105AC00059D039464FF07A50FBF780FA0646E9691B
:105AD0006869FBF7BDF83146FBF7C4F96060A96857
