:020000040800F2
:1000000000C00020F5120008EDA600083913000812
:10001000EFA60008F1A60008F3A600080000000003
:10002000000000000000000000000000B17E000899
:10003000F5A6000800000000517F0008F9A600089E
:100040003913000839130008391300083913000860
:100050003913000839130008391300083913000850
:100060004DA200083913000839130008391300089D
:10007000391300083913000839130008012100085A
:100080003913000839130008391300083913000820
:100090003913000839130008391300083913000810
:1000A0003913000839130008391300083913000800
:1000B00039130008391300081529000839130008FE
:1000C000391300088D1F0008F51E000839130008B9
:1000D00039130008294200083913000839130008B1
:1000E000F1350008391300083913000839130008E6
:1000F00039130008391300083913000839130008B0
:100100003913000839130008F528000839130008CE
:10011000D13F0008394100080916000839130008CA
:10012000391300083913000839130008391300087F
:1001300000000000000000000000000000000000BF
:1001400000000000000000000000000000000000AF
:10015000000000000000000000000000000000009F
:10016000000000000000000000000000000000008F
:10017000000000000000000000000000000000007F
:10018000000000000000000000000000000000006F
:10019000000000000000000000000000000000005F
:1001A000000000000000000000000000000000004F
:1001B000000000000000000000000000000000003F
:1001C000000000000000000000000000000000002F
:1001D000000000000000000000000000000000001F
:0401E0005FF8E0F1F3
:1001F00010B5054C237833B9044B13B10448AFF361
:1002000000800123237010BDC80200200000000000
:100210008800010808B5034B1BB103490348AFF33D
:10022000008008BD00000000CC020020880001080A
:10023000034613F8012B002AFBD1181A0138704726
:1002400081F0004102E000BF83F0004330B54FEA87
:1002500041044FEA430594EA050F08BF90EA020FF4
:100260001FBF54EA000C55EA020C7FEA645C7FEA87
:10027000655C00F0E2804FEA5454D4EB5555B8BFAA
:100280006D420CDD2C4480EA020281EA030382EA1B
:10029000000083EA010180EA020281EA0303362DAD
:1002A00088BF30BD11F0004F4FEA01314FF4801C80
:1002B0004CEA113102D0404261EB410113F0004F92
:1002C0004FEA03334CEA133302D0524263EB430349
:1002D00094EA050F00F0A780A4F10104D5F1200EE7
:1002E0000DDB02FA0EFC22FA05F2801841F1000142
:1002F00003FA0EF2801843FA05F359410EE0A5F116
:1003000020050EF1200E012A03FA0EFC28BF4CF046
:10031000020C43FA05F3C01851EBE37101F00045FC
:1003200007D54FF0000EDCF1000C7EEB00006EEB09
:100330000101B1F5801F1BD3B1F5001F0CD3490893
:100340005FEA30004FEA3C0C04F101044FEA4452EA
:1003500012F5800F80F09A80BCF1004F08BF5FEA71
:10036000500C50F1000041EB045141EA050130BD51
:100370005FEA4C0C404141EB0101013C28BFB1F563
:10038000801FE9D291F0000F04BF01460020B1FAAE
:1003900081F308BF2033A3F10B03B3F120020CDA81
:1003A0000C3208DD02F1140CC2F10C0201FA0CF05F
:1003B00021FA02F10CE002F11402D8BFC2F1200CC4
:1003C00001FA02F120FA0CFCDCBF41EA0C0190407A
:1003D000E41AA2BF01EB0451294330BD6FEA0404C3
:1003E0001F3C1CDA0C340EDC04F11404C4F12002AE
:1003F00020FA04F001FA02F340EA030021FA04F3C0
:1004000045EA030130BDC4F10C04C4F1200220FA16
:1004100002F001FA04F340EA0300294630BD21FA54
:1004200004F0294630BD94F0000F83F4801306BF1A
:1004300081F480110134013D4EE77FEA645C18BF0E
:100440007FEA655C29D094EA050F08BF90EA020FA5
:1004500005D054EA000C04BF1946104630BD91EA9D
:10046000030F1EBF0021002030BD5FEA545C05D1A0
:100470004000494128BF41F0004130BD14F58004DF
:100480003CBF01F5801130BD01F0004545F0FE4153
:1004900041F470014FF0000030BD7FEA645C1ABF88
:1004A000194610467FEA655C1CBF0B46024650EABF
:1004B000013406BF52EA033591EA030F41F40021EB
:1004C00030BD00BF90F0000F04BF0021704730B571
:1004D0004FF4806404F132044FF000054FF0000146
:1004E00050E700BF90F0000F04BF0021704730B507
:1004F0004FF4806404F1320410F0004548BF4042DC
:100500004FF000013EE700BF42004FEAE2014FEA30
:1005100031014FEA02701FBF12F07F4393F07F4F0B
:1005200081F06051704732F07F4208BF704793F00E
:100530007F4F04BF41F40021704730B54FF4607421
:1005400001F0004521F000411CE700BF50EA010224
:1005500008BF704730B54FF000050AE050EA0102CD
:1005600008BF704730B511F0004502D5404261EB3D
:1005700041014FF4806404F132045FEA915C3FF47E
:10058000D8AE4FF003025FEADC0C18BF03325FEA1B
:10059000DC0C18BF033202EBDC02C2F1200300FACC
:1005A00003FC20FA02F001FA03FE40EA0E0021FAF1
:1005B00002F11444BDE600BF70B54FF0FF0C4CF4DF
:1005C000E06C1CEA11541DBF1CEA135594EA0C0F91
:1005D00095EA0C0F00F0DEF82C4481EA030621EACC
:1005E0004C5123EA4C5350EA013518BF52EA033507
:1005F00041F4801143F4801338D0A0FB02CE4FF0B9
:100600000005E1FB02E506F00042E0FB03E54FF0E8
:100610000006E1FB03569CF0000F18BF4EF0010EE0
:10062000A4F1FF04B6F5007F64F5407404D25FEADC
:100630004E0E6D4146EB060642EAC62141EA55518F
:100640004FEAC52040EA5E504FEACE2EB4F1FD0CD1
:1006500088BFBCF5E06F1ED8BEF1004F08BF5FEA4F
:10066000500E50F1000041EB045170BD06F0004601
:1006700046EA010140EA020081EA0301B4EB5C04AE
:10068000C2BFD4EB0C0541EA045170BD41F48011A6
:100690004FF0000E013C00F3AB8014F1360FDEBFCB
:1006A000002001F0004170BDC4F10004203C35DAA7
:1006B0000C341BDC04F11404C4F1200500FA05F32A
:1006C00020FA04F001FA05F240EA020001F00042CB
:1006D00021F0004110EBD37021FA04F642EB060141
:1006E0005EEA430E08BF20EAD37070BDC4F10C046B
:1006F000C4F1200500FA04F320FA05F001FA04F22F
:1007000040EA020001F0004110EBD37041F100011A
:100710005EEA430E08BF20EAD37070BDC4F1200525
:1007200000FA05F24EEA020E20FA04F301FA05F28D
:1007300043EA020321FA04F001F0004121FA04F235
:1007400020EA020000EBD3705EEA430E08BF20EA05
:10075000D37070BD94F0000F0FD101F0004640003F
:1007600041EB010111F4801F08BF013CF7D041EAC1
:10077000060195F0000F18BF704703F000465200C5
:1007800043EB030313F4801F08BF013DF7D043EA96
:100790000603704794EA0C0F0CEA135518BF95EA4C
:1007A0000C0F0CD050EA410618BF52EA4306D1D1D3
:1007B00081EA030101F000414FF0000070BD50EAF2
:1007C000410606BF1046194652EA430619D094EA7C
:1007D0000C0F02D150EA013613D195EA0C0F05D166
:1007E00052EA03361CBF104619460AD181EA0301BA
:1007F00001F0004141F0FE4141F470014FF0000072
:1008000070BD41F0FE4141F4780170BD70B54FF00C
:10081000FF0C4CF4E06C1CEA11541DBF1CEA13558C
:1008200094EA0C0F95EA0C0F00F0A7F8A4EB05046E
:1008300081EA030E52EA03354FEA013100F0888065
:100840004FEA03334FF0805545EA131343EA12632E
:100850004FEA022245EA111545EA10654FEA0026E3
:100860000EF000419D4208BF964244F1FD0404F59C
:10087000407402D25B084FEA3202B61A65EB0305F8
:100880005B084FEA32024FF480104FF4002CB6EBB5
:10089000020E75EB030E22BFB61A754640EA0C0035
:1008A0005B084FEA3202B6EB020E75EB030E22BF75
:1008B000B61A754640EA5C005B084FEA3202B6EBB6
:1008C000020E75EB030E22BFB61A754640EA9C0075
:1008D0005B084FEA3202B6EB020E75EB030E22BF45
:1008E000B61A754640EADC0055EA060E18D04FEA03
:1008F000051545EA16754FEA06164FEAC30343EAA3
:1009000052734FEAC2025FEA1C1CC0D111F4801F6F
:100910000BD141EA00014FF000004FF0004CB6E768
:1009200011F4801F04BF01430020B4F1FD0C88BF07
:10093000BCF5E06F3FF6AFAEB5EB030C04BFB6EB12
:10094000020C5FEA500C50F1000041EB045170BD05
:100950000EF0004E4EEA113114EB5C04C2BFD4EB32
:100960000C0541EA045170BD41F480114FF0000EB6
:10097000013C90E645EA060E8DE60CEA135594EA32
:100980000C0F08BF95EA0C0F3FF43BAF94EA0C0F35
:100990000AD150EA01347FF434AF95EA0C0F7FF4AA
:1009A00025AF104619462CE795EA0C0F06D152EAFE
:1009B00003353FF4FDAE1046194622E750EA4106E2
:1009C00018BF52EA43067FF4C5AE50EA41047FF4F3
:1009D0000DAF52EA43057FF4EBAE12E74FF0FF3C58
:1009E00006E000BF4FF0010C02E000BF4FF0010C29
:1009F0004DF804CD4FEA410C7FEA6C5C4FEA430CA2
:100A000018BF7FEA6C5C1BD001B050EA410C0CBFF0
:100A100052EA430C91EA030F02BF90EA020F002052
:100A2000704710F1000F91EA030F58BF994208BFB9
:100A300090422CBFD8176FEAE37040F00100704776
:100A40004FEA410C7FEA6C5C02D150EA013C07D1CD
:100A50004FEA430C7FEA6C5CD6D152EA033CD3D018
:100A60005DF8040B704700BF8446104662468C4612
:100A70001946634600E000BF01B5FFF7B7FF002845
:100A800048BF10F1000F01BD4DF808EDFFF7F4FF6E
:100A90000CBF012000205DF808FB00BF4DF808EDF9
:100AA000FFF7EAFF34BF012000205DF808FB00BF1C
:100AB0004DF808EDFFF7E0FF94BF012000205DF83E
:100AC00008FB00BF4DF808EDFFF7CEFF94BF0120F3
:100AD00000205DF808FB00BF4DF808EDFFF7C4FFEC
:100AE00034BF012000205DF808FB00BF4FEA410C35
:100AF0007FEA6C5C02D150EA013C0AD14FEA430C18
:100B00007FEA6C5C02D152EA033C02D14FF0000054
:100B100070474FF0010070474FEA410212F5001292
:100B200015D211D56FF47873B3EB625212D94FEA34
:100B3000C12343F0004343EA505311F0004F23FA1E
:100B400002F018BF404270474FF00000704750EA73
:100B5000013005D111F0004008BF6FF00040704730
:100B60004FF00000704700BF4A0011D212F500128A
:100B700011D20DD56FF47873B3EB62520ED44FEAF5
:100B8000C12343F0004343EA505323FA02F0704775
:100B90004FF00000704750EA013002D14FF0FF30B3
:100BA00070474FF0000070474FEA4102B2F1E04356
:100BB00024BFB3F5001CDCF1FE5C0DD901F0004C44
:100BC0004FEAC0024CEA5070B2F1004F40EB830094
:100BD00008BF20F00100704711F0804F21D113F1C0
:100BE0003872BCBF01F00040704741F480114FEAF9
:100BF0005252C2F11802C2F1200C10FA0CF320FA82
:100C000002F018BF40F001004FEAC1234FEAD3239E
:100C100003FA0CFC40EA0C0023FA02F34FEA430308
:100C2000CCE77FEA625307D150EA01331EBF4FF091
:100C3000FE4040F44000704701F0004040F0FE40AC
:100C400040F40000704700BF80F0004002E000BFA9
:100C500081F0004142001FBF5FEA410392EA030FA7
:100C60007FEA226C7FEA236C6AD04FEA1262D2EBF1
:100C70001363C1BFD218414048404140B8BF5B42F6
:100C8000192B88BF704710F0004F40F4000020F08F
:100C90007F4018BF404211F0004F41F4000121F0A5
:100CA0007F4118BF494292EA030F3FD0A2F10102EF
:100CB00041FA03FC10EB0C00C3F1200301FA03F12D
:100CC00000F0004302D5494260EB4000B0F5000F50
:100CD00013D3B0F1807F06D340084FEA310102F10F
:100CE0000102FE2A51D2B1F1004F40EBC25008BFC1
:100CF00020F0010040EA03007047490040EB00008B
:100D0000013A28BFB0F5000FEDD2B0FA80FCACF18B
:100D1000080CB2EB0C0200FA0CF0AABF00EBC250B8
:100D200052421843BCBFD0401843704792F0000FA6
:100D300081F4000106BF80F400000132013BB5E7F9
:100D40004FEA41037FEA226C18BF7FEA236C21D06F
:100D500092EA030F04D092F0000F08BF08467047D4
:100D600090EA010F1CBF0020704712F07F4F04D1A2
:100D7000400028BF40F00040704712F100723CBFB5
:100D800000F50000704700F0004343F0FE4040F4DF
:100D9000000070477FEA226216BF08467FEA23639D
:100DA0000146420206BF5FEA412390EA010F40F488
:100DB000800070474FF0000304E000BF10F00043D4
:100DC00048BF40425FEA000C08BF704743F09643BB
:100DD00001464FF000001CE050EA010208BF7047D6
:100DE0004FF000030AE000BF50EA010208BF70475D
:100DF00011F0004302D5404261EB41015FEA010C72
:100E000002BF84460146002043F0B64308BFA3F169
:100E10008053A3F50003BCFA8CF2083AA3EBC2534B
:100E200010DB01FA02FC634400FA02FCC2F120026A
:100E3000BCF1004F20FA02F243EB020008BF20F0A1
:100E40000100704702F1200201FA02FCC2F1200207
:100E500050EA4C0021FA02F243EB020008BF20EAFC
:100E6000DC7070474FF0FF0C1CEAD0521EBF1CEA2A
:100E7000D15392EA0C0F93EA0C0F6FD01A4480EA18
:100E8000010C400218BF5FEA41211ED04FF0006301
:100E900043EA501043EA5111A0FB01310CF000402D
:100EA000B1F5000F3EBF490041EAD3715B0040EA53
:100EB000010062F17F02FD2A1DD8B3F1004F40EB23
:100EC000C25008BF20F00100704790F0000F0CF0F6
:100ED000004C08BF49024CEA502040EA51207F3ABA
:100EE000C2BFD2F1FF0340EAC250704740F4000095
:100EF0004FF00003013A5DDC12F1190FDCBF00F086
:100F000000407047C2F10002410021FA02F1C2F133
:100F1000200200FA02FC5FEA310040F1000053EACF
:100F20004C0308BF20EADC70704792F0000F00F01D
:100F3000004C02BF400010F4000F013AF9D040EA23
:100F40000C0093F0000F01F0004C02BF490011F4B7
:100F5000000F013BF9D041EA0C018FE70CEAD153B5
:100F600092EA0C0F18BF93EA0C0F0AD030F0004C35
:100F700018BF31F0004CD8D180EA010000F00040E9
:100F8000704790F0000F17BF90F0004F084691F0A7
:100F9000000F91F0004F14D092EA0C0F01D14202E1
:100FA0000FD193EA0C0F03D14B0218BF084608D1AA
:100FB00080EA010000F0004040F0FE4040F40000F4
:100FC000704740F0FE4040F4400070474FF0FF0C87
:100FD0001CEAD0521EBF1CEAD15392EA0C0F93EACE
:100FE0000C0F69D0A2EB030280EA010C49024FEA20
:100FF000402037D04FF0805343EA111143EA1013D9
:101000000CF000408B4238BF5B0042F17D024FF490
:10101000000C8B4224BF5B1A40EA0C00B3EB510F6B
:1010200024BFA3EB510340EA5C00B3EB910F24BF54
:10103000A3EB910340EA9C00B3EBD10F24BFA3EBD9
:10104000D10340EADC001B0118BF5FEA1C1CE0D1A1
:10105000FD2A3FF650AF8B4240EBC25008BF20F054
:10106000010070470CF0004C4CEA50207F32C2BFA8
:10107000D2F1FF0340EAC250704740F400004FF045
:101080000003013A37E792F0000F00F0004C02BF76
:10109000400010F4000F013AF9D040EA0C0093F040
:1010A000000F01F0004C02BF490011F4000F013B9A
:1010B000F9D041EA0C0195E70CEAD15392EA0C0F02
:1010C00008D142027FF47DAF93EA0C0F7FF470AF3A
:1010D000084676E793EA0C0F04D14B023FF44CAF7D
:1010E00008466EE730F0004C18BF31F0004CCAD112
:1010F00030F000427FF45CAF31F000437FF43CAF4E
:101100005FE700BF4FF0FF3C06E000BF4FF0010C6F
:1011100002E000BF4FF0010C4DF804CD4FEA400251
:101120004FEA41037FEA226C18BF7FEA236C11D09B
:1011300001B052EA530C18BF90EA010F58BFB2EB4E
:10114000030088BFC81738BF6FEAE17018BF40F0CE
:10115000010070477FEA226C02D15FEA402C05D182
:101160007FEA236CE4D15FEA412CE1D05DF8040B07
:10117000704700BF844608466146FFE70FB5FFF79A
:10118000C9FF002848BF10F1000F0FBD4DF808ED52
:10119000FFF7F4FF0CBF012000205DF808FB00BF43
:1011A0004DF808EDFFF7EAFF34BF012000205DF89D
:1011B00008FB00BF4DF808EDFFF7E0FF94BF0120EA
:1011C00000205DF808FB00BF4DF808EDFFF7D2FFE7
:1011D00094BF012000205DF808FB00BF4DF808ED2A
:1011E000FFF7C8FF34BF012000205DF808FB00BFF7
:1011F0004FEA4002B2F1FE4F0FD34FF09E03B3EB24
:1012000012620DD94FEA002343F0004310F0004F63
:1012100023FA02F018BF404270474FF000007047B9
:1012200012F1610F01D1420205D110F0004008BF58
:101230006FF0004070474FF00000704742000ED240
:10124000B2F1FE4F0BD34FF09E03B3EB126209D401
:101250004FEA002343F0004323FA02F070474FF0B7
:101260000000704712F1610F01D1420202D14FF02C
:10127000FF3070474FF00000704700BF38B505469B
:101280000C460022002328462146FFF707FC28B918
:1012900028462146BDE8384000F00AB8284604F147
:1012A000004100F005F8404261EB410138BD00BF4C
:1012B000D0B500220B4B06460F46FFF77DF9FFF72E
:1012C00053FC0446FFF7FEF80022074BFFF774F9C2
:1012D00002460B4630463946FEF7B6FFFFF744FCA0
:1012E0002146D0BD0000F03D0000F04180F313889E
:1012F00070470000002103E00A4B5B584350043163
:1013000009480A4B42189A42F6D3094A02E00023E0
:1013100042F8043B074B9A42F9D300F00FF809F06A
:1013200053F9704794D0030800000020BC0200204D
:10133000C802002004720020FEE70000374B82B094
:101340001A6842F001021A605968354A0A405A6028
:101350001A6822F0847222F480321A601A6822F429
:1013600080221A605A6822F4FE025A604FF41F026B
:101370009A600022009201921A6842F480321A6048
:101380001A6802F400320192009A01320092019A26
:101390001AB9009AB2F5A06FF2D11A6812F40032AD
:1013A00018BF01220192019A012A30D11D4A116809
:1013B00041F010011160116821F003011160116802
:1013C00041F0020111605A685A605A685A605A68BE
:1013D00042F480625A605A6822F47C125A605A6859
:1013E00042F4E8125A601A6842F080721A601A6871
:1013F0009201FCD55A6822F003025A605A6842F002
:1014000002025A605A6802F00C02082AFAD14FF020
:101410000062054B9A6002B0704700BF00100240A6
:101420000000FFF80020024000ED00E030B501218F
:1014300091B0042007F01EFD00243023384805A990
:10144000ADF814308DF8174007F02EFB0121084647
:1014500007F004FD01214FF4007007F00BFD314847
:1014600007F086F9304B80220593304B4FF48061B2
:10147000CDE906344FF48073CDE90A2320230225F9
:10148000CDE90C134FF48053264805A9CDE90E345D
:10149000CDE9085407F0E6F90121224807F000FAE7
:1014A00040F20113ADF804304FF460236946204840
:1014B000CDE9023400948DF8105006F06FFF4FF420
:1014C000404007F07FFC052301220421184806F064
:1014D000B6FF05232A461946154806F0B0FF01213C
:1014E000134806F088FF0121114806F07BFF1048E1
:1014F00006F08AFF0E4C204606F08BFF0028FAD13A
:101500000B4806F08AFF0A4C204606F08BFF0028A5
:10151000FAD10121064806F089FF11B030BD00BFA5
:1015200000080140080002404C240140E402002071
:10153000002401400C22024B1860024B1A707047C5
:10154000F0020020FA02002010B50849084C0948B2
:10155000234600220978006800F080FA20B1207844
:10156000A0F148035842584110BD00BFFA020020C4
:10157000F4020020F00200200346034903480A2237
:101580000978006800F08DBAFA020020F00200200D
:101590007FB50121102007F079FC1E230024ADF84F
:1015A000083041F61F43174D01A92846ADF8043015
:1015B000ADF80A40ADF806408DF80C4007F026FD66
:1015C000362301268DF80030092368468DF8013056
:1015D0008DF802408DF8036006F0A8FE31462846DB
:1015E00007F096FF32463146284607F07AFE21463C
:1015F000284607F0C2FE2146284607F058FE04B0F0
:1016000070BD00BF0010004008B50121064807F07A
:1016100083FF40B10121044807F089FF034AD368E2
:1016200083F48053D36008BD0010004000080140DF
:1016300037B50121042007F01DFC4FF4805541F21D
:101640000303084C01A92046ADF80630ADF804505C
:1016500007F02AFA2946204607F086FAFFF798FF96
:1016600003B030BD0008014008B5FFF7E1FF0D4CA5
:101670000D4D23781BB9142005F0D4FFF9E70121A3
:10168000284607F014FE642005F0CCFF0021284610
:1016900007F00DFE642005F0C5FF00233220237003
:1016A000EAE700BFFB020020001000402DE9F043F4
:1016B000804689B00E460820012117461D4607F0D6
:1016C000D9FB01214FF0007007F0E0FB4FF40073ED
:1016D000ADF8003041F60303224C694620464FF432
:1016E0008079ADF8023007F0DFF948232046002466
:1016F00069468DF80330ADF8009007F0D5F9012167
:101700004FF4EA1007F032FA9DF8403001A916486C
:101710008DF80630ADF80A40ADF80C90ADF80E40EB
:101720008DF807808DF808708DF80960ADF80450C9
:1017300006F0CCFE40F2011304A8ADF81040ADF85D
:101740001240ADF81440ADF81640ADF81840ADF8B1
:101750001A40ADF81C3006F023FF204609B0BDE862
:10176000F08300BF000C014000640040F0B512237C
:10177000002487B00A468DF80E1001460DF10F00C7
:10178000CDE90133ADF80C4009F060FF0C4801A928
:1017900006F074FF06460A4F31463846A5B206F0F9
:1017A000BBFF30B90134B4F5805FF5D1012007B03B
:1017B000F0BD40F6FF702B1A58425841F7E700BFC2
:1017C0000064004010B50446042006F0DBFD012251
:1017D000094B4FF47A701C60084B44431A804FF059
:1017E000E0231A6942F002021A615C611A6942F050
:1017F00001021A6110BD00BF00030020FC0200209E
:101800000A4B4FF0E0211B6830B5584300234D6967
:101810008C698A699442FCD0234498BF5B199B1A57
:10182000834200D330BD1446F3E700BF000300201D
:1018300038B5044606F06CF801280DD00A4D28880A
:10184000A04203D8B4FBF0F005F0ECFE2888B4FB0E
:10185000F0F300FB1344A4B24FF47A706043BDE888
:101860003840FFF7CDBF00BFFC0200200023F0B5D9
:1018700085B00393314B0A211A7901A88DF8042011
:101880005A7901AC8DF805209A7926468DF8062004
:10189000DA792B4F8DF807201A7A2A4D8DF8082017
:1018A0009A78DB688DF809201A0A8DF80A308DF8CD
:1018B0000B201A0C1B0E8DF80C208DF80D3008F043
:1018C000DDFD8DF80E00000A8DF80F0007F060F8BE
:1018D000342007F071F81A4807F09AF8042811D15B
:1018E000B37871781B0443EA0123317838460B43FF
:1018F000F178043743EA016107F0AAF8AF4206F134
:101900000406EBD107F050F80D4AA0786378000484
:1019100040EA032023781843E37840EA036052F852
:10192000043BAA4206D0834204F10404EDD0002017
:1019300005B0F0BD1B1A58425841F9E7B4450020E4
:1019400000F803080CF8030830B5002585B0CDE990
:1019500001552E4A0395D2F8003801A8190A8DF8CE
:1019600004308DF80510190C1B0E8DF806108DF83B
:101970000730D2F80438264C190A8DF808308DF853
:101980000910190C1B0E8DF80A108DF80B30D2F8C7
:1019900008380A211A0A8DF80C308DF80D201A0C1F
:1019A0001B0E8DF80E208DF80F3008F067FD9DF8A6
:1019B0000E20C3B29A4205D19DF80F30C0F30F201C
:1019C00083420AD013480AF0C5FC134B0FCB84E8BE
:1019D0000F00FFF74BFF05B030BD9DF80430E570F8
:1019E00023719DF8053063719DF80630A3719DF851
:1019F0000730E3719DF8083023729DF80930A37019
:101A00009DF80D301B06E360E5E700BF00F003081A
:101A1000B4450020A0000108B000002008B500F087
:101A2000EDF9012008BD30B5FF2A8BB004460E9DAC
:101A30000AD10122009505A800F0E2F9204605A987
:101A400000F0FCF90BB030BDCDE90135012305A84C
:101A500000931346002200F0E1F9EFE707B5009389
:101A60000123FFF7E0FF03B05DF804FB30B5144637
:101A70008BB0FF2C05460E980AD10090002205A8D5
:101A800000F0BEF9284605A900F0D8F90BB030BD2A
:101A90000022CDE901300092234605A800F0BEF9EE
:101AA000F0E71FB58DF80F300DF10F030093012300
:101AB000FFF7DCFF05B05DF804FB2DE9F74399461D
:101AC00001240DF107039DF82880174605460E46B0
:101AD000FFF7C4FF04FA09F39DF807205BB2B8F1E1
:101AE000000F0BD01343DBB23A46314628468DF83F
:101AF0000730FFF7D6FF03B0BDE8F08322EA030307
:101B0000F2E72DE9F74398460DF1070305460E4627
:101B100017469DF82890FFF7A1FFD0B101249DF84A
:101B20002C20A8EB090304FA09F40133013C9C4082
:101B300002FA03F39DF80720DBB222EA04021C40FC
:101B400042EA040331463A4628468DF80730FFF74B
:101B5000A8FF03B0BDE8F08310B504460368002178
:101B6000186C06F09DFE2368986C06F0C5FE23688D
:101B70000021186807F0C4F823680021186807F0EE
:101B8000CBF823680022BDE810400A21186C06F04B
:101B900092BE0000002307B501930A4B01A9186A01
:101BA00005F0F8F8019B4BB14FF0E0234FF0805265
:101BB000C3F8042DBFF34F8FBFF36F8F03B05DF8F1
:101BC00004FB00BF00000020054B00221B684FF4FF
:101BD000C061186840F20123038007F0B5B800BF68
:101BE00000000020002342F20F7282B001930193A3
:101BF000019B934201D902B07047019B01330193CD
:101C0000F6E700002DE9F0430446036889B0586AFE
:101C1000012107F02FF923680121586907F02AF9FB
:101C200023680121586807F031F902A806F08DFFFA
:101C300041F20343ADF80A30236802A9DA699869D2
:101C4000ADF8082006F030FF236802A9DA6A986A26
:101C5000ADF8082006F028FF23689F6AB3F82C80AF
:101C6000384641469D699E8B06F07CFF41463846CA
:101C700006F072FF3146002800F09D80284606F0ED
:101C800071FF41463846FFF7ADFF06F06DFF414654
:101C90003846FFF7A7FF06F067FF41463846FFF7D3
:101CA000A1FF06F05FFF3146284606F05BFFDFF834
:101CB00040913146284606F04FFF10B9B9F10109AD
:101CC000F7D14B4D4146384606F046FF08B9013D75
:101CD000F8D11C238DF80B30236802A9DA699869C2
:101CE000ADF8082006F0E0FE236802A9DA6A986AD7
:101CF000ADF8082006F0D8FE23680025186806F025
:101D00007BFF3C4A3C4B0126CDE905234FF4804341
:101D10000727ADF81C30236804A91A6918680492D3
:101D200006F084FF236801224FF48071186807F0E1
:101D30000BF8236801A89B688DF805708DF80430B6
:101D40008DF806508DF8076006F0F0FA236801A8B8
:101D5000DB688DF8043006F0E9FA23683146986BA9
:101D600007F07CF8226803A81368C4E90C55103307
:101D7000C4E90A358023C4E90F354FF40053E36406
:101D8000536CC4E91155A5638DF80C308DF80D70B6
:101D90008DF80E508DF80F6006F0C8FA0322294620
:101DA000304604F099FE2062304604F077FF60620E
:101DB00009B0BDE8F083284606F0D4FEDFF8309085
:101DC0003146284606F0C8FE10B9B9F10109F7D12D
:101DD00031462846FFF706FF06F0C6FE3146284684
:101DE000FFF700FF06F0BEFEFFF7FCFE3EE700BF78
:101DF000A18601000000FFBF30000004FFF702BF12
:101E00000360009B017182714FF6FF710022036134
:101E100002230273C181C27143717047C381019B68
:101E2000017103600023C371029B9DF800100361E0
:101E300002238171027343717047000038B500239B
:101E40000D46044619464FF0FF32406A04F0FCFF8D
:101E50002946231D05F1140251F8040B914243F861
:101E6000040BF9D1A57A012D0ED121466368636375
:101E70006369E36251F8283B186C06F0F3FC2368B1
:101E80002946186C06F00CFD2368002218684FF4F0
:101E9000806106F059FF2368012218684FF4007131
:101EA00006F052FF40F201122368206A1B681A8074
:101EB00000234FF47A72194604F0C6FF01280BD1B3
:101EC000E57AB5FA85F56D090023606A1A46194668
:101ED00004F02AFE284638BD2046FFF73DFE204686
:101EE000FFF790FE02480AF0BBFA0025ECE700BFBE
:101EF0000301010810B5204C20492368186806F03A
:101F00003AFF70B1637A5A1E6272002B2CD040F2F5
:101F1000011223681B681A8023681849186806F0A4
:101F200044FF23681649186806F025FF20B123688E
:101F30001349186806F039FF23681249186806F03B
:101F40001AFF20B123680F49186806F02EFF236896
:101F50000D49186806F00FFF68B123680A49186830
:101F6000BDE8104006F021BF0123E372FFF712FE27
:101F7000FFF72AFED0E710BD00000020000400108B
:101F8000000100100008001000020010F8B55B4CC2
:101F900023681868818A8BB211F001011CD00023DC
:101FA000A361A37A23B14FF6FF73628A9A4208D0E5
:101FB0000022217A490001F0FE01BDE8F84006F058
:101FC000D1BE012106F0B4FE217A23684900012226
:101FD000186801F0FE01F0E79E0741D5A27A638AF6
:101FE0001AB14FF6FF72934219D0028B4FF6FF726F
:101FF00093420CD0227C82B1190A06F0AEFE23680F
:10200000A17C186806F0A9FE4FF6FF7363820122D7
:1020100023684FF4806118685DE0D9B2F2E7636825
:10202000012B19D106F084FE2368002218684FF4B2
:10203000C06106F089FE23680122186C0A2106F0AF
:102040003AFC23680121186806F05AFEBFF35F8F3F
:1020500023681B681B8BF8BD012106F05DFEE3E7DA
:1020600013F004061ED0038B5D070BD5A37A012B5A
:1020700013D140F20113038023681A681388D9052D
:10208000FCD4E8E7D4E905656B1CA36106F067FEA4
:102090007055A26963689A42EED1FFF77BFDFFF7A6
:1020A00093FDE9E713F040050DD0D4E905756B1CED
:1020B000A36106F054FE7855A26963689A42CAD1BA
:1020C00032462368A5E71B06C5D5A37A012B06D1A6
:1020D0002A464FF48061BDE8F84006F035BED4E9E9
:1020E0000523591CA161D15C06F037FEA269636823
:1020F0009A42B0D12A4623688BE700BF0000002037
:1021000010B50F4C2368986C06F0DEFB30B120460A
:10211000FFF722FDFFF73EFDFFF756FD2368D86C61
:1021200006F0D2FB58B12368D86C06F0E5FB01231A
:10213000E372FFF72FFDBDE81040FFF745BD10BD6E
:1021400000000020034600223C210148FFF7A9BC03
:102150000000002008B54FF4FA70FFF769FB4FF458
:10216000FA70FFF765FBAE20FFF7ECFF2020FFF7CA
:10217000E9FF1020FFF7E6FFB020FFF7E3FFC820DC
:10218000FFF7E0FF0020FFF7DDFF1020FFF7DAFF89
:102190004020FFF7D7FF8120FFF7D4FFFF20FFF794
:1021A000D1FFA120FFF7CEFFA620FFF7CBFFA8208D
:1021B000FFF7C8FF3F20FFF7C5FFA420FFF7C2FFCE
:1021C000D320FFF7BFFF0020FFF7BCFFD520FFF7AC
:1021D000B9FFF020FFF7B6FFD920FFF7B3FF2220A9
:1021E000FFF7B0FFDA20FFF7ADFF1220FFF7AAFFDD
:1021F000DB20FFF7A7FF2020FFF7A4FF8D20FFF7CC
:10220000A1FF1420FFF79EFFBDE80840AF20FFF7B5
:1022100099BF10B50446A1F15000C0B2FFF792FF7C
:10222000200940F01000FFF78DFF04F00F00BDE81B
:102230001040FFF787BF0000002130B5A3B07C221B
:1022400003A80291B02409F00FFA0C4D2046FFF7C5
:1022500079FF0020FFF776FF1020FFF773FF0134AE
:1022600002AB0093402280233C212846E4B2FFF7D2
:10227000FDFBB82CEAD123B030BD00BF0000002028
:10228000012B2DE9F74F04460D46174622D0022BAD
:1022900059D003B0BDE8F08F7E2C82BF00240135F9
:1022A000EDB22046203B2946DEB2FFF7B2FF0623FF
:1022B00003FB069640223C2150460096FFF7D6FBD2
:1022C0000634E4B208F101085FFA88F3FB5C002BE6
:1022D000E2D1DEE74FF00008DFF87890DFF878A071
:1022E000F2E7782C84BF00240135A6F1200688BFD0
:1022F000EDB2F6B2204629464FEA061B09EB061658
:10230000FFF787FF082340223C2150460096FFF745
:10231000ADFB691C2046C9B20BF1080BFFF779FF32
:1023200009EB0B030093402208233C215046FFF7A2
:102330009DFB0834E4B208F101085FFA88F3FE5C03
:10234000002ECED1A5E74FF00008DFF81090DFF89F
:1023500008A0F2E7580201080000002080040108EC
:102360002DE9F34107460C461D46089EDFF82880FC
:10237000AC4202D302B0BDE8F08121463846FFF7F7
:1023800048FF01340096802340223C214046FFF75D
:102390006DFBE4B28036EBE70000002010B52B4C5B
:1023A0009EB06068FEF7B0F802460B4605A82849C3
:1023B0000AF062F8002105AA01230846FFF760FF32
:1023C0002068FEF7A1F802460B46684621490AF04C
:1023D00053F801236A4619460020FFF751FF1E4BB0
:1023E0001E491A880AA80AF047F80AAA01230221FE
:1023F0000020FFF745FF1A4B1A4C1A881A490FA8FC
:102400000AF03AF801230FAA03210020FFF738FF52
:10241000B4F90020154914A80AF02EF8012314AAD3
:1024200004210020FFF72CFFB4F90220104919A85D
:102430000AF022F80123052119AA0020FFF720FF46
:10244000322005F0EFF81EB010BD00BFE8020020FA
:10245000C5010108D901010840030020ED01010870
:102460004603002008030020FD0101080D020108B9
:102470001C0201082DE9F041554EADF5A15D84B077
:102480003378052B0AD0FFF765FE524C3378042BC6
:10249000FDD8DFE803F0074170949800322005F082
:1024A000C1F8EDE74C4901220DF20C4003F096FB18
:1024B00005464FF420310DF20C4003F03FFD1DBBEB
:1024C0004FF48977454809F0CBFF04AB0DF10808BC
:1024D0001D1F013F08D10DF20C4003F024FDFFF752
:1024E000ABFE04233370D1E7434629464FF48062A4
:1024F0000DF20C4003F013FC002108238022084653
:102500000095FFF72DFFE4E7E368354883F01003FB
:10251000E36009F0A5FFDEE701222F490DF20C4030
:1025200003F05CFBF8B9A1272C4809F099FF04AB34
:102530000DF108081D1F013F05D10DF20C4003F0FD
:10254000F2FC0323CEE7434629464FF480620DF2A6
:102550000C4003F0E4FB002108238022084600958C
:10256000FFF7FEFEE7E7E3681D4883F01003E36032
:1025700009F076FFE1E7184901220DF20C4003F063
:102580002DFB05464FF4D9210DF20C4003F0D6FC8B
:10259000002DE8D1114809F063FF03AF04AB3946C1
:1025A0004FF48062083B0DF20C4003F0B8FB0823A7
:1025B0008022294628460097FFF7D2FEBDE7642017
:1025C00005F030F862E7FFF7E9FE3220F8E700BFD8
:1025D00080000020001001408D0101082B0201083D
:1025E0004202010807B50121082006F043FC04233C
:1025F000ADF8043042F60303044801A9ADF80630F3
:1026000006F052FA03B05DF804FB00BF000C014075
:1026100007B50121102006F02DFC0223ADF804308F
:1026200044F60303044801A9ADF8063006F03CFA6D
:1026300003B05DF804FB00BF0010014037B5012175
:10264000102006F017FC102541F20303074C01A9E6
:102650002046ADF80630ADF8045006F025FA2946BC
:10266000204606F07FFA03B030BD00BF00100140E5
:1026700070B5012188B040F6040006F0FBFB4FF472
:102680001063ADF8003041F6030369461E48ADF80B
:10269000023006F009FA4FF47A730025ADF80830DD
:1026A00047231A4C01A920460126ADF80430ADF8A5
:1026B0000A50ADF806508DF80C5006F0A7FC6023C8
:1026C000204604A9ADF81030ADF81260ADF81850EE
:1026D000ADF8165006F0E4FC2046082106F029FE6D
:1026E000204604A9ADF8165006F09CFD20460821AE
:1026F00006F039FE3146204606F0D9FD3146204627
:1027000006F0E1FD08B070BD00080140002C01405A
:1027100030B5012189B0042006F0ACFB0C23ADF8E4
:10272000003041F6030369462148ADF8023006F057
:10273000BBF90121084606F0A9FB4FF47A73002487
:10274000ADF80830472301A94FF080400125ADF8CE
:102750000430ADF80A40ADF806408DF80C4006F0A4
:1027600055FC602304A94FF08040ADF81030ADF85F
:102770001250ADF81840ADF8164006F015FD0821CE
:102780004FF0804006F0E7FD04A94FF08040ADF81F
:10279000164006F047FD08214FF0804006F0E3FDAB
:1027A00029464FF0804006F082FD09B030BD00BFE1
:1027B0000008014070B5012188B0082006F066FBD2
:1027C0000121052006F056FB042303260DEB03012F
:1027D0001E488DF80730ADF8046006F065F902A8D0
:1027E00006F054FD00254FF6FF73194C02A9204650
:1027F000ADF80C30ADF80850ADF80E50ADF80A50F9
:1028000006F004FC2A462B463146204606F072FDAF
:1028100005A806F044FD0A23204605A9ADF81C30A2
:1028200006F0DEFD2046012106F072FE0122204660
:10283000114606F056FD2946204606F09EFD012170
:10284000204606F034FD08B070BD00BF000801400E
:10285000000C004030B5012189B0042006F016FBC1
:102860000121092006F006FBC023ADF80430042343
:102870001E480DEB03018DF8073006F015F902A88C
:1028800006F004FD00254FF6FF73194C02A92046FF
:10289000ADF80C30ADF80850ADF80E50ADF80A5058
:1028A00006F0B4FB2A462B460321204606F022FD03
:1028B00005A806F0F4FC0A23204605A9ADF81C3053
:1028C00006F08EFD2046012106F022FE0122204660
:1028D000114606F006FD2946204606F04EFD012170
:1028E000204606F0E4FC09B030BD00BF000C0140FA
:1028F0000008004008B50121054806F00DFE28B18A
:10290000BDE808400121024806F011BE08BD00BF25
:10291000000C004008B50121054806F0FDFD28B176
:10292000BDE808400121024806F001BE08BD00BF15
:1029300000080040002205480549838C5B428B81DA
:10294000044B8284988CC8819A847047000C0040A4
:102950000803002000080040B0F57A7F0B4B0BDC29
:1029600010F57A7F10DB002808DA0022404280B29E
:102970009A86A3F8400070474FF47A70002280B224
:102980009886A3F8402070470148EEE7002C0140EC
:1029900018FCFFFFB0F57A7F0DDC10F57A7F14DBB1
:1029A00000280ADA4FF080430022404280B2988724
:1029B000A3F8402070474FF47A704FF08043002214
:1029C00080B29A87A3F8400070470148EAE700BF49
:1029D00018FCFFFF08B5FFF74BFEFFF799FE00203C
:1029E000FFF7BAFF0020FFF7D5FFFFF7E3FEBDE8D2
:1029F0000840FFF72FBF00004FF47A72024B9A860F
:102A0000A3F84020704700BF002C01404FF08043E6
:102A10004FF47A729A87A3F84020704700000000B4
:102A2000F8B52D4CA388980B4FEA933204D120803F
:102A3000BDE8F840FFF790BF032805D100232380AD
:102A4000BDE8F840FFF7D8BF012AC3F30D000CBF63
:102A500001254FF0FF35FDF745FD1BA3D3E900230A
:102A6000FDF7D4FE1AA3D3E90023FDF7A5FD064622
:102A700028460F46FDF736FD02460B4630463946DE
:102A8000FDF79AFD0022154BFDF7C0FEFEF744F856
:102A90001349A2890B88821AC3EB033003EB0010A1
:102AA000238892B2184402EB820300EB83000D4BA3
:102AB00000B29842B8BF1846B0F57A7FA8BF4FF46D
:102AC0007A700A802080B3E7A11B92418386694017
:102AD0000000000000A074400803002000004940EE
:102AE0000403002018FCFFFFF8B52D4CE388980B79
:102AF0004FEA933204D16080BDE8F840FFF74ABF47
:102B0000032805D100236380BDE8F840FFF77EBFAE
:102B1000012AC3F30D000CBF01254FF0FF35FDF76F
:102B2000E1FC1BA3D3E90023FDF770FE1AA3D3E950
:102B30000023FDF741FD064628460F46FDF7D2FC6F
:102B400002460B4630463946FDF736FD0022154B4E
:102B5000FDF75CFEFDF7E0FF1349E2890B88821A5E
:102B6000C3EB033003EB0010638892B2184402EB0E
:102B7000820300EB83000D4B00B29842B8BF1846A9
:102B8000B0F57A7FA8BF4FF47A700A806080B3E70F
:102B9000A11B9241838669400000000000A07440A0
:102BA00008030020000049400603002018FCFFFF36
:102BB000322010B52C4CB4F90C305843FEF7FEF817
:102BC0002A49FEF703FAFDF79FFC25A3D3E900236A
:102BD000FDF7F2FCFDF7A0FF00B200281FDDC0F3F7
:102BE0000D0040F4804020813220B4F90E3058436B
:102BF000FEF7E4F81D49FEF7E9F9FDF785FC18A397
:102C0000D3E90023FDF7D8FCFDF786FF00B20028CA
:102C100014DDC0F30D0040F48040608110BD06D08B
:102C2000C0F30D006FEA40406FEA5040DBE7A38835
:102C300023F47F5323F03F032381D5E706D0C0F36D
:102C40000D006FEA40406FEA5040E6E7E38823F466
:102C50007F5323F03F036381E0E700BFAFF30080C1
:102C6000A11B924183866940080300200000A54310
:102C700008B52F4E3378042B14D02E4D2E4C3378BC
:102C8000052B01D0012B11D80020FFF765FE002095
:102C9000FFF780FE322004F0C5FC08212748FEF72C
:102CA00065FDECE7642004F0BDFCE3E7FFF742FEBE
:102CB000FFF77EFF06F08AFF48B3B5F90000FFF783
:102CC0004BFEB5F90200FFF765FE0120218800F0F8
:102CD000E5FE0220618800F0E1FE0320A18800F0FB
:102CE000DDFE0420E18800F0D9FE0520218900F0F6
:102CF000D5FE0620618900F0D1FE0720A18900F0F1
:102D0000CDFE0820E18900F0C9FE1420C3E701F0E0
:102D1000E1FA014620B1FFF783FEFFF7E5FED4E7B5
:102D20002860FFF719FE0846FFF734FEEDE700BF05
:102D3000800000200803002082000020E000002026
:102D4000054B1A7832B96821044A1060044A1170A0
:102D500001221A70704700BF3703002024030020AF
:102D60003603002003460349034819220978006806
:102D7000FEF797BE3603002024030020032307B587
:102D800006490190064800931A220023097800683A
:102D9000FEF7B7FE03B05DF804FB00BF360300206A
:102DA00024030020022307B506490190064800933A
:102DB0001B22042309780068FEF7A3FE03B05DF828
:102DC00004FB00BF3603002024030020022307B5C4
:102DD00006490190064800931C22042309780068E4
:102DE000FEF78FFE03B05DF804FB00BF3603002042
:102DF00024030020032307B50649019006480093E9
:102E00001D22002309780068FEF77BFE03B05DF801
:102E100004FB00BF360300202403002007B5064949
:102E2000009006480623242209780068FEF745FE34
:102E300003B05DF804FB00BF36030020240300202C
:102E400007B5064900900648042324220978006843
:102E5000FEF733FE03B05DF804FB00BF360300202D
:102E600024030020042307B5064901900648009377
:102E70002422032309780068FEF743FE03B05DF8BF
:102E800004FB00BF360300202403002003280B4668
:102E90000AD800EB400000F12502044904480978F3
:102EA0000068D2B2FEF7FDBD704700BF36030020B8
:102EB0002403002003280B460AD800EB400000F151
:102EC00026020449044809780068D2B2FEF7E9BD39
:102ED000704700BF3603002024030020032807B5F5
:102EE0000CD800EB4000009100F12702054906488C
:102EF000072309780068D2B2FEF7DFFD03B05DF862
:102F000004FB00BF3603002024030020032807B57C
:102F10000ED8042300EB4000019100F1270206497E
:102F200006480093097803230068D2B2FEF7E9FD52
:102F300003B05DF804FB00BF36030020240300202B
:102F4000052307B50649019006480093342204235F
:102F500009780068FEF7D5FD03B05DF804FB00BFFB
:102F6000360300202403002007B5064900900648D8
:102F70000723372209780068FEF79FFD03B05DF84C
:102F800004FB00BF360300202403002007B50649D8
:102F9000009006480623372209780068FEF78DFD69
:102FA00003B05DF804FB00BF3603002024030020BB
:102FB00007B50649009006480523372209780068BE
:102FC000FEF77BFD03B05DF804FB00BF3603002075
:102FD0002403002007B50649009006480423372241
:102FE00009780068FEF769FD03B05DF804FB00BFD7
:102FF000360300202403002007B506490090064848
:103000000123372209780068FEF757FD03B05DF809
:1030100004FB00BF360300202403002003460349BD
:103020000348382209780068FEF73BBD36030020CC
:103030002403002007B506490090064800233822E3
:1030400009780068FEF739FD03B05DF804FB00BFA6
:10305000360300202403002007B5034600910548ED
:103060000549672209780068FEF727FD03B05DF87F
:1030700004FB00BF240300203603002007B50649E7
:103080000090064805236A2209780068FEF715FDBE
:1030900003B05DF804FB00BF3603002024030020CA
:1030A000012307B50549064800936B2207230978D9
:1030B0000068FEF702FD03B05DF804FB3603002054
:1030C0002403002007B506490090064806236B221A
:1030D00009780068FEF7F1FC03B05DF804FB00BF5F
:1030E000360300202403002007B580F00100009083
:1030F0000549064803236B2209780068FEF7DDFCCA
:1031000003B05DF804FB00BF360300202403002059
:10311000032307B506490190064800936B2202235A
:1031200009780068FEF7EDFC03B05DF804FB00BF12
:10313000360300202403002010B50549054C06483D
:103140002346752209780068FEF788FC207810BDB8
:103150003603002028030020240300202DE9F04737
:1031600001218AB00D2005F085FE01213F4805F0C0
:10317000FDFC0121102005F07DFE01214FF40040EF
:1031800005F084FE3823ADF8083041F6030320270C
:103190004FF0100A4FF40049354DDFF8D88002A9EE
:1031A0003548ADF80A3005F07FFC284602A9ADF895
:1031B00008708DF80BA005F077FC404602A94FF48B
:1031C0000054ADF8089005F06FFC4823284602A98A
:1031D0008DF80B30ADF8084005F066FC0D2102209B
:1031E00005F0F4FC01264FF4406303A80394ADF806
:1031F00010308DF8126005F081FB282300248DF833
:103200000430062301A88DF805308DF806408DF8AE
:10321000076005F08BF84FF48273ADF816304FF469
:103220000073ADF81E300723ADF81440ADF8184018
:10323000ADF81A40ADF81C40ADF822400F4C05A97E
:103240002046ADF82430ADF820A005F037FE314619
:10325000204605F052FE4946404605F083FC3946BB
:10326000284605F081FC0AB0BDE8F0870002300076
:103270000010014000080140000C0140003C0040EB
:10328000014610B50A4805F044FE094C02212046CB
:1032900005F044FE0028F9D00121054805F03EFE66
:1032A0000028F9D0024805F036FEC0B210BD00BFBC
:1032B000003C004038B50446094D4FF40041284613
:1032C00005F052FC2046FFF7DBFFA520FFF7D8FFF3
:1032D00004464FF40041284605F044FC204638BD22
:1032E0000008014070B506460C460C484FF40041FA
:1032F000154605F039FC3046FFF7C2FF2544AC42C5
:1033000006D1BDE870404FF40041044805F02ABCE6
:1033100014F8010BFFF7B4FFF1E700BF000801400C
:1033200070B506460C460C484FF40041154605F0B2
:103330001BFC3046FFF7A4FF2544AC4206D1BDE894
:1033400070404FF40041044805F00CBCFF20FFF72B
:1033500097FF04F8010BF0E70008014070B505463F
:103360000C460A4E4FF40041304605F0FDFB45F097
:103370002000FFF785FF2046FFF782FF3046BDE8BB
:1033800070404FF4004105F0EDBB00BF0008014064
:1033900070B504460D46084E2021304605F0E4FB8A
:1033A00021462A46A820FFF79DFF3046BDE8704021
:1033B000202105F0D7BB00BF00100140032110B54C
:1033C00004460846FFF7CAFF214605222A20FFF7D8
:1033D00089FF2146BDE8104005223020FFF782BF5B
:1033E0007D28014602D80520FFF7B8BF704710B509
:1033F00004460620FFF75EFF00F0D70134B1022C2F
:1034000007D0BDE810400620FFF7A8BF41F020011B
:10341000F7E741F00801F4E710B504460620FFF78E
:1034200049FF022C00F0F8010AD0032C0BD0012C2C
:1034300001D141F002010620BDE81040FFF78EBF28
:1034400041F00401F7E741F00701F4E710B5062069
:10345000FFF730FF04460420FFF72CFFA30654BFFC
:1034600040F0100140F05001C9B20420BDE8104006
:10347000FFF774BF38B5214D0446FFF76FFE2048B3
:10348000FFF79CFFA878FFF7ABFFE878FFF7AFFFE7
:103490000320FFF7C1FFFFF7D9FF0420FFF70AFF62
:1034A00040F00301C9B20420FFF758FF012C19D1E5
:1034B0000F210020FFF752FF21461C20FFF74EFF8F
:1034C00006211D20FFF74AFF21462046FFF746FF51
:1034D000FF21E120FFF742FFBDE83840FF21E22055
:1034E000FFF73CBF0E210020FFF738FF01211C2011
:1034F000FFF734FF06211D20E8E700BFB445002098
:10350000B84500201FB5124B18681B7900908DF844
:103510000430FFF723FE052269463020FFF7E2FE64
:10352000052202A91020FFF7FBFE6B46052202A927
:1035300013F8014B11F8010B844206D1013A12F045
:10354000FF02F5D1012004B010BD0020FBE700BF51
:10355000700A010838B505466020FFF7ABFE431E30
:10356000DBB21F2B044612D820210A4805F0FCFAD2
:10357000294661202246FFF7D3FE2021054805F0A9
:10358000F1FAFF21E220FFF7E9FE204638BD0024D2
:10359000F7E700BF0010014038B5002305460B7067
:1035A00007200C46FFF786FEC2060DD5FF21E1205D
:1035B000FFF7D4FE012470210720FFF7CFFE07207C
:1035C000FFF778FE204638BD430605D52846FFF7AD
:1035D000C1FF20700324EEE710F0200418BF02247E
:1035E000E9E70000014B1860704700BF3803002076
:1035F0004FF4005008B505F0B7F9012809D1054B83
:103600001B6803B19847BDE808404FF4005005F02F
:10361000B9B908BD3803002037B50121102005F0E5
:1036200029FC4FF4004541F20203074C01A9204652
:10363000ADF80630ADF8045005F036FA29462046BC
:1036400005F092FA03B030BD0010014037B50121FA
:10365000102005F00FFC4FF4804541F20203074CA7
:1036600001A92046ADF80630ADF8045005F01CFA6B
:103670002946204605F078FA03B030BD001001401D
:1036800007B50121102005F0F5FB0123ADF804304A
:1036900041F20303044801A9ADF8063005F004FA2D
:1036A00003B05DF804FB00BF001001400000000003
:1036B0002DE98848FFF7B0FFFFF7C8FFFFF7E0FFED
:1036C000FEF7A6FF764C4FF47A7003F0ABFF0221B1
:1036D000204605F041FA0028F5D100F18040012193
:1036E00000F5883005F03EFA4FF400416C4805F0D3
:1036F00039FA4FF480416A4805F034FA684C0221E7
:10370000204605F029FA60B3DFF8988198F8003078
:103710005BB30FF26C1BDBE900AB4FF06655022187
:103720005F4805F019FA20BB40F2DC5003F07AFF45
:1037300002215B4805F010FA0028F0D1012341F284
:10374000707088F8003003F06DFF554C0221204660
:1037500005F002FA0028F9D00121514805F004FAD9
:10376000DDE7642003F05EFFC9E7642003F05AFF41
:10377000CCE74D4B1B78002B65D14FF400414848F6
:1037800005F0F2F94FF48041454805F0EDF9DFF816
:103790001C91474CB9F8000080B2FDF70BFB29469D
:1037A000FDF760FBFCF7B0FE52465B46FCF704FFFA
:1037B0000022404BFCF700FF33A3D3E90023FCF7C2
:1037C000FBFE064620680F46FCF79EFE30A3D3E9B9
:1037D0000023FCF7F1FE02460B4630463946FCF763
:1037E00035FDFDF7E1F92060B9F8020080B2FDF780
:1037F000E1FA2946FDF736FBFCF786FE52465B46AA
:10380000FCF7DAFE24A3D3E90023FCF7D5FE1EA3C0
:10381000D3E90023FCF7D0FE064660680F46FCF7AC
:1038200073FE1BA3D3E90023FCF7C6FE02460B463A
:1038300030463946FCF70AFDFDF7B6F96060142002
:1038400003F0F0FE6BE7012B05D14FF40041144863
:1038500005F088F996E7022B0AD14FF40041104891
:1038600005F082F94FF480410D4805F07BF98EE7B1
:10387000032B8CD14FF40041094805F073F9F1E7AF
:103880006666666666660A409A9999999999C93FEB
:103890009A9999999999E93FCFF753E3A59B3440B9
:1038A00000100140800000203C030020E4020020C2
:1038B000E80200200000264070B5012188B00420F5
:1038C00005F0D8FA41F60304C02369463148ADF843
:1038D0000030ADF8024005F0E7F80121082005F0BE
:1038E000C9FA032369462C48ADF80030ADF8024010
:1038F00005F0DAF80121022005F0C8FA44F6206349
:103900000025ADF808304723244C01A920460126A4
:10391000ADF80430ADF80A50ADF806508DF80C50F3
:1039200005F074FB6023ADF8185040F2DC552046DA
:1039300004A9ADF81030ADF81260ADF8165005F0DE
:10394000AFFB2046082105F0F4FC204604A9ADF8A1
:10395000165005F0E9FB2046082105F0F2FC204650
:1039600004A9ADF8165005F01FFC2046082105F00B
:10397000F2FC204604A9ADF8165005F053FC204691
:10398000082105F0F0FC3146204605F090FC08B017
:1039900070BD00BF00080140000C01400004004061
:1039A00070B5012188B042F2100005F063FA4FF4BF
:1039B0007073ADF8003041F6030369462948ADF84D
:1039C000023005F071F844F620630025ADF80830A8
:1039D0004723254C01A920460126ADF80430ADF857
:1039E0000A50ADF806508DF80C5005F00FFB60231F
:1039F000ADF8185040F2DC55204604A9ADF810305F
:103A0000ADF81260ADF8165005F04AFB20460821CB
:103A100005F08FFC204604A9ADF8165005F084FB94
:103A20002046082105F08DFC204604A9ADF816506B
:103A300005F0BAFB2046082105F08DFC204604A9BC
:103A4000ADF8165005F0EEFB2046082105F08BFC82
:103A50003146204605F02BFC3146204605F033FC6C
:103A600008B070BD001001400034014008B5FFF7F8
:103A700023FFBDE80840FFF793BF000008B50549E4
:103A8000FDF7F0F90449FDF7E5F8FDF7D7FB80B243
:103A900008BD00BF0000FA440000FA4308281BD804
:103AA000A1F5FA73B3F5FA6F16D8042884BF043869
:103AB000C0B200F1FF308CBF084B094B03280BD874
:103AC000DFE800F0020406089986704719877047FE
:103AD00099877047A3F84010704700BF0034014039
:103AE0000004004070B54FF07E5506680446294634
:103AF0003046FDF773FB08B1256006E0002530462F
:103B00002946FDF74DFB0028F6D170BD30B50121E7
:103B100087B04FF4804005F0B9F901214CF208005C
:103B200005F0A8F94FF4805541F20303264C69468D
:103B30002046ADF80050ADF8023004F0B5FF4FF468
:103B40000053ADF800301823694620468DF8033045
:103B500004F0AAFF4FF4804369462046ADF80030D8
:103B600004F0A2FF4FF4004369462046ADF8003050
:103B700004F09AFF2946204604F0F4FF4FF48272C5
:103B80000023ADF8062002220125ADF80430ADF87F
:103B90000830ADF80A20ADF810304FF40072ADF8DF
:103BA00012300723A4F55444204601A9ADF80E2095
:103BB000ADF81430ADF80C5005F080F929462046D8
:103BC00005F09BF907B030BD000C0140F8B54FF48B
:103BD00080530646164D174F2B600221384605F0DC
:103BE0009DF9044690B13146124805F092F94FF420
:103BF0008053104E2B600121304605F08FF90446AA
:103C000078B10C4805F087F9C4B208E02B685A1E59
:103C10002A60002BE1D12146074808F09BFB204693
:103C2000F8BD2B685A1E2A60002BE4D10121F3E76E
:103C30009400002000380040760A010870B50E4656
:103C400004464FF480511148154604F08DFF0320BF
:103C5000FFF7BCFFC6F30740FFF7B8FFC6F3072026
:103C6000FFF7B4FFF0B2FFF7B1FF2544AC4206D135
:103C7000BDE870404FF48051044804F073BFFF204A
:103C8000FFF7A4FF04F8010BF0E700BF000C0140B0
:103C9000F8B5104F4FF48051384604F065FF9F206F
:103CA000FFF794FFFF20FFF791FF0646FF20FFF785
:103CB0008DFF0446FF20FFF789FF054624023846A2
:103CC0004FF4805144EA064404F04CFF44EA0500F6
:103CD000F8BD00BF000C014010B5084C4FF48051F6
:103CE000204604F041FF0620FFF770FF2046BDE8A4
:103CF00010404FF4805104F035BF00BF000C01406C
:103D00000A484FF4805108B504F02EFF0520FFF754
:103D10005DFFFF20FFF75AFFC307FAD4BDE8084054
:103D20004FF48051014804F01DBF00BF000C01405A
:103D300038B50446104DFFF7CFFFFFF7E1FF4FF412
:103D40008051284604F010FF2020FFF73FFFC4F306
:103D50000740FFF73BFFC4F30720FFF737FFE0B250
:103D6000FFF734FF28464FF4805104F0FBFEBDE816
:103D70003840FFF7C5BF00BF000C014070B50E46CC
:103D800014460546FFF7A8FF4FF48051144804F08D
:103D9000EBFE0220FFF71AFFC6F30740FFF716FFFE
:103DA000C6F30720FFF712FFF0B2FFF70FFFB4F5DD
:103DB000807F04D90B4808F053FB4FF480742C44E7
:103DC000A54208D14FF48051054804F0CBFEBDE870
:103DD0007040FFF795BF15F8010BFFF7F7FEEFE70F
:103DE000000C0140A50A01082DE9F84311F0FF037A
:103DF000154604460F464FEA12221AD16AB14FEA1D
:103E0000022800EB0226A1EB0009B44204EB0901F1
:103E100007D1EAB207EB080101E02A4639462046FD
:103E200015E020464FF48072FFF7A8FF04F5807478
:103E3000EBE75E42F6B272B9EAB29642EDD21344B3
:103E4000DDB23246FFF79AFF2A46F119A019BDE804
:103E5000F843FFF793BF3246FFF790FFAD1B1FFA01
:103E600085F83444374408F47F46EDB204EB060885
:103E7000A7EB0409444504EB090103D1B9194DB17D
:103E80002A46CCE720464FF48072FFF777FF04F50F
:103E90008074EFE7BDE8F88310B5084C4FF480510B
:103EA000204604F061FEAB20FFF790FE2046BDE8FF
:103EB00010404FF4805104F055BE00BF000C01408B
:103EC00030B5012189B00446112004F0D3FF01214F
:103ED0004FF4002004F0DAFF4FF48063ADF80030B7
:103EE00041F60303234D69462846ADF8023004F03D
:103EF000DBFD4FF40063ADF800300423694628462B
:103F00008DF8033004F0D0FD4FF4402304940024D6
:103F1000A5F54445284604A9CDE90543ADF81C4064
:103F200005F00AFB4FF4007302A92846ADF80840DB
:103F3000ADF80A40ADF80C30ADF80E4005F04EFB80
:103F400034238DF806408DF804300124062301A89F
:103F50008DF805308DF8074004F0E8F92246284630
:103F600040F2255105F056FB2146284605F046FB58
:103F700009B030BD0010014040F6B83008B503F07C
:103F800051FB114C8021204605F064FB0028F9D03C
:103F900055210D4805F056FB00230C4C0A4D2370AB
:103FA000642003F03FFB2378022BF9D180212846BF
:103FB00005F050FB0028F9D05521284605F042FBBA
:103FC00000232370ECE700BF004C004042030020B8
:103FD00010B540F22551104805F042FB58B10F4C86
:103FE0000D48237843B905F031FB0D4B00021880D2
:103FF00023780133237010BD012B08D105F026FB77
:10400000074B1A88104380B21880064BEFE7BDE8D3
:10401000104005F01BBB00BF004C004042030020D5
:104020003E0300204003002030B5012189B0044642
:10403000312004F01FFF01214FF4801004F026FF0F
:104040004FF48053ADF8003041F603036946214830
:10405000ADF8023004F028FD042369461E48ADF88F
:1040600000308DF8033004F01FFD4FF4402304941A
:1040700000241A4D04A92846CDE90543ADF81C409B
:1040800005F05AFA4FF4007302A92846ADF808402B
:10409000ADF80A40ADF80C30ADF80E4005F09EFAD0
:1040A00035238DF806408DF804300124062301A83D
:1040B0008DF805308DF8074004F038F9224628467F
:1040C00040F2255105F0A6FA2146284605F096FA59
:1040D00009B030BD00100140001401400050004004
:1040E00040F6B83008B503F09DFA114C8021204607
:1040F00005F0B0FA0028F9D055210D4805F0A2FAD4
:1041000000230C4C0A4D2370642003F08BFA2378B3
:10411000022BF9D18021284605F09CFA0028F9D01D
:104120005521284605F08EFA00232370ECE700BFE6
:10413000005000404803002010B540F225511048BF
:1041400005F08EFA58B10F4C0D48237843B905F0AD
:104150007DFA0D4B0002188023780133237010BDC7
:10416000012B08D105F072FA074B1A88104380B270
:104170001880064BEFE7BDE8104005F067BA00BFB6
:104180000050004048030020440300204603002064
:1041900030B5012187B0044644F2040004F06AFE01
:1041A0004FF40073ADF8003041F603031C4D69462F
:1041B0002846ADF8023004F077FC4FF48063ADF888
:1041C00000300423694628468DF80330002504F0AA
:1041D0006BFC4FF440230294124C02A92046CDE917
:1041E0000353ADF8145005F0A7F925238DF80650B8
:1041F0008DF804300125062301A88DF805308DF8CF
:10420000075004F093F82A46204640F2255105F065
:1042100001FA2946204605F0F1F907B030BD00BF8C
:10422000000801400038014038B540F225512548CA
:1042300005F016FAA8B1234805F008FA224DC0B2DD
:104240002B8823B9AA280CD101232B8009E0012B4C
:104250000AD1AA2806D102234AF6AA222B801B4B98
:104260001A8038BD0023F0E7022B184C03D103233A
:10427000A0702B80F5E7032B05D1042320282B8089
:104280001BD8E070EDE7E278911E8B4202DAE05431
:104290000133DAE702F1FF3202D1A0842A80E0E79D
:1042A00093420AD1A38C214643EA00200023A08434
:1042B00007481A46006802F003FD00232B80E370D4
:1042C000CFE700BF003801404A0300205003002020
:1042D0004C030020014B1878704700BF49030020B1
:1042E00070B583780146112B8AB04AD14AF6AA23C9
:1042F000ADF8003040F61943ADF80230A74B6846E0
:1043000099881A7AADF80410D9889B78ADF8061010
:104310000A218DF808208DF8093006F0AFF86C46B8
:1043200000259F4EADF824009DF80330023BAB42C0
:104330001ADC9B4C8021204605F08CF90028F9D02E
:10434000BDF82410964805F07DF9954C8021204653
:1043500005F080F90028F9D0BDF824109048090A2A
:1043600005F070F90AB070BD8021304605F072F991
:104370000028F9D0304614F8011B05F063F9013527
:10438000D2E7122B45D1854B02796C461A714279DE
:1043900000255A718279824E9A71C279DA71027A55
:1043A0001A72FDF763FA4AF6AA23ADF8003040F21C
:1043B0001A738DF8040005216846ADF8023006F046
:1043C0005DF8ADF824009DF80330023BAB4213DCEE
:1043D000734C8021204605F03DF90028F9D0BDF846
:1043E00024106F4805F02EF96D4C8021204605F011
:1043F00031F90028F9D0AFE78021304605F02AF9DD
:104400000028F9D0304614F8011B05F01BF90135DE
:10441000D9E7132B3DD10279604B6C469A70FDF7BA
:1044200025FA4AF6AA23ADF8003040F21B738DF846
:10443000040005216846ADF8023006F01FF800259B
:10444000574EADF824009DF80330023BAB4213DC1D
:10445000534C8021204605F0FDF80028F9D0BDF826
:1044600024104F4805F0EEF84D4C8021204605F011
:10447000F1F80028F9D06FE78021304605F0EAF81E
:104480000028F9D0304614F8011B05F0DBF801359F
:10449000D9E7152B04D10AB0BDE8704005F0A0B9EA
:1044A000162B5FD182883F4B017E1A80C288002480
:1044B0005A8002898DF804409A8042896D46DA80DC
:1044C0008289374E1A81C2895A81028A9A81428A28
:1044D000DA81828A344B52BA9A80C28A684652BACA
:1044E000DA80324A11704AF6AA22ADF8002041F271
:1044F0001E12ADF802201A895B89110A8DF8051089
:104500008DF806200F211A0A8DF807208DF8083043
:1045100005F0B4FFADF824009DF80330023BA34240
:1045200013DC1F4C8021204605F094F80028F9D0B8
:10453000BDF824101A4805F085F8194C8021204652
:1045400005F088F80028F9D006E78021304605F00C
:1045500081F80028F9D0304615F8011B05F072F8F3
:104560000134D9E7212B0BD10379114A012B01D159
:104570001370F7E6022BFBD0032B18BF0023F7E7DD
:10458000092B02D01D2B7FF4EDAE00231A460948FB
:1045900000680AB0BDE8704002F0C6BAB445002019
:1045A0000038014082000020080300203C03002066
:1045B0002C460020D0450020F0B5002226210A20FC
:1045C0008BB002F089FA124E124D134F3060002367
:1045D000C8226946306802F037FC0128044614D12D
:1045E0009DF803106846023989B205F047FFBDF80F
:1045F00024100246814204D16846FFF771FE2C70F8
:10460000E5E7384607F0A6FEE1E700232B70DEE77A
:104610004C03002049030020D60A01082DE9F04F81
:104620004568D1F808B0066884688BB0D1F800A05E
:10463000D1F8049028465946039606950994FCF74C
:1046400011FC494607462046FCF70CFC014638465B
:10465000FCF7FEFA5146804602902046FCF702FC29
:10466000594607463046FCF7FDFB01463846FCF745
:10467000EFFA4946074605903046FCF7F3FB5146F2
:1046800081462846FCF7EEFB01464846FCF7E0FA77
:104690003946814608902046FCF7E4FB49468246AD
:1046A0002846FCF7DFFB01465046FCF7D1FA4946A5
:1046B00001903046FCF7D6FB414681462046FCF788
:1046C000D1FB01464846FCF7C3FA41460490284610
:1046D000FCF7C8FB394680463046FCF7C3FB014671
:1046E0004046FCF7B5FA314607903046FCF7BAFB76
:1046F000294606462846FCF7B5FB01463046FCF73E
:10470000A9FA214605462046FCF7ACFB014628469F
:10471000FCF7A0FA00F06AF8019904460846FCF795
:10472000A1FB049905460846FCF79CFB0146284678
:10473000FCF790FA079905460846FCF793FB0146FB
:104740002846FCF787FA00F051F802990646084619
:10475000FCF788FB059905460846FCF783FB0146F4
:104760002846FCF777FA089905460846FCF77AFBD5
:1047700001462846FCF76EFA00F038F83146054647
:104780000198FCF76FFB314601900498FCF76AFB37
:10479000314604900798FCF765FB2946079002987C
:1047A000FCF760FB294602900598FCF75BFB294665
:1047B00005900898FCF756FB214608900398FCF7F3
:1047C00051FB214603900698FCF74CFB21460690CE
:1047D0000998FCF747FB0449099001A800F02AF862
:1047E0000BB0BDE8F08F00BF7803002010B50A4C75
:1047F0000A49A4EB5004FCF735FB2146FCF732FBD9
:104800002146FCF72FFB01460548FCF721FA21461B
:10481000FCF728FB10BD00BF12141F5F12D3363FF8
:10482000FF51D83F10B50446FFF7E0FF2146FCF7E3
:1048300019FB10BD2DE9F04105460C4600684FF00C
:104840007E51FCF707FA2969FCF704FA296AFCF79C
:1048500001FA4FF07A51FCF705FB064620F00040C4
:10486000FFF7E0FF684920600746FCF7B7FC002827
:1048700059D039464FF07A50FCF7A8FB0646E96953
:104880006869FCF7E5F93146FCF7ECFA6060A96865
:10489000A869FCF7DDF93146FCF7E4FAA060E968A5
:1048A0006868FCF7D5F93146FCF7DCFAE06021686E
:1048B000D4F804800846FCF7D5FA41460546404640
:1048C000FCF7D0FA01462846FCF7C4F9A76805466C
:1048D00039463846FCF7C6FA01462846FCF7BAF9CD
:1048E000E668054631463046FCF7BCFA01462846E4
:1048F000FCF7B0F9FFF77AFF054601462068FCF7A0
:10490000B1FA294620606068FCF7ACFA294660607D
:10491000A068FCF7A7FA2946A060E068FCF7A2FAB5
:10492000E060BDE8F0814FF07E512868FCF792F915
:104930004FF07C51FCF796FA3146FCF789F920F0EC
:104940000040FFF76FFF60604FF07E512869FCF771
:1049500081F94FF07C51FCF785FA3146FCF778F984
:1049600020F00040FFF75EFFA0604FF07E51286A04
:10497000FCF770F94FF07C51FCF774FA3146FCF704
:1049800067F920F00040FFF74DFFE060E968064658
:104990006868FCF75FF900210746FCF701FC28B3C3
:1049A000A36803F10043A360E9696869FCF752F961
:1049B0000021FCF713FC10B106F10046E660E9693E
:1049C0006869FCF745F90021FCF7EAFB00283FF491
:1049D0006EAFA268E368616802F1004201F1004134
:1049E00003F100436160A260E36060E700213846A4
:1049F000FCF7F4FB0028E2D0E9696869FCF72AF9C2
:104A00000021FCF7CDFBD6E70AD7233C012808B5E7
:104A100006D1FFF73DF9034BC01A18BF012008BDAE
:104A20000120FCE71740EF00012808B50AD1FFF785
:104A30006DF8FFF731FAFFF72BF9034BC01A18BFD7
:104A4000012008BD0120FCE71740EF0010B5044627
:104A5000012C0846114607D11B0303F470420903D9
:104A6000FFF7ECF8002010BD0420FCE770B50E46FF
:104A70001D4673B101280CD114032046FFF758F9E5
:104A80002A033046214602F47042FFF7ADF90020B8
:104A900070BD0420FCE7012810D1022908D00329A9
:104AA0000AD0012902D14FF400631360002070473F
:104AB0004FF480531380F9E71060F7E70420704744
:104AC000004870470000214601380A44914200D155
:104AD000704711F8013B00F8013FF7E702449042AC
:104AE00000D1704700F8011BF9E7034600F10B0104
:104AF0000020C20142EA500013F8012B10448B42FF
:104B000000F0FF00F5D170470268014610B552B1C0
:104B10001046034610F8014B1F2C0FD93A2CF8D140
:104B2000501C834202D04FF0FF3006E0107830383E
:104B3000C2B2012AF7D801330B6010BD0020FCE798
:104B400008B568B103685BB11A784AB1D988828820
:104B5000914205D15878FFF759FF10F0010000D0BD
:104B6000092008BD0269F8B50D4601F1090362B3D9
:104B700000242E2741694E1E16F8012F0134202AE9
:104B800019D0052A4AD0092C01D103F8017BA2F1E2
:104B9000410CBCF1190F0CD8082C8CBF4FF0100C35
:104BA0004FF0080C91F80CE01EEA0C0F1CBF2032ED
:104BB000D2B203F8012B0B2CDED1CA7A2A72CA6951
:104BC0002A600A8BAA80CA8AEA8000241C70AE6917
:104BD00026B103691BB9002400233355F8BDEB69E6
:104BE000002BF8D04FF6FF73028C9A42F3D0C769BE
:104BF00037F8020B0028EFD0002101F0DDFD00287E
:104C0000E9D0FF2884BF030A3355EB6988BF01341C
:104C1000013BA342DFD930550134E9E7092C4FF0BD
:104C2000E502C6D1B1E72DE9F041C66A00F13008CE
:104C300004460123324641464078FFF717FF0546F8
:104C4000A8B9236AA269F31A9342207102D2E778C5
:104C5000012F02D82846BDE8F081A36941461E44D1
:104C6000324601236078FFF701FF013FF0E701259D
:104C7000F0E703790BB1FFF7D6BF1846704738B598
:104C8000C36A05468B420C4610D0FFF7F2FF60B9AD
:104C900022460123687805F13001FFF7D7FE00288E
:104CA0001CBF4FF0FF340120EC6238BD0020FCE750
:104CB000002310B503714FF0FF33C3620446FFF7C2
:104CC000DEFFA0B94AF65523B4F82E229A4210D13D
:104CD000D4F86630084A23F07F43934206D0D4F8D4
:104CE000820020F07F40801A18BF012010BD0320F1
:104CF000FCE70220FAE700BF4641540000232DE9FB
:104D0000F0430360074685B008461546FFF7FCFEF2
:104D1000061EC0F20B81884B53F82640002C00F091
:104D200007813C6023786BB16078FFF76FFEC107A5
:104D300008D41DB110F0040500D00A25284605B09E
:104D4000BDE8F0830023F0B223706070FFF76CFEC3
:104D5000C20700F1EF800DB14307EED40221607865
:104D600004F10A02FFF797FE054608B10125E5E7C1
:104D70006389A3F500739BB2B3F5606FF6D8014663
:104D80002046FFF795FF012840F0B480E8464146F1
:104D900004F5F77304F22E201A7902B19A681033E1
:104DA000834241F8042BF7D1002658F8047B002FEA
:104DB00000F0988039462046FFF77AFF002840F03F
:104DC0009280B4F80AC0B4F83B30634540F0968056
:104DD000B4F8461001B9616D94F840E0A1610EF19C
:104DE000FF33012B84F803E000F2888094F83D60E3
:104DF000A670002E00F08280731E33427ED1B4F87C
:104E000041804FEA5C13B8FBF3F203FB12839BB2C1
:104E1000A4F80880002B71D1B4F8433003B9236D96
:104E2000E08F00286AD001FB0EFE024472449342D8
:104E300064D39B1AB342B3FBF6F95FD340F6F57324
:104E400099455FD94FF6F576B14594BF0226032602
:104E500009F1020338443A44032E6361E76120629A
:104E6000A26251D1B8F1000F48D1E26D9B0062629D
:104E70000CF1FF321344B3FBFCFC8C453ED84FF0E1
:104E8000FF33C4E903338023032E637122D1B4F8C6
:104E90006030012B1ED12046791CFFF7F0FEC8B907
:104EA0004AF65523B4F82E2260719A4212D1226B31
:104EB000224B9A420ED103F1FF53D4F8142203F58A
:104EC000005320339A4201BFD4F818322361D4F83A
:104ED0001C32E3601A4A2670138801339BB2138098
:104EE000E3802BE702200136042E7FF45EAF032817
:104EF00004D13BE703283FF439AF08B10D251DE786
:104F00002F465EE70126A3E7B8F1000FF6D0022E88
:104F10004FEA430218BFD218704414BF03F00103D4
:104F20001346606218BF03EB5203A1E70B2505E7A8
:104F30000C2503E7032501E7940300205252614149
:104F40009C03002070B50446FFF793FE054678BB2E
:104F50002378032B24D16379012B21D104F130066E
:104F6000014662893046FFF7B9FD4AF65522A4F89A
:104F70002E22104A3146226302F1FF5202F50052FE
:104F80002032C4F8142222696078C4F81822E2683A
:104F9000C4F81C22E2690132E262FFF767FD657125
:104FA000002260781146FFF776FD003818BF012017
:104FB00070BD00BF5252614103284B8B04BF8A8AE7
:104FC00043EA02431846704743690239023B8B4269
:104FD00083BF8378806A01FB0300002070470129AA
:104FE000F8B506460D4672D943698B426FD90378EE
:104FF000022B32D0032B48D0012B68D1438901EB1F
:105000005104B4FBF3F3016A1944FFF738FE10B101
:105010004FF0FF30F8BD7189671CB4FBF1F301FB61
:105020001344B7FBF1F1336A34443046194494F821
:105030003040FFF724FE0028EAD17089B7FBF0F377
:1050400000FB13773E4496F83000EB0744EA00205B
:105050004CBF0009C0F30B00DCE743895B08B1FBE0
:10506000F3F3016A1944FFF70AFE0028D0D17189D1
:105070006D00B5FBF1F001FB1055354495F831306A
:1050800095F8300040EA0320C4E743899B08B1FB50
:10509000F3F3016A1944FFF7F2FD0028B8D1A90023
:1050A0007589B1FBF5F005FB101101F130033344B4
:1050B0009878DA780004751840EA026095F8302094
:1050C0005B78104340EA032020F07040A2E7012003
:1050D000A0E7826870B5012A04460D46C18001D15F
:1050E000022070BD036859699142F9D9DAB919787B
:1050F000032901D1596AA9B91989A942F0D9586A75
:10510000E2600028ECD02368598930334909B5FBA7
:10511000F1F201FB1255104403EB45152061656166
:105120000020DEE70A465E899B7876095E43B54239
:105130001146206802D2FFF747FFE1E7FFF74FFF74
:10514000431C024607D00128CAD923685B69834201
:10515000C6D9AD1BEBE70120C3E701292DE9F041DA
:1051600005460C46164640F2888043698B4240F261
:1051700084800378022B45D0032B5BD0012B7CD19C
:10518000438901EB5107B7FBF3F3016A1944FFF7B9
:1051900076FD68BB698907F10108B7FBF1F301FBF4
:1051A000137714F001042F4417BF97F83030F3B28F
:1051B00003F00F0233011CBF03F0F003134387F821
:1051C00030300123B8FBF1F12B712B6A28461944CA
:1051D000FFF755FD60B96B89B8FBF3F203FB12834F
:1051E0002B443CB1C6F3071683F8306001232B71C2
:1051F000BDE8F08193F83010C6F3032621F00F01CB
:105200000E43F1E743895B08B1FBF3F3016A1944EC
:10521000FFF735FD0028EBD169896400B4FBF1F399
:1052200001FB13442C4484F83060C6F3072684F84D
:105230003160DBE743899B08B1FBF3F3016A194452
:10524000FFF71DFD0028D3D16989A400B4FBF1F359
:1052500001FB134404F130032B44DA782C4412068A
:1052600002F070421643C6F3072284F830605A7089
:10527000320C360E9A70DE70B8E70220B8E7F8B547
:1052800005460F4671B9C668DEB143699E4228BF24
:10529000012634466B690134A34215D8012E12D879
:1052A000002405E0FFF79BFE0128044602D80124F4
:1052B0002046F8BD601C2FD06B69A342F8D83E464B
:1052C000E7E70126E5E7022421462846FFF787FEA7
:1052D00030B1411C20D00128E9D0B442DAD1DFE757
:1052E0006FF0704221462846FFF737FF90B957B953
:1052F0002B69EC605A1CDBD0013B2B616B7943F0CE
:1053000001036B71D4E7224639462846FFF725FF93
:105310000028EDD00128CAD14FF0FF34C8E72DE9AD
:10532000F041C68804460136B3B2884613B904205A
:10533000BDE8F0810269002AF9D0006843895B0961
:10534000B6FBF3F503FB156333B9E1680132226163
:1053500089B90389B342EAD92368E68003F13002B0
:105360005B8900205B09B6FBF3F103FB116602EBDE
:1053700046166661DCE78778013F2F40ECD1FFF7E6
:105380002EFE0128054601D80220D1E7421C01D19A
:105390000120CDE720684369AB4226D8B8F1000F61
:1053A000C5D0E168FFF76BFF0546002830D0012823
:1053B000EAD0431CECD02068FFF75BFC01460028D4
:1053C000E6D120684FF0010842893030FFF786FBB4
:1053D000226829461046FFF7F7FDD06220688378DF
:1053E000BB4209D8C36ADB1BC36229462068E5605B
:1053F000FFF7EAFD2061AFE780F80480FFF713FCB8
:105400000028C5D122680137D36A0133D362E5E7AA
:1054100007208DE72DE9F04F002185B00646FFF704
:1054200058FE074600286AD14FF0FF094FF6FF7A71
:105430004C46A6F820A031693068FFF720FC0746EB
:1054400000285CD175692A78002A79D0E52A06D02F
:10545000E97A01F03F03090704D50F2B04D0A6F821
:1054600020A052E00F2B55D1F369002B40D05006FD
:1054700049D502F0BF04F28895F80D9032846A7B1A
:105480004A4542D16A8B002A3FD10D222F78DFF89E
:10549000B4B007F03F07013F574301221BF8011B3F
:1054A0006818407815F8018048EA00287AB3FE2F82
:1054B00001932AD8404601F0A3F9019B0390791C7F
:1054C00033F81700029101F09BF9039A82421CD134
:1054D000029942460F46019B1B495945DED1297866
:1054E000490603D512B133F8173073B9013CE4B261
:1054F00000213046FFF713FF074600289BD03846AF
:1055000005B0BDE8F08FA242B9D0FF24F0E7D04546
:10551000E2D0FAE724B92846FFF7E7FA4845EED08B
:10552000B369DF7A17F0010799D105F10B008542C5
:10553000E5D015F8011B13F8012B9142F7D08EE747
:105540000427DCE76D0B01087A0B01082DE9F74F02
:105550000B7807462F2B884601D05C2B01D108F130
:1055600001080023BB6098F800301F2B00F2DF8099
:1055700000213846FFF7ADFD00237B6103B0BDE895
:10558000F08F4646012101F017F9002800F0008154
:105590007F2806D88D4911F8012B12B18242FAD129
:1055A000F6E02BF815000135CEE02028A04434BFEA
:1055B00004240024ABF10206002D00F0E98036F847
:1055C0001520202A02D02E2A40F0E680013DF3E784
:1055D00001313BF81120202AFAD02E2AF8D009B147
:1055E00044F0030436F815202E2A01D0013DF9D1EC
:1055F0004FF000094FF0080A4E463BF811004A1CD4
:10560000C0B1202803D02E2805D1954207D044F000
:1056100003041146F1E7D14505D2954249D1BAF1CB
:105620000B0F3ED102E0BAF10B0F35D14FF00B0A50
:1056300044F00304BB691A78E52A04BF05221A70F6
:10564000BAF1080F04BFB600F6B206F00C030C2B3B
:1056500003D006F00302032A01D144F00204A1079B
:1056600009D406F00306012E08BF44F01004042BF1
:1056700008BF44F00804BB693846DC72FFF7CAFE75
:10568000BB69DB7A002846D004287FF477AF13F09B
:10569000040F08BF052071E7954202D044F00304CF
:1056A000C8D3B6002A464FF00B0A4FF00809F6B2ED
:1056B000AFE77F2821D9019201F0A2F8002101F083
:1056C0007BF8FF28019A44F0020C14D90AF1FF314B
:1056D000894503D3D14644F003049AE7B969040A23
:1056E00001F80940644609F10109B96901F80900A6
:1056F00009F101098DE7644630B1354B13F8011B00
:10570000002954D08142F9D15F2044F00304ECE732
:1057100046F00206E9E75A073FF530AF7969CB7AE0
:10572000DB0637D53B681878FFF746FCB86098F879
:10573000003044462F2B08F10108F8D05C2BF6D03E
:1057400000252E46D7F81CB0A25D06F101081F2ADD
:1057500010467FF62AAF2F2A3FF427AF5C2A3FF48A
:1057600024AFFF2D14D07F32D2B27D2A3FF609AF8D
:1057700014F808200236A2F1400102EB00203E2975
:1057800080B27FF6FFAE82F080027E2A7FF6FAAE0C
:105790000620F3E60520F1E64FF0000320210B225E
:1057A000B8692BF81530FFF799F9002111E7A0F13E
:1057B000410189B21929ABD9A0F1610189B2192936
:1057C0009EBF203846F0010680B28EE7290B010803
:1057D000320B01080C222DE9F04FD0E9066787B0A3
:1057E000054631460DEB0200FFF76EF99DF81730C4
:1057F000DB0740F18F8000234FF00109DFF8308292
:10580000F372EB610B22304603A9FFF75DF9B9F1A2
:10581000050F55D94B46B81E30F8022F002A41D14A
:1058200007210DF10B0403F00F0202F130003928BB
:1058300088BF02F137000F2B04F8010901F1FF3294
:105840004FEA13103ED87E2002F118036B4403F890
:10585000140C00238C1E9A4206EB030002D9F15C63
:10586000202932D10346072A8FBF202102F11801D7
:10587000694411F8141C98BF013203F8011B991BED
:105880000729F0D92846FFF7C5FD044600283BD17B
:1058900009F10109B9F1640FB4D10724204607B01A
:1058A000BDE8F08F102102F0010404EB4303DC0398
:1058B00048BF83EA080301394FEA5202F3D1ABE74C
:1058C0004B46ADE711460346ADE77F31C9B27D29AE
:1058D00002D89C42C6D001330133BCE7013637F809
:1058E0001630002BFAD10D231936B6FBF3F616E06D
:1058F0000026F4E7074601212846FFF710FD04467D
:10590000A8B1042CC9D0C9E70428C7D19DF8173025
:10591000F372EF619DF817309B07E9D4012600214F
:105920002846FFF7D6FB04460028EAD10746296936
:105930002868FFF7A4F904460028E2D16B691B78B8
:10594000E52B01D0002BD5D10137BE42D3D1013E8A
:1059500052D0E9882846891BFFF7BBFB0446002884
:105960009CD1A869FFF7C1F84FF00F0807464FF622
:10597000FF7929692868FFF782F903460446002861
:105980008CD10D249A46F0B2411E61436A69DFF85A
:10599000A4E0D5F81CC0577382F80B80137393767C
:1059A000D3764B4518BF3CF811301EF8014B0AF175
:1059B000010A135518BF01314FEA132B1444002B71
:1059C00008BF4B46BAF10D0F84F801B0E9D14B4541
:1059D00002D03CF811300BB940F0400010700122A9
:1059E0002B68002128461A71FFF799FC044600280D
:1059F0007FF454AF013EBCD129692868FFF73FF915
:105A0000044600287FF44AAF014620226869FFF768
:105A100065F8D5E905010B22FFF756F8D5E905230E
:105A2000DB7A03F01803137301222B681A7135E730
:105A3000211001006D0B01082DE9F047FF270646F4
:105A40003C4604254FF6FF78316911B9002D64D02A
:105A500054E03068FFF713F9054600284ED170690D
:105A60000378002B61D0E52B4DD02E2B4BD0C27A82
:105A700002F03F0102F01F02082A44D00F2947D14B
:105A800059063ED503F0BF04F388477B3384437B3C
:105A9000BB4238D1428BB2BB0D214FF0010E0378CF
:105AA000F56903F03F03013B4B43DFF8849019F89D
:105AB00001CB00EB0C0191F801A010F80C1041EAA9
:105AC0000A21BEF1000F20D0FE2B1CD88E4625F8EF
:105AD0001310013301320D2AE9D10278520604D5A0
