:020000040800F2
:1000000000C00020F512000819A5000839130008E7
:100010001BA500081DA500081FA500080000000082
:10002000000000000000000000000000017D00084A
:1000300021A5000800000000A17D000825A50008FA
:100040003913000839130008391300083913000860
:100050003913000839130008391300083913000850
:1000600099A0000839130008391300083913000853
:100070003913000839130008391300087D1F0008E0
:100080003913000839130008391300083913000820
:100090003913000839130008391300083913000810
:1000A0003913000839130008391300083913000800
:1000B00039130008391300083127000839130008E4
:1000C00039130008051E00086D1D000839130008CB
:1000D00039130008753F0008391300083913000868
:1000E000CD3300083913000839130008391300080C
:1000F00039130008391300083913000839130008B0
:1001000039130008391300081127000839130008B3
:10011000413D00089D3E0008911500083913000874
:10012000391300083913000839130008391300087F
:1001300000000000000000000000000000000000BF
:1001400000000000000000000000000000000000AF
:10015000000000000000000000000000000000009F
:10016000000000000000000000000000000000008F
:10017000000000000000000000000000000000007F
:10018000000000000000000000000000000000006F
:10019000000000000000000000000000000000005F
:1001A000000000000000000000000000000000004F
:1001B000000000000000000000000000000000003F
:1001C000000000000000000000000000000000002F
:1001D000000000000000000000000000000000001F
:0401E0005FF8E0F1F3
:1001F00010B5054C237833B9044B13B10448AFF361
:1002000000800123237010BDBC020020000000000C
:1002100090FC000808B5034B1BB103490348AFF33A
:10022000008008BD00000000C002002090FC000813
:10023000034613F8012B002AFBD1181A0138704726
:1002400081F0004102E000BF83F0004330B54FEA87
:1002500041044FEA430594EA050F08BF90EA020FF4
:100260001FBF54EA000C55EA020C7FEA645C7FEA87
:10027000655C00F0E2804FEA5454D4EB5555B8BFAA
:100280006D420CDD2C4480EA020281EA030382EA1B
:10029000000083EA010180EA020281EA0303362DAD
:1002A00088BF30BD11F0004F4FEA01314FF4801C80
:1002B0004CEA113102D0404261EB410113F0004F92
:1002C0004FEA03334CEA133302D0524263EB430349
:1002D00094EA050F00F0A780A4F10104D5F1200EE7
:1002E0000DDB02FA0EFC22FA05F2801841F1000142
:1002F00003FA0EF2801843FA05F359410EE0A5F116
:1003000020050EF1200E012A03FA0EFC28BF4CF046
:10031000020C43FA05F3C01851EBE37101F00045FC
:1003200007D54FF0000EDCF1000C7EEB00006EEB09
:100330000101B1F5801F1BD3B1F5001F0CD3490893
:100340005FEA30004FEA3C0C04F101044FEA4452EA
:1003500012F5800F80F09A80BCF1004F08BF5FEA71
:10036000500C50F1000041EB045141EA050130BD51
:100370005FEA4C0C404141EB0101013C28BFB1F563
:10038000801FE9D291F0000F04BF01460020B1FAAE
:1003900081F308BF2033A3F10B03B3F120020CDA81
:1003A0000C3208DD02F1140CC2F10C0201FA0CF05F
:1003B00021FA02F10CE002F11402D8BFC2F1200CC4
:1003C00001FA02F120FA0CFCDCBF41EA0C0190407A
:1003D000E41AA2BF01EB0451294330BD6FEA0404C3
:1003E0001F3C1CDA0C340EDC04F11404C4F12002AE
:1003F00020FA04F001FA02F340EA030021FA04F3C0
:1004000045EA030130BDC4F10C04C4F1200220FA16
:1004100002F001FA04F340EA0300294630BD21FA54
:1004200004F0294630BD94F0000F83F4801306BF1A
:1004300081F480110134013D4EE77FEA645C18BF0E
:100440007FEA655C29D094EA050F08BF90EA020FA5
:1004500005D054EA000C04BF1946104630BD91EA9D
:10046000030F1EBF0021002030BD5FEA545C05D1A0
:100470004000494128BF41F0004130BD14F58004DF
:100480003CBF01F5801130BD01F0004545F0FE4153
:1004900041F470014FF0000030BD7FEA645C1ABF88
:1004A000194610467FEA655C1CBF0B46024650EABF
:1004B000013406BF52EA033591EA030F41F40021EB
:1004C00030BD00BF90F0000F04BF0021704730B571
:1004D0004FF4806404F132044FF000054FF0000146
:1004E00050E700BF90F0000F04BF0021704730B507
:1004F0004FF4806404F1320410F0004548BF4042DC
:100500004FF000013EE700BF42004FEAE2014FEA30
:1005100031014FEA02701FBF12F07F4393F07F4F0B
:1005200081F06051704732F07F4208BF704793F00E
:100530007F4F04BF41F40021704730B54FF4607421
:1005400001F0004521F000411CE700BF50EA010224
:1005500008BF704730B54FF000050AE050EA0102CD
:1005600008BF704730B511F0004502D5404261EB3D
:1005700041014FF4806404F132045FEA915C3FF47E
:10058000D8AE4FF003025FEADC0C18BF03325FEA1B
:10059000DC0C18BF033202EBDC02C2F1200300FACC
:1005A00003FC20FA02F001FA03FE40EA0E0021FAF1
:1005B00002F11444BDE600BF70B54FF0FF0C4CF4DF
:1005C000E06C1CEA11541DBF1CEA135594EA0C0F91
:1005D00095EA0C0F00F0DEF82C4481EA030621EACC
:1005E0004C5123EA4C5350EA013518BF52EA033507
:1005F00041F4801143F4801338D0A0FB02CE4FF0B9
:100600000005E1FB02E506F00042E0FB03E54FF0E8
:100610000006E1FB03569CF0000F18BF4EF0010EE0
:10062000A4F1FF04B6F5007F64F5407404D25FEADC
:100630004E0E6D4146EB060642EAC62141EA55518F
:100640004FEAC52040EA5E504FEACE2EB4F1FD0CD1
:1006500088BFBCF5E06F1ED8BEF1004F08BF5FEA4F
:10066000500E50F1000041EB045170BD06F0004601
:1006700046EA010140EA020081EA0301B4EB5C04AE
:10068000C2BFD4EB0C0541EA045170BD41F48011A6
:100690004FF0000E013C00F3AB8014F1360FDEBFCB
:1006A000002001F0004170BDC4F10004203C35DAA7
:1006B0000C341BDC04F11404C4F1200500FA05F32A
:1006C00020FA04F001FA05F240EA020001F00042CB
:1006D00021F0004110EBD37021FA04F642EB060141
:1006E0005EEA430E08BF20EAD37070BDC4F10C046B
:1006F000C4F1200500FA04F320FA05F001FA04F22F
:1007000040EA020001F0004110EBD37041F100011A
:100710005EEA430E08BF20EAD37070BDC4F1200525
:1007200000FA05F24EEA020E20FA04F301FA05F28D
:1007300043EA020321FA04F001F0004121FA04F235
:1007400020EA020000EBD3705EEA430E08BF20EA05
:10075000D37070BD94F0000F0FD101F0004640003F
:1007600041EB010111F4801F08BF013CF7D041EAC1
:10077000060195F0000F18BF704703F000465200C5
:1007800043EB030313F4801F08BF013DF7D043EA96
:100790000603704794EA0C0F0CEA135518BF95EA4C
:1007A0000C0F0CD050EA410618BF52EA4306D1D1D3
:1007B00081EA030101F000414FF0000070BD50EAF2
:1007C000410606BF1046194652EA430619D094EA7C
:1007D0000C0F02D150EA013613D195EA0C0F05D166
:1007E00052EA03361CBF104619460AD181EA0301BA
:1007F00001F0004141F0FE4141F470014FF0000072
:1008000070BD41F0FE4141F4780170BD70B54FF00C
:10081000FF0C4CF4E06C1CEA11541DBF1CEA13558C
:1008200094EA0C0F95EA0C0F00F0A7F8A4EB05046E
:1008300081EA030E52EA03354FEA013100F0888065
:100840004FEA03334FF0805545EA131343EA12632E
:100850004FEA022245EA111545EA10654FEA0026E3
:100860000EF000419D4208BF964244F1FD0404F59C
:10087000407402D25B084FEA3202B61A65EB0305F8
:100880005B084FEA32024FF480104FF4002CB6EBB5
:10089000020E75EB030E22BFB61A754640EA0C0035
:1008A0005B084FEA3202B6EB020E75EB030E22BF75
:1008B000B61A754640EA5C005B084FEA3202B6EBB6
:1008C000020E75EB030E22BFB61A754640EA9C0075
:1008D0005B084FEA3202B6EB020E75EB030E22BF45
:1008E000B61A754640EADC0055EA060E18D04FEA03
:1008F000051545EA16754FEA06164FEAC30343EAA3
:1009000052734FEAC2025FEA1C1CC0D111F4801F6F
:100910000BD141EA00014FF000004FF0004CB6E768
:1009200011F4801F04BF01430020B4F1FD0C88BF07
:10093000BCF5E06F3FF6AFAEB5EB030C04BFB6EB12
:10094000020C5FEA500C50F1000041EB045170BD05
:100950000EF0004E4EEA113114EB5C04C2BFD4EB32
:100960000C0541EA045170BD41F480114FF0000EB6
:10097000013C90E645EA060E8DE60CEA135594EA32
:100980000C0F08BF95EA0C0F3FF43BAF94EA0C0F35
:100990000AD150EA01347FF434AF95EA0C0F7FF4AA
:1009A00025AF104619462CE795EA0C0F06D152EAFE
:1009B00003353FF4FDAE1046194622E750EA4106E2
:1009C00018BF52EA43067FF4C5AE50EA41047FF4F3
:1009D0000DAF52EA43057FF4EBAE12E74FF0FF3C58
:1009E00006E000BF4FF0010C02E000BF4FF0010C29
:1009F0004DF804CD4FEA410C7FEA6C5C4FEA430CA2
:100A000018BF7FEA6C5C1BD001B050EA410C0CBFF0
:100A100052EA430C91EA030F02BF90EA020F002052
:100A2000704710F1000F91EA030F58BF994208BFB9
:100A300090422CBFD8176FEAE37040F00100704776
:100A40004FEA410C7FEA6C5C02D150EA013C07D1CD
:100A50004FEA430C7FEA6C5CD6D152EA033CD3D018
:100A60005DF8040B704700BF8446104662468C4612
:100A70001946634600E000BF01B5FFF7B7FF002845
:100A800048BF10F1000F01BD4DF808EDFFF7F4FF6E
:100A90000CBF012000205DF808FB00BF4DF808EDF9
:100AA000FFF7EAFF34BF012000205DF808FB00BF1C
:100AB0004DF808EDFFF7E0FF94BF012000205DF83E
:100AC00008FB00BF4DF808EDFFF7CEFF94BF0120F3
:100AD00000205DF808FB00BF4DF808EDFFF7C4FFEC
:100AE00034BF012000205DF808FB00BF4FEA410C35
:100AF0007FEA6C5C02D150EA013C0AD14FEA430C18
:100B00007FEA6C5C02D152EA033C02D14FF0000054
:100B100070474FF0010070474FEA410212F5001292
:100B200015D211D56FF47873B3EB625212D94FEA34
:100B3000C12343F0004343EA505311F0004F23FA1E
:100B400002F018BF404270474FF00000704750EA73
:100B5000013005D111F0004008BF6FF00040704730
:100B60004FF00000704700BF4A0011D212F500128A
:100B700011D20DD56FF47873B3EB62520ED44FEAF5
:100B8000C12343F0004343EA505323FA02F0704775
:100B90004FF00000704750EA013002D14FF0FF30B3
:100BA00070474FF0000070474FEA4102B2F1E04356
:100BB00024BFB3F5001CDCF1FE5C0DD901F0004C44
:100BC0004FEAC0024CEA5070B2F1004F40EB830094
:100BD00008BF20F00100704711F0804F21D113F1C0
:100BE0003872BCBF01F00040704741F480114FEAF9
:100BF0005252C2F11802C2F1200C10FA0CF320FA82
:100C000002F018BF40F001004FEAC1234FEAD3239E
:100C100003FA0CFC40EA0C0023FA02F34FEA430308
:100C2000CCE77FEA625307D150EA01331EBF4FF091
:100C3000FE4040F44000704701F0004040F0FE40AC
:100C400040F40000704700BF80F0004002E000BFA9
:100C500081F0004142001FBF5FEA410392EA030FA7
:100C60007FEA226C7FEA236C6AD04FEA1262D2EBF1
:100C70001363C1BFD218414048404140B8BF5B42F6
:100C8000192B88BF704710F0004F40F4000020F08F
:100C90007F4018BF404211F0004F41F4000121F0A5
:100CA0007F4118BF494292EA030F3FD0A2F10102EF
:100CB00041FA03FC10EB0C00C3F1200301FA03F12D
:100CC00000F0004302D5494260EB4000B0F5000F50
:100CD00013D3B0F1807F06D340084FEA310102F10F
:100CE0000102FE2A51D2B1F1004F40EBC25008BFC1
:100CF00020F0010040EA03007047490040EB00008B
:100D0000013A28BFB0F5000FEDD2B0FA80FCACF18B
:100D1000080CB2EB0C0200FA0CF0AABF00EBC250B8
:100D200052421843BCBFD0401843704792F0000FA6
:100D300081F4000106BF80F400000132013BB5E7F9
:100D40004FEA41037FEA226C18BF7FEA236C21D06F
:100D500092EA030F04D092F0000F08BF08467047D4
:100D600090EA010F1CBF0020704712F07F4F04D1A2
:100D7000400028BF40F00040704712F100723CBFB5
:100D800000F50000704700F0004343F0FE4040F4DF
:100D9000000070477FEA226216BF08467FEA23639D
:100DA0000146420206BF5FEA412390EA010F40F488
:100DB000800070474FF0000304E000BF10F00043D4
:100DC00048BF40425FEA000C08BF704743F09643BB
:100DD00001464FF000001CE050EA010208BF7047D6
:100DE0004FF000030AE000BF50EA010208BF70475D
:100DF00011F0004302D5404261EB41015FEA010C72
:100E000002BF84460146002043F0B64308BFA3F169
:100E10008053A3F50003BCFA8CF2083AA3EBC2534B
:100E200010DB01FA02FC634400FA02FCC2F120026A
:100E3000BCF1004F20FA02F243EB020008BF20F0A1
:100E40000100704702F1200201FA02FCC2F1200207
:100E500050EA4C0021FA02F243EB020008BF20EAFC
:100E6000DC7070474FF0FF0C1CEAD0521EBF1CEA2A
:100E7000D15392EA0C0F93EA0C0F6FD01A4480EA18
:100E8000010C400218BF5FEA41211ED04FF0006301
:100E900043EA501043EA5111A0FB01310CF000402D
:100EA000B1F5000F3EBF490041EAD3715B0040EA53
:100EB000010062F17F02FD2A1DD8B3F1004F40EB23
:100EC000C25008BF20F00100704790F0000F0CF0F6
:100ED000004C08BF49024CEA502040EA51207F3ABA
:100EE000C2BFD2F1FF0340EAC250704740F4000095
:100EF0004FF00003013A5DDC12F1190FDCBF00F086
:100F000000407047C2F10002410021FA02F1C2F133
:100F1000200200FA02FC5FEA310040F1000053EACF
:100F20004C0308BF20EADC70704792F0000F00F01D
:100F3000004C02BF400010F4000F013AF9D040EA23
:100F40000C0093F0000F01F0004C02BF490011F4B7
:100F5000000F013BF9D041EA0C018FE70CEAD153B5
:100F600092EA0C0F18BF93EA0C0F0AD030F0004C35
:100F700018BF31F0004CD8D180EA010000F00040E9
:100F8000704790F0000F17BF90F0004F084691F0A7
:100F9000000F91F0004F14D092EA0C0F01D14202E1
:100FA0000FD193EA0C0F03D14B0218BF084608D1AA
:100FB00080EA010000F0004040F0FE4040F40000F4
:100FC000704740F0FE4040F4400070474FF0FF0C87
:100FD0001CEAD0521EBF1CEAD15392EA0C0F93EACE
:100FE0000C0F69D0A2EB030280EA010C49024FEA20
:100FF000402037D04FF0805343EA111143EA1013D9
:101000000CF000408B4238BF5B0042F17D024FF490
:10101000000C8B4224BF5B1A40EA0C00B3EB510F6B
:1010200024BFA3EB510340EA5C00B3EB910F24BF54
:10103000A3EB910340EA9C00B3EBD10F24BFA3EBD9
:10104000D10340EADC001B0118BF5FEA1C1CE0D1A1
:10105000FD2A3FF650AF8B4240EBC25008BF20F054
:10106000010070470CF0004C4CEA50207F32C2BFA8
:10107000D2F1FF0340EAC250704740F400004FF045
:101080000003013A37E792F0000F00F0004C02BF76
:10109000400010F4000F013AF9D040EA0C0093F040
:1010A000000F01F0004C02BF490011F4000F013B9A
:1010B000F9D041EA0C0195E70CEAD15392EA0C0F02
:1010C00008D142027FF47DAF93EA0C0F7FF470AF3A
:1010D000084676E793EA0C0F04D14B023FF44CAF7D
:1010E00008466EE730F0004C18BF31F0004CCAD112
:1010F00030F000427FF45CAF31F000437FF43CAF4E
:101100005FE700BF4FF0FF3C06E000BF4FF0010C6F
:1011100002E000BF4FF0010C4DF804CD4FEA400251
:101120004FEA41037FEA226C18BF7FEA236C11D09B
:1011300001B052EA530C18BF90EA010F58BFB2EB4E
:10114000030088BFC81738BF6FEAE17018BF40F0CE
:10115000010070477FEA226C02D15FEA402C05D182
:101160007FEA236CE4D15FEA412CE1D05DF8040B07
:10117000704700BF844608466146FFE70FB5FFF79A
:10118000C9FF002848BF10F1000F0FBD4DF808ED52
:10119000FFF7F4FF0CBF012000205DF808FB00BF43
:1011A0004DF808EDFFF7EAFF34BF012000205DF89D
:1011B00008FB00BF4DF808EDFFF7E0FF94BF0120EA
:1011C00000205DF808FB00BF4DF808EDFFF7D2FFE7
:1011D00094BF012000205DF808FB00BF4DF808ED2A
:1011E000FFF7C8FF34BF012000205DF808FB00BFF7
:1011F0004FEA4002B2F1FE4F0FD34FF09E03B3EB24
:1012000012620DD94FEA002343F0004310F0004F63
:1012100023FA02F018BF404270474FF000007047B9
:1012200012F1610F01D1420205D110F0004008BF58
:101230006FF0004070474FF00000704742000ED240
:10124000B2F1FE4F0BD34FF09E03B3EB126209D401
:101250004FEA002343F0004323FA02F070474FF0B7
:101260000000704712F1610F01D1420202D14FF02C
:10127000FF3070474FF00000704700BF38B505469B
:101280000C460022002328462146FFF707FC28B918
:1012900028462146BDE8384000F00AB8284604F147
:1012A000004100F005F8404261EB410138BD00BF4C
:1012B000D0B500220B4B06460F46FFF77DF9FFF72E
:1012C00053FC0446FFF7FEF80022074BFFF774F9C2
:1012D00002460B4630463946FEF7B6FFFFF744FCA0
:1012E0002146D0BD0000F03D0000F04180F313889E
:1012F00070470000002103E00A4B5B584350043163
:1013000009480A4B42189A42F6D3094A02E00023E0
:1013100042F8043B074B9A42F9D300F00FF809F06A
:101320006BF8704730CC030800000020B0020020AA
:10133000BC02002034730020FEE70000374B82B06F
:101340001A6842F001021A605968354A0A405A6028
:101350001A6822F0847222F480321A601A6822F429
:1013600080221A605A6822F4FE025A604FF41F026B
:101370009A600022009201921A6842F480321A6048
:101380001A6802F400320192009A01320092019A26
:101390001AB9009AB2F5A06FF2D11A6812F40032AD
:1013A00018BF01220192019A012A30D11D4A116809
:1013B00041F010011160116821F003011160116802
:1013C00041F0020111605A685A605A685A605A68BE
:1013D00042F480625A605A6822F47C125A605A6859
:1013E00042F4E8125A601A6842F080721A601A6871
:1013F0009201FCD55A6822F003025A605A6842F002
:1014000002025A605A6802F00C02082AFAD14FF020
:101410000062054B9A6002B0704700BF00100240A6
:101420000000FFF80020024000ED00E030B501218F
:1014300091B0042007F05AFC00243023384805A955
:10144000ADF814308DF8174007F06EFA0121084608
:1014500007F040FC01214FF4007007F047FC3148D1
:1014600007F0BCF8304B80220593304B4FF480617D
:10147000CDE906344FF48073CDE90A2320230225F9
:10148000CDE90C134FF48053264805A9CDE90E345D
:10149000CDE9085407F01CF90121224807F036F97C
:1014A00040F20113ADF804304FF460236946204840
:1014B000CDE9023400948DF8105006F09FFE4FF4F1
:1014C000404007F0BDFB052301220421184806F027
:1014D000E6FE05232A461946154806F0E0FE0121DE
:1014E000134806F0B8FE0121114806F0ABFE104883
:1014F00006F0BAFE0E4C204606F0BBFE0028FAD1DC
:101500000B4806F0BAFE0A4C204606F0BBFE002847
:10151000FAD10121064806F0B9FE11B030BD00BF76
:1015200000080140080002404C240140D80200207D
:10153000002401400C22024B1860024B1A707047C5
:10154000E4020020EE02002010B50849084C0948CA
:10155000234600220978006800F0C2F920B1207803
:10156000A0F148035842584110BD00BFEE020020D0
:10157000E8020020E40200200346034903480A224F
:101580000978006800F0CFB9EE020020E4020020E4
:1015900008B50121064807F0F9FE40B101210448D1
:1015A00007F0FFFE034AD36883F48053D36008BD7D
:1015B00000100040000801402DE9F043804689B04A
:1015C0000E460820012117461D46204C07F08EFBD1
:1015D00001214FF0007007F095FB1D4B6946204636
:1015E0004FF48079009307F09FF9482320460024A8
:1015F00069468DF80330ADF8009007F095F90121A8
:101600004FF4EA1007F0F0F99DF8403001A91148B5
:101610008DF80630ADF80A40CDF80C908DF80780B3
:101620008DF808708DF80960ADF8045006F07CFE66
:1016300040F2011304A8CDE904440694ADF81C302F
:1016400006F0DCFE204609B0BDE8F083000C014046
:101650000002031800640040F0B51223002487B094
:101660000A468DF80E1001460DF10F00CDE9013349
:10167000ADF80C400AF0FBFF0C4801A906F030FF62
:1016800006460A4F31463846A5B206F07BFF30B910
:101690000134B4F5805FF5D1012007B0F0BD40F60C
:1016A000FF73EB1A58425841F7E700BF006400404F
:1016B00010B50446042006F095FD0A4B01221C607B
:1016C0004FF47A735C43084B1A804FF0E0231A6999
:1016D00042F002021A615C611A6942F001021A6169
:1016E00010BD00BFF4020020F002002070B50B4BCB
:1016F0004FF0E0241B68656958430023A169A26983
:101700009142FCD095BFAE1A5B189B199B1A98BFEB
:101710005B18834200D370BD1146F0E7F40200204D
:1017200038B5044606F01EF801280DD00A4D288869
:10173000A04203D8B4FBF0F005F0A0FE2B88B4FB68
:10174000F3F203FB1244A4B24FF47A706043BDE895
:101750003840FFF7CBBF00BFF00200200023F0B5F8
:1017600085B003932A4B01A81A7A59688DF808208E
:101770009A7801918DF80920DA689B890A21ADF8E1
:101780000A30130C120E8DF80C308DF80D2008F075
:101790009BFDADF80E0007F03BF8342007F04CF845
:1017A00001AC1C4807F074F826461A4F1A4D04285D
:1017B00011D1B37872781B0443EA02233278F178AE
:1017C0001343384643EA0161043707F081F8AF421A
:1017D00006F10406EBD107F027F80E4AA3786178EA
:1017E0001B0443EA0123217852F8040B0B43E178F0
:1017F000AA4243EA016306D0984204F10404EDD002
:10180000002005B0F0BDC31A58425841F9E700BFA7
:10181000A845002000F803080CF8030830B500259F
:1018200085B0CDE901551A4B0395D3F800280A215C
:101830000192D3F8042801A80292D3F80838154C75
:10184000039308F041FD9DF80E20C3B29A4205D1E2
:101850009DF80F30C0F30F2083420AD00E480AF0E3
:101860002FFD0E4B0FCB84E80F00FFF777FF05B07D
:1018700030BD9DF80830019A23729DF809306260EE
:10188000A3709DF80D30E5701B06E360EFE700BF25
:1018900000F00308A8450020A8FC0008B0000020C4
:1018A00008B500F0E7F9012008BD30B5FF2A8BB07C
:1018B00004460E9D0AD10122009505A800F0DCF92E
:1018C000204605A900F0F6F90BB030BDCDE9013591
:1018D000012305A800931346002200F0DBF9EFE78F
:1018E00007B500930123FFF7E0FF03B05DF804FBA9
:1018F00030B514468BB0FF2C05460E980AD10090E7
:10190000002205A800F0B8F9284605A900F0D2F990
:101910000BB030BD0022CDE901300092234605A86E
:1019200000F0B8F9F0E71FB58DF80F300DF10F0397
:1019300000930123FFF7DCFF05B05DF804FB2DE900
:10194000F743984601249DF828900DF107030546BA
:101950000E46174604FA08F4FFF7C2FF9DF8073059
:10196000B9F1000F0BD02343DBB23A46314628468B
:101970008DF80730FFF7D7FF03B0BDE8F08323EA07
:101980000403F2E72DE9F3411C460DF10703054678
:101990000E4617469DF82080FFF7A2FFC0B1A4EBCA
:1019A000080301249DF8242004FA08F40133013CC3
:1019B0009C409A409DF80730D2B2224023EA0403AB
:1019C000134331463A4628468DF80730FFF7ABFF00
:1019D00002B0BDE8F08110B5044603680021186C20
:1019E00006F094FE2368986C06F0BCFE2368002184
:1019F000186807F0C3F823680021186807F0CAF8D0
:101A000023680022BDE810400A21186C06F089BE48
:101A1000002307B501930A4B01A9186A05F0E6F8FF
:101A2000019B4BB14FF0E0234FF08052C3F8042DDF
:101A3000BFF34F8FBFF36F8F03B05DF804FB00BFA0
:101A40000000002040F20121054B1A681268118045
:101A50001B6800224FF4C061186807F0B3B800BFDC
:101A600000000020002342F20F7282B00193019324
:101A7000019B934201D902B07047019B013301934E
:101A8000F6E700002DE9F0430446036889B0586A80
:101A9000012107F02BF923680121586907F026F985
:101AA00023680121586807F02DF902A806F08BFF82
:101AB00041F20343ADF80A30236802A9DA69986954
:101AC000ADF8082006F030FF236802A9DA6A986AA8
:101AD000ADF8082006F028FF23689F6AB3F82C8031
:101AE000384641469D699E8B06F07AFF414638464E
:101AF00006F070FF3146002800F09A80284606F074
:101B00006FFF41463846FFF7ADFF06F06BFF4146D9
:101B10003846FFF7A7FF06F065FF41463846FFF756
:101B2000A1FF06F05DFF3146284606F059FFDFF8B9
:101B300038913146284606F04DFF10B9B9F1010938
:101B4000F7D1494D4146384606F044FF08B9013DFA
:101B5000F8D11C238DF80B30236802A9DA69986943
:101B6000ADF8082006F0E0FE236802A9DA6A986A58
:101B7000ADF8082006F0D8FE23680727186806F09D
:101B800079FF3A4A3A4B4FF48076CDE905234FF47A
:101B90008043ADF81C30236804A91A69002504921B
:101BA000186806F081FF236801224FF480711868DD
:101BB00007F008F8236801A89B688DF805708DF878
:101BC0000430ADF8066006F0DBFA236801A8DB6894
:101BD0008DF8043006F0D4FA23680121986B07F0E1
:101BE00079F8226803A81368C4E90B551033A3627F
:101BF0008023C4E90F354FF40053C4E90D55C4E9FF
:101C00001155E364536C8DF80D708DF80C30ADF800
:101C10000E6006F0B5FA03222946012004F088FE82
:101C20002062012004F066FF606209B0BDE8F08325
:101C3000284606F0D5FEDFF830903146284606F0FB
:101C4000C9FE10B9B9F10109F7D131462846FFF7AD
:101C500009FF06F0C7FE31462846FFF703FF06F0EE
:101C6000BFFEFFF7FFFE41E7A18601000000FFBFB6
:101C700030000004FFF706BF0360009B0171827112
:101C80004FF6FF710022036102230273C181C2710A
:101C900043717047C381019B017103600023C371CD
:101CA000029B9DF80010036102238171027343714E
:101CB0007047000038B500230D46044619464FF022
:101CC000FF32406A04F0ECFF2946231D05F114029F
:101CD00051F8040B914243F8040BF9D1A57A012D78
:101CE0000ED12146636863636369E36251F8283B60
:101CF000186C06F0EDFC23682946186C06F006FD0A
:101D00002368002218684FF4806106F05BFF2368A7
:101D1000012218684FF4007106F054FF40F20112DE
:101D200023681B681A8000234FF47A721946206AD0
:101D300004F0B6FF01280BD1E57AB5FA85F56D09F7
:101D40000023606A1A46194604F01AFE284638BD78
:101D50002046FFF740FE2046FFF794FE02480AF0B7
:101D600015FB0025ECE700BF0BFD000810B5204C6B
:101D700020492368186806F03CFF70B1637A5A1E48
:101D80006272002B2CD040F2011223681B681A806B
:101D900023681849186806F046FF23681649186832
:101DA00006F027FF20B123681349186806F03BFFAF
:101DB00023681249186806F01CFF20B123680F49F8
:101DC000186806F030FF23680D49186806F011FF07
:101DD00068B123680A491868BDE8104006F023BFBF
:101DE0000123E372FFF714FEFFF72CFED0E710BDCE
:101DF0000000002000040010000100100008001086
:101E000000020010F8B55C4C25682868818A8BB206
:101E100011F001011ED00023A361A37A23B14FF674
:101E2000FF73628A9A4209D00022217A2868490009
:101E300001F0FE01BDE8F84006F0D2BE012128689D
:101E400006F0B4FE217A236849000122186801F0E7
:101E5000FE01EFE79E0741D5A27A638A1AB14FF6D9
:101E6000FF72934219D0028B4FF6FF7293420CD04F
:101E7000227C82B1190A06F0AEFE2368A17C1868A4
:101E800006F0A9FE4FF6FF736382012223684FF428
:101E9000806118685DE0D9B2F2E76368012B19D15F
:101EA00006F084FE2368002218684FF4C06106F033
:101EB00089FE23680122186C0A2106F032FC23688F
:101EC0000121186806F05AFEBFF35F8F23681B6874
:101ED0001B8BF8BD012106F05DFEE3E713F004065D
:101EE0001ED0038B5D070BD5A37A012B13D140F2D3
:101EF0000113038023681A681388D905FCD4E8E726
:101F0000D4E905656B1CA36106F067FE7055A269F4
:101F100063689A42EED1FFF77BFDFFF793FDE9E797
:101F200013F040050DD0D4E905756B1CA36106F0D4
:101F300054FE7855A26963689A42CAD13246236832
:101F4000A5E71B06C5D5A37A012B06D12A464FF477
:101F50008061BDE8F84006F035BED4E90523591C80
:101F6000A161D15C06F037FEA26963689A42B0D1E4
:101F70002A4623688BE700BF0000002010B50F4CF5
:101F80002368986C06F0D6FB30B12046FFF723FD9E
:101F9000FFF73EFDFFF756FD2368D86C06F0CAFB3D
:101FA00058B12368D86C06F0DDFB0123E372FFF71C
:101FB0002FFDBDE81040FFF745BD10BD000000201B
:101FC000034600223C210148FFF7ADBC0000002081
:101FD00008B54FF4FA70FFF7A3FB4FF4FA70FFF760
:101FE0009FFBAE20FFF7ECFF2020FFF7E9FF10205A
:101FF000FFF7E6FFB020FFF7E3FFC820FFF7E0FFA1
:102000000020FFF7DDFF1020FFF7DAFF4020FFF789
:10201000D7FF8120FFF7D4FFFF20FFF7D1FFA120DA
:10202000FFF7CEFFA620FFF7CBFFA820FFF7C8FFE2
:102030003F20FFF7C5FFA420FFF7C2FFD320FFF723
:10204000BFFF0020FFF7BCFFD520FFF7B9FFF0204E
:10205000FFF7B6FFD920FFF7B3FF2220FFF7B0FF4D
:10206000DA20FFF7ADFF1220FFF7AAFFDB20FFF712
:10207000A7FF2020FFF7A4FF8D20FFF7A1FF14206A
:10208000FFF79EFFBDE80840AF20FFF799BF10B5EE
:102090000446A1F15000C0B2FFF792FF200940F0C2
:1020A0001000FFF78DFF04F00F00BDE81040FFF7B0
:1020B00087BF0000002130B5A3B07C2203A80291A5
:1020C000B0240AF063FA0C4D2046FFF779FF002098
:1020D000FFF776FF1020FFF773FF013402AB009388
:1020E000402280233C212846E4B2FFF701FCB82CB3
:1020F000EAD123B030BD00BF00000020012B2DE944
:10210000F74F04460D46174622D0022B59D003B094
:10211000BDE8F08F7E2C82BF00240135EDB2204651
:10212000203B2946DEB2FFF7B2FF062303FB0696EB
:1021300040223C2150460096FFF7DAFB0634E4B219
:1021400008F101085FFA88F3FB5C002BE2D1DEE7BF
:102150004FF00008DFF87890DFF878A0F2E7782CED
:1021600084BF00240135A6F1200688BFEDB2F6B287
:10217000204629464FEA061B09EB0616FFF787FFA4
:10218000082340223C2150460096FFF7B1FB691C12
:102190002046C9B20BF1080BFFF779FF09EB0B03DF
:1021A0000093402208233C215046FFF7A1FB08344E
:1021B000E4B208F101085FFA88F3FE5C002ECED18C
:1021C000A5E74FF00008DFF81090DFF808A0F2E76D
:1021D00060FE000800000020880001082DE9F3419E
:1021E00007460C461D46089EDFF82880AC4202D305
:1021F00002B0BDE8F08121463846FFF748FF0134C0
:102200000096802340223C214046FFF771FBE4B258
:102210008036EBE70000002010B52B4C9EB06068C4
:10222000FEF772F902460B4605A828490AF0B6F8EF
:10223000002105AA01230846FFF760FF2068FEF78A
:1022400063F902460B46684621490AF0A7F80123C4
:102250006A4619460020FFF751FF1E4B1E491A8897
:102260000AA80AF09BF80AAA012302210020FFF71E
:1022700045FF1A4B1A4C1A881A490FA80AF08EF813
:1022800001230FAA03210020FFF738FFB4F9002033
:10229000154914A80AF082F8012314AA0421002089
:1022A000FFF72CFFB4F90220104919A80AF076F8BC
:1022B0000123052119AA0020FFF720FF322005F095
:1022C000DDF81EB010BD00BFDC020020CDFD00080F
:1022D000E1FD000834030020F5FD00083A0300206A
:1022E000FC02002005FE000815FE000824FE000880
:1022F0002DE9F041554EADF5A15D84B03378052B45
:102300000AD0FFF765FE524C3378042BFDD8DFE886
:1023100003F0074170949800322005F0AFF8EDE724
:102320004C4901220DF20C4003F08EFB05464FF4A0
:1023300020310DF20C4003F036FD1DBB4FF48977C0
:1023400045480AF023F804AB0DF108081D1F013FB2
:1023500008D10DF20C4003F01BFDFFF7ABFE042388
:102360003370D1E7434629464FF480620DF20C40AA
:1023700003F00CFC00210823802208460095FFF79B
:102380002DFFE4E7E368354883F01003E36009F0CC
:10239000FDFFDEE701222F490DF20C4003F054FB54
:1023A000F8B9A1272C4809F0F1FF04AB0DF108089A
:1023B0001D1F013F05D10DF20C4003F0E9FC032382
:1023C000CEE7434629464FF480620DF20C4003F0FD
:1023D000DDFB00210823802208460095FFF7FEFE62
:1023E000E7E7E3681D4883F01003E36009F0CEFFE0
:1023F000E1E7184901220DF20C4003F025FB0546E8
:102400004FF4D9210DF20C4003F0CDFC002DE8D1A2
:10241000114809F0BBFF03AF04AB39464FF48062AB
:10242000083B0DF20C4003F0B1FB08238022294643
:1024300028460097FFF7D2FEBDE7642005F01EF89E
:1024400062E7FFF7E9FE3220F8E700BF80000020D6
:102450000010014095FD000833FE00084AFE000808
:1024600007B50121082006F041FC044B044801A9EE
:10247000019306F059FA03B05DF804FB0400032849
:10248000000C014007B50121102006F02FFC044B81
:10249000044801A9019306F047FA03B05DF804FB74
:1024A000020003480010014013B5084C0121102020
:1024B00006F01CFC064B204601A9019306F034FAF5
:1024C0001021204606F08CFA02B010BD0010014029
:1024D0001000031030B5012189B040F6040006F069
:1024E00005FC1A4B69461A480025009306F01CFAB1
:1024F00047224FF47A73174C01A92046CDE90123F6
:102500008DF80C5006F0BEFC134B204604A9049332
:10251000ADF81850ADF8165006F0FEFC2046082124
:1025200006F043FE204604A9ADF8165006F0B6FDAD
:102530002046082106F053FE2046012106F0F3FD57
:102540000121204606F0FBFD09B030BD000903184B
:1025500000080140002C01406000010010B501217D
:1025600088B0042006F0C2FB1C4B69461C4800934F
:1025700006F0DAF90121084606F0C4FB00244722E0
:102580004FF47A7301A94FF08040CDE901238DF813
:102590000C4006F077FC134B04A94FF080400493E5
:1025A000ADF81840ADF8164006F03AFD08214FF09E
:1025B000804006F00CFE04A94FF08040ADF81640B4
:1025C00006F06CFD08214FF0804006F008FE012166
:1025D0004FF0804006F0A7FD08B010BD0C000318B6
:1025E000000801406000010070B5012188B008209A
:1025F00006F088FB0121052006F078FB0423032662
:102600000DEB03011B488DF80730ADF8046006F0B0
:102610008BF902A806F076FD00254FF6FF73164CE5
:1026200002A92046CDE9025306F02CFC2A462B468F
:102630003146204606F09AFD05A806F06CFD0A23F7
:10264000204605A9ADF81C3006F006FE2046012103
:1026500006F098FE01222046114606F07EFD29462E
:10266000204606F0C6FD0121204606F05CFD08B0BC
:1026700070BD00BF00080140000C004030B50121D2
:1026800089B0042006F03EFB0121092006F02EFB54
:10269000C023ADF8043004231B480DEB03018DF873
:1026A000073006F041F902A806F02CFD00254FF690
:1026B000FF73164C02A92046CDE9025306F0E2FB57
:1026C0002A462B460321204606F050FD05A806F0B9
:1026D00022FD0A23204605A9ADF81C3006F0BCFDFA
:1026E0002046012106F04EFE01222046114606F04A
:1026F00034FD2946204606F07CFD0121204606F0E7
:1027000012FD09B030BD00BF000C014000080040C0
:1027100008B50121054806F039FE28B1BDE808409A
:102720000121024806F03DBE08BD00BF000C00407C
:1027300008B50121054806F029FE28B1BDE808408A
:102740000121024806F02DBE08BD00BF0008004070
:10275000002205480549838C5B428B81044B8284AF
:10276000988CC8819A847047000C0040FC020020BD
:1027700000080040B0F57A7F0B4B0BDC10F57A7F38
:1027800010DB002808DA0022404280B29A86A3F8C3
:10279000400070474FF47A70002280B29886A3F808
:1027A000402070470148EEE7002C014018FCFFFF75
:1027B000B0F57A7F0DDC10F57A7F14DB00280ADA99
:1027C0004FF080430022404280B29887A3F8402017
:1027D00070474FF47A704FF08043002280B29A879E
:1027E000A3F8400070470148EAE700BF18FCFFFF6C
:1027F00008B5FFF76FFEFFF7B1FE0020FFF7BAFF45
:102800000020FFF7D5FFFFF7EFFEBDE80840FFF718
:1028100035BF00004FF47A72024B9A86A3F840202D
:10282000704700BF002C01404FF080434FF47A7294
:102830009A87A3F840207047F8B52D4CA388980BD1
:102840004FEA933204D12080BDE8F840FFF792BFF1
:10285000032805D100232380BDE8F840FFF7DABF45
:10286000012AC3F30D000CBF01254FF0FF35FDF722
:1028700039FE1BA3D3E90023FDF7C8FF1AA3D3E950
:102880000023FDF799FE064628460F46FDF72AFE6F
:1028900002460B4630463946FDF78EFE0022154BA8
:1028A000FDF7B4FFFEF738F9A3891349C21A0B8864
:1028B00092B2C3EB033003EB001023880A80184464
:1028C00002EB820300EB83000C4B00B29842B8BFCE
:1028D0001846B0F57A7FA8BF4FF47A702080B3E72E
:1028E000A11B9241838669400000000000A0744053
:1028F000FC02002000004940F802002018FCFFFF05
:10290000F8B52D4CE388980B4FEA933204D16080E0
:10291000BDE8F840FFF74CBF032805D100236380D2
:10292000BDE8F840FFF780BF012AC3F30D000CBFDC
:1029300001254FF0FF35FDF7D5FD1BA3D3E900239B
:10294000FDF764FF1AA3D3E90023FDF735FE064621
:1029500028460F46FDF7C6FD02460B46304639466F
:10296000FDF72AFE0022154BFDF750FFFEF7D4F8C5
:10297000E3891349C21A0B8892B2C3EB033003EB0D
:10298000001063880A80184402EB820300EB830086
:102990000C4B00B29842B8BF1846B0F57A7FA8BF7A
:1029A0004FF47A706080B3E7A11B9241838669403F
:1029B0000000000000A07440FC020020000049401C
:1029C000FA02002018FCFFFF322010B5264CB4F9A3
:1029D0000C305843FEF7F2F92449FEF7F7FAFDF7F9
:1029E00093FD1FA3D3E90023FDF7E6FDFEF794F85E
:1029F00000B200281FDDC0F30D0040F480402081AC
:102A00003220B4F90E305843FEF7D8F91749FEF7D3
:102A1000DDFAFDF779FD12A3D3E90023FDF7CCFD24
:102A2000FEF77AF800B200280EDDC0F30D0040F486
:102A30008040608110BD0DBFA088C0F30D0040F440
:102A4000004000F44040DAE70DBFE088C0F30D001D
:102A500040F4004000F44040EBE700BFAFF30080DB
:102A6000A11B924183866940FC0200200000A5431F
:102A700008B5304E3378042B16D1FFF7B9FE2E4D32
:102A80002E4C3378052B01D0012B11D80020FFF7F5
:102A900071FE0020FFF78CFE322004F0EFFC0821CD
:102AA0002748FEF7D9FDECE7642004F0E7FCE1E7F6
:102AB000FFF74EFEFFF788FF06F0BCFF48B3B5F9FD
:102AC0000000FFF757FEB5F90200FFF771FE012085
:102AD000218800F0AFFE0220618800F0ABFE0320E9
:102AE000A18800F0A7FE0420E18800F0A3FE0520E5
:102AF000218900F09FFE0620618900F09BFE0720DF
:102B0000A18900F097FE0820E18900F093FE1420CF
:102B1000C3E701F085FA014620B1FFF78DFEFFF70C
:102B2000EFFED4E72860FFF725FE0846FFF740FEDA
:102B3000EDE700BF80000020FC02002082000020A2
:102B4000E0000020054B1A7832B96821044A106071
:102B5000044A117001221A70704700BF2B03002035
:102B6000180300202A0300200346034903481922C2
:102B700009780068FEF7D7BE2A030020180300205A
:102B8000032307B506490190064800931A22002343
:102B900009780068FEF7F6FE03B05DF804FB00BF9D
:102BA0002A03002018030020022307B506490190DC
:102BB000064800931B22042309780068FEF7E2FE12
:102BC00003B05DF804FB00BF2A03002018030020B7
:102BD000022307B506490190064800931C220423EE
:102BE00009780068FEF7CEFE03B05DF804FB00BF75
:102BF0002A03002018030020032307B5064901908B
:102C0000064800931D22002309780068FEF7BAFEEB
:102C100003B05DF804FB00BF2A0300201803002066
:102C200007B5064900900648062324220978006863
:102C3000FEF785FE03B05DF804FB00BF2A03002009
:102C40001803002007B506490090064804232422F3
:102C500009780068FEF773FE03B05DF804FB00BF5F
:102C60002A03002018030020042307B50649019019
:102C7000064800932422032309780068FEF782FEA9
:102C800003B05DF804FB00BF2A03002018030020F6
:102C900003280B460AD800EB400000F12502044946
:102CA000044809780068D2B2FEF73DBE704700BF05
:102CB0002A0300201803002003280B460AD800EB43
:102CC000400000F126020449044809780068D2B2A5
:102CD000FEF729BE704700BF2A030020180300201A
:102CE000032807B50CD800EB4000009100F1270243
:102CF00005490648072309780068D2B2FEF71FFE8F
:102D000003B05DF804FB00BF2A0300201803002075
:102D1000032807B50ED8042300EB4000019100F111
:102D20002702064906480093097803230068D2B2B7
:102D3000FEF728FE03B05DF804FB00BF2A03002065
:102D400018030020052307B50649019006480093A3
:102D50003422042309780068FEF714FE03B05DF8FE
:102D600004FB00BF2A0300201803002007B5064912
:102D7000009006480723372209780068FEF7DFFD38
:102D800003B05DF804FB00BF2A03002018030020F5
:102D900007B50649009006480623372209780068DF
:102DA000FEF7CDFD03B05DF804FB00BF2A03002051
:102DB0001803002007B5064900900648052337226E
:102DC00009780068FEF7BBFD03B05DF804FB00BFA7
:102DD0002A0300201803002007B506490090064882
:102DE0000423372209780068FEF7A9FD03B05DF8D7
:102DF00004FB00BF2A0300201803002007B5064982
:102E0000009006480123372209780068FEF797FDF5
:102E100003B05DF804FB00BF2A0300201803002064
:102E2000034603490348382209780068FEF77BBD52
:102E30002A0300201803002007B506490090064821
:102E40000023382209780068FEF779FD03B05DF8A9
:102E500004FB00BF2A0300201803002007B5034627
:102E6000009105480549672209780068FEF767FD6B
:102E700003B05DF804FB00BF180300202A03002004
:102E800007B506490090064805236A2209780068BC
:102E9000FEF755FD03B05DF804FB00BF2A030020D8
:102EA00018030020012307B50549064800936B224B
:102EB000072309780068FEF742FD03B05DF804FBC4
:102EC0002A0300201803002007B506490090064891
:102ED00006236B2209780068FEF731FD03B05DF828
:102EE00004FB00BF2A0300201803002007B580F070
:102EF000010000900549064803236B220978006809
:102F0000FEF71DFD03B05DF804FB00BF2A0300209F
:102F100018030020032307B50649019006480093D3
:102F20006B22022309780068FEF72CFD03B05DF8E0
:102F300004FB00BF2A0300201803002010B5054938
:102F4000054C06482346752209780068FEF7C8FC40
:102F5000207810BD2A0300201C0300201803002045
:102F60002DE9F04320254FF010084FF400478BB0B7
:102F700001210D2005F0BAFE0121324805F034FD93
:102F80000121102005F0B2FE01214FF4004005F0B0
:102F9000B9FE2D4C2D4B2E4E02A92E48029305F062
:102FA000C3FC204602A98DF80B80ADF8085005F04F
:102FB000BBFC304602A94FF40059ADF8087005F08B
:102FC000B3FC4823204602A98DF80B30ADF80890D9
:102FD00005F0AAFC0D21022005F036FD4FF44063F8
:102FE000CDF80C904FF0010903A8ADF810308DF822
:102FF000129005F0B9FB184B01A8019305F0C0F839
:103000004FF082720023CDE905234FF00073CDE924
:1030100007380723DFF8448005A94046ADF824307F
:1030200005F088FE4946404605F0A3FE3946304685
:1030300005F0D6FC2946204605F0D4FC0BB0BDE8CF
:10304000F08300BF00023000001001403800031878
:1030500000080140000C014028060001003C00402F
:10306000014610B50A4805F090FE094C02212046A1
:1030700005F090FE0028F9D00121054805F08AFEF0
:103080000028F9D0024805F082FEC0B210BD00BF92
:10309000003C004070B504460A4E0D4630464FF4E1
:1030A000004105F09FFC44F02000FFF7D9FF0446E3
:1030B0002846FFF7D5FF30464FF4004105F090FC5D
:1030C000204670BD0008014038B50446094D4FF454
:1030D0000041284605F086FC2046FFF7C1FFA520E9
:1030E000FFF7BEFF04464FF40041284605F078FC88
:1030F000204638BD0008014070B506460C460C4815
:103100004FF40041154605F06DFC3046FFF7A8FF6F
:1031100006462544AC4206D14FF40041044805F070
:103120005FFC304670BD14F8010BFFF799FFF1E723
:103130000008014070B506460C460C484FF40041AB
:10314000154605F04FFC3046FFF78AFF2544AC4298
:1031500006D1BDE870404FF40041044805F040BC82
:10316000FF20FFF77DFF04F8010BF0E700080140A6
:1031700070B504460D46084E2021304605F032FC5D
:1031800021462A46A820FFF7B7FF3046BDE8704029
:10319000202105F025BC00BF00100140032110B51F
:1031A00004460846FFF776FF214605222A20FFF74E
:1031B000A3FF2146BDE8104005223020FFF79CBF49
:1031C0007D28014602D80520FFF764BF704710B57F
:1031D00004460620FFF778FF00F0D70134B1022C37
:1031E00007D0BDE810400620FFF754BF41F0200192
:1031F000F7E741F00801F4E710B504460620FFF7B1
:1032000063FF022C00F0F8010AD0032C0BD0012C34
:1032100001D141F002010620BDE81040FFF73ABF9E
:1032200041F00401F7E741F00701F4E710B506208B
:10323000FFF74AFF04460420FFF746FFA30654BFEA
:1032400040F0100140F05001C9B20420BDE8104028
:10325000FFF720BF38B5214D0446FFF781FE204817
:10326000FFF79CFFA878FFF7ABFFE878FFF7AFFF09
:103270000320FFF7C1FFFFF7D9FF0420FFF724FF6A
:1032800040F00301C9B20420FFF704FF012C19D15B
:103290000F210020FFF7FEFE21461C20FFF7FAFE5B
:1032A00006211D20FFF7F6FE21462046FFF7F2FE1D
:1032B000FF21E120FFF7EEFEBDE83840FF21E220CC
:1032C000FFF7E8BE0E210020FFF7E4FE01211C20DD
:1032D000FFF7E0FE06211D20E8E700BFA84500201B
:1032E000AC4500201FB5124B18681B7900908DF873
:1032F0000430FFF735FE052269463020FFF7FCFE5B
:10330000052202A91020FFF715FF6B46052202A92E
:1033100013F8014B11F8010B844206D1013A12F067
:10332000FF02F5D1012004B010BD0020FBE700BF73
:103330007806010838B505466020FFF7C5FE431E34
:10334000DBB21F2B044612D820210A4805F04AFBA5
:10335000294661202246FFF7EDFE2021054805F0B1
:103360003FFBFF21E220FFF795FE204638BD0024F9
:10337000F7E700BF0010014038B5002305460B7089
:1033800007200C46FFF7A0FEC2060DD5FF21E12065
:10339000FFF780FE012470210720FFF77BFE072046
:1033A000FFF792FE204638BD430605D52846FFF7B5
:1033B000C1FF20700324EEE7C0F340104400EAE7A9
:1033C000014B1860704700BF2C0300204FF40050E1
:1033D00008B505F009FA012809D1054B1B6803B1AE
:1033E0009847BDE808404FF4005005F00BBA08BDFF
:1033F0002C03002013B5094C0121102005F076FCA8
:10340000074B204601A9019305F08EFA4FF40041C5
:10341000204605F0E7FA02B010BD00BF00100140E1
:103420000080021013B5094C0121102005F05EFC4C
:10343000074B204601A9019305F076FA4FF480412D
:10344000204605F0CFFA02B010BD00BF00100140C9
:103450000040021007B50121102005F047FC044B85
:10346000044801A9019305F05FFA03B05DF804FB7D
:1034700001000310001001402DE98848FFF7BAFF52
:10348000FFF7D0FFFFF7E6FFFEF7FCFF764C4FF4A7
:103490007A7003F0F3FF0221204605F09BFA002822
:1034A000F5D100F18040012100F5883005F098FA4F
:1034B0004FF400416C4805F093FA4FF480416A489C
:1034C00005F08EFA684C0221204605F083FA60B3BD
:1034D000DFF8988198F800305BB30FF26C1BDBE9E2
:1034E00000AB4FF0665502215F4805F073FA20BB30
:1034F00040F2DC5003F0C2FF02215B4805F06AFA9B
:103500000028F0D1012341F2707088F8003003F0F8
:10351000B5FF554C0221204605F05CFA0028F9D091
:103520000121514805F05EFADDE7642003F0A6FFB3
:10353000C9E7642003F0A2FFCCE74D4B1B78002BBA
:1035400065D14FF40041484805F04CFA4FF48041F2
:10355000454805F047FADFF81C91474CB9F80000E0
:1035600080B2FDF727FC2946FDF77CFCFCF7CCFF79
:1035700052465B46FDF720F80022404BFDF71CF851
:1035800033A3D3E90023FDF717F8064620680F465A
:10359000FCF7BAFF30A3D3E90023FDF70DF802468C
:1035A0000B4630463946FCF751FEFDF7FDFA206028
:1035B000B9F8020080B2FDF7FDFB2946FDF752FC89
:1035C000FCF7A2FF52465B46FCF7F6FF24A3D3E9C3
:1035D0000023FCF7F1FF1EA3D3E90023FCF7ECFF67
:1035E000064660680F46FCF78FFF1BA3D3E9002354
:1035F000FCF7E2FF02460B4630463946FCF726FE52
:10360000FDF7D2FA6060142003F038FF6BE7012B5E
:1036100005D14FF40041144805F0E2F996E7022B7A
:103620000AD14FF40041104805F0DCF94FF4804115
:103630000D4805F0D5F98EE7032B8CD14FF40041EE
:10364000094805F0CDF9F1E76666666666660A40E8
:103650009A9999999999C93F9A9999999999E93F0C
:10366000CFF753E3A59B34400010014080000020B9
:1036700030030020D8020020DC0200200000264099
:1036800030B5012189B0042005F030FB2A4B694692
:103690002A48009305F048F90121082005F026FB8F
:1036A000274B69462748009305F03EF90121022087
:1036B00005F028FB0025472244F62063224C01A98F
:1036C0002046CDE901238DF80C5005F0DBFBADF869
:1036D000185040F2DC551D4B204604A90493ADF868
:1036E000165005F019FC2046082105F05EFD204625
:1036F00004A9ADF8165005F053FC2046082105F04A
:103700005CFD204604A9ADF8165005F089FC204662
:10371000082105F05CFD204604A9ADF8165005F01F
:10372000BDFC2046082105F05AFD0121204605F088
:10373000FAFC09B030BD00BFC0000318000801400A
:1037400003000318000C0140000400406000010069
:1037500030B5012189B042F2100005F0C7FA254BBF
:10376000694625480025009305F0DEF8472244F617
:103770002063224C01A92046CDE901238DF80C508D
:1037800005F080FBADF8185040F2DC551C4B20468C
:1037900004A90493ADF8165005F0BEFB204608219D
:1037A00005F003FD204604A9ADF8165005F0F8FB1E
:1037B0002046082105F001FD204604A9ADF8165069
:1037C00005F02EFC2046082105F001FD204604A945
:1037D000ADF8165005F062FC2046082105F0FFFC0C
:1037E0002046012105F09FFC0121204605F0A7FCA1
:1037F00009B030BDC003031800100140003401407F
:103800006000010008B5FFF73BFFBDE80840FFF787
:103810009FBF000008B50549FDF724FB0449FDF7EB
:1038200019FAFDF70BFD80B208BD00BF0000FA4495
:103830000000FA4308281BD8A1F5FA73B3F5FA6F14
:1038400016D8042884BF0438C0B200F1FF308CBF02
:10385000084B094B03280BD8DFE800F002040608E8
:10386000998670471987704799877047A3F8401069
:10387000704700BF003401400004004070B54FF0B5
:103880007E550668044629463046FDF7A7FC08B178
:10389000256006E0002530462946FDF781FC00281A
:1038A000F6D170BD10B5012186B04FF4804005F00F
:1038B00029FA224C01214CF2080005F017FA204B9E
:1038C00069462046009305F02FF84FF40053ADF8F9
:1038D00000301823694620468DF8033005F024F89F
:1038E0004FF4804369462046ADF8003005F01CF8DF
:1038F0004FF4004369462046ADF8003005F014F857
:1039000020464FF4805105F06BF84FF082724FF46F
:103910000033CDE9012300230A49A4F55444CDE93D
:1039200003130723204601A9ADF8143005F002FA6D
:103930000121204605F01DFA06B010BD000C014023
:103940000010031001000002F8B54FF48053064642
:10395000164D174F2B600221384605F01BFA04461E
:1039600090B13146124805F010FA4FF48053104ED2
:103970002B600121304605F00DFA044678B10C4861
:1039800005F005FAC4B208E02B685A1E2A60002B25
:10399000E1D12146074808F093FC2046F8BD2B688A
:1039A0005A1E2A60002BE4D10121F3E79400002085
:1039B000003800407E06010870B50E4604464FF4FC
:1039C00080511148154605F00DF80320FFF7BCFFA4
:1039D000C6F30740FFF7B8FFC6F30720FFF7B4FFB1
:1039E000F0B2FFF7B1FF2544AC4206D1BDE870400C
:1039F0004FF48051044804F0F3BFFF20FFF7A4FF09
:103A000004F8010BF0E700BF000C0140F8B5104FBF
:103A10004FF48051384604F0E5FF9F20FFF794FFF4
:103A2000FF20FFF791FF0646FF20FFF78DFF0446BA
:103A3000FF20FFF789FF0546240238464FF48051E6
:103A400044EA064404F0CCFF44EA0500F8BD00BF98
:103A5000000C014010B5084C4FF48051204604F092
:103A6000C1FF0620FFF770FF2046BDE810404FF46D
:103A7000805104F0B5BF00BF000C01400A484FF46C
:103A8000805108B504F0AEFF0520FFF75DFFFF2071
:103A9000FFF75AFFC307FAD4BDE808404FF480513E
:103AA000014804F09DBF00BF000C014038B504463A
:103AB000104DFFF7CFFFFFF7E1FF4FF4805128468D
:103AC00004F090FF2020FFF73FFFC4F30740FFF70B
:103AD0003BFFC4F30720FFF737FFE0B2FFF734FFE7
:103AE00028464FF4805104F07BFFBDE83840FFF7D3
:103AF000C5BF00BF000C014070B50E461446054618
:103B0000FFF7A8FF4FF48051144804F06BFF022028
:103B1000FFF71AFFC6F30740FFF716FFC6F30720AB
:103B2000FFF712FFF0B2FFF70FFFB4F5807F04D963
:103B30000B4808F02BFC4FF480742C44A54208D1AC
:103B40004FF48051054804F04BFFBDE87040FFF78B
:103B500095BF15F8010BFFF7F7FEEFE7000C0140EA
:103B6000AD0601082DE9F84311F0FF0315460446A0
:103B70000F464FEA12221AD16AB14FEA022800EB2F
:103B80000226A1EB0009B44204EB090107D1EAB215
:103B900007EB080101E02A463946204615E0204699
:103BA0004FF48072FFF7A8FF04F58074EBE75E42E4
:103BB000F6B272B9EAB29642EDD21344DDB23246A1
:103BC000FFF79AFF2A46F119A019BDE8F843FFF75D
:103BD00093BF3246FFF790FFAD1B1FFA85F83444C0
:103BE000374408F47F46EDB204EB0608A7EB04095E
:103BF000444504EB090103D1B9194DB12A46CCE77C
:103C000020464FF48072FFF777FF04F58074EFE7EA
:103C1000BDE8F88310B5084C4FF48051204604F0FD
:103C2000E1FEAB20FFF790FE2046BDE810404FF4C8
:103C3000805104F0D5BE00BF000C014030B5012119
:103C400089B00446112005F051F81E4D01214FF4B2
:103C5000002005F057F81C4B69462846009304F0F5
:103C600063FE4FF40063ADF8003004236946284634
:103C70008DF80330002504F057FE4FF440230494E0
:103C8000124C04A92046CDE90553ADF81C5005F0AF
:103C90008DFB4FF4007302A920460393029505F0B3
:103CA000D7FB0B4B01A8019304F06AFA01222046CE
:103CB00040F2255105F0E8FB0121204605F0D8FB34
:103CC00009B030BD0010014000040318004C004052
:103CD0003406000140F6B83080B503F0CFFB144C39
:103CE0008021204605F0F1FB0028F9D0552110482D
:103CF00005F0E3FB00230F4C0F4E104F0C4D2370CB
:103D0000642003F0BBFB2378022BF9D138463188BD
:103D100008F0D6FA8021284605F0D7FB0028F9D014
:103D20005521284605F0C9FB00232370E8E700BFB2
:103D3000004C00403603002034030020DE0601085A
:103D400010B540F22551104805F0C5FB58B10F4C95
:103D50000D48237843B905F0B4FB0D4B00021880E1
:103D600023780133237010BD012B08D105F0A9FB86
:103D7000074B1A88104380B21880064BEFE7BDE866
:103D8000104005F09EBB00BF004C004036030020F1
:103D9000320300203403002030B5012189B00446ED
:103DA000312004F0A3FF01214FF4801004F0AAFF9A
:103DB0001A4B69461A48009304F0B6FD042369467D
:103DC00018480025ADF800308DF8033004F0ACFD44
:103DD0004FF440230494144C04A92046CDE9055324
:103DE000ADF81C5005F0E2FA4FF4007302A920462A
:103DF0000393029505F02CFB0C4B01A8019304F0F2
:103E0000BFF90122204640F2255105F03DFB01217A
:103E1000204605F02DFB09B030BD00BF001003188F
:103E20000010014000140140005000403506000120
:103E300040F6B83080B503F021FB144C80212046B9
:103E400005F043FB0028F9D05521104805F035FB5B
:103E500000230F4C0F4E104F0C4D2370642003F0C5
:103E60000DFB2378022BF9D13846318808F028FA67
:103E70008021284605F029FB0028F9D05521284645
:103E800005F01BFB00232370E8E700BF0050004053
:103E90003C0300203A030020DE06010810B540F282
:103EA0002551104805F017FB58B10F4C0D482378E9
:103EB00043B905F006FB0D4B00021880237801334F
:103EC000237010BD012B08D105F0FBFA074B1A88AF
:103ED000104380B21880064BEFE7BDE8104005F0B4
:103EE000F0BA00BF005000403C030020380300201F
:103EF0003A03002030B5012187B00446194D44F241
:103F0000040004F0F3FE184B69462846009304F0C1
:103F10000BFD4FF48063ADF800300423694628465A
:103F20008DF8033004F000FD00234FF4402202948A
:103F30000E4C02A92046CDE90332ADF8143005F04D
:103F400035FA0B4B01A8019304F01AF9012220461F
:103F500040F2255105F098FA0121204605F088FA33
:103F600007B030BD000801400002031800380140CE
:103F70002506000138B540F22551254805F0ABFA79
:103F8000A8B1234805F09DFA224DC0B22B8823B971
:103F9000AA280CD101232B8009E0012B0AD1AA28E1
:103FA00006D102234AF6AA222B801B4B1A8038BD69
:103FB0000023F0E7022B184C03D10323A0702B80C1
:103FC000F5E7032B05D1042320282B801BD8E070B4
:103FD000EDE7E278911E8B4202DAE0540133DAE732
:103FE00002F1FF3202D1A0842A80E0E793420AD195
:103FF000A38C214643EA0023A384002307481A46E2
:10400000006802F089FD00232B80E370CFE700BF3A
:10401000003801403E0300204403002040030020FC
:10402000014B1878704700BF3D03002070B58378BE
:104030008AB0112B40D1AD4B68460093AC4B6C4617
:1040400059681A7A9B7801910A218DF808208DF819
:10405000093006F039F90025A64EADF824009DF888
:104060000330023BAB421ADCA24C8021204605F013
:104070002CFA0028F9D0BDF824109E4805F01DFA4E
:104080009C4C8021204605F020FA0028F9D0BDF88C
:1040900024109848090A05F010FA0AB070BD802172
:1040A000304605F012FA0028F9D0304614F8011B0A
:1040B00005F003FA0135D2E7092B00F00C81123B21
:1040C000DAB20F2AE9D80F2BE7D801A252F823F071
:1040D00011410008914100089B400008014200087E
:1040E0000B4200089B4000089B4000089B400008D2
:1040F0009B4000089B4000089B400008D7420008F6
:104100009B4000089B4000089B400008BF420008FD
:104110000279774B6C461A71427900255A7182797F
:10412000744E9A71C279DA71027A1A72FDF716FB2F
:10413000714B8DF8040005216846009306F0C4F821
:10414000ADF824009DF80330023BAB4213DC694C10
:104150008021204605F0B9F90028F9D0BDF82410D7
:10416000644805F0AAF9634C8021204605F0ADF9BA
:104170000028F9D08BE78021304605F0A6F9002809
:10418000F9D0304614F8011B05F097F90135D9E74D
:104190000279574B6C469A70FDF7E0FA574B8DF851
:1041A000040005216846009306F08EF80025514E64
:1041B000ADF824009DF80330023BAB4213DC4D4CBC
:1041C0008021204605F081F90028F9D0BDF824109F
:1041D000484805F072F9474C8021204605F075F9F2
:1041E0000028F9D053E78021304605F06EF9002809
:1041F000F9D0304614F8011B05F05FF90135D9E715
:104200000AB0BDE8704005F023BA002482883C4B18
:10421000017E1A80C2888DF804405A8002896D465A
:104220009A804289334EDA8082891A81C2895A8102
:10423000028A9A81428ADA81828A324B52BA9A8001
:10424000C28A684652BADA802F4A11702F4A009209
:104250001A895B89110A8DF805108DF806200F2147
:104260001A0A8DF807208DF8083006F02DF8ADF801
:1042700024009DF80330023BA34213DC1D4C802137
:10428000204605F022F90028F9D0BDF8241019487D
:1042900005F013F9174C8021204605F016F9002887
:1042A000F9D0F4E68021304605F00FF90028F9D066
:1042B000304615F8011B05F000F90134D9E7037900
:1042C000134A012B01D11370E7E6022BFBD0032B1D
:1042D00018BF0023F7E7002301461A460D4800687F
:1042E0000AB0BDE8704002F04BBB00BFAAAA190C8F
:1042F000A845002000380140AAAA1A07AAAA1B074D
:1043000082000020FC02002030030020AAAA1E1117
:1043100020460020C4450020F0B5002226210A20B6
:104320008BB002F005FB124E124D134F306000238C
:10433000C8226946306802F0B3FC0128044614D153
:104340009DF803106846023989B205F0BDFFBDF83B
:1043500024100246814204D16846FFF767FE2C70A4
:10436000E5E7384607F0ACFFE1E700232B70DEE716
:10437000400300203D030020FA060108022808B58A
:1043800005D908F055F909230360002008BD012074
:10439000FCE70020704708B508F04AF916230360CF
:1043A0004FF0FF3008BD0000F8B50E46144600255A
:1043B000084FA54201DB2046F8BD3846715D05F087
:1043C0007CF88021384605F080F80028F9D00135C6
:1043D000EFE700BF00380140F8B50E46144600254F
:1043E000084FA54201DB2046F8BD2021054805F015
:1043F0006CF80028F9D0384605F063F8705501359F
:10440000EFE700BF00380140022808B506D908F0E0
:104410000FF9092303604FF0FF3008BD0020FCE7CF
:1044200008B508F005F9092303604FF0FF3008BD17
:10443000022808B504D84FF400534B60002008BD93
:1044400008F0F6F809230360F8E700002DE9F04FC3
:104450004568D1F808B0066884688BB0D1F800A030
:10446000D1F8049028465946039606950994FCF71E
:10447000F9FC494607462046FCF7F4FC014638465D
:10448000FCF7E6FB5146804602902046FCF7EAFC2A
:10449000594607463046FCF7E5FC01463846FCF72E
:1044A000D7FB4946074605903046FCF7DBFC5146F2
:1044B00081462846FCF7D6FC01464846FCF7C8FB77
:1044C0003946814608902046FCF7CCFC4946824696
:1044D0002846FCF7C7FC01465046FCF7B9FB4946A5
:1044E00001903046FCF7BEFC414681462046FCF771
:1044F000B9FC01464846FCF7ABFB41460490284610
:10450000FCF7B0FC394680463046FCF7ABFC014670
:104510004046FCF79DFB314607903046FCF7A2FC75
:10452000294606462846FCF79DFC01463046FCF726
:1045300091FB214605462046FCF794FC014628469F
:10454000FCF788FB00F06AF8019904460846FCF77E
:1045500089FC049905460846FCF784FC0146284678
:10456000FCF778FB079905460846FCF77BFC0146FB
:104570002846FCF76FFB00F051F802990646084602
:10458000FCF770FC059905460846FCF76BFC0146F4
:104590002846FCF75FFB089905460846FCF762FCD5
:1045A00001462846FCF756FB00F038F83146054630
:1045B0000198FCF757FC314601900498FCF752FC37
:1045C000314604900798FCF74DFC29460790029865
:1045D000FCF748FC294602900598FCF743FC294665
:1045E00005900898FCF73EFC214608900398FCF7DC
:1045F00039FC214603900698FCF734FC21460690CE
:104600000998FCF72FFC0449099001A800F02AF84A
:104610000BB0BDE8F08F00BF6C03002010B50A4C52
:104620000A49A4EB5004FCF71DFC2146FCF71AFCD8
:104630002146FCF717FC01460548FCF709FB21461B
:10464000FCF710FC10BD00BF12141F5F12D3363FE1
:10465000FF51D83F10B50446FFF7E0FF2146FCF7B5
:1046600001FC10BD2DE9F84305460C4600684FF0EB
:104670007E51FCF7EFFA2969FCF7ECFA296AFCF79E
:10468000E9FA4FF07A51FCF7EDFB064620F00040C6
:10469000FFF7E0FF6A4920600746FCF79FFD00280E
:1046A00059D039464FF07A50FCF790FC0646E9693C
:1046B0006869FCF7CDFA3146FCF7D4FB6060A96865
:1046C000A869FCF7C5FA3146FCF7CCFBA060E968A5
:1046D0006868FCF7BDFA3146FCF7C4FBE06021686E
:1046E000D4F804800846FCF7BDFB41460546404629
:1046F000FCF7B8FB01462846FCF7ACFAA76805466C
:1047000039463846FCF7AEFB01462846FCF7A2FACC
:10471000E668054631463046FCF7A4FB01462846CC
:10472000FCF798FAFFF77AFF054601462068FCF788
:1047300099FB294620606068FCF794FB294660607D
:10474000A068FCF78FFB2946A060E068FCF78AFBB5
:10475000E060BDE8F8834FF07E512868FCF77AFAF4
:104760004FF07C51FCF77EFB3146FCF771FA20F0EC
:104770000040FFF76FFF60604FF07E512869FCF743
:1047800069FA4FF07C51FCF76DFB3146FCF760FA9B
:1047900020F00040FFF75EFFA0604FF07E51286AD6
:1047A000FCF758FA4FF07C51FCF75CFB3146FCF704
:1047B0004FFA20F00040FFF74DFFE060E968064641
:1047C0006868FCF747FA00210746FCF7E9FC28B3C4
:1047D000A36803F10043A360E9696869FCF73AFA4A
:1047E0000021FCF7FBFC10B106F10046E660E96928
:1047F0006869FCF72DFA0021FCF7D2FC00283FF491
:104800006EAFA268E368616802F1004201F1004105
:1048100003F100436160A260E36060E70021384675
:10482000D5F81480D5F81C90FCF7D8FC0028DED011
:1048300049464046FCF70EFA0021FCF7B1FCD2E7EE
:104840000AD7233C012808B506D1FFF7DFF8034B50
:10485000C01A18BF012008BD0120FCE71740EF0077
:10486000012808B50AD1FFF71DF8FFF7D3F9FFF7C4
:10487000CDF8034BC01A18BF012008BD0120FCE78A
:104880001740EF0010B50446012C0846114607D129
:104890001B0303F470420903FFF78EF8002010BDDC
:1048A0000420FCE770B50E461D4673B101280CD1FB
:1048B00014032046FFF7FAF82A033046214602F493
:1048C0007042FFF74FF9002070BD0420FCE701287B
:1048D00010D1022908D003290AD0012902D14FF4AE
:1048E00000631360002070474FF480531380F9E792
:1048F0001060F7E704207047004870470000214629
:1049000001380A44914200D1704711F8013B00F888
:10491000013FF7E70244904200D1704700F8011BC5
:10492000F9E7034600F10B010020C20142EA500200
:1049300013F8010B02448B4202F0FF00F5D17047DF
:1049400010B50368014653B11846024610F8014BF2
:104950001F2C10D93A2CF8D1581C824202D04FF0AB
:10496000FF3007E01B78A3F13000C3B2012BF6D86B
:1049700001320A6010BD0020FCE708B568B1036889
:104980005BB11A784AB1D9888288914205D15878AA
:10499000FFF758FF10F0010000D0092008BDF8B55E
:1049A00002690D4601F1090362B300242E27416913
:1049B0004E1E16F8012F0134202A19D0052A4AD09C
:1049C000092C01D103F8017BA2F1410CBCF1190FB4
:1049D0000CD8082C8CBF4FF0100C4FF0080C91F83D
:1049E0000CE01EEA0C0F1CBF2032D2B203F8012BE0
:1049F0000B2CDED1CA7A2A72CA692A600A8BAA8075
:104A0000CA8AEA8000241C70AE6926B103691BB90A
:104A1000002400233355F8BDEB69002BF8D04FF686
:104A2000FF73028C9A42F3D0C76937F8020B002853
:104A3000EFD0002101F0ECFD0028E9D0FF2884BF71
:104A4000030A3355EB6988BF0134013BA342DFD928
:104A500030550134E9E7092C4FF0E502C6D1B1E742
:104A60002DE9F041C66A00F13008044601233246C0
:104A700041464078FFF716FF0546A8B9236AA269A8
:104A8000F31A9342207102D2E778012F02D8284608
:104A9000BDE8F081A36941461E4432460123607897
:104AA000FFF700FF013FF0E70125F0E703790BB1C5
:104AB000FFF7D6BF1846704738B5C36A05468B4224
:104AC0000C4610D0FFF7F2FF60B922460123687848
:104AD00005F13001FFF7D6FE00281CBF4FF0FF3470
:104AE0000120EC6238BD0020FCE70000002310B577
:104AF00003714FF0FF33C3620446FFF7DDFFA0B937
:104B00004AF65523B4F82E229A4210D1D4F86630D2
:104B1000084A23F07F43934206D0D4F8820020F065
:104B20007F40801A18BF012010BD0320FCE702203F
:104B3000FAE700BF4641540000232DE9F04303602B
:104B4000074685B008461546FFF7FAFE061EC0F276
:104B50000981874B53F82640002C00F005813C600A
:104B600023786BB16078FFF76DFEC10708D41DB1E3
:104B700010F0040500D00A25284605B0BDE8F083F2
:104B80000023F0B223706070FFF76AFEC20700F1E5
:104B9000ED800DB14307EED40221607804F10A02E2
:104BA000FFF795FE054608B10125E5E76389A3F502
:104BB00000739BB2B3F5606FF6D801462046FFF74D
:104BC00095FF012840F0B480E846414604F5F773AC
:104BD00004F22E201A7902B19A681033834241F808
:104BE000042BF7D1002658F8047B002F00F09880A2
:104BF00039462046FFF77AFF002840F09280B4F84B
:104C00000AC0B4F83B30634540F09680B4F84610D3
:104C100001B9616D94F840E0A1610EF1FF33012B01
:104C200084F803E000F2888094F83D60A670002EBE
:104C300000F08280731E33427ED1B4F841804FEA87
:104C40005C13B8FBF3F203FB12839BB2A4F8088059
:104C5000002B71D1B4F8433003B9236DE08F0028E5
:104C60006AD001FB0EFE02447244934264D39B1A45
:104C7000B342B3FBF6F95FD340F6F57399455FD9BC
:104C80004FF6F576B14594BF0226032609F10203DB
:104C900038443A44032E6361E7612062A26251D135
:104CA000B8F1000F48D1E06D9B000CF1FF321344C6
:104CB000B3FBFCF38B4260623ED84FF0FF33C4E994
:104CC00003338023032E637122D1B4F86030012BAB
:104CD0001ED12046791CFFF7EFFEC8B94AF65523CE
:104CE000B4F82E2260719A4212D1226B214B9A4263
:104CF0000ED103F1FF53D4F8142203F500532033EF
:104D00009A4201BFD4F818322361D4F81C32E36010
:104D1000194A2670138801339BB21380E3802BE776
:104D200002200136042E7FF45EAF032804D13BE756
:104D300003283FF439AF08B10D251DE72F465EE784
:104D40000126A3E7B8F1000FF6D0022E4FEA430286
:104D50001ABFD21803F001031346704418BF03EBC7
:104D60005203A2E70B2507E70C2505E7032503E718
:104D700088030020525261419003002070B5044620
:104D8000FFF794FE054678BB2378032B24D1637983
:104D9000012B21D104F13006014662893046FFF72C
:104DA000B9FD4AF65522A4F82E22104A3146226354
:104DB00002F1FF5202F500522032C4F81422226997
:104DC0006078C4F81822E268C4F81C22E269013253
:104DD000E262FFF767FD6571002260781146FFF718
:104DE00076FD003818BF012070BD00BF52526141EE
:104DF00003284B8B04BF8A8A43EA02431846704754
:104E000043690239023B8B4283BF8378806A01FB8E
:104E10000300002070470129F8B506460D4672D9F7
:104E200043698B426FD90378022B32D0032B48D0D1
:104E3000012B68D1438901EB5104B4FBF3F3016A00
:104E40001944FFF739FE10B14FF0FF30F8BD7189FA
:104E5000671CB4FBF1F301FB1344B7FBF1F1336AB8
:104E600034443046194494F83040FFF725FE0028BA
:104E7000EAD17389B7FBF3F203FB1277374497F853
:104E8000303044EA0320EB074CBF0009C0F30B00AD
:104E9000DCE743895B08B1FBF3F3016A1944FFF7D0
:104EA0000BFE0028D0D173896D00B5FBF3F203FB34
:104EB0001255354495F8313095F8300040EA03201A
:104EC000C4E743899B08B1FBF3F3016A1944FFF778
:104ED000F3FD0028B8D17389AD00B5FBF3F203FBF5
:104EE000125505F1300232449078D378000440EA3C
:104EF0000360731993F830301843537840EA032065
:104F000020F07040A2E70120A0E770B58268054656
:104F1000012A0C46C18001D1022070BD0368596985
:104F20009142F9D9FAB91978032901D1596AD9B945
:104F30001989A142F0D9586AEA600028ECD02968A2
:104F40004B8901F130025B09B4FBF3F3184428618B
:104F50004B8900205B09B4FBF3F103FB114402EB26
:104F600044126A61D9E711460A465E899B78760940
:104F70005E43B4421146286802D2FFF741FFDBE7E7
:104F8000FFF749FF431C024607D00128C4D92B680C
:104F90005B698342C0D9A41BEBE70120BDE701296F
:104FA0002DE9F04105460C46164640F288804369DB
:104FB0008B4240F284800378022B45D0032B5BD0D8
:104FC000012B7CD1438901EB5107B7FBF3F3016A55
:104FD0001944FFF771FD68BB698907F10108B7FB48
:104FE000F1F301FB137714F001042F441FBF97F86E
:104FF0003020330103F0F00302F00F0214BF13431B
:10500000F3B287F830300123B8FBF1F12B712B6A32
:1050100028461944FFF750FD60B96B89B8FBF3F2DD
:1050200003FB12832B443CB1C6F3071683F83060B0
:1050300001232B71BDE8F08193F83020C6F30326DD
:1050400022F00F021643F1E743895B08B1FBF3F34B
:10505000016A1944FFF730FD0028EBD16B89640029
:10506000B4FBF3F203FB12442C4484F83060C6F323
:10507000072684F83160DBE743899B08B1FBF3F333
:10508000016A1944FFF718FD0028D3D16B89A400E9
:10509000B4FBF3F203FB124404F130022A44D37848
:1050A0002C441B0603F070433343C3F3072184F8F9
:1050B00030305170190C1B0E9170D370B8E702207C
:1050C000B8E7F8B505460F4671B9C668DEB1436961
:1050D0009E4228BF012634466B690134A34215D88D
:1050E000012E12D1002405E0FFF795FE01280446A9
:1050F00002D801242046F8BD601C2FD06B69A34262
:10510000F8D83E46E7E70126E5E70224214628468F
:10511000FFF781FE30B1411C20D00128E9D0B44214
:10512000DAD1DFE76FF0704221462846FFF737FFFC
:1051300090B957B92B69EC605A1CDBD0013B2B614D
:105140006B7943F001036B71D4E722463946284658
:10515000FFF725FF0028EDD00128CAD14FF0FF341A
:10516000C8E72DE9F041C68804460136B3B2884647
:1051700013B90420BDE8F0810369002BF9D0006861
:1051800042895209B6FBF2F102FB116232B9E168C1
:105190000133236189B90389B342EAD92368E680E0
:1051A00003F130025B8900205B09B6FBF3F103FBDE
:1051B000116602EB46126261DCE7478983787F095A
:1051C000B6FBF7F7013B1F40E8D1FFF724FE0128AB
:1051D000054601D80220CDE7421C01D10120C9E7D4
:1051E00020684369AB4226D8B8F1000FC1D0E1680E
:1051F000FFF767FF0546002831D00128EAD0431C9D
:10520000ECD02068FFF752FC01460028E6D1206868
:105210004FF0010842893030FFF77CFB22682946B5
:105220001046FFF7EDFDD06223689A78BA4209D89C
:10523000DA6AD21BDA6229462068E560FFF7E0FDF2
:105240002061ABE783F804802068FFF72FFC00287B
:10525000C4D122680137D36A0133D362E4E707205F
:1052600088E700002DE9F04F002185B00646FFF7E2
:105270004CFE074600286AD14FF0FF094FF6FF7A2F
:105280004C46A6F820A031693068FFF715FC0746A8
:1052900000285CD175692A78002A79D0E52AE97A54
:1052A00005D001F03F03090704D50F2B04D0A6F861
:1052B00020A052E00F2B55D1F369002B40D05006AF
:1052C00049D502F0BF04F28895F80D9032846A7BCC
:1052D0004A4542D16A8B002A3FD10D222F78DFF850
:1052E000B4B007F03F07013F574301221BF8011BF1
:1052F0006818407815F8018048EA00287AB3FE2F34
:1053000001932AD8404601F0A7F9019B0390791C2C
:1053100033F81700029101F09FF9039A82421CD1E1
:10532000029942460F46019B1B495945DED1297817
:10533000490603D512B133F8173073B9013CE4B212
:1053400000213046FFF70DFF074600289BD0384666
:1053500005B0BDE8F08FA242B9D0FF24F0E7D045F8
:10536000E2D0FAE724B92846FFF7DBFA4845EED049
:10537000B369DF7A17F0010799D105F10B00854277
:10538000E5D015F8011B13F8012B9142F7D08EE7F9
:105390000427DCE7910701089E0701082DE9F74F74
:1053A0000B7807462F2B884601D05C2B01D108F1E2
:1053B00001080023BB6098F800301F2B00F2ED803D
:1053C00000213846FFF7A1FD00237B6103B0BDE853
:1053D000F08FC1460121204601F01AF9002800F0A3
:1053E0000F817F2806D8954911F8012B12B182420E
:1053F000FAD105E12BF815000135DBE0B044ABF143
:105400000206002D00F0FC8036F81520202A02D07C
:105410002E2A40F0F980013DF3E701313BF81120DD
:10542000202AFAD02E2AF8D01F2C8CBF0024012469
:10543000A40009B144F0030436F815202E2A01D047
:10544000013DF9D14FF000094FF0080A4E463BF8F4
:1054500011004A1CD0B1202803D02E2806D1AA4220
:1054600008D044F00304E4B21146F0E7D14505D278
:10547000AA424ED1BAF10B0F43D102E0BAF10B0FA1
:1054800039D14FF00B0A44F00304E4B2BB691A7837
:10549000E52A04BF05221A70BAF1080F04BFB6004E
:1054A000F6B206F00C030C2B03D006F00302032A1D
:1054B00002D144F00204E4B2A1070BD406F00306C3
:1054C000012E04BF44F01004E4B2042B04BF44F0E6
:1054D0000804E4B2BB693846DC72FFF7C3FEBB695F
:1054E000DB7A00284DD004287FF470AF13F0040F4E
:1054F00008BF05206AE7AA4203D044F00304E4B2DF
:10550000C4D8B6002A464FF00B0A4FF00809F6B28D
:10551000AAE77F2830D9019201F09EF8002101F01E
:1055200077F844F0020CFF28019A5FFA8CFC15D939
:105530000AF1FF31894504D344F00304D146E4B2B3
:1055400092E7B969040A01F8094009F10109B9694A
:10555000644601F8090009F1010985E730B1384CCA
:1055600014F8011B00295AD08142F9D14CF0030CE8
:105570005F205FFA8CFCEAE7A446F0E746F00206FB
:10558000E5E75A073FF522AF7969CB7ADB0639D5D3
:105590003B681878FFF72CFCB86098F80030464656
:1055A0002F2B08F10108F8D05C2BF6D00025A94676
:1055B000D7F81CB016F8092009F101081F2A144673
:1055C0007FF61CAF2F2A3FF419AF5C2A3FF416AFC9
:1055D000FF2D15D07F32D2B27D2A3FF6FAAE16F8F3
:1055E000082009F10209A2F1400102EB04243E293E
:1055F000A4B27FF6EFAE82F080027E2A7FF6EAAE9A
:105600000620E3E60520E1E64FF000032BF8153015
:1056100020210B22B869FFF77DF90021FEE6A0F1F9
:10562000410189B21929A9D9A0F1610189B21929C9
:105630009EBF203846F0010680B288E74D0701087A
:10564000560701080C222DE9F04F87B0D0E9066714
:10565000054631460DEB0200FFF752F99DF8173071
:10566000DB0740F18E8000234FF00109DFF8308224
:10567000F372EB610B22304603A9FFF741F9B9F150
:10568000050F54D94B46B81E30F8022F002A40D1DE
:10569000072103AC03F00F0202F13000392888BF64
:1056A00002F137000F2B04F8010D01F1FF324FEA30
:1056B00013103ED87E2002F118036B4403F8140C3B
:1056C00000238C1E9A4206EB030002D9F15C2029CC
:1056D00032D10346072A8FBF202102F11801694405
:1056E00011F8141C98BF013203F8011B991B0729FC
:1056F000F0D92846FFF7B6FD044600283BD109F152
:105700000109B9F1640FB5D10724204607B0BDE8FF
:10571000F08F102102F0010404EB4303DC0348BFC7
:1057200083EA080301394FEA5202F3D1ACE74B4652
:10573000AEE711460346ADE77F31C9B27D2902D8F5
:105740009C42C6D001330133BCE7013637F816302E
:10575000002BFAD10D231936B6FBF3F616E000261E
:10576000F4E7074601212846FFF7FBFC0446A8B1F1
:10577000042CC9D0C9E70428C7D19DF81730F372AB
:10578000EF619DF817309B07E9D4012600212846D8
:10579000FFF7BBFB04460028EAD1074629692868C1
:1057A000FFF78AF904460028E2D16B691B78E52BE4
:1057B00001D0002BD5D10137BE42D3D1013E52D00A
:1057C000E9882846891BFFF7A0FB044600289CD1E6
:1057D000A869FFF7A6F84FF00F0807464FF6FF79C4
:1057E00029692868FFF768F90346044600288CD128
:1057F0000D249A46F0B2411E61436A69DFF8A4E0C5
:10580000D5F81CC0577382F80B8013739376D37648
:105810004B4518BF3CF811301EF8014B0AF1010A44
:10582000135518BF01314FEA132B1444002B08BF46
:105830004B46BAF10D0F84F801B0E9D14B4502D0C7
:105840003CF811300BB940F04000107001222B6879
:10585000002128461A71FFF784FC044600287FF4D3
:1058600054AF013EBCD129692868FFF725F90446E9
:1058700000287FF44AAF014620226869FFF74AF802
:10588000D5E905010B22FFF73BF8D5E90523DB7AC3
:1058900003F01803137301222B681A7135E700BF58
:1058A00021100100910701082DE9F843FF27064662
:1058B0003C4604254FF6FF78316911B9002D63D0BD
:1058C00053E03068FFF7F8F8054600284DD17069BD
:1058D0000378002B60D0E52BC27A4BD02E2B49D019
:1058E00002F03F0102F01F02082A43D00F2946D1DF
:1058F00059063DD503F0BF04F388477B3384437BCF
:10590000BB4237D1428BAABB0D214FF0010C03786B
:10591000F56903F03F03013B4B43DFF880E01EF8DD
:10592000011B00EB010999F80190415C41EA092152
:10593000BCF1000F20D0FE2B1CD88C4625F813108C
:10594000013301320D2AEAD10278520604D5FE2B2A
:1059500010D8002225F81320013CE4B20021304683
:10596000FFF7FFFB05460028A6D0002333610CE0BB
:10597000A342C4D0FF24F1E74145E2D0FAE73CB9A5
:10598000FEF7CFFFB84203D100252846BDE8F883D3
:105990004FF6FF733384F8E70425E6E79107010823
:1059A000012970B505460C4623D943698B4220D99D
:1059B00021462846FFF72FFA2646044608B900205C
:1059C00070BD012815D0411C15D000223146284653
:1059D000FFF7E5FA0028F3D12B695A1C05D00133F3
:1059E0002B616B7943F001036B716B699C42DFD3D0
:1059F000E5E70220E4E70120E2E700001FB5CDE97A
:105A0000001003A814460391FEF79AFF031E15DB4E
:105A10000C4A52F8231009B100200870019808B10F
:105A20000021017042F8230030B1012C08D100227E
:105A3000694601A8FFF780F804B010BD0B20FBE712
:105A40000020F9E7880300202DE9F043ADF50F7D34
:105A5000144605460191002800F09280002302F0D0
:105A60001E02036001A905A8FFF766F8C0B902ABE2
:105A70000B9301990EAB05A80C93FFF78FFC0A9EC0
:105A800010B9002E08BF062014F01C0F04F01F07E9
:105A90006BD048B1042803D105A8FFF7D3FD60B14E
:105AA0000DF50F7DBDE8F083F37A13F0110F65D18A
:105AB000610767D423073AD502E00A9E47F008073A
:105AC000FEF71AFF0024C0F30743C1B2C0F3072258
:105AD000DDF81480000EB1733374B1753376F4724F
