:020000040800F2
:1000000040910020F50100089D2D000849010008DD
:1000100085250008110F0008956200080000000007
:100020000000000000000000000000005D0100086A
:100030008318000800000000A1010008A94F000873
:100040000F0200080F0200080F0200080F0200084C
:100050000F0200080F0200080F0200080F0200083C
:100060003D1900080F0200080F0200080F020008E7
:100070000F0200080F0200080F020008791600089E
:100080000F0200080F0200080F0200080F0200080C
:100090000F0200080F0200080F0200080F020008FC
:1000A0000F0200080F0200080F0200080F020008EC
:1000B0000F0200080F020008B55400080F020008E4
:1000C0000F02000839220008292200080F02000848
:1000D0000F0200082D5E00080F0200080F02000842
:1000E000151900080F0200080F0200080F0200088F
:1000F0000F0200080F0200080F0200080F0200089C
:100100000F0200080F020008D15400080F02000877
:10011000AD5B0008ED5C0008ED5400080F0200081C
:100120000F0200080F0200080F0200080F0200086B
:10013000DFF810D000F038FD0048004751A000085B
:10014000AFF30080409100201EF0040F0CBFEFF3CE
:100150000880EFF309800AF07BBB0000224B19688E
:100160000868B0E8F00F80F30988BFF36F8F4FF095
:10017000000080F311884EF00D0E70470000000063
:1001800006480068006880F3088862B661B6BFF36D
:100190004F8FBFF36F8F00DF00BF00BF08ED00E09F
:1001A000EFF30980BFF36F8F0F4B1A6820E9F00F50
:1001B000106008B54FF0500080F31188BFF34F8FE7
:1001C000BFF36F8F0CF0AAFC4FF0000080F3118892
:1001D000BDE8084019680868B0E8F00F80F30988A6
:1001E000BFF36F8F704700BFF8010020EFF3058069
:1001F000704700000648804706480047FEE7FEE7D4
:10020000FEE7FEE7FEE7FEE7FEE7FEE7FEE7FEE7C6
:10021000C94F00083101000840EA01039B0703D0E1
:1002200009E008C9121F08C0042AFAD203E011F835
:10023000013B00F8013B521EF9D27047D2B201E0F7
:1002400000F8012B491EFBD270470022F6E710B5DB
:1002500013460A4604461946FFF7F0FF204610BD34
:10026000421C10F8011B0029FBD1801A704703467D
:1002700011F8012B00F8012B002AF9D1184670471C
:10028000F0B480EA0102D40F4200B2EB410F02D277
:100290000246084611464A0042D0C30DDDB2C1F302
:1002A000C752AD1A202D35DAC1F3160141F4000210
:1002B00004B15242C5F1200602FA06F12A41104467
:1002C000B3EBD05F23D0C4B1012DA0EBC35009DC48
:1002D000F0BC4FF0004202EAC352DBB200F500006E
:1002E00000F07DBB400000F1807000EBC350A0F136
:1002F000807040EAD170490009E0490841EAC071C4
:10030000A0EBC35000F50000400800EBC350F0BC68
:1003100000F05CBB6142012202EB4101001BF6E7E9
:10032000F0BC704781F00041AAE780F00040A7E7E9
:1003300080EA010210B502F00043400022D04A00DA
:100340001FD0010E01EB1261C0F35600C2F356023A
:1003500040F4000042F40002A0FB022000047F39B8
:10036000140400D0401C50EA124001D44000491E41
:10037000C2B20C0604EBD010401C4008802A02D008
:1003800003E0002010BD20F00100002900DA002069
:10039000184310BD30B480EA010202F0004530F08D
:1003A000004221F0004013D090B1C30DD40DC2F330
:1003B0001601C0F31600E41A41F4000140F40002F3
:1003C0007D34914201D3641C00E04900002C02DA24
:1003D00030BC002070474FF400000023914201D34D
:1003E000891A034340084FEA4101F7D151B19142C4
:1003F00002D14FF0004105E002D24FF0010101E0CF
:100400006FF0010103EBC450284430BC00F0DEBAA9
:100410002DE9FE4F804681EA0300C00F0C46009094
:1004200021F0004123F00045B8EB0200A94105D2BC
:100430004046214690461C460B46024623F00040AB
:10044000104347D0270DC7F30A00C3F30A510290A7
:10045000401A019040286BDAC3F3130040F4801B6C
:100460000098924620B10023D2EB030A63EB0B0BFA
:1004700001985946C0F14002504600F076FA06460F
:100480000D4650465946019A00F08EFA10EB0800CE
:100490006141002487EA115284EAE7731A4340D08D
:1004A000009A62B3019A012A4FEA075215DC001B39
:1004B00061EB02014FF0004202EA0752CDE900422F
:1004C000001C41F5801132462B4600F0EFFA03B0D4
:1004D000BDE8F08F40462146F9E7001B61EB0201C1
:1004E000001C41F5801300185B412018A2F500178D
:1004F00047EB030140EAD570B6196D4111E06D0874
:100500004FEA360645EAC0754FEA0752001B61EB19
:100510000201001C41F5801149084FEA3000001922
:10052000514132462B4603B0BDE8F04F00F0AFBA60
:100530000098012240000023D0EB020263EBE0733D
:10054000009821464FEAE074B8EB000061EB04012B
:10055000E9E783F000435BE781F0004158E72DE9CC
:10056000FE4F81EA030404F0004421F000410094AE
:100570004FF0000B23F0004350EA01045ED052EA32
:1005800003045BD0C3F30A54C1F30A552C44A4F20C
:10059000F3340194A0FB0254C1F3130141F4801120
:1005A000C3F3130343F4801301FB024400FB034E27
:1005B000840A970A44EA815447EA8357A4FB0768F0
:1005C00002958D0A05FB07854FEA932C04FB0C541A
:1005D0002705029D4FEA065847EA1637B5EB08058E
:1005E0006EEB070C870E920E47EA811742EA8312E0
:1005F000A7FB0201B6EB0B0164EB00042B0D43EAF1
:100600000C335E1844EB1C50DA465146E7FB0201FE
:10061000C5F313044FEA0B3343EA14534FEA043291
:10062000019C43EA0603A4F10C040294009CCDE96A
:1006300000B400F03BFA03B0BDE8F08F00200146A3
:10064000F9E72DE9F04D81EA030404F0004B21F0B5
:10065000004514464FF0000A23F0004150EA05021D
:1006600020D054EA01021DD0C5F30A570246C5F353
:100670001303C1F31300C1F30A5640F4801543F489
:100680008013A7EB0608101BD64608F2FD3873EB63
:10069000050002D308F1010801E092185B41B8F1AE
:1006A000000F03DA00200146BDE8F08D00204FF472
:1006B0008011064684460EE0171B73EB050705D331
:1006C000121B63EB050306434CEA010C49084FEA91
:1006D000300092185B4150EA0107EDD152EA030065
:1006E00012D082EA040083EA0501084305D0101BFA
:1006F000AB4106D20122002306E000224FF0004366
:1007000002E06FF0010253101AEB06004CEB0851A7
:1007100010EB0A0041EB0B01BDE8F04D00F0B7B95A
:10072000C10F80EAE0700844CA079623002100F058
:1007300056B996230022114600F051B90EB5C10FEB
:1007400080EAE0700844CA07002140F233438DE894
:100750000E000A460B4600F0A9F903B000BD00F0F8
:10076000004220F00040C10DC0F3160040F400002C
:100770007F2901DA00207047962903DCC1F1960138
:10078000C84001E096398840002AF4D040427047C2
:1007900020F00040C10DC0F3160040F400007F2996
:1007A00001DA00207047962903DCC1F19601C840A8
:1007B000704796398840704770B5C1F30A5201F00E
:1007C00000450024C1F3130140F2FF3341F48011CE
:1007D0009A4201DA002070BD40F233439A42A2F2FD
:1007E000334203DC524200F0CFF800E090402C434B
:1007F000F1D0404270BD00F0004230F000400AD01D
:10080000C10D01F56071C0F3160042EA0151C20842
:1008100040071143704700200146704730B5041E61
:1008200071F1000404DB4FF00044404264EB01012D
:10083000141E73F1000405DB1C464FF000435242C6
:1008400063EB04038B4208BF824230BD30B5041E07
:1008500071F1000404DB4FF00044404264EB0101FD
:10086000141E73F1000405DB1C464FF00043524296
:1008700063EB0403994208BF904230BD01F000438E
:1008800030B421F0004150EA010206D00A0DA2F571
:100890006072C1F31301002A02DC30BC00207047F3
:1008A000440F44EAC104C100E01830BC00EBC25060
:1008B00000F08CB8002801DBC0F10040002901DB0A
:1008C000C1F1004181427047002801DBC0F10040C6
:1008D000002901DBC1F100418842704730B50B4669
:1008E000014600202022012409E021FA02F59D4260
:1008F00005D303FA02F5491B04FA02F52844151E34
:10090000A2F10102F1DC30BD2DE9F05F05460020C7
:1009100092469B4688460646814640241BE0284670
:1009200041464746224600F02FF853465A46C01A21
:10093000914110D311461846224600F016F82D1AA0
:1009400067EB01084F4622460120002100F00DF818
:1009500017EB00094E41201EA4F10104DFDC4846DC
:1009600031462A464346BDE8F09F202A04DB203A60
:1009700000FA02F1002070479140C2F1200320FAF2
:1009800003F3194390407047202A04DB203A21FAF0
:1009900002F00021704721FA02F3D040C2F1200298
:1009A0009140084319467047202A06DBCB17203AAE
:1009B00041FA02F043EAE07306E041FA02F3D04064
:1009C000C2F1200291400843194670470029A8BF90
:1009D0007047401C490008BF20F00100704710B468
:1009E000B0FA80FC00FA0CF050EA010404BF10BC1D
:1009F000704749B1CCF1200421FA04F411FA0CF14A
:100A000018BF012121430843A3EB0C01CB1D4FEA82
:100A100000614FEA102042BF002010BC704700EB7D
:100A2000C35010440029A4BF10BC7047401C4900AB
:100A300008BF20F0010010BC7047420005D0C0F391
:100A4000C7525242914201DC0020704700EBC15076
:100A5000704710B541000CD0C0F3C751962908DC8F
:100A60007E2909DC06DB410204D000F0004040F0A2
:100A70007E5010BD002010BDC1F19604C4F12001CC
:100A800000FA01F1E040FFF7A1FFA04010BD10B552
:100A9000141E73F1000408DA401C41F100019218A1
:100AA0005B411A4301D120F0010010BD2DE9F04D4A
:100AB00092469B4611B1B1FA81F202E0B0FA80F29F
:100AC00020329046FFF751FF04460F4640EA0A00E5
:100AD00041EA0B0153465A46084313D0114653EAE4
:100AE000010019D0C8F140025046FFF74DFF0546FE
:100AF0000E46504659464246FFF737FF084305D099
:100B0000012004E020463946BDE8F08D0020054371
:100B100046EAE0762C4337430A986305E40AA0EBE3
:100B200008000022FD0A44EA47540A3002D500209A
:100B30000146E9E7010510196941DDE90845001999
:100B40006941BDE8F04DA2E770B521F000430343D1
:100B50000CD0C1F30A550024D5EB040564EB040363
:100B6000D617AD1AB34102DB0020014670BD201834
:100B700041EB025170BDC1F30A52C1F3130140F2BF
:100B8000FF3341F480119A4202DA00200146704797
:100B900040F233439A42A2F2334202DC5242FFF760
:100BA000F3BEFFF7E2BE0000064C074D06E0E0682A
:100BB00040F0010394E8070098471034AC42F6D3A4
:100BC000FFF7BAFA489D0308689D030870B58C18B2
:100BD00010F8015B15F0070301D110F8013B2A1151
:100BE00006D110F8012B03E010F8016B01F8016B3E
:100BF0005B1EF9D12B0705D40023521E0DD401F83A
:100C0000013BFAE710F8013BCB1A921C03E013F802
:100C1000015B01F8015B521EF9D5A142D8D3002037
:100C200070BD21B1826842F00102826003E08268F7
:100C300022F001028260704721B1826842F4807222
:100C4000826003E0826822F480728260704701460D
:100C500000208A6802F004020AB1012000E00020AE
:100C60007047014600208A6802F008020AB101209C
:100C700000E000207047000030B50246002000234D
:100C800050680F4C20400D790C6844EA052420433D
:100C9000506090680B4C2040D1E902542C434D79B0
:100CA00044EA450420439060D06A20F470000C7C34
:100CB000641EE4B2234340EA0350D06230BD00001A
:100CC000FFFEF0FFFDF7F1FFF0B504460D460020F2
:100CD0000021092D11DDE068A5F10A0606EB4607A3
:100CE000072606FA07F18843A5F10A0606EB460631
:100CF00003FA06F10843E0600CE0206905EB4507C4
:100D0000072606FA07F1884305EB450603FA06F1C4
:100D100008432061072A0FDA606B561E06EB860730
:100D20001F2606FA07F18843561E06EB860605FACB
:100D300006F10843606322E00D2A0FDA206BD61F0C
:100D400006EB86071F2606FA07F18843D61F06EB37
:100D5000860605FA06F10843206310E0E06AA2F176
:100D60000D0606EB86071F2606FA07F18843A2F157
:100D70000D0606EB860605FA06F10843E062F0BDB3
:100D8000816841F008018160704721B1826842F4B6
:100D9000A002826003E0826822F4A00282607047B1
:100DA000816841F0040181607047000008B50121AD
:100DB000042003F0B3F93020ADF8000000208DF8D6
:100DC00003006946014801F091F808BD00080140A0
:100DD00010B5FFF7EBFF00F001F810BD00B591B0C2
:100DE0000121084603F06AF90121480203F096F94F
:100DF000364800F063FC36480690364807900020DD
:100E000008900220099000200A9080200B9040005A
:100E10000C9080000D9020200E90C0010F900020BB
:100E2000109006A9294800F00EFD0121274800F086
:100E300039FC0020019001208DF808008DF8090090
:100E40004FF4602003900020049002208DF81400DD
:100E500001A91F484C38FFF70FFF4FF4404003F043
:100E600021F905230122042119484C38FFF72CFFF2
:100E700005230222194616484C38FFF725FF0121A9
:100E800013484C38FFF7D8FE012111484C38FFF7C2
:100E9000C8FE0F484C38FFF773FF00BF0C484C38B2
:100EA000FFF7DFFE0028F9D109484C38FFF778FF3B
:100EB00000BF07484C38FFF7CAFE0028F9D10121CE
:100EC00003484C38FFF761FF11B000BD0800024035
:100ED0004C2401400001002008B50121102003F03E
:100EE0001DF94FF40040ADF8000010208DF803000C
:100EF00002208DF802006946044800F0F7FF4FF425
:100F00000041024801F0CFF808BD00000010014088
:100F100000BFFEE708B50121042003F0FFF84FF4FD
:100F20008050ADF8000010208DF8030003208DF8EC
:100F300002006946054800F0D9FF4FF4805103488C
:100F400001F0B1F804F0E8FA08BD00000008014023
:100F500010B50021837A012202FA03F13D4A12689A
:100F600042F001023B4B1A603A4A1C3212688A4333
:100F7000384B1C331A60027BCAB9364A0C321268ED
:100F80008A43344B0C331A604288C38842EA0343D5
:100F9000304A4032847A42F834300288838842EA08
:100FA00003432C4A4032847A02EBC4025360027B32
:100FB000012A19D1274A0C3212680A43254B0C33F7
:100FC0001A604288038842EA0343224A4032847A04
:100FD00042F83430C288838842EA03431D4A4032D3
:100FE000847A02EBC4025360C27A3AB9194A121DDC
:100FF00012688A43174B1B1D1A6006E0154A121D22
:1010000012680A43134B1B1D1A60028932B9114A38
:10101000143212688A430F4B14331A600289012A72
:1010200006D10C4A143212680A430A4B14331A6070
:10103000427B012A06D1074A1C3212680A43054B3B
:101040001C331A60034A126822F00102014B1A6035
:1010500010BD00000066004030B5024600200023AD
:10106000146824F002041460146844F0010414604D
:1010700000E05B1C546804F001041CB94FF6FF74D7
:10108000A342F6D1546804F001040CB900206CE0CE
:101090008C79012C04D1146844F08004146003E0BE
:1010A000146824F080041460CC79012C04D11468F5
:1010B00044F04004146003E0146824F04004146019
:1010C0000C7A012C04D1146844F02004146003E06D
:1010D000146824F0200414604C7A012C04D11468A4
:1010E00044F01004146003E0146824F01004146049
:1010F0008C7A012C04D1146844F00804146003E0D5
:10110000146824F008041460CC7A012C04D114680B
:1011100044F00404146003E0146824F00404146030
:101120008C78A407CD7844EA05640D7944EA054437
:101130004D7944EA05540D886D1E2C43D461146822
:1011400024F001041460002300E05B1C546804F0E8
:1011500001041CB14FF6FF74A342F6D1546804F0A9
:1011600001040CB1002000E0012030BD2DE9F04168
:1011700088B004460D4616461F46DDF8388001212A
:10118000082002F0CBFF0121480602F0A7FF4FF430
:101190000070ADF81C0003208DF81E0018208DF89B
:1011A0001F0007A9264800F0A1FE4FF48070ADF89B
:1011B0001C0048208DF81F0007A9214800F096FE6A
:1011C00001214FF4EA1000F01DFF00208DF81600F9
:1011D0008DF817008DF8180001208DF819000020F7
:1011E0008DF81A008DF81B008DF812808DF81340D1
:1011F0008DF814608DF81550ADF8107004A91148E1
:10120000FFF72AFF00208DF80A008DF80B0001205F
:101210008DF80C000020ADF80000ADF80200ADF82C
:101220000400ADF80600ADF8080001208DF80D00AF
:101230006846FFF78DFE002008B0BDE8F081000091
:10124000000C01400064004010B502460020936885
:1012500003F08063B3F1806F00D110E0936803F076
:101260000063B3F1006F01D1012008E0936803F03F
:101270008053B3F1805F01D1022000E004200428F4
:1012800074D002F5C07303EB00131B6803F0010474
:1012900002F5C07303EB00131C600B7A7BB94B7A29
:1012A0000C8843EA445302F5C07404EB001424682C
:1012B000234302F5C07404EB0014236010E00B7AA2
:1012C0004C6843EAC4034C7A234302F5C07404EB30
:1012D00000142468234302F5C07404EB0014236057
:1012E0008B7A03F00F038B7202F5C07303EB0013CC
:1012F0005B6823F00F0402F5C07303EB00135C601E
:1013000002F5C07303EB00135B688C7A234302F58C
:10131000C07404EB001463608B7B1C064B7B44EAB7
:1013200003440B7B44EA0323CC7A234302F5C074C5
:1013300004EB0014A3608B7C1C064B7C44EA034442
:101340000B7C44EA0323CC7B234302F5C07404EBFB
:101350000014E36002F5C07303EB00131B6843F055
:10136000010402F5C07303EB00131C6010BD000004
:1013700010B50246002321B1012907D002290FD15F
:1013800009E090681D4C00EA04030BE090681C4CD7
:1013900000EA040306E090681A4C00EA040301E046
:1013A000002300BF00BF184C181BA34216D007DC57
:1013B00083B16FF08060184470B1022818D111E039
:1013C000B0F5007F10D0114C204448B1B0F5003F7B
:1013D0000ED10BE002230DE000230BE0002309E017
:1013E000002307E0012305E0012303E0012301E0DE
:1013F000002300BF00BFD8B210BD000003000004EE
:101400000003000800000310000100080001FFF7BE
:1014100070B502460C46FF25FF2309E012F8010BC8
:1014200080EA03010648405C80EA05030548455C04
:10143000201EA4F10106B4B2F0D143EA052070BD2C
:1014400038DB000838DC00082DE9FE4F05460E4663
:1014500014462868A06068686061A86820623068E7
:1014600020607068E060B068A061E168206AFEF703
:101470005FFF8246D4E90501FEF75AFF83465146D5
:10148000FEF750FF6060A169A068FEF751FF824639
:101490002168206AFEF74CFF83465146FEF742FF63
:1014A000206121686069FEF743FF8246D4E90201AA
:1014B000FEF73EFF83465146FEF734FFE061616967
:1014C000E069FEF735FF8246216A2069FEF730FFAA
:1014D00083465146FEF726FF2060216A6068FEF7CA
:1014E00027FF8246A168E069FEF722FF8346514646
:1014F000FEF718FFE060A1682069FEF719FF824639
:1015000061696068FEF714FF83465146FEF70AFFE3
:10151000A061A9680846FEF70BFF029069680846BB
:10152000FEF706FF019029680846FEF701FF0090CC
:101530000199FEF7A5FE83460299FEF7A1FE8246B9
:1015400000F038FB0746A1690846FEF7F1FE02905D
:10155000E1680846FEF7ECFE019021680846FEF7B8
:10156000E7FE00900199FEF78BFE83460299FEF795
:1015700087FE824600F01EFB8046E1690846FEF7C2
:10158000D7FE029021690846FEF7D2FE01906168FD
:101590000846FEF7CDFE00900199FEF771FE8346E6
:1015A0000299FEF76DFE824600F004FB814641463B
:1015B0002068FEF7BDFE20604146E068FEF7B8FEF9
:1015C000E0604146A069FEF7B3FEA061494660684D
:1015D000FEF7AEFE606049462069FEF7A9FE206175
:1015E0004946E069FEF7A4FEE0613946A068FEF7CF
:1015F0009FFEA06039466069FEF79AFE6061394639
:10160000206AFEF795FE2062BDE8FE8FF0B585B03A
:1016100007460D46002412200090019000208DF80E
:1016200008008DF809008DF80A5000BF05E0395D0B
:101630000DF10B000155601C84B2AC42F7DB69462A
:101640000C48FFF701FE0646002401E0601C84B24E
:1016500031460848FFF78CFE18B940F6FF70844207
:10166000F4DB40F6FF70844202DB012005B0F0BDE0
:101670000020FBE70064004010B5024808F040F984
:1016800010BD00003401002000F0805111B1034969
:10169000086001E00249486070470000040402400D
:1016A0000000024021B1026842F00102026004E041
:1016B00002684FF6FE731A400260704701684FF6E9
:1016C000FE72114001600021016041608160C160D3
:1016D0004B49884208D14A490839496841F00F010D
:1016E000474A083A51608AE045491431884208D196
:1016F00043490839496841F0F001414A083A5160CC
:101700007DE03F492831884208D13D490839496880
:1017100041F470613A4A083A516070E038493C310E
:10172000884208D136490839496841F47041344A41
:10173000083A516063E032495031884208D130495B
:101740000839496841F470212D4A083A516056E041
:101750002B496431884208D129490839496841F444
:101760007001274A083A516049E02549783188429A
:1017700008D123490839496841F07061204A083A84
:1017800051603CE01F49884206D1011F096841F0C1
:101790000F01021F116032E01A491431884208D14A
:1017A0001849091F096841F0F001164A121F11601B
:1017B00025E014492831884208D11249091F0968D7
:1017C00041F470610F4A121F116018E00D493C315D
:1017D000884208D10B49091F096841F47041094A40
:1017E000121F11600BE007495031884207D10549AB
:1017F000091F096841F47021024A121F11607047E5
:10180000080002400804024001460020002201F0C6
:10181000805313B1054B1A6801E0054B1A6802EAC0
:1018200001030BB1012000E00020704700040240DA
:10183000000002401AB103680B43036002E0036832
:101840008B430360704710B50022026847F6F073BF
:101850009A430C6A8B6823430C6923434C692343E6
:101860008C692343CC6923434C6A23438C6A23430A
:101870001A430260CB6843600B6883604B68C360A7
:1018800010BD704770B50446042003F079FB0C4886
:10189000046025464FF47A704543012009490880C9
:1018A0004FF0E020006940F002004FF0E0210861B5
:1018B00008464561006940F00100086170BD000004
:1018C000140100201801002070B504460649204686
:1018D000FEF72EFD06460549FEF7D2FC0546FEF74B
:1018E00057FF80B270BD00000000FA440000FA43C8
:1018F00030B589B004460D466A4629462046FFF7B2
:10190000A3FD0349684602F0C7FA09B030BD0000E4
:101910005847002010B54FF4005000F035F801286A
:1019200009D10548006810B10348006880474FF4AA
:10193000005000F023F810BDD001002008B50420AD
:1019400000F022F8012814D1042000F017F800203C
:1019500000906946074800680BF010FD009838B108
:101960004FF0805004490860BFF34F8FBFF36F8F73
:1019700000BF08BD4800002004ED00E001490860F8
:101980007047000014040140014600200022074B6C
:101990001B6803EA0102054B14331B680B4013B1AB
:1019A0000AB1012000E0002070470000000401405F
:1019B000002123498279002A3AD00A461268036836
:1019C0009A430B461A600A1D126803689A430B1D5E
:1019D0001A60027911440A6803681A430A60184AB7
:1019E0000832126803689A43154B08331A601A1DAF
:1019F000126803689A43124B0C331A604279102A1A
:101A00000ED11A1F126803681A430D4B08331A606F
:101A10001A1D126803681A43094B0C331A600DE053
:101A20000749427911440A6803681A430A6005E0CD
:101A3000027911440A6803689A430A6070470000FB
:101A4000000401400149C8607047000000200240C6
:101A500030B5044604254FF4302000F085F80546E3
:101A6000042D17D10C48006940F002000A490861B2
:101A700008464461006940F0400008614FF430209E
:101A800000F072F805460448006941F6FD7108400F
:101A900001490861284630BD0020024004200B495E
:101AA000C96801F0010109B101200EE00749C968C8
:101AB00001F0040109B1022007E00449C96801F0FE
:101AC000100109B1032000E004207047002002400B
:101AD0000348006940F08000014908617047000038
:101AE0000020024078B506460C46042500200090F0
:101AF000E80200F039F80546042D24D113480069A6
:101B000040F00100114908613480E80200F02CF82F
:101B10000546042D10D1B01C0090200C00990880BF
:101B2000E80200F021F805460848006941F6FE7118
:101B300008400649086106E00448006941F6FE7164
:101B4000084002490861284678BD00000020024094
:101B500002480349486003484860704723016745CD
:101B600000200240AB89EFCD00B502460423FFF709
:101B700095FF034603E0FFF791FF0346521E012B3A
:101B800001D1002AF7D102B90523184600BD08B5D6
:101B900001460091009820F000400090009808BD98
:101BA00070B50446204600F005F805462146FEF7CC
:101BB000BFFB70BD2DE9F843044600940D49009821
:101BC000A1EB500000900C492046FEF7B1FB804687
:101BD0000099FEF7ADFB07460099FEF7A9FB064604
:101BE0000649FEF7A2FB05460099FEF7A1FBBDE8FA
:101BF000F883000012141F5F12D3363FFF51D83F05
:101C00007CB5012244A1454806F008FE444908700D
:101C1000084600780D2841D14248C06842498842B0
:101C200012D1012080F3138800BF00BF3F48006835
:101C300000F4E0603E490843001D3C490860BFF3E2
:101C40004F8F00BF00BFFEE73AA004F079FB0022EF
:101C5000114631A006F0A0FA314908700846007814
:101C600088B940A004F06CFB01222BA1002006F0F3
:101C7000D5FD2B490870012227A1284806F0CEFD8A
:101C80002749087021E03E48C06880F010003C49B8
:101C9000C8603CA004F054FB00BFFEE72048007879
:101CA00048B11F4801783EA004F04AFB46A004F06A
:101CB00047FB00BFFEE71B48C0681B49884201D0B4
:101CC00002F000FE4AA004F03BFB52A004F038FBF7
:101CD00001AA694610A006F010F911490870019890
:101CE0004069801E0199897800FB01F50198807890
:101CF000009900FB01F4A200A90052A004F020FB0F
:101D00005DA004F01DFB04A16748FEF7B0FA664829
:101D100009F04CFE7CBD0000313A0000E81B0020B9
:101D200054000020A0460020DDCCBBAA0CED00E052
:101D30000000FA053E3E53504920464C415348D6D8
:101D4000D0CEB4B7A2CFD6CEC4BCFECFB5CDB32CC7
:101D5000BCB4BDABBDF8D0D0B8F1CABDBBAF2E2E60
:101D60002E0D0A003E3E53504920464C415348B880
:101D7000F1CABDBBAFCDEAB3C92E2E2E0D0A0000AD
:101D800000100140212153504920464C415348B88E
:101D9000F1CABDBBAFCAA7B0DC2E2E2E0D0A0000C3
:101DA000212153504920464C415348CEC4BCFECF5C
:101DB000B5CDB3B9D2D4D8CAA7B0DC2E2E2E2825E3
:101DC00064290D0A000000002121BFC9C4DCD4AD84
:101DD000D2F22C53504920464C415348B3F5CABC6B
:101DE000BBAFCEB4B3C9B9A62E2E2E0D0A0000008B
:101DF0003E3E53504920464C415348CEC4BCFECFD2
:101E0000B5CDB3B9D2D4D8B3C9B9A62E2E2E0D0AEA
:101E1000000000000A2A2A2A2A2A2A2A2A2A2A2AEA
:101E20002A2A2A2A20C9E8B1B8D0C5CFA2BBF1C856
:101E3000A1202A2A2A2A2A2A2A2A2A2A2A2A2A2A95
:101E40002A0D0A000A3E3EC9E8B1B8D7DCBFD5BCAE
:101E5000E4A3BA2531306C75204B422E0A3E3EBFBA
:101E6000C9D3C3BFD5BCE4A3BA20202531306C75DB
:101E7000204B422E0A0000002A2A2A2A2A2A2A2A2D
:101E80002A2A2A2A2A2A2A2ACEC4BCFEC9A8C3E89A
:101E9000B2E2CAD42A2A2A2A2A2A2A2A2A2A2A2A18
:101EA0002A2A2A0D0A0000003C44002030B50022F6
:101EB0008B071C0F0F2303FA04F20B4B8C1053F803
:101EC00024309343084C8D1044F8253023468C1061
:101ED00053F824308C07240F00FA04F42343024CF7
:101EE0008D1044F8253030BD080001402DE9F04147
:101EF000024600250026002000230024002791F838
:101F000003C00CF00F0591F803C00CF0100CBCF1ED
:101F1000000F03D091F802C04CEA050591F800C00B
:101F2000BCF1000F31D0146800202BE04FF0010C01
:101F30000CFA00F3B1F800C00CEA03069E4220D16F
:101F400083004FF00F0C0CFA03F7BC4305FA03FCB7
:101F50004CEA040491F803C0BCF1280F06D14FF0FD
:101F6000010C0CFA00FCC2F814C00AE091F803C09E
:101F7000BCF1480F05D14FF0010C0CFA00FCC2F87F
:101F800010C0401C0828D1D31460B1F800C0BCF1C7
:101F9000FF0F34DD546800202EE000F1080C4FF0F4
:101FA000010808FA0CF3B1F800C00CEA03069E42DF
:101FB00021D183004FF00F0C0CFA03F7BC4305FA54
:101FC00003FC4CEA040491F803C0BCF1280F05D1CE
:101FD00000F1080C08FA0CF8C2F8148091F803C05C
:101FE000BCF1480F07D100F1080C4FF0010808FAC6
:101FF0000CF8C2F81080401C0828CED35460BDE80D
:10200000F0810000F0B50A460023002400210025DD
:1020100000F00046B6F1004F02D11D4EF16901E01B
:102020001B4E7168C0F3034583B200F44016B6F549
:10203000401F08D121F07061154E766826F0706659
:10204000134F7E6012E000F48016B6F5801F06D1B3
:10205000032606FA05F4A14341F0706106E0460D3F
:10206000360103FA06F6B14341F0706122B1460D24
:10207000360103FA06F6314300F00046B6F1004F90
:1020800002D1034EF16101E0014E7160F0BD00002C
:10209000000001400246002093680B400BB1012074
:1020A00000E00020704741617047016170474FF6C2
:1020B000FF710180022181700421C170704700000E
:1020C0002DE9F84F04466078217840EA012005B2F6
:1020D000E078A17840EA012006B26079217940EAEF
:1020E000012007B2607A217A40EA01200FFA80F8D5
:1020F000E07AA17A40EA01200FFA80F9607B217B27
:1021000040EA01200FFA80FA2B480580468087803C
:10211000A0F80680A0F80890A0F80AA04046FEF7B4
:10212000FFFA0090254801680098FEF7FBF8834607
:102130002349FEF7FDF82349C8604846FEF7F0FA48
:1021400000901E4841680098FEF7ECF883461C4951
:10215000FEF7EEF81B4908615046FEF7E1FA0090E1
:10216000164881680098FEF7DDF883461449FEF7AB
:10217000DFF8144948612846FEF7D2FA83464FF04B
:102180006251FEF7D5F80F4908603046FEF7C8FAED
:1021900083464FF06251FEF7CBF80A494860384653
:1021A000FEF7BEFA83464FF06251FEF7C1F80549CB
:1021B0008860BDE8F88F0000D61B0020941A00202C
:1021C00000007A3DA01A00202DE9F0410446207855
:1021D00000F0010010B36078A17840EA012005B258
:1021E000E078217940EA012006B26079A17940EADD
:1021F000012007B20A488581C68107822846FEF77A
:102200008FFA084988613046FEF78AFA0549C861A5
:102210003846FEF785FA0349086200BFBDE8F08141
:10222000D61B0020A01A002010B5024807F0B6FB0C
:1022300010BD00003401002010B5024807F0F8FB83
:1022400010BD00003401002021B1028842F48062F8
:10225000028004E002884FF6FF331A400280704784
:10226000002221F07F42D3438382704721B18288CC
:1022700042F40062828004E082884FF2FF731A40C9
:102280008280704721B1828842F48052828004E0CB
:1022900082884EF6FF731A408280704710B504465C
:1022A0000B48844209D10121480501F027FF002194
:1022B0004FF4001001F022FF08E00121880501F031
:1022C0001DFF00214FF4800001F018FF10BD000039
:1022D000005400400CB502460020002301930093F7
:1022E00000920B0F019321F07F41019B1BB1009BDA
:1022F0001433009303E0090C009B18330093009BF8
:102300001B680B400BB1012000E000200CBD1AB18E
:1023100083880B43838002E083888B4383807047EC
:102320002DE9F04385B004460D460026B14604274A
:10233000DFF8CC80A6884FF6C0700640684601F0F2
:10234000FDFEDDF808802F48B8FBF0F01FFA80F999
:1023500046EA0906A68020884FF6FE7108402080D4
:1023600000262949286888420CD828684000B8FB14
:10237000F0F087B2042F00DA04273E4309F1010090
:10238000208427E0E8884BF6FF71884206D1286850
:1023900000EB4000B8FBF0F087B209E0286800EBE2
:1023A000C00101EB0010B8FBF0F087B247F48047A2
:1023B000C7F30B0008B947F0010747F40040064394
:1023C0004FF4967009FB00F04FF47A7190FBF1F036
:1023D000401C2084A683208840F0010020802688AD
:1023E0004FF6F5300640A8886989084306432680E1
:1023F000A88929890843208105B0BDE8F083000041
:1024000000127A0040420F00A08601000146088AAF
:10241000C0B2704712B141F0010102E04FF6FE7305
:102420001940018270470182704700004AF6AA20D5
:1024300001490860704700000030004008B50121E4
:10244000102001F06BFE1020ADF800008DF80300A5
:1024500003208DF8020069460348FFF747FD10216D
:102460000148FFF722FE08BD00100140FEB500261E
:1024700000250024002700200090019002902F4E9C
:1024800000BF14E03568E8B20DF80400C5F3072179
:10249000601C0DF80010C5F30741A01C0DF80010DA
:1024A000290EE01C0DF80010361D201DC4B20C2CA6
:1024B000E8DB0A216846FEF7ABFF07469DF80A00F5
:1024C000F9B2884204D19DF80B00B0EB272F0CD055
:1024D0001B4803F035FF1B48DFF86CC09CE80E106A
:1024E000A0E80E1002F0EEF926E09DF80010154865
:1024F00001719DF8011041719DF8021081719DF8E4
:102500000310C1719DF8041001729DF805000D497A
:10251000887000210B48C1709DF806000949C86009
:102520009DF807000002C8609DF808000004C8601C
:102530009DF809000006C860FEBD000000F8030811
:102540007C990308A0460020A400002008B50121C2
:10255000102001F0E3FD4FF48040ADF800001020A2
:102560008DF8030002208DF8020069460448FFF749
:10257000BDFC4FF480410248FFF795FD08BD000007
:102580000010014004E003480068401C0149086055
:10259000F9E7000010000020ADF5A25D002502E083
:1025A00032200AF09DF8634800780528F8D000F042
:1025B00077FDBDE05F480078052873D2DFE800F0C2
:1025C000033F73ACB00001225BA10DF21C4006F08A
:1025D00053F904464FF420310DF21C4005F00EFD76
:1025E000D4B958A003F0ACFE40F211150FE00DF580
:1025F00083634FF4806206A9181D06F037FA06A817
:102600000823802200210090084600F011FD281EBA
:10261000A5F10105EBD108E05048C06880F010003A
:102620004E49C8604EA003F08BFE0DF21C4005F031
:1026300054FC00F0D9FC04203E49087077E00122E8
:102640003DA10DF21C4006F017F90446CCB93DA09F
:1026500003F076FEA0250FE00DF583634FF4806252
:1026600006A9181D06F002FA06A8082380220021F8
:102670000090084600F0DCFC281EA5F10105EBD116
:1026800008E03648C06880F010003449C86034A0C3
:1026900003F056FE0DF21C4005F01FFC03202549F7
:1026A000087044E042E0012223A10DF21C4006F034
:1026B000E3F804464FF4D9210DF21C4005F09EFCCE
:1026C000CCB920A003F03CFE01250FE00DF583639B
:1026D0004FF4806206A9181D06F0C8F906A8082361
:1026E000802200210090084600F0A2FC281EA5F1DF
:1026F0000105EBD108E01948C06880F010001749C7
:10270000C86017A003F01CFE0DF21C4005F0E5FBAD
:102710000320084908700AE0642009F0E1FF06E0A0
:1027200000F02EFD322009F0DBFF00E000BF00BF0B
:1027300040E7000010010020313A2F7265732E62CD
:10274000696E00003E3EB6AFBBADD7CAD4B4BCD3B1
:10275000D4D8B3C9B9A62E2E2E0D0A000010014000
:102760002121CEB4B7A2CFD6B6AFBBADD7CAD4B4B1
:102770002E2E2E2E0D0A000000B54FF47A71012086
:1027800000F074FA4FF47A71022000F06FFA00BD85
:1027900000B587B00121082001F0A0FC012105202F
:1027A00001F0BCFC0320ADF8000004208DF803000C
:1027B00069461C48FFF79AFB04A803F0EDF90020D6
:1027C000ADF810004FF6FF70ADF814000020ADF822
:1027D0001600ADF8120004A9134803F08BF900238A
:1027E0001A460321104802F060FF01A802F0E6FF3C
:1027F0000A20ADF80C0001A90B4802F089FF012165
:10280000094802F031FF01221146074802F0DFFFBC
:102810000021054803F03FF90121034802F02AFF97
:1028200007B000BD00080140000C00402DE9F04F4A
:1028300089B04FF0000AD146CB4600240120089011
:102840003848808884134CB9002036490880B1F993
:10285000000002F01FFB09B0BDE8F08F032C05D18A
:10286000002030490880FFF787FFF4E7012C02D1F0
:102870000120089003E0022C01D1E01E08902949B4
:102880008988C1F30D00FDF759FF274A274BCDE991
:102890000001FDF7D6FE07460022254BFDF75FFE3F
:1028A000CDE904010898FDF749FFCDE90201DDE912
:1028B0000423FDF754FE054600221E4BFDF7C1FE22
:1028C000CDE90601FDF778FF0FFA80FB15488089F6
:1028D000ABEB00000FFA80FA124800880AEB8A017D
:1028E00000EB810014490988C1EB0111401A0FFA6D
:1028F00080F9B9F57A7F02DD4FF47A7904E019F5B1
:102900007A7F01DADFF834900648A0F800900A4890
:10291000A0F800A00349B1F9000002F0BBFA00BF23
:1029200099E700005C4B0020A11B9241838669401F
:1029300000A07440000049403001002018FCFFFF57
:1029400000B54FF47A71032000F090F94FF47A71DA
:10295000042000F08BF900BD00B587B001210420F0
:1029600001F0BCFB0121092001F0D8FBC020ADF82B
:10297000000004208DF8030069461C48FFF7B6FAF2
:1029800004A803F009F90020ADF810004FF6FF701D
:10299000ADF814000020ADF81600ADF8120004A93F
:1029A000134803F0A7F800231A460321104802F049
:1029B0007CFE01A802F002FF0A20ADF80C0001A97C
:1029C0000B4802F0A5FE0121094802F04DFE01224C
:1029D0001146074802F0FBFE0021054803F05BF8B2
:1029E0000121034802F046FE07B000BD000C014083
:1029F000000800402DE9F04F89B04FF0000AD146A1
:102A0000CB460024012008903848C08884134CB974
:102A1000002036494880B1F9020002F05FFA09B09F
:102A2000BDE8F08F032C05D1002030494880FFF726
:102A300087FFF4E7012C02D10120089003E0022C6B
:102A400001D1E01E08902949C988C1F30D00FDF7A6
:102A500075FE274A274BCDE90001FDF7F2FD074639
:102A60000022254BFDF77BFDCDE904010898FDF719
:102A700065FECDE90201DDE90423FDF770FD0546A1
:102A800000221E4BFDF7DDFDCDE90601FDF794FEAA
:102A90000FFA80FB1548C089ABEB00000FFA80FAF3
:102AA000124840880AEB8A0100EB8100144909882A
:102AB000C1EB0111401A0FFA80F9B9F57A7F02DDF6
:102AC0004FF47A7904E019F57A7F01DADFF834906F
:102AD0000648A0F802900A48A0F800A00349B1F9FE
:102AE000020002F0FBF900BF99E700005C4B0020F8
:102AF000A11B92418386694000A0744000004940B8
:102B00003201002018FCFFFF02E0642009F0E8FD1C
:102B10004A4800780428F8D08FE048480078052813
:102B200006D046480078012802D04448007848B9C9
:102B3000002002F0AFF9002002F0D0F9322009F0B5
:102B4000CFFD76E001F0FCFB00F0B8F808F080FE65
:102B500090B33B49B1F9000002F09CF93849B1F952
:102B6000020002F0BBF937480188012002F0DAF9CF
:102B700034484188022002F0D5F932488188032088
:102B800002F0D0F92F48C188042002F0CBF92D487B
:102B90000189052002F0C6F92A484189062002F081
:102BA000C1F928488189072002F0BCF92548C1896C
:102BB000082002F0B7F939E0FFE703F06DFB60B3DE
:102BC000FFF734FEFFF716FF1E480188012002F0D0
:102BD000A9F91C484188022002F0A4F9194881880B
:102BE000032002F09FF91748C188042002F09AF9E7
:102BF00014480189052002F095F912484189062000
:102C000002F090F90F488189072002F08BF90D48F6
:102C1000C189082002F086F908E0002008490880F0
:102C2000488002F037F9002002F058F9142009F02A
:102C300057FD08210448FEF7E9FC6EE7100100206B
:102C40005C4B00201C0100200400002010B502F0A5
:102C50000BFB02F05DFB002002F01CF9002002F0EB
:102C60003DF9FFF795FDFFF777FE10BD042801DC65
:102C7000012800DA7047B1F57A7F00DDFAE7012814
:102C800006D0022807D0032809D004280ED10AE074
:102C9000084A11800AE0074A0C32118006E04FF022
:102CA0008042918702E0044A118000BF00BF00BF4C
:102CB000E0E70000342C0140400000402DE9F047DF
:102CC00000BF3249B1F90C10322201FB02F0FDF7CE
:102CD00027FD82462E49FDF75DFB8146FDF78BFD02
:102CE00007462C4A2C4BFDF73AFC0546FDF764FDE0
:102CF00004B2002C06DDC4F30D0040F480402349EB
:102D000008810FE0002C06DAC4F30D0040F4004007
:102D10001E49088106E02CB91C48808800F4404018
:102D20001A4908811949B1F90E10322201FB02F04B
:102D3000FDF7F6FC82461649FDF72CFB8146FDF7B0
:102D40005AFD0746134A144BFDF709FC0546FDF7EB
:102D500033FD04B2002C06DDC4F30D0040F48040C6
:102D60000A4948810FE0002C06DAC4F30D0040F454
:102D700000400649488106E02CB90448C08800F4A8
:102D8000404002494881BDE8F08700005C4B0020CC
:102D90000000A543A11B9241838669407047000053
:102DA00010B5044600F048F8224807F079FC2149A4
:102DB000091F887807F0ABFC1E49091FC87807F087
:102DC000AFFC032007F0CEFC07F08BFC032007F0DC
:102DD00078FC012C18D10F21002009F03DFF0121C2
:102DE0001C2009F039FF06211D2009F035FF0121C3
:102DF000084609F031FFFF21E12009F02DFFFF21F6
:102E0000E22009F029FF13E00E21002009F024FF41
:102E100001211C2009F020FF06211D2009F01CFFC4
:102E2000FF21E12009F018FFFF21E22009F014FF43
:102E300010BD0000A446002000B589B001210D207E
:102E400001F06CF901214248FFF7DCF80121102064
:102E500001F064F90121C80301F040F93820ADF810
:102E6000000003208DF8020018208DF80300694649
:102E70003848FFF73BF82020ADF8000010208DF80F
:102E8000030069463448FFF731F84FF40040ADF8CD
:102E9000000069463148FFF729F84FF40050ADF8BB
:102EA000000048208DF8030069462B48FFF71EF804
:102EB0000D210220FEF7FAFF4FF400500190002090
:102EC0008DF808000C208DF8090001208DF80A000B
:102ED00001A8FEF76DFD28208DF8200006208DF852
:102EE000210000208DF8220001208DF8230008A881
:102EF00000F038F80020ADF80C004FF48270ADF807
:102F00000E000020ADF81000ADF81200ADF814006E
:102F10004FF40070ADF816001020ADF81800002036
:102F2000ADF81A000720ADF81C0003A90C4801F009
:102F300071FC01210A4801F01BFA4FF400410748D7
:102F4000FFF7B3F820210448FFF7ADF809B000BD42
:102F500000023000000C0140001001400008014058
:102F6000003C004070B5002100230F22C47804B358
:102F7000154C246804F4E064C4F5E064210AC1F14E
:102F80000403CA40447804FA03F1847814402143CE
:102F900009010E4C0678A155047804F01F050124A0
:102FA000AC4005786D11AD0005F1E025C5F8004194
:102FB00009E0047804F01F050124AC40044D0678B4
:102FC000761145F8264070BD0CED00E000E400E00D
:102FD00080E100E002490143024A116070470000AD
:102FE0000000FA050CED00E010B5A2B0802102A8A7
:102FF000FDF72BF9002414E004F1B001C8B200F091
:10300000C7F9002000F0C4F9102000F0C1F902A8AF
:10301000802340223C210090044806F0ACFB601C59
:10302000C4B2082CE8DB22B010BD0000340100203F
:103030002DE9F84F80460E4692461C46DDF8289052
:10304000002700BFE11704EB5171C910A4EBC101C7
:1030500031B92046E11704EB5171C1F3C70506E011
:103060002046E11704EB5171C910491CCDB2354619
:103070000FE02946404600F071F809EB0700802375
:1030800040223C210090054806F075FB8037681C03
:10309000C5B2A542EDDBBDE8F88F00003401002089
:1030A00010B54FF4FA7004F097FB4FF4FA7004F087
:1030B00093FBAE2000F06CF9202000F069F910209D
:1030C00000F066F9B02000F063F9C82000F060F964
:1030D000002000F05DF9102000F05AF9402000F0C7
:1030E00057F9812000F054F9FF2000F051F9A12098
:1030F00000F04EF9A62000F04BF9A82000F048F9A6
:103100003F2000F045F9A42000F042F9D32000F060
:103110003FF9002000F03CF9D52000F039F9F0200B
:1031200000F036F9D92000F033F9222000F030F910
:10313000DA2000F02DF9122000F02AF9DB2000F04F
:1031400027F9202000F024F98D2000F021F9142027
:1031500000F01EF9AF2000F01BF910BD70B5044659
:103160000D4605F1B001C8B200F012F9102141EA94
:10317000141000F00DF904F00F0000F009F970BD13
:1031800030B59FB02C494868FDF735FB0446224610
:103190000B462AA115A803F0E3F8012315AA002184
:1031A000084600F085F824490868FDF724FB04462A
:1031B00022460B4626A11AA803F0D2F801231AAA28
:1031C0001946002000F074F82648028826A110A8AD
:1031D00003F0C6F8012310AA0221002000F068F8CD
:1031E0002548028825A10BA803F0BAF801230BAAF1
:1031F0000321002000F05CF82448B0F9002024A14D
:1032000006A803F0ADF8012306AA0421002000F06F
:103210004FF81E48B0F9022021A101A803F0A0F840
:10322000012301AA0521002000F042F8322009F014
:1032300057FA1FB030BD0000040100204D61696ED7
:103240002020566F6C746167653A25352E32660012
:10325000536572766F20566F6C746167653A2535D9
:103260002E326600E800002064697374616E636545
:10327000313A2535646D6D00F8000020646973747F
:10328000616E6365323A2535646D6D005C4B0020DC
:103290006D6F746F72315F70776D3A253564000021
:1032A0006D6F746F72325F70776D3A253564000010
:1032B0002DE9F84F05468846164699460027BA4636
:1032C0000024B9F1010F03D0B9F1020F57D122E068
:1032D0001DE0305D2038C7B27E2D04DD002508F1E9
:1032E000010000F0FF0841462846FFF737FF07EBD3
:1032F0004700244901EB4000062340223C21009076
:10330000214806F038FAA81DC5B2601CC4B2305D71
:103310000028DED133E02EE0305D2038C7B2782DB2
:1033200004DD002508F1010000F0FF0841462846B1
:10333000FFF714FF154800EB0710082340223C213B
:103340000090114806F017FA08F10100C1B22846B2
:10335000FFF704FF082000EB07100C49084408237E
:1033600040223C210090084806F005FA05F10800CB
:10337000C5B2601CC4B2305D0028CDD100BF00BF13
:10338000BDE8F88F38DD00083401002060DF000858
:1033900010B50446234600223C21024806F067FA95
:1033A00010BD00003401002010B504464FF07E51DE
:1033B0002068FDF789FA03D24FF07E50206006E0C6
:1033C00000212068FDF776FA01D20020206010BDB0
:1033D0002DE9F84F05460026B1460024287AC0F1B1
:1033E0007F00C600B146E8797F3800EB80000644D4
:1033F000E8797F3800EB8000A9EB0009F9480680E6
:10340000A0F802906979A1F17F00FDF789F980F0B9
:103410000047F5493846FCF7BDFFF44908600868E5
:10342000F349FCF7B7FF0090FDF7E5F907460022E6
:10343000F04BFCF7EDFF8246FDF720FAEB49086000
:103440000846FFF7B1FFE9490868FEF73DFAEA4987
:103450000880A97A687A41EA002404F48040D0B157
:1034600004F00800B8B9E1494868FDF7C4F982469C
:10347000E24AE34BFDF76DF80746FDF7FFF9DB493C
:103480004860081DFFF790FFD8494868FEF71CFA0E
:10349000D94948801CE004F48040C8B904F0080011
:1034A000B0B1D2494868FDF7A6F98246D34AD44B59
:1034B000FCF7AEFF0746FDF7E1F9CC494860081D6F
:1034C000FFF772FFC9494868FEF7FEF9CA4948800C
:1034D00004F4004040B304F0040028BBC3498868EA
:1034E000FDF789F98246C54AC54BFDF732F8074614
:1034F000FDF7C4F9BD49886001F10800FFF754FFEA
:10350000BA498868FDF777F90746BE4ABE4BFDF712
:1035100085F902D2BD48B5498860B4498868FEF78C
:10352000D3F9B54988802AE004F4004038BB04F0A0
:10353000040020B3AD498868FDF75DF90746AF4A3E
:10354000AF4BFCF765FF8246FDF798F9A749886005
:1035500001F10800FFF728FFA4498868FDF74BF93F
:103560000746AB4AAB4BFDF771F902D2AA489F4917
:1035700088609E498868FEF7A7F99F49888004F40F
:103580008050D8B104F48060C0B99849C868FDF78C
:1035900032F90746994A9A4BFCF7DBFF8246FDF762
:1035A0006DF99249C86001F10C00FFF7FDFE8F49EB
:1035B000C868FEF789F99049C8801DE004F480507E
:1035C000D0B904F48060B8B18849C868FDF713F930
:1035D00007468A4A8A4BFCF71BFF8246FDF74EF9E5
:1035E0008249C86001F10C00FFF7DEFE7F49C86820
:1035F000FEF76AF98049C88004F40050D8B104F499
:103600000060C0B979490869FDF7F5F807467B4ABB
:103610007B4BFCF79EFF8246FDF730F9734908614A
:1036200001F11000FFF7C0FE70490869FEF74CF980
:10363000714908811DE004F40050D0B904F4006021
:10364000B8B16A490869FDF7D6F807466B4A6C4B72
:10365000FCF7DEFE8246FDF711F96449086101F1CD
:103660001000FFF7A1FE61490869FEF72DF96249D4
:10367000088104F08000D8B104F02000C0B95B4993
:103680004869FDF7B8F882465C4A5D4BFCF761FF7C
:103690000746FDF7F3F85549486101F11400FFF7BB
:1036A00083FE52494869FEF70FF9534948811DE0EE
:1036B00004F08000D0B904F02000B8B14B4948694B
:1036C000FDF799F882464D4A4D4BFCF7A1FE07469F
:1036D000FDF7D4F84549486101F11400FFF764FE95
:1036E00042494869FEF7F0F84349488104F0100068
:1036F000D8B104F04000C0B93C498869FDF77BF8B7
:1037000082463E4A3E4BFCF724FF0746FDF7B6F8DB
:103710003649886101F11800FFF746FE3349886990
:10372000FEF7D2F8344988811DE004F01000D0B9CA
:1037300004F04000B8B12D498869FDF75CF80746F0
:103740002E4A2F4BFCF764FE8246FDF797F8274977
:10375000886101F11800FFF727FE24498869FEF708
:10376000B3F82549888104F40070D8B104F480705E
:10377000C0B91E49C869FDF73EF807461F4A204BED
:10378000FCF7E7FE8246FDF779F81849C86101F1B8
:103790001C00FFF709FE1549C869FEF795F81649A0
:1037A000C8811DE004F40070D0B904F48070B8B191
:1037B0000E49C869FDF71FF80746104A104BFCF781
:1037C00027FE8246FDF75AF80849C86101F11C003E
:1037D000FFF7EAFD0549C869FEF776F80649C88192
:1037E000BDE8F88F5C4B00200000FE42B4000020D2
:1037F0000000E0400000E03F1C0100207B14AE47C9
:10380000E17A743F9A9999999999B93FCDCCCC3D79
:10381000CDCCCCCCCCCCEC3F6666663FFDF77AFBDA
:103820001AE00E48007818B9142008F059FF13E088
:1038300001210B4801F01EFF642008F051FF002118
:10384000074801F017FF642008F04AFF00200349F1
:103850000870322008F044FFE3E700001A0100205E
:103860000010004008B50121102000F057FC012095
:10387000ADF8000010208DF8030003208DF8020041
:1038800069460248FEF732FB08BD00000010014007
:1038900008B50121102000F041FC0220ADF8000025
:1038A00048208DF8030003208DF802006946024885
:1038B000FEF71CFB08BD00000010014086B0FDF7BC
:1038C0000BFBFEF743FEFFF7CDFFFFF7E1FF00BF65
:1038D0004FF47A7008F004FF02217548FEF7DAFB16
:1038E00020B901217248FEF7E0FB00E0F0E74FF459
:1038F00000416F48FEF7D9FB4FF480416C48FEF75A
:10390000D4FB02E0642008F0EBFE02216848FEF7D9
:10391000C1FB0028F6D002E0642008F0E1FE654813
:1039200000780028F8D0C2E002216148FEF7B2FB1F
:10393000E0B940F2DC5008F0D3FE02215C48FEF70B
:10394000A9FB0028EFD101205A49087041F270709C
:1039500008F0C6FE00BF02215548FEF79BFB002879
:10396000F9D001215248FEF79EFBA0E052480078B2
:1039700050B94FF400414E48FEF795FB4FF480419B
:103980004B48FEF790FB29E04B480078012809D10D
:10399000C1034748FEF789FB4FF480414448FEF7D6
:1039A00082FB1BE044480078022809D1810340488B
:1039B000FEF779FB4FF480413D48FEF776FB0DE0C2
:1039C0003D480078032809D14FF400413848FEF7FC
:1039D0006CFB4FF480413648FEF767FB3749088897
:1039E000FCF7A7FE4FF08B410090FCF7D3FC019051
:1039F000FCF701FF4FF06632314BCDE90201FCF7D5
:103A0000AEFD824600222F4BFCF7A9FD80462E4AD0
:103A10002E4BFCF7A4FD06460F462D490868FCF71F
:103A2000EAFE8046284A2B4BFCF799FD32463B467E
:103A3000CDE90401FCF7ECFC0446FCF71FFF244928
:103A400008601E494888FCF774FE83464FF08B419E
:103A5000FCF7A0FC8246FCF7CEFE4FF06632184B16
:103A6000CDE90001FCF77BFD80461B4A1B4BFCF7B0
:103A700076FD0646144A154BFCF771FDCDE90401AD
:103A800013494868FCF7B7FE06460F4A114BFCF78E
:103A900066FDCDE90201DDE90423FCF7B9FC04462B
:103AA000FCF7ECFE0A494860142008F019FE3BE7D9
:103AB0000010014010010020D4010020000100206E
:103AC00066660A40000026409A9999999999C93FDB
:103AD000040100209999E93FCFF753E3A59B3440B7
:103AE00030B58BB00446A078112854D14AF6AA20EC
:103AF000ADF8040019208DF806000C208DF80700A1
:103B0000DE4800798DF80800DC4841798DF809100D
:103B100081798DF80A10C1798DF80B10017A8DF832
:103B20000C1081788DF80D109DF80700801E81B271
:103B300001A8FDF76DFCADF8280000250CE000BFE2
:103B40008021CF4802F077FA0028F9D001A8415D22
:103B5000CB4802F03EFB6D1C9DF80700801EA8427A
:103B6000EDDC00BF8021C64802F065FA0028F9D0DC
:103B7000BDF82810C24802F02CFB00BF8021C048CD
:103B800002F059FA0028F9D0BDF828000112BC480B
:103B900002F01FFB6FE1A078122855D12179B748B8
:103BA000017161794171A1798171E179C171217AE4
:103BB000017200F087FE18B101208DF8080002E0C4
:103BC00000208DF808004AF6AA20ADF804001A205B
:103BD0008DF8060007208DF807009DF80700801E6D
:103BE00081B201A8FDF714FCADF8280000250CE017
:103BF00000BF8021A24802F01EFA0028F9D001A8D7
:103C0000415D9F4802F0E5FA6D1C9DF80700801E9B
:103C1000A842EDDC00BF8021994802F00CFA002890
:103C2000F9D0BDF82810964802F0D3FA00BF8021E1
:103C3000934802F000FA0028F9D0BDF828000112DC
:103C40008F4802F0C6FA16E1A07813284DD12079EA
:103C50008A49887000F036FE18B101208DF80800FE
:103C600002E000208DF808004AF6AA20ADF8040012
:103C70001B208DF8060007208DF807009DF807002F
:103C8000801E81B201A8FDF7C3FBADF82800002516
:103C90000CE000BF80217A4802F0CDF90028F9D06D
:103CA00001A8415D764802F094FA6D1C9DF807006A
:103CB000801EA842EDDC00BF8021714802F0BBF9F4
:103CC0000028F9D0BDF828106D4802F082FA00BF34
:103CD00080216B4802F0AFF90028F9D0BDF8280028
:103CE0000112674802F075FAC5E0A078152803D1E3
:103CF0002046FFF76DFBBEE0A07816287DD1217924
:103D0000607941EA00205F490880A179E07941EAC1
:103D100000205C494880217A607A41EA00205949B4
:103D20008880A17AE07A41EA00205649C880217B48
:103D3000607B41EA002053490881A17BE07B41EA96
:103D4000002050494881217C607C41EA00204D4997
:103D50008881A17CE07C41EA00204A49C881617DDC
:103D6000207D41EA002048498880E17DA07D41EA2C
:103D700000204549C880207E444908704AF6AA20A0
:103D8000ADF804001E208DF8060011208DF8070004
:103D900000208DF808003C48008901128DF80910B8
:103DA0003948017A8DF80A10408901128DF80B10FC
:103DB0003548817A8DF80C109DF80700801E81B27D
:103DC00001A8FDF725FBADF8280000250CE000BF99
:103DD00080212B4802F02FF90028F9D001A8415D7D
:103DE000274802F0F6F96D1C9DF80700801EA842D6
:103DF000EDDC00BF8021224800E016E002F01BF954
:103E00000028F7D0BDF828101D4802F0E2F900BFE5
:103E100080211B4802F00FF90028F9D0BDF82800D6
:103E20000112174802F0D5F925E0A078212815D114
:103E30002079012802D1164908701CE02079022857
:103E400002D11349087016E02079032802D11049E5
:103E5000087010E000200E4908700CE0A0780928D6
:103E600002D0A0781D2806D100231A462146094811
:103E7000006809F013F90BB030BD0000A046002027
:103E8000003801401C0100205C4B0020D4010020C0
:103E90004C000020980000202DE9FF5F05460C46ED
:103EA0004FF07E502968FCF7EBF982462969FCF750
:103EB000E7F98146296AFCF7E3F980464FF07A5129
:103EC000FCF736FA06463046FDF761FE8046FDF700
:103ED00067FE206072492068FCF7F6FC21D24FF0A3
:103EE0007A502168FCF756FA8346E9696869FCF75D
:103EF00019FA80465946FCF71BFA6060A968A86960
:103F0000FCF710FA80465946FCF712FAA060E968FF
:103F10006868FCF707FA80465946FCF709FAE06042
:103F200084E04FF07E502968FCF7AAF94FF07C51ED
:103F30000390FCF7FDF982463146FCF7F3F9814620
:103F4000FDF725FE8046FDF72BFE60604FF07E50AA
:103F50002969FCF795F94FF07C510390FCF7E8F9DB
:103F600082463146FCF7DEF98146FDF710FE8046B9
:103F7000FDF716FEA0604FF07E50296AFCF780F92D
:103F80004FF07C510390FCF7D3F982463146FCF7A1
:103F9000C9F98146FDF7FBFD8046FDF701FEE060B3
:103FA000E9686868FCF76CF980460021FCF782FC40
:103FB00011D2A06880F00040A060E9696869FCF750
:103FC0005FF980460021FCF77FFC1AD2E06880F0A0
:103FD0000040E06015E0E9686868FCF751F9804648
:103FE0000021FCF771FC0CD2E9696869FCF748F91B
:103FF00080460021FCF75EFC03D2E06880F00040C0
:10400000E060E9696869FCF78DF980460021FCF7FA
:1040100051FC0BD2606880F000406060A06880F0C6
:104020000040A060E06880F00040E060E168084681
:10403000FCF77EF90390A1680846FCF779F9029035
:1040400061680846FCF774F9019021680846FCF79E
:104050006FF900900199FCF713F982460299FCF779
:104060000FF981460399FCF70BF98046FDF7A2FD95
:10407000074639462068FCF75BF9206039466068DE
:10408000FCF756F960603946A068FCF751F9A0606A
:104090003946E068FCF74CF9E060BDE8FF9F00009E
:1040A0000AD7233C01460020034A506820F44040D0
:1040B00008435060704700000010024029B1064AD2
:1040C00052690243044B5A6104E0034A5269824335
:1040D000014B5A61704700000010024029B1064AA6
:1040E000D2690243044BDA6104E0034AD269824395
:1040F000014BDA61704700000010024029B1064A06
:1041000012690243044B1A6104E0034A12698243B4
:10411000014B1A61704700000010024029B1064AA5
:1041200092690243044B9A6104E0034A9269824314
:10413000014B9A61704700000010024030B5002129
:104140000022002400232D4D6D6805F00C0121B1E3
:10415000042905D0082923D105E0294D056022E076
:10416000274D05601FE0254D6D6805F47012234D45
:104170006D6805F48034022505EB92421CB9214D8F
:10418000554305600BE01D4D6D6805F400351DB10C
:104190001C4D5543056002E0194D5543056002E092
:1041A000174D056000BF00BF144D6D6805F0F001AC
:1041B0000909154D6B5C0568DD4045600F4D6D6864
:1041C00005F4E061090A104D6B5C4568DD408560CF
:1041D0000A4D6D6805F46051C90A0B4D6B5C45686A
:1041E000DD40C560054D6D6805F44041890B074D04
:1041F0006B5CC568B5FBF3F5056130BD001002408E
:1042000000127A0000093D00E2010020F2010020C6
:1042100094B007F023FB20214448FDF746FF83E0DC
:104220004248C06880F010004049C86000231A4628
:104230000AA93F48006808F0F5FD01281BD19DF848
:104240002B00821E0AA96846FBF7E6FFBDF84C006A
:10425000C1B29DF82B00801E0DF80010BDF84C0077
:1042600001129DF82B00401E0DF800109DF82B1038
:10427000684606F099FA0023642219462D48006822
:1042800008F0D0FD0DF12B010AA806F0A9F90546AA
:104290009DF82B00801E0AA9095C9DF82B00401E8A
:1042A0000AAA105C41EA0020ADF84C0065B922482A
:1042B0000088401C2049088008460088022802DD4A
:1042C00000201E4908702FE09DF82B00801E81B24F
:1042D0000AA8FDF79DF804469DF82B00202815DC60
:1042E000BDF84C000006B0EB046F0FD1BDF84C00D8
:1042F0000012B0EB242F09D10AA8FFF769F80020BB
:104300000D49088001200D4908700CE00A4800881A
:10431000401C0949088008460088022802DD002068
:104320000649087000E000BF7AE700000010014075
:10433000980000209C000020A2000020A000002087
:1043400008480088404200B207498881002005499A
:1043500008800648008800B20349C881002003494C
:1043600008807047240C00405C4B0020240800406B
:1043700021B1028842F04002028004E002884FF638
:10438000BF731A400280704770B505460C4616464A
:104390004FF480511048FDF786FE032000F0B0F97D
:1043A000C4F3074000F0ACF9C4F3072000F0A8F90B
:1043B000E0B200F0A5F904E0FF2000F0A1F92870B8
:1043C0006D1C301EA6F101018EB2F5D14FF4805163
:1043D0000148FDF76AFE70BD000C01402DE9F05F59
:1043E00007460E4614464FF00008C146C246002557
:1043F000AB4606F0FF0ACAF10000C5B22046E1173D
:1044000004EB1161C1F30728E11704EB11610912F4
:10441000A4EB012101F0FF09BAF1000F20D1B8F19E
:10442000000F05D122463146384600F0CBF864E053
:1044300009E04FF480723146384600F0C3F806F5C3
:10444000807607F58077B8F10000A8F1010101F04E
:10445000FF08EED14A463146384600F0B3F84CE04A
:10446000B8F1000F18D1A94510DDA9EB050000F047
:10447000FF0B2A463146384600F0A4F82E442F445C
:104480005A463146384600F09DF836E0224631461D
:10449000384600F097F830E0601B84B22046E11700
:1044A00004EB1161C1F30728E11704EB1161091254
:1044B000A4EB012101F0FF092A463146384600F0FD
:1044C00081F82E442F4409E04FF48072314638467B
:1044D00000F078F806F5807607F58077B8F10000EF
:1044E000A8F1010101F0FF08EED1B9F1000F04D0ED
:1044F0004A463146384600F065F8BDE8F09F0000B6
:1045000000B587B001218803FFF7E8FD01214CF2D7
:104510000800FFF703FE4FF48050ADF804000320BD
:104520008DF8060010208DF8070001A92348FDF73B
:10453000DDFC4FF40050ADF8040018208DF80700A2
:1045400001A91E48FDF7D2FC4FF48040ADF80400ED
:1045500001A91A48FDF7CAFC4FF40040ADF8040069
:1045600001A91648FDF7C2FC4FF480511348FDF72E
:104570009CFD0020ADF808004FF48270ADF80A00F1
:104580000020ADF80C000220ADF80E000120ADF8BF
:1045900010004002ADF812000020ADF81400ADF894
:1045A00016000720ADF8180002A9054800F032F9FE
:1045B00001210348FFF7DCFE07B000BD000C0140FD
:1045C0000038004070B505460C46164600F0F0F87D
:1045D0004FF480511548FDF766FD022000F090F879
:1045E000C4F3074000F08CF8C4F3072000F088F80B
:1045F000E0B200F085F8B6F5807F04DD4FF48076F8
:104600000BA001F09DFE03E0287800F079F86D1C06
:10461000301EA6F101018EB2F6D14FF4805103484D
:10462000FDF743FD00F0A8F870BD0000000C01404C
:104630003C3C2D464C4153482D4552524F522D3E45
:104640003E205350495F464C4153485F5061676577
:10465000577269746520746F6F206C617267652191
:104660000A0000002DE9F041002400250026002763
:104670004FF480510F48FDF716FD9F2000F040F8E1
:10468000FF2000F03DF80546FF2000F039F806460F
:10469000FF2000F035F807464FF480510548FDF73C
:1046A00004FD280440EA062040EA07042046BDE84D
:1046B000F0810000000C014010B5044600F078F8CD
:1046C00000F05AF84FF480510C48FDF7ECFC202024
:1046D00000F016F8C4F3074000F012F8C4F3072006
:1046E00000F00EF8E0B200F00BF84FF480510348F0
:1046F000FDF7DBFC00F040F810BD0000000C0140AD
:1047000010B504464FF48050194908600AE0184972
:104710000868411E164A116020B9002000F0B2F866
:10472000C0B210BD0221134800F066F80028EED098
:104730002146104800F06CF84FF480500C49086096
:104740000AE00B490868411E094A116020B901209E
:1047500000F098F8C0B2E4E70121064800F04CF8F8
:104760000028EED0034800F050F8C0B2D9E70000AE
:104770000C0100200038004010B500244FF4805197
:104780000A48FDF790FC0520FFF7BAFF00BFFF20A5
:10479000FFF7B6FF044604F001000028F7D14FF4FC
:1047A00080510248FDF781FC10BD0000000C014063
:1047B00010B54FF480510648FDF775FC0620FFF751
:1047C0009FFF4FF480510248FDF76FFC10BD0000C1
:1047D000000C014010B54FF480510648FDF763FC12
:1047E000AB20FFF78DFF4FF480510248FDF75DFCD1
:1047F00010BD0000000C01400246002013890B4050
:104800000BB1012000E00020704701468889704705
:104810008181704710B50022028802F441520B8852
:104820004C8823438C882343CC8823430C8923431F
:104830004C8923438C892343CC8923431A43028028
:10484000838B4FF2FF74234083830B8A038210BD56
:1048500070B504460D4629462046FFF7D9FF00BF34
:1048600002212046FFF7C8FF0028F9D000BF012130
:104870002046FFF7C1FF0028F9D02046FFF7C5FF0B
:10488000C0B270BD10B50446214602A001F058FD2B
:10489000002010BD3C3C2D464C4153482D45525202
:1048A0004F522D3E3E2053504920B5C8B4FDB3AC05
:1048B000CAB1216572726F72436F6465203D202515
:1048C000640A00002DE9FE4300250026002400278D
:1048D0004FF004094FF00108002000900190029071
:1048E000434800798DF80000414840798DF8010077
:1048F0003F4880798DF802003D48C0798DF803006B
:104900003B48007A8DF80400394880788DF805001E
:104910003748007B8DF8060035488089000A8DF8FD
:1049200007003348C068000C8DF808003048C068A4
:10493000000E8DF809000A216846FCF769FD07465C
:10494000F8B28DF80A0038128DF80B00FDF700F967
:104950003420FDF777F82748FDF77AF88146254D92
:1049600000BF19E000261DF80410601C1DF80000AF
:1049700041EA0021A01C1DF8000041EA0041E01CB2
:104980001DF8000041EA006631462846FDF7AAF806
:1049900081462D1D201DC4B20C2C02DAB9F1040F82
:1049A000E0D0FDF795F8134D002418E01DF8041031
:1049B000601C1DF8000041EA0021A01C1DF8000049
:1049C00041EA0041E01C1DF8000041EA0066286849
:1049D000B04201D04FF000082D1D201DC4B20C2C98
:1049E00002DAB8F1000FE1D14046BDE8FE830000D5
:1049F000A046002000F8030894B000201190129007
:104A0000139000BF834604F0FBFC04460020069090
:104A1000814607F005F907F097F90020D0490870A2
:104A200002E0642007F05CFECD4800780028F8D052
:104A30002146CC4807F008F8CA491831C948FCF7A4
:104A400057FF00BF8AE100235A1E1946C648006876
:104A500008F0E8F901287DD104F0D2FC0446C348EF
:104A6000007808B1082000E0002000F10E0AC048DC
:104A700053463B2268210090BE4804F04DFEBC48DE
:104A8000FDF71EFBB948007818B1B9480E30FDF7A4
:104A90009BFBB9491198486012988860B749B1F9F1
:104AA0000C10A1F1F100FBF749FE0746B44AB54BE3
:104AB000FBF7C7FD0546FBF7E1FE0690AF49B1F9EC
:104AC0000E10A1F14800FBF72BFE8146002106984D
:104AD000FBF7FAFE21D800214846FBF7EBFE1CD27B
:104AE00049460698FBF756FC0190FBF784FECDE99A
:104AF000020102F04FFA4FF00052A34BCDE904013E
:104B0000FBF72DFD07460022A04BFBF781FC054675
:104B1000FBF7B4FE9849C86075E000210698FBF7E2
:104B2000C9FE23D200214846FBF7C4FE1ED84946E1
:104B30000698FBF72FFC0190FBF75DFECDE9020123
:104B400002F028FA07464FF000528F4BFBF707FDA3
:104B5000054600E05FE000228C4BFBF759FCCDE9F5
:104B60000401FBF78BFE8449C8604CE000210698E5
:104B7000FBF7A0FE21D800214846FBF7A5FE1CD27A
:104B800049460698FBF706FC0190FBF734FECDE999
:104B9000020102F0FFF94FF000527B4BCDE9040116
:104BA000FBF7DDFC05460022794BFBF731FC07469D
:104BB000FBF764FE7049C86025E000210698FBF70A
:104BC00083FE20D200214846FBF77EFE1BD84946D3
:104BD0000698FBF7DFFB0190FBF70DFECDE9020124
:104BE00002F0D8F905464FF00052674BFBF7B7FCCF
:104BF0000022674BCDE90401FBF70AFC0746FBF7EF
:104C00003DFE5D49C86000BF6248C06880F010008A
:104C10006049C86000BF6048007801287ED1A4EBDD
:104C20000B000A287BD94AF6AA20ADF81C002920DF
:104C30008DF81E0018208DF81F00504800788DF860
:104C400020004E480088010A07A841714B4881782E
:104C500007A8817149484088010A07A8C1714748DF
:104C6000017907A8017245488088010A07A84172A6
:104C70004248817907A881724048C088010A07A884
:104C8000C1723E48017A07A801733C480089010AB5
:104C900007A841733948817A07A88173374840894A
:104CA000010A07A8C1733548017B07A8017433487E
:104CB0008089010A07A841743048817B07A8817464
:104CC0002E48C089010A07A8C1742C48017C07A896
:104CD00001752A48008A010A07A841759DF81F003E
:104CE000801E81B207A8FCF793FBADF840000025B9
:104CF0000CE000BF8021294801F09DF90028F9D07F
:104D000007A8415D254801F064FA6D1C9DF81F005D
:104D1000801EA842EDDC00BF802101E019E01DE00B
:104D20001E4801F088F90028F6D0BDF840101B4855
:104D300001F04FFA00BF8021184801F07CF90028EB
:104D4000F9D0BDF840000112144801F042FAA34620
:104D500004E011480078022800D000BF73E600008C
:104D600010010020A01A0020480000203B00002075
:104D7000C01B002034010020D41A0020D61B0020C4
:104D8000A4703D0AD7A3F03FDCA54C4000805640FC
:104D900000E07040001001404C000020003801404D
:104DA00010B500F007FB00F0F1FB10BD10B500F0EE
:104DB00001F810BD0CB50020019000903348006848
:104DC00040F480303149086000BF3048006800F48A
:104DD000003000900198401C0190009818B901988B
:104DE000B0F5A06FF1D12948006800F4003010B18F
:104DF0000120009001E0002000900098012843D19C
:104E00002348006840F01000214908600846006807
:104E100020F0030008600846006840F002000860C7
:104E20001A48406819494860084640684860084682
:104E3000406840F4806048600846406820F47C1078
:104E400048600846406840F4E8104860084600683A
:104E500040F08070086000BF0C48006800F00070EF
:104E60000028F9D00948406820F00300074948604D
:104E70000846406840F00200486000BF03484068B0
:104E800000F00C000828F9D10CBD00000010024011
:104E90000020024000B50346B3F57A7F02DD4FF4EF
:104EA0007A7303E013F57A7F00DA0B4B002B08DBF3
:104EB00099B20120FDF7DAFE00210220FDF7D6FEAF
:104EC00008E000210120FDF7D1FE584281B2022006
:104ED000FDF7CCFE00BD000018FCFFFF00B5034647
:104EE000B3F57A7F02DD4FF47A7303E013F57A7F2E
:104EF00000DA0B4B002B08DB00210320FDF7B6FE88
:104F000099B20420FDF7B2FE08E0584281B20320B6
:104F1000FDF7ACFE00210420FDF7A8FE00BD000057
:104F200018FCFFFF0246082A00DD704740F6C41354
:104F3000994200DDF9E7B1F5FA7F00DAF5E7042AD6
:104F400003DD0D48131FDAB200E00C48012A06D039
:104F5000022A06D0032A06D0042A09D105E0818658
:104F600007E0018705E0818703E0A0F8401000E03A
:104F700000BF00BF00BFD8E700340140000400407C
:104F8000042808D14FF0E021096941F004014FF0F5
:104F9000E022116107E04FF0E021096921F00401EE
:104FA0004FF0E0221161704710B508F0FBFA0128BC
:104FB00002D007F0C5FE04E002480068401C014929
:104FC000086010BD1400002010B51348006840F0C0
:104FD00001001149086008464068104908400E4920
:104FE0004860084600680E4908400B4908600846BA
:104FF000006820F4802008600846406820F4FE0025
:1050000048604FF41F008860FFF7D0FE4FF000604B
:105010000449086010BD0000001002400000FFF8C5
:10502000FFFFF6FE08ED00E0F0B50C461546002245
:105030000021068C4FF6FE773E400684028B018CE1
:105040004FF60C7632407E1C06EA03162E4332439E
:10505000104EB0420ED0104EB0420BD0B0F1804F87
:1050600008D00E4EB04205D00D4EB04202D00D4ECB
:10507000B04206D14FF6FD76314044F0010631438F
:1050800005E04FF6F576314044F0010631430283E6
:105090000184F0BD002C01400034014000040040B8
:1050A00000080040000C0040F0B50C4615460022F8
:1050B00000210026078C4FF6EF7C07EA0C070784D7
:1050C000028B018C4FF6FF7707EA041640F6FF4784
:1050D0003A404FF6FF7707EA03373A434FF6FF7738
:1050E00007EA05273A43114FB8420ED0104FB84295
:1050F0000BD0B0F1804F08D00E4FB84205D00E4F04
:10510000B84202D00D4FB84206D14FF6DF77394092
:1051100046F01007394305E04FF65F77394044F019
:105120001007394302830184F0BD0000002C0140C8
:10513000003401400004004000080040000C004022
:10514000F0B50C461546002200210026078C4FF6CC
:10515000FF6C07EA0C070784828B018C4FF6FF7700
:1051600007EA04264FF60C773A404FF6FF7707EA36
:1051700003172F433A43114FB8420ED0104FB84295
:105180000BD0B0F1804F08D00E4FB84205D00E4F73
:10519000B84202D00D4FB84206D14FF6FF57394002
:1051A00046F48077394305E04FF2FF57394044F425
:1051B0008077394382830184F0BD0000002C0140D8
:1051C000003401400004004000080040000C004092
:1051D000F0B50C461546002200210026078C4EF63D
:1051E000FF7C07EA0C070784828B018C4FF6FF7760
:1051F00007EA043640F6FF473A404FF6FF7707EAE2
:1052000005273A434FF6FF7707EA03373A43114F32
:10521000B8420ED0104FB8420BD0B0F1804F08D03A
:105220000E4FB84205D00E4FB84202D00D4FB842D3
:1052300006D14DF6FF77394046F48057394305E0F3
:1052400047F6FF57394044F480573943828301843D
:10525000F0BD0000002C014000340140000400407B
:1052600000080040000C004000B589B0012140F664
:105270000400FEF753FF4FF41060ADF82000182033
:105280008DF8230003208DF8220008A91E48FCF7A2
:105290002DFE4FF47A70ADF818004720ADF81400D9
:1052A0000020ADF81A00ADF816008DF81C0005A915
:1052B000164800F01FFC6020ADF804000120ADF896
:1052C00006000020ADF80C00ADF80A0001A90F4857
:1052D00000F086FA08210D4800F0CEFA0020ADF863
:1052E0000A0001A9094800F08BFB0821074800F0DB
:1052F000C5FB0121054800F0BDF90121034800F07C
:10530000C5F909B000BD000000080140002C0140B3
:1053100000B589B001210420FEF700FF0C20ADF894
:10532000200018208DF8230003208DF8220008A902
:105330001F48FCF7DBFD01210846FEF7CFFE4FF4C6
:105340007A70ADF818004720ADF814000020ADF8D1
:105350001A00ADF816008DF81C0005A94FF080402A
:1053600000F0C8FB6020ADF804000120ADF8060095
:105370000020ADF80C00ADF80A0001A94FF0804004
:1053800000F0E4FA0821C80600F030FB0020ADF878
:105390000A0001A94FF0804000F032FB0821C80646
:1053A00000F06CFB0121880700F064F909B000BD32
:1053B0000008014000B589B001210420FEF7AEFECF
:1053C000C020ADF8200018208DF8230003208DF8B0
:1053D000220008A93448FCF789FD01210820FEF7C6
:1053E0009DFE0320ADF8200018208DF82300032037
:1053F0008DF8220008A92D48FCF778FD0121022034
:10540000FEF76CFE44F62060ADF818004720ADF8BA
:1054100014000020ADF81A00ADF816008DF81C003D
:1054200005A9234800F066FB6020ADF804000120C8
:10543000ADF806000020ADF80C0040F2DC50ADF8ED
:105440000A0001A91A4800F0CBF90821184800F019
:1054500013FA40F2DC50ADF80A0001A9144800F03C
:1054600015FA0821124800F063FA40F2DC50ADF85A
:105470000A0001A90E4800F069FA08210C4800F062
:10548000B5FA40F2DC50ADF80A0001A9084800F076
:10549000B7FA0821064800F0F1FA0121044800F0AB
:1054A000E9F809B000BD000000080140000C01400F
:1054B0000004004010B50121044800F017F918B1AC
:1054C0000121024800F0D3F810BD000000080040A0
:1054D00010B50121044800F009F918B10121024872
:1054E00000F0C5F810BD0000000C004010B501210F
:1054F000074800F0FBF848B10121054800F0B7F873
:105500000448006880F480500249086010BD000023
:10551000001000400C0801401FB501211020FEF7CB
:10552000DDFD1E20ADF8080041F61F40ADF8040077
:105530000020ADF80A00ADF806008DF80C0001A9B6
:10554000114800F0D7FA36208DF8000009208DF8B8
:10555000010000208DF8020001208DF8030068464C
:10556000FDF700FD0121084800F07EF801221146F8
:10557000054800F02CF90021034800F08CFA0021C6
:10558000014800F077F81FBD0010004000B589B059
:10559000012142F21000FEF7C1FD4FF47070ADF82A
:1055A000200018208DF8230003208DF8220008A980
:1055B0002B48FCF79BFC44F62060ADF81800472010
:1055C000ADF814000020ADF81A00ADF816008DF803
:1055D0001C0005A9234800F08DFA6020ADF80400F6
:1055E0000120ADF806000020ADF80C0040F2DC50C0
:1055F000ADF80A0001A91B4800F0F2F8082119488B
:1056000000F03AF940F2DC50ADF80A0001A9154863
:1056100000F03CF90821134800F08AF940F2DC5010
:10562000ADF80A0001A90F4800F090F908210D48D3
:1056300000F0DCF940F2DC50ADF80A0001A909489D
:1056400000F0DEF90821074800F018FA01210548AA
:1056500000F010F80121034800F018F809B000BD6F
:105660000010014000340140CA4302827047CA431F
:105670000282704721B1028842F00102028004E0F8
:1056800002884FF6FE731A400280704731B1B0F8BD
:10569000442042F40042A0F8442005E0B0F8442041
:1056A000C2F30E02A0F844207047F0B50C46154630
:1056B0001E460021002200230189028B038C4FF635
:1056C000F877394021434FF6FC473A4040F2011742
:1056D0003A434FF6DD773B404FF6FF7707EA061770
:1056E0002F433B43018102830384F0BD30B5024662
:1056F000002000230024158A05EA0103958905EAA4
:10570000010413B10CB1012000E0002030BD000005
:1057100070B505460C46244885420ED02348854284
:105720000BD0B5F1804F08D02148854205D02148E3
:10573000854202D02048854200D100E000BF208889
:1057400050B92389A28861882846FFF76DFCE1885B
:10575000284600F0A2F925E0208804280AD12389F0
:10576000A28861882846FFF79FFCE188284600F060
:105770009DF917E0208808280AD12389A28861882A
:105780002846FFF7DDFCE188284600F09CF909E097
:105790002389A28861882846FFF71AFDE1882846F8
:1057A00000F09AF970BD0000002C01400034014067
:1057B0000004004000080040000C0040002101806F
:1057C0004180012181800021C180018170471AB18F
:1057D00083890B43838102E083898B4383817047F4
:1057E00070B5002400220023058C4FF6FE7635406C
:1057F0000584028C8388048B4FF68F752C40B51E70
:105800002C400D882C43751E2A400D892A434D8853
:105810002A43144DA8420BD0134DA84208D0134D73
:10582000A84205D0124DA84202D0124DA84213D171
:105830004FF6F7752A404D892A434FF6FB752A40EB
:105840008D882A434FF6FF652B404FF6FF552B40BE
:105850008D892B43CD892B4383800483CD88858616
:10586000028470BD002C0140003401400040014022
:1058700000440140004801400A460021018B4FF6D8
:10588000F7731940114301837047000070B500247D
:1058900000220023058C4FF6EF7635400584028CFC
:1058A0008388048B48F6FF752C404FF6FF452C404B
:1058B0000D884FF6FF7606EA05252C434FF6DF7577
:1058C0002A400D8906EA05152A434D8806EA051582
:1058D0002A43154DA84202D0144DA8421DD14FF6BF
:1058E0007F752A404D894FF6FF7606EA05152A4353
:1058F0004FF6BF752A408D8806EA05152A434FF6F4
:10590000FF352B404FF2FF752B408D8906EA850548
:105910002B43CD8906EA85052B4383800483CD88FC
:105920000587028470BD0000002C01400034014056
:105930000A460021018B4FF2FF7319404FF6FF73A7
:1059400003EA0223194301837047000070B5002465
:1059500000220023058C4FF6FF6635400584028C3B
:105960008388848B4FF68F752C404FF6FC752C4046
:105970000D882C434FF6FF552A400D894FF6FF76D0
:1059800006EA05252A434D8806EA05252A43154DD2
:10599000A84202D0144DA8421DD14FF2FF752A40F3
:1059A0004D894FF6FF7606EA05252A434FF6FF3567
:1059B0002A408D8806EA05252A434EF6FF752B40BE
:1059C0004DF6FF752B408D8906EA05152B43CD89D1
:1059D00006EA05152B4383808483CD88858702845E
:1059E00070BD0000002C0140003401400A46002137
:1059F000818B4FF6F7731940114381837047000084
:105A000070B5002200230024058C4EF6FF76354049
:105A10000584038C8488828B48F6FF752A404FF6F4
:105A2000FF452A400D884FF6FF7606EA05252A43F2
:105A30004DF6FF752B400D8906EA05352B434D8841
:105A400006EA05352B430B4DA84202D00A4DA84269
:105A500008D14BF6FF752C408D894FF6FF7606EA8C
:105A600085152C4384808283CD88A0F84050038420
:105A700070BD0000002C0140003401400A460021A6
:105A8000818B4FF2FF7319404FF6FF7303EA022335
:105A900019438183704781847047028B4FF6F373FB
:105AA0001A400283028B0A4302837047028B4FF233
:105AB000FF331A400283028B4FF6FF7303EA012380
:105AC0001A4302837047828B4FF6F3731A40828326
:105AD000828B0A4382837047828B4FF2FF331A40D6
