:020000040800F2
:1000000040910020F5010008792E00084901000800
:10001000D1260008110F0008415E00080000000012
:100020000000000000000000000000005D0100086A
:10003000E718000800000000A10100083D5000087A
:100040000F0200080F0200080F0200080F0200084C
:100050000F0200080F020008791900080F020008BB
:10006000151A0008551A00080F0200080F020008B0
:100070000F0200080F0200080F020008DD1600083A
:100080000F0200080F0200080F0200080F0200080C
:100090000F0200080F0200080F0200080F020008FC
:1000A0000F0200080F0200080F0200080F020008EC
:1000B0000F0200080F0200080F0200080F020008DC
:1000C0000F02000885230008752300080F020008AE
:1000D0000F020008AD5900080F0200080F020008C7
:1000E000ED1900080F0200080F0200080F020008B7
:1000F0000F0200080F0200080F0200080F0200089C
:100100000F0200080F0200088D5200080F020008BD
:100110002D5700086D5800080F0200080F02000854
:100120000F0200080F0200080F0200080F0200086B
:10013000DFF810D000F038FD00480047FD9B0008B4
:10014000AFF30080409100201EF0040F0CBFEFF3CE
:100150000880EFF309800AF051B90000224B1968BA
:100160000868B0E8F00F80F30988BFF36F8F4FF095
:10017000000080F311884EF00D0E70470000000063
:1001800006480068006880F3088862B661B6BFF36D
:100190004F8FBFF36F8F00DF00BF00BF08ED00E09F
:1001A000EFF30980BFF36F8F0F4B1A6820E9F00F50
:1001B000106008B54FF0500080F31188BFF34F8FE7
:1001C000BFF36F8F0CF06EFA4FF0000080F31188D0
:1001D000BDE8084019680868B0E8F00F80F30988A6
:1001E000BFF36F8F704700BFF8010020EFF3058069
:1001F000704700000648804706480047FEE7FEE7D4
:10020000FEE7FEE7FEE7FEE7FEE7FEE7FEE7FEE7C6
:100210005D5000083101000840EA01039B0703D04C
:1002200009E008C9121F08C0042AFAD203E011F835
:10023000013B00F8013B521EF9D27047D2B201E0F7
:1002400000F8012B491EFBD270470022F6E710B5DB
:1002500013460A4604461946FFF7F0FF204610BD34
:10026000421C10F8011B0029FBD1801A704703467D
:1002700011F8012B00F8012B002AF9D1184670471C
:10028000F0B480EA0102D40F4200B2EB410F02D277
:100290000246084611464A0042D0C30DDDB2C1F302
:1002A000C752AD1A202D35DAC1F3160141F4000210
:1002B00004B15242C5F1200602FA06F12A41104467
:1002C000B3EBD05F23D0C4B1012DA0EBC35009DC48
:1002D000F0BC4FF0004202EAC352DBB200F500006E
:1002E00000F07DBB400000F1807000EBC350A0F136
:1002F000807040EAD170490009E0490841EAC071C4
:10030000A0EBC35000F50000400800EBC350F0BC68
:1003100000F05CBB6142012202EB4101001BF6E7E9
:10032000F0BC704781F00041AAE780F00040A7E7E9
:1003300080EA010210B502F00043400022D04A00DA
:100340001FD0010E01EB1261C0F35600C2F356023A
:1003500040F4000042F40002A0FB022000047F39B8
:10036000140400D0401C50EA124001D44000491E41
:10037000C2B20C0604EBD010401C4008802A02D008
:1003800003E0002010BD20F00100002900DA002069
:10039000184310BD30B480EA010202F0004530F08D
:1003A000004221F0004013D090B1C30DD40DC2F330
:1003B0001601C0F31600E41A41F4000140F40002F3
:1003C0007D34914201D3641C00E04900002C02DA24
:1003D00030BC002070474FF400000023914201D34D
:1003E000891A034340084FEA4101F7D151B19142C4
:1003F00002D14FF0004105E002D24FF0010101E0CF
:100400006FF0010103EBC450284430BC00F0DEBAA9
:100410002DE9FE4F804681EA0300C00F0C46009094
:1004200021F0004123F00045B8EB0200A94105D2BC
:100430004046214690461C460B46024623F00040AB
:10044000104347D0270DC7F30A00C3F30A510290A7
:10045000401A019040286BDAC3F3130040F4801B6C
:100460000098924620B10023D2EB030A63EB0B0BFA
:1004700001985946C0F14002504600F076FA06460F
:100480000D4650465946019A00F08EFA10EB0800CE
:100490006141002487EA115284EAE7731A4340D08D
:1004A000009A62B3019A012A4FEA075215DC001B39
:1004B00061EB02014FF0004202EA0752CDE900422F
:1004C000001C41F5801132462B4600F0EFFA03B0D4
:1004D000BDE8F08F40462146F9E7001B61EB0201C1
:1004E000001C41F5801300185B412018A2F500178D
:1004F00047EB030140EAD570B6196D4111E06D0874
:100500004FEA360645EAC0754FEA0752001B61EB19
:100510000201001C41F5801149084FEA3000001922
:10052000514132462B4603B0BDE8F04F00F0AFBA60
:100530000098012240000023D0EB020263EBE0733D
:10054000009821464FEAE074B8EB000061EB04012B
:10055000E9E783F000435BE781F0004158E72DE9CC
:10056000FE4F81EA030404F0004421F000410094AE
:100570004FF0000B23F0004350EA01045ED052EA32
:1005800003045BD0C3F30A54C1F30A552C44A4F20C
:10059000F3340194A0FB0254C1F3130141F4801120
:1005A000C3F3130343F4801301FB024400FB034E27
:1005B000840A970A44EA815447EA8357A4FB0768F0
:1005C00002958D0A05FB07854FEA932C04FB0C541A
:1005D0002705029D4FEA065847EA1637B5EB08058E
:1005E0006EEB070C870E920E47EA811742EA8312E0
:1005F000A7FB0201B6EB0B0164EB00042B0D43EAF1
:100600000C335E1844EB1C50DA465146E7FB0201FE
:10061000C5F313044FEA0B3343EA14534FEA043291
:10062000019C43EA0603A4F10C040294009CCDE96A
:1006300000B400F03BFA03B0BDE8F08F00200146A3
:10064000F9E72DE9F04D81EA030404F0004B21F0B5
:10065000004514464FF0000A23F0004150EA05021D
:1006600020D054EA01021DD0C5F30A570246C5F353
:100670001303C1F31300C1F30A5640F4801543F489
:100680008013A7EB0608101BD64608F2FD3873EB63
:10069000050002D308F1010801E092185B41B8F1AE
:1006A000000F03DA00200146BDE8F08D00204FF472
:1006B0008011064684460EE0171B73EB050705D331
:1006C000121B63EB050306434CEA010C49084FEA91
:1006D000300092185B4150EA0107EDD152EA030065
:1006E00012D082EA040083EA0501084305D0101BFA
:1006F000AB4106D20122002306E000224FF0004366
:1007000002E06FF0010253101AEB06004CEB0851A7
:1007100010EB0A0041EB0B01BDE8F04D00F0B7B95A
:10072000C10F80EAE0700844CA079623002100F058
:1007300056B996230022114600F051B90EB5C10FEB
:1007400080EAE0700844CA07002140F233438DE894
:100750000E000A460B4600F0A9F903B000BD00F0F8
:10076000004220F00040C10DC0F3160040F400002C
:100770007F2901DA00207047962903DCC1F1960138
:10078000C84001E096398840002AF4D040427047C2
:1007900020F00040C10DC0F3160040F400007F2996
:1007A00001DA00207047962903DCC1F19601C840A8
:1007B000704796398840704770B5C1F30A5201F00E
:1007C00000450024C1F3130140F2FF3341F48011CE
:1007D0009A4201DA002070BD40F233439A42A2F2FD
:1007E000334203DC524200F0CFF800E090402C434B
:1007F000F1D0404270BD00F0004230F000400AD01D
:10080000C10D01F56071C0F3160042EA0151C20842
:1008100040071143704700200146704730B5041E61
:1008200071F1000404DB4FF00044404264EB01012D
:10083000141E73F1000405DB1C464FF000435242C6
:1008400063EB04038B4208BF824230BD30B5041E07
:1008500071F1000404DB4FF00044404264EB0101FD
:10086000141E73F1000405DB1C464FF00043524296
:1008700063EB0403994208BF904230BD01F000438E
:1008800030B421F0004150EA010206D00A0DA2F571
:100890006072C1F31301002A02DC30BC00207047F3
:1008A000440F44EAC104C100E01830BC00EBC25060
:1008B00000F08CB8002801DBC0F10040002901DB0A
:1008C000C1F1004181427047002801DBC0F10040C6
:1008D000002901DBC1F100418842704730B50B4669
:1008E000014600202022012409E021FA02F59D4260
:1008F00005D303FA02F5491B04FA02F52844151E34
:10090000A2F10102F1DC30BD2DE9F05F05460020C7
:1009100092469B4688460646814640241BE0284670
:1009200041464746224600F02FF853465A46C01A21
:10093000914110D311461846224600F016F82D1AA0
:1009400067EB01084F4622460120002100F00DF818
:1009500017EB00094E41201EA4F10104DFDC4846DC
:1009600031462A464346BDE8F09F202A04DB203A60
:1009700000FA02F1002070479140C2F1200320FAF2
:1009800003F3194390407047202A04DB203A21FAF0
:1009900002F00021704721FA02F3D040C2F1200298
:1009A0009140084319467047202A06DBCB17203AAE
:1009B00041FA02F043EAE07306E041FA02F3D04064
:1009C000C2F1200291400843194670470029A8BF90
:1009D0007047401C490008BF20F00100704710B468
:1009E000B0FA80FC00FA0CF050EA010404BF10BC1D
:1009F000704749B1CCF1200421FA04F411FA0CF14A
:100A000018BF012121430843A3EB0C01CB1D4FEA82
:100A100000614FEA102042BF002010BC704700EB7D
:100A2000C35010440029A4BF10BC7047401C4900AB
:100A300008BF20F0010010BC7047420005D0C0F391
:100A4000C7525242914201DC0020704700EBC15076
:100A5000704710B541000CD0C0F3C751962908DC8F
:100A60007E2909DC06DB410204D000F0004040F0A2
:100A70007E5010BD002010BDC1F19604C4F12001CC
:100A800000FA01F1E040FFF7A1FFA04010BD10B552
:100A9000141E73F1000408DA401C41F100019218A1
:100AA0005B411A4301D120F0010010BD2DE9F04D4A
:100AB00092469B4611B1B1FA81F202E0B0FA80F29F
:100AC00020329046FFF751FF04460F4640EA0A00E5
:100AD00041EA0B0153465A46084313D0114653EAE4
:100AE000010019D0C8F140025046FFF74DFF0546FE
:100AF0000E46504659464246FFF737FF084305D099
:100B0000012004E020463946BDE8F08D0020054371
:100B100046EAE0762C4337430A986305E40AA0EBE3
:100B200008000022FD0A44EA47540A3002D500209A
:100B30000146E9E7010510196941DDE90845001999
:100B40006941BDE8F04DA2E770B521F000430343D1
:100B50000CD0C1F30A550024D5EB040564EB040363
:100B6000D617AD1AB34102DB0020014670BD201834
:100B700041EB025170BDC1F30A52C1F3130140F2BF
:100B8000FF3341F480119A4202DA00200146704797
:100B900040F233439A42A2F2334202DC5242FFF760
:100BA000F3BEFFF7E2BE0000064C074D06E0E0682A
:100BB00040F0010394E8070098471034AC42F6D3A4
:100BC000FFF7BAFAD0980308F098030870B58C18AC
:100BD00010F8015B15F0070301D110F8013B2A1151
:100BE00006D110F8012B03E010F8016B01F8016B3E
:100BF0005B1EF9D12B0705D40023521E0DD401F83A
:100C0000013BFAE710F8013BCB1A921C03E013F802
:100C1000015B01F8015B521EF9D5A142D8D3002037
:100C200070BD21B1826842F00102826003E08268F7
:100C300022F001028260704721B1826842F4807222
:100C4000826003E0826822F480728260704701460D
:100C500000208A6802F004020AB1012000E00020AE
:100C60007047014600208A6802F008020AB101209C
:100C700000E000207047000030B50246002000234D
:100C800050680F4C20400D790C6844EA052420433D
:100C9000506090680B4C2040D1E902542C434D79B0
:100CA00044EA450420439060D06A20F470000C7C34
:100CB000641EE4B2234340EA0350D06230BD00001A
:100CC000FFFEF0FFFDF7F1FFF0B504460D460020F2
:100CD0000021092D11DDE068A5F10A0606EB4607A3
:100CE000072606FA07F18843A5F10A0606EB460631
:100CF00003FA06F10843E0600CE0206905EB4507C4
:100D0000072606FA07F1884305EB450603FA06F1C4
:100D100008432061072A0FDA606B561E06EB860730
:100D20001F2606FA07F18843561E06EB860605FACB
:100D300006F10843606322E00D2A0FDA206BD61F0C
:100D400006EB86071F2606FA07F18843D61F06EB37
:100D5000860605FA06F10843206310E0E06AA2F176
:100D60000D0606EB86071F2606FA07F18843A2F157
:100D70000D0606EB860605FA06F10843E062F0BDB3
:100D8000816841F008018160704721B1826842F4B6
:100D9000A002826003E0826822F4A00282607047B1
:100DA000816841F0040181607047000008B50121AD
:100DB000042003F0FDF93020ADF8000000208DF88C
:100DC00003006946014801F037F908BD00080140F9
:100DD00010B5FFF7EBFF00F001F810BD00B591B0C2
:100DE0000121084603F0B4F90121480203F0E0F9BB
:100DF000364800F095FC36480690364807900020AB
:100E000008900220099000200A9080200B9040005A
:100E10000C9080000D9020200E90C0010F900020BB
:100E2000109006A9294800F040FD0121274800F054
:100E30006BFC0020019001208DF808008DF809005E
:100E40004FF4602003900020049002208DF81400DD
:100E500001A91F484C38FFF70FFF4FF4404003F043
:100E60006BF905230122042119484C38FFF72CFFA8
:100E700005230222194616484C38FFF725FF0121A9
:100E800013484C38FFF7D8FE012111484C38FFF7C2
:100E9000C8FE0F484C38FFF773FF00BF0C484C38B2
:100EA000FFF7DFFE0028F9D109484C38FFF778FF3B
:100EB00000BF07484C38FFF7CAFE0028F9D10121CE
:100EC00003484C38FFF761FF11B000BD0800024035
:100ED0004C2401400001002008B50121102003F03E
:100EE00067F94FF40040ADF8000010208DF80300C2
:100EF00002208DF802006946044801F09DF84FF485
:100F00000041024801F075F908BD000000100140E1
:100F100000BFFEE700B589B0012140F6040003F0F0
:100F200047F94FF48070ADF8200018208DF82300A9
:100F300003208DF8220008A91F4801F07DF840F237
:100F4000E730ADF818004720ADF814000020ADF8E8
:100F50001A00ADF816008DF81C0005A9174804F01A
:100F600093FB6020ADF804000120ADF806000020DE
:100F7000ADF80800ADF80C00ADF81000ADF80A00AF
:100F800001A90E4804F024FA08210C4804F06CFA78
:100F900001210A4804F0F4F900220121074804F075
:100FA0000DFA0021054804F0FAF90021034804F085
:100FB000EAF909B000BD000000080140002C014022
:100FC00010B50021837A012202FA03F13D4A12682A
:100FD00042F001023B4B1A603A4A1C3212688A43C3
:100FE000384B1C331A60027BCAB9364A0C3212687D
:100FF0008A43344B0C331A604288C38842EA034365
:10100000304A4032847A42F834300288838842EA97
:1010100003432C4A4032847A02EBC4025360027BC1
:10102000012A19D1274A0C3212680A43254B0C3386
:101030001A604288038842EA0343224A4032847A93
:1010400042F83430C288838842EA03431D4A403262
:10105000847A02EBC4025360C27A3AB9194A121D6B
:1010600012688A43174B1B1D1A6006E0154A121DB1
:1010700012680A43134B1B1D1A60028932B9114AC8
:10108000143212688A430F4B14331A600289012A02
:1010900006D10C4A143212680A430A4B14331A6000
:1010A000427B012A06D1074A1C3212680A43054BCB
:1010B0001C331A60034A126822F00102014B1A60C5
:1010C00010BD00000066004030B50246002000233D
:1010D000146824F002041460146844F001041460DD
:1010E00000E05B1C546804F001041CB94FF6FF7467
:1010F000A342F6D1546804F001040CB900206CE05E
:101100008C79012C04D1146844F08004146003E04D
:10111000146824F080041460CC79012C04D1146884
:1011200044F04004146003E0146824F040041460A8
:101130000C7A012C04D1146844F02004146003E0FC
:10114000146824F0200414604C7A012C04D1146833
:1011500044F01004146003E0146824F010041460D8
:101160008C7A012C04D1146844F00804146003E064
:10117000146824F008041460CC7A012C04D114689B
:1011800044F00404146003E0146824F004041460C0
:101190008C78A407CD7844EA05640D7944EA0544C7
:1011A0004D7944EA05540D886D1E2C43D4611468B2
:1011B00024F001041460002300E05B1C546804F078
:1011C00001041CB14FF6FF74A342F6D1546804F039
:1011D00001040CB1002000E0012030BD2DE9F041F8
:1011E00088B004460D4616461F46DDF838800121BA
:1011F000042002F0DDFF0121480602F0B9FF4FF4A0
:101200008050ADF81C0003208DF81E0018208DF8CA
:101210001F0007A9234800F00FFF4FF40060ADF84E
:101220001C0048208DF81F0007A91E4800F004FF8D
:1012300000208DF816008DF817008DF81800012099
:101240008DF8190000208DF81A008DF81B008DF81C
:1012500012808DF813408DF814608DF81550ADF89C
:10126000107004A91048FFF72FFF00208DF80A0026
:101270008DF80B0001208DF80C000020ADF8000067
:10128000ADF80200ADF80400ADF80600ADF80800B6
:1012900001208DF80D006846FFF792FE002008B08F
:1012A000BDE8F081000801400064004010B502462E
:1012B0000020936803F08063B3F1806F00D110E0E9
:1012C000936803F00063B3F1006F01D1012008E0DF
:1012D000936803F08053B3F1805F01D1022000E0F6
:1012E0000420042874D002F5C07303EB00131B68BC
:1012F00003F0010402F5C07303EB00131C600B7ACA
:101300007BB94B7A0C8843EA445302F5C07404EB72
:1013100000142468234302F5C07404EB0014236016
:1013200010E00B7A4C6843EAC4034C7A234302F57D
:10133000C07404EB00142468234302F5C07404EB6A
:10134000001423608B7A03F00F038B7202F5C073D5
:1013500003EB00135B6823F00F0402F5C07303EB8B
:1013600000135C6002F5C07303EB00135B688C7ABA
:10137000234302F5C07404EB001463608B7B1C06EE
:101380004B7B44EA03440B7B44EA0323CC7A23439C
:1013900002F5C07404EB0014A3608B7C1C064B7C2C
:1013A00044EA03440B7C44EA0323CC7B234302F549
:1013B000C07404EB0014E36002F5C07303EB001388
:1013C0001B6843F0010402F5C07303EB00131C60BB
:1013D00010BD000010B50246002321B1012907D03D
:1013E00002290FD109E090681D4C00EA04030BE0CC
:1013F00090681C4C00EA040306E090681A4C00EA6E
:10140000040301E0002300BF00BF184C181BA342D7
:1014100016D007DC83B16FF08060184470B10228E9
:1014200018D111E0B0F5007F10D0114C204448B124
:10143000B0F5003F0ED10BE002230DE000230BE0DE
:10144000002309E0002307E0012305E0012303E076
:10145000012301E0002300BF00BFD8B210BD00008F
:10146000030000040003000800000310000100084E
:101470000001FFF770B502460C46FF25FF2309E087
:1014800012F8010B80EA03010648405C80EA05037C
:101490000548455C201EA4F10106B4B2F0D143EA30
:1014A000052070BDC0D60008C0D700082DE9FE4F4A
:1014B00005460E4614462868A06068686061A86802
:1014C0002062306820607068E060B068A061E16808
:1014D000206AFEF72DFF8246D4E90501FEF728FFBA
:1014E00083465146FEF71EFF6060A169A068FEF7C3
:1014F0001FFF82462168206AFEF71AFF8346514685
:10150000FEF710FF206121686069FEF711FF824637
:10151000D4E90201FEF70CFF83465146FEF702FFB5
:10152000E0616169E069FEF703FF8246216A206994
:10153000FEF7FEFE83465146FEF7F4FE2060216A68
:101540006068FEF7F5FE8246A168E069FEF7F0FEEE
:1015500083465146FEF7E6FEE060A1682069FEF78B
:10156000E7FE824661696068FEF7E2FE8346514607
:10157000FEF7D8FEA061A9680846FEF7D9FE0290E2
:1015800069680846FEF7D4FE019029680846FEF710
:10159000CFFE00900199FEF773FE83460299FEF795
:1015A0006FFE824600F0ACFB0746A1690846FEF7D5
:1015B000BFFE0290E1680846FEF7BAFE019021687E
:1015C0000846FEF7B5FE00900199FEF759FE8346E6
:1015D0000299FEF755FE824600F092FB8046E169D3
:1015E0000846FEF7A5FE029021690846FEF7A0FE18
:1015F000019061680846FEF79BFE00900199FEF796
:101600003FFE83460299FEF73BFE824600F078FBE0
:10161000814641462068FEF78BFE20604146E06827
:10162000FEF786FEE0604146A069FEF781FEA061FC
:1016300049466068FEF77CFE606049462069FEF717
:1016400077FE20614946E069FEF772FEE0613946A7
:10165000A068FEF76DFEA06039466069FEF768FE7F
:1016600060613946206AFEF763FE2062BDE8FE8FA6
:10167000F0B585B007460D46002412200090019079
:1016800000208DF808008DF809008DF80A5000BF81
:1016900005E0395D0DF10B000155601C84B2AC42D0
:1016A000F7DB69460C48FFF701FE0646002401E01F
:1016B000601C84B231460848FFF78CFE18B940F62A
:1016C000FF708442F4DB40F6FF70844202DB0120AD
:1016D00005B0F0BD0020FBE70064004010B50248F3
:1016E00007F0E4FE10BD00003401002000F080513E
:1016F00011B10349086001E00249486070470000E9
:10170000040402400000024021B1026842F00102DC
:10171000026004E002684FF6FE731A4002607047F0
:1017200001684FF6FE7211400160002101604160C6
:101730008160C1604B49884208D14A4908394968EB
:1017400041F00F01474A083A51608AE04549143197
:10175000884208D143490839496841F0F001414ABB
:10176000083A51607DE03F492831884208D13D491F
:101770000839496841F470613A4A083A516070E0AA
:1017800038493C31884208D136490839496841F422
:101790007041344A083A516063E03249503188421E
:1017A00008D130490839496841F470212D4A083A76
:1017B000516056E02B496431884208D129490839E3
:1017C000496841F47001274A083A516049E02549C7
:1017D0007831884208D123490839496841F070615D
:1017E000204A083A51603CE01F49884206D1011F57
:1017F000096841F00F01021F116032E01A491431EB
:10180000884208D11849091F096841F0F001164AB9
:10181000121F116025E014492831884208D112496D
:10182000091F096841F470610F4A121F116018E026
:101830000D493C31884208D10B49091F096841F420
:101840007041094A121F11600BE00749503188426C
:1018500007D10549091F096841F47021024A121F86
:101860001160704708000240080402400146002051
:10187000002201F0805313B1054B1A6801E0054BBB
:101880001A6802EA01030BB1012000E00020704752
:1018900000040240000002401AB103680B430360D9
:1018A00002E003688B430360704710B500220268B2
:1018B00047F6F0739A430C6A8B6823430C69234301
:1018C0004C6923438C692343CC6923434C6A2343EB
:1018D0008C6A23431A430260CB6843600B688360C1
:1018E0004B68C36010BD704770B50446042003F018
:1018F00091FB0C48046025464FF47A704543012063
:10190000094908804FF0E020006940F002004FF0E4
:10191000E021086108464561006940F00100086166
:1019200070BD0000140100201801002070B50446AD
:1019300006492046FEF7FCFC06460549FEF7A0FCDA
:101940000546FEF725FF80B270BD00000000FA4496
:101950000000FA4330B589B004460D466A46294670
:101960002046FFF7A3FD0349684602F0DFFA09B0FD
:1019700030BD00005847002010B5012000F0AAF843
:1019800040B3012000F0A0F80121164800F028FC27
:10199000012813D10221134800F022FC012806D1AE
:1019A00011480088401C00B20F49088019E00E4819
:1019B0000088401E00B20C49088012E0022109484C
:1019C00000F00EFC012806D107480088401E00B236
:1019D0000549088005E004480088401C00B202491F
:1019E000088010BD000801402A01002010B54FF406
:1019F000005000F06FF8012809D10548006810B1C7
:101A00000348006880474FF4005000F05DF810BDB7
:101A1000D001002008B5042000F05CF8012814D1A2
:101A2000042000F051F80020009069460748006843
:101A30000BF068FA009838B14FF080500449086004
:101A4000BFF34F8FBFF36F8F00BF08BD480000206A
:101A500004ED00E010B5082000F03CF840B3082089
:101A600000F032F80821164800F0BAFB012813D123
:101A70000421134800F0B4FB012806D11148008866
:101A8000401C00B20F49088019E00E480088401E33
:101A900000B20C49088012E00421094800F0A0FBC4
:101AA000012806D107480088401E00B20549088079
:101AB00005E004480088401C00B20249088010BDBF
:101AC000000801402C010020014908607047000017
:101AD00014040140014600200022074B1B6803EA62
:101AE0000102054B14331B680B4013B10AB10120EE
:101AF00000E000207047000000040140002123495D
:101B00008279002A3AD00A46126803689A430B4643
:101B10001A600A1D126803689A430B1D1A60027945
:101B200011440A6803681A430A60184A08321268A6
:101B300003689A43154B08331A601A1D126803682C
:101B40009A43124B0C331A604279102A0ED11A1F95
:101B5000126803681A430D4B08331A601A1D126885
:101B600003681A43094B0C331A600DE007494279A8
:101B700011440A6803681A430A6005E002791144B7
:101B80000A6803689A430A60704700000004014035
:101B90000149C860704700000020024030B504468B
:101BA00004254FF4302000F085F80546042D17D1A8
:101BB0000C48006940F002000A4908610846446187
:101BC000006940F0400008614FF4302000F072F8E6
:101BD00005460448006941F6FD7108400149086165
:101BE000284630BD0020024004200B49C96801F09E
:101BF000010109B101200EE00749C96801F00401A3
:101C000009B1022007E00449C96801F0100109B1D7
:101C1000032000E0042070470020024003480069D0
:101C200040F0800001490861704700000020024038
:101C300078B506460C46042500200090E80200F026
:101C400039F80546042D24D11348006940F00100FD
:101C5000114908613480E80200F02CF80546042D93
:101C600010D1B01C0090200C00990880E80200F010
:101C700021F805460848006941F6FE71084006490A
:101C8000086106E00448006941F6FE710840024917
:101C90000861284678BD0000002002400248034940
:101CA00048600348486070472301674500200240B0
:101CB000AB89EFCD00B502460423FFF795FF03463D
:101CC00003E0FFF791FF0346521E012B01D1002ACA
:101CD000F7D102B90523184600BD08B501460091A9
:101CE000009820F000400090009808BD70B50446B0
:101CF000204600F005F805462146FEF719FB70BDA9
:101D00002DE9F843044600940D490098A1EB5000DA
:101D100000900C492046FEF70BFB80460099FEF729
:101D200007FB07460099FEF703FB06460649FEF748
:101D3000FCFA05460099FEF7FBFABDE8F8830000BF
:101D400012141F5F12D3363FFF51D83F7CB50122DA
:101D500044A1454806F038FB44490870084600781D
:101D60000D2841D14248C0684249884212D1012021
:101D700080F3138800BF00BF3F48006800F4E060B4
:101D80003E490843001D3C490860BFF34F8F00BF28
:101D900000BFFEE73AA004F0A9F80022114631A0E6
:101DA00005F0D0FF314908700846007888B940A096
:101DB00004F09CF801222BA1002006F005FB2B4922
:101DC0000870012227A1284806F0FEFA274908706A
:101DD00021E03E48C06880F010003C49C8603CA04B
:101DE00004F084F800BFFEE72048007848B11F489F
:101DF00001783EA004F07AF846A004F077F800BF1E
:101E0000FEE71B48C0681B49884201D002F0A4FDD0
:101E10004AA004F06BF852A004F068F801AA6946E1
:101E200010A005F040FE1149087001984069801E1D
:101E30000199897800FB01F501988078009900FBF1
:101E400001F4A200A90052A004F050F85DA004F033
:101E50004DF804A16748FEF70AFA664809F07CFBD2
:101E60007CBD0000313A0000E81B00205400002037
:101E7000A0460020DDCCBBAA0CED00E00000FA0576
:101E80003E3E53504920464C415348D6D0CEB4B77D
:101E9000A2CFD6CEC4BCFECFB5CDB32CBCB4BDABA7
:101EA000BDF8D0D0B8F1CABDBBAF2E2E2E0D0A00A2
:101EB0003E3E53504920464C415348B8F1CABDBB41
:101EC000AFCDEAB3C92E2E2E0D0A0000001001403E
:101ED000212153504920464C415348B8F1CABDBB5B
:101EE000AFCAA7B0DC2E2E2E0D0A000021215350C0
:101EF0004920464C415348CEC4BCFECFB5CDB3B902
:101F0000D2D4D8CAA7B0DC2E2E2E282564290D0ADB
:101F1000000000002121BFC9C4DCD4ADD2F22C5393
:101F2000504920464C415348B3F5CABCBBAFCEB470
:101F3000B3C9B9A62E2E2E0D0A0000003E3E535006
:101F40004920464C415348CEC4BCFECFB5CDB3B9B1
:101F5000D2D4D8B3C9B9A62E2E2E0D0A0000000087
:101F60000A2A2A2A2A2A2A2A2A2A2A2A2A2A2A2AF1
:101F700020C9E8B1B8D0C5CFA2BBF1C8A1202A2A98
:101F80002A2A2A2A2A2A2A2A2A2A2A2A2A0D0A0018
:101F90000A3E3EC9E8B1B8D7DCBFD5BCE4A3BA2538
:101FA00031306C75204B422E0A3E3EBFC9D3C3BFB1
:101FB000D5BCE4A3BA20202531306C75204B422ECD
:101FC0000A0000002A2A2A2A2A2A2A2A2A2A2A2A0F
:101FD0002A2A2A2ACEC4BCFEC9A8C3E8B2E2CAD4BF
:101FE0002A2A2A2A2A2A2A2A2A2A2A2A2A2A2A0D6E
:101FF0000A0000003C44002030B500228B071C0F73
:102000000F2303FA04F20B4B8C1053F82430934344
:10201000084C8D1044F8253023468C1053F824309A
:102020008C07240F00FA04F42343024C8D1044F86B
:10203000253030BD080001402DE9F0410246002561
:102040000026002000230024002791F803C00CF094
:102050000F0591F803C00CF0100CBCF1000F03D079
:1020600091F802C04CEA050591F800C0BCF1000FE0
:1020700031D0146800202BE04FF0010C0CFA00F373
:10208000B1F800C00CEA03069E4220D183004FF055
:102090000F0C0CFA03F7BC4305FA03FC4CEA0404EA
:1020A00091F803C0BCF1280F06D14FF0010C0CFAD7
:1020B00000FCC2F814C00AE091F803C0BCF1480F5C
:1020C00005D14FF0010C0CFA00FCC2F810C0401C06
:1020D0000828D1D31460B1F800C0BCF1FF0F34DD83
:1020E000546800202EE000F1080C4FF0010808FAB7
:1020F0000CF3B1F800C00CEA03069E4221D1830024
:102100004FF00F0C0CFA03F7BC4305FA03FC4CEA42
:10211000040491F803C0BCF1280F05D100F1080CAC
:1021200008FA0CF8C2F8148091F803C0BCF1480F0B
:1021300007D100F1080C4FF0010808FA0CF8C2F8BA
:102140001080401C0828CED35460BDE8F081000008
:10215000F0B50A46002300240021002500F00046C7
:10216000B6F1004F02D11D4EF16901E01B4E7168BE
:10217000C0F3034583B200F44016B6F5401F08D102
:1021800021F07061154E766826F07066134F7E6000
:1021900012E000F48016B6F5801F06D1032606FA79
:1021A00005F4A14341F0706106E0460D360103FAE3
:1021B00006F6B14341F0706122B1460D360103FAD3
:1021C00006F6314300F00046B6F1004F02D1034E4F
:1021D000F16101E0014E7160F0BD000000000140BE
:1021E0000246002093680B400BB1012000E0002064
:1021F000704741617047016170474FF6FF71018080
:10220000022181700421C170704700002DE9F84F50
:1022100004466078217840EA012005B2E078A17890
:1022200040EA012006B26079217940EA012007B234
:10223000607A217A40EA01200FFA80F8E07AA17AE8
:1022400040EA01200FFA80F9607B217B40EA0120FF
:102250000FFA80FA2B48058046808780A0F8068018
:10226000A0F80890A0F80AA04046FEF759FA00909E
:10227000254801680098FEF755F883462349FEF784
:1022800057F82349C8604846FEF74AFA00901E48AE
:1022900041680098FEF746F883461C49FEF748F867
:1022A0001B4908615046FEF73BFA009016488168CA
:1022B0000098FEF737F883461449FEF739F81449B9
:1022C00048612846FEF72CFA83464FF06251FEF72C
:1022D0002FF80F4908603046FEF722FA83464FF088
:1022E0006251FEF725F80A4948603846FEF718FAA9
:1022F00083464FF06251FEF71BF805498860BDE840
:10230000F88F0000D61B0020941A002000007A3DB0
:10231000A01A00202DE9F0410446207800F00100C9
:1023200010B36078A17840EA012005B2E078217905
:1023300040EA012006B26079A17940EA012007B2A3
:102340000A488581C68107822846FEF7E9F90849CF
:1023500088613046FEF7E4F90549C8613846FEF762
:10236000DFF90349086200BFBDE8F081D61B0020F9
:10237000A01A002010B5024807F0E6F810BD0000D2
:102380003401002010B5024807F028F910BD000004
:102390003401002021B1028842F48062028004E00E
:1023A00002884FF6FF331A4002807047002221F066
:1023B0007F42D3438382704721B1828842F4006216
:1023C000828004E082884FF2FF731A408280704757
:1023D00021B1828842F48052828004E082884EF6E5
:1023E000FF731A408280704710B504460B48844240
:1023F00009D10121480501F0CBFE00214FF4001066
:1024000001F0C6FE08E00121880501F0C1FE0021AF
:102410004FF4800001F0BCFE10BD000000540040ED
:102420000CB50246002000230193009300920B0F8D
:10243000019321F07F41019B1BB1009B143300935A
:1024400003E0090C009B18330093009B1B680B40B2
:102450000BB1012000E000200CBD1AB183880B43B2
:10246000838002E083888B43838070472DE9F043AB
:1024700085B004460D460026B1460427DFF8CC801F
:10248000A6884FF6C0700640684601F0A1FEDDF850
:1024900008802F48B8FBF0F01FFA80F946EA0906D9
:1024A000A68020884FF6FE7108402080002629492A
:1024B000286888420CD828684000B8FBF0F087B242
:1024C000042F00DA04273E4309F10100208427E0AD
:1024D000E8884BF6FF71884206D1286800EB40007F
:1024E000B8FBF0F087B209E0286800EBC00101EB0F
:1024F0000010B8FBF0F087B247F48047C7F30B0039
:1025000008B947F0010747F4004006434FF49670BE
:1025100009FB00F04FF47A7190FBF1F0401C20842D
:10252000A683208840F00100208026884FF6F530F1
:102530000640A8886989084306432680A889298916
:102540000843208105B0BDE8F083000000127A0046
:1025500040420F00A08601000146088AC0B27047C1
:1025600012B141F0010102E04FF6FE731940018201
:1025700070470182704700004AF6AA2001490860AE
:10258000704700000030004008B50121102001F024
:102590000FFE1020ADF800008DF8030003208DF829
:1025A000020069460348FFF747FD10210148FFF785
:1025B00022FE08BD00100140FEB5002600250024C3
:1025C000002700200090019002902F4E00BF14E0E1
:1025D0003568E8B20DF80400C5F30721601C0DF85A
:1025E0000010C5F30741A01C0DF80010290EE01CD7
:1025F0000DF80010361D201DC4B20C2CE8DB0A219A
:102600006846FEF737FF07469DF80A00F9B2884290
:1026100004D19DF80B00B0EB272F0CD01B4803F022
:1026200065FC1B48DFF86CC09CE80E10A0E80E109B
:1026300002F092F926E09DF80010154801719DF80E
:10264000011041719DF8021081719DF80310C17154
:102650009DF8041001729DF805000D498870002155
:102660000B48C1709DF806000949C8609DF8070035
:102670000002C8609DF808000004C8609DF80900C9
:102680000006C860FEBD000000F8030804950308BA
:10269000A0460020A400002008B50121102001F070
:1026A00087FD4FF48040ADF8000010208DF8030046
:1026B00002208DF8020069460448FFF7BDFC4FF484
:1026C00080410248FFF795FD08BD00000010014061
:1026D00004E003480068401C01490860F9E7000075
:1026E00010000020ADF5A25D002502E0322009F0C7
:1026F000BBFD634800780528F8D000F03FFDBDE041
:102700005F480078052873D2DFE800F0033F73AC20
:10271000B00001225BA10DF21C4005F083FE0446CF
:102720004FF420310DF21C4005F03EFAD4B958A008
:1027300003F0DCFB40F211150FE00DF583634FF45D
:10274000806206A9181D05F067FF06A808238022ED
:1027500000210090084600F0D9FC281EA5F10105D3
:10276000EBD108E05048C06880F010004E49C860C6
:102770004EA003F0BBFB0DF21C4005F084F900F005
:10278000A1FC04203E49087077E001223DA10DF232
:102790001C4005F047FE0446CCB93DA003F0A6FB63
:1027A000A0250FE00DF583634FF4806206A9181D84
:1027B00005F032FF06A80823802200210090084679
:1027C00000F0A4FC281EA5F10105EBD108E0364875
:1027D000C06880F010003449C86034A003F086FB64
:1027E0000DF21C4005F04FF903202549087044E024
:1027F00042E0012223A10DF21C4005F013FE044625
:102800004FF4D9210DF21C4005F0CEF9CCB920A02F
:1028100003F06CFB01250FE00DF583634FF480623C
:1028200006A9181D05F0F8FE06A80823802200213D
:102830000090084600F06AFC281EA5F10105EBD1C6
:1028400008E01948C06880F010001749C86017A058
:1028500003F04CFB0DF21C4005F015F9032008496C
:1028600008700AE0642009F0FFFC06E000F0F6FCC6
:10287000322009F0F9FC00E000BF00BF40E7000093
:1028800010010020313A2F7265732E62696E0000CC
:102890003E3EB6AFBBADD7CAD4B4BCD3D4D8B3C90F
:1028A000B9A62E2E2E0D0A00001001402121CEB413
:1028B000B7A2CFD6B6AFBBADD7CAD4B42E2E2E2E6C
:1028C0000D0A000000B54FF47A71032000F03EFAC3
:1028D0004FF47A71042000F039FA00BD1FB50121D0
:1028E000052001F065FC0320ADF80C0004208DF8F4
:1028F0000F0003208DF80E0003A91248FFF79CFB80
:1029000000210846FFF778FB0120009000208DF899
:10291000040010208DF8050001208DF8060068469F
:10292000FFF7ECF806208DF808008DF8090000206C
:102930008DF80A0001208DF80B0002A800F080FB42
:102940001FBD0000000801402DE9F04F89B04FF095
:10295000000AD146CB4600240120089038488088E0
:1029600084134CB9002036490880B1F9000002F008
:10297000DBFA09B0BDE8F08F032C05D10020304907
:102980000880FFF79FFFF4E7012C02D10120089097
:1029900003E0022C01D1E01E089029498988C1F387
:1029A0000D00FDF7CBFE274A274BCDE90001FDF7CF
:1029B00048FE07460022254BFDF7D1FDCDE9040175
:1029C0000898FDF7BBFECDE90201DDE90423FDF720
:1029D000C6FD054600221E4BFDF733FECDE906017C
:1029E000FDF7EAFE0FFA80FB15488089ABEB00008B
:1029F0000FFA80FA124800880AEB8A0100EB810086
:102A000014490988C1EB0111401A0FFA80F9B9F590
:102A10007A7F02DD4FF47A7904E019F57A7F01DAE2
:102A2000DFF834900648A0F800900A48A0F800A00B
:102A30000349B1F9000002F077FA00BF99E70000FE
:102A40005C4B0020A11B92418386694000A074402A
:102A5000000049402E01002018FCFFFF00B54FF494
:102A60007A71012000F072F94FF47A71022000F0BF
:102A70006DF900BD1FB50121052001F099FB0C2067
:102A8000ADF80C0004208DF80F0003208DF80E0027
:102A900003A91248FFF7D0FA03210020FFF7ACFA90
:102AA0000820009000208DF8040010208DF805000B
:102AB00001208DF806006846FFF720F809208DF800
:102AC000080006208DF8090000208DF80A0001207A
:102AD0008DF80B0002A800F0B3FA1FBD00080140FA
:102AE0002DE9F04F89B04FF0000AD146CB460024C3
:102AF000012008903848C08884134CB9002036491A
:102B00004880B1F9020002F033FA09B0BDE8F08F55
:102B1000032C05D1002030494880FFF79FFFF4E7E0
:102B2000012C02D10120089003E0022C01D1E01E0B
:102B300008902949C988C1F30D00FDF7FFFD274A18
:102B4000274BCDE90001FDF77CFD07460022254B10
:102B5000FDF705FDCDE904010898FDF7EFFDCDE98E
:102B60000201DDE90423FDF7FAFC054600221E4BB5
:102B7000FDF767FDCDE90601FDF71EFE0FFA80FBAC
:102B80001548C089ABEB00000FFA80FA1248408864
:102B90000AEB8A0100EB810014490988C1EB01119D
:102BA000401A0FFA80F9B9F57A7F02DD4FF47A798D
:102BB00004E019F57A7F01DADFF834900648A0F8CE
:102BC00002900A48A0F800A00349B1F9020002F0FF
:102BD000CFF900BF99E700005C4B0020A11B924198
:102BE0008386694000A07440000049403001002005
:102BF00018FCFFFF02E0642009F036FB494800782A
:102C00000428F8D000F094F88BE0464800780528B6
:102C100006D044480078012802D04248007848B9DC
:102C2000002002F081F9002002F0A2F9322009F020
:102C30001BFB76E001F0CEFB00F0AEF808F0DEFB07
:102C400090B33949B1F9000002F06EF93649B1F993
:102C5000020002F08DF935480188012002F0ACF93C
:102C600032484188022002F0A7F9304881880320C9
:102C700002F0A2F92D48C188042002F09DF92B48EA
:102C80000189052002F098F928484189062002F0C0
:102C900093F926488189072002F08EF92348C189DB
:102CA000082002F089F939E0FFE703F0CBF860B3C0
:102CB000FFF74AFEFFF714FF1C480188012002F0CD
:102CC0007BF91A484188022002F076F9174881887A
:102CD000032002F071F91548C188042002F06CF954
:102CE00012480189052002F067F910484189062041
:102CF00002F062F90D488189072002F05DF90B4866
:102D0000C189082002F058F908E00020064908802F
:102D1000488002F009F9002002F02AF9142009F095
:102D2000A3FA72E7100100205C4B00201A0100207A
:102D300010B5FFF7D3FDFFF79DFE02F03FFA00202C
:102D400002F0F2F8002002F013F910BD042801DCB3
:102D5000012800DA7047B1F57A7F00DDFAE7012833
:102D600006D0022807D0032809D004280FD10AE092
:102D7000084A11800BE0074A121D118007E0054A3E
:102D80000832118003E0034A0C32118000BF00BFFB
:102D900000BFDFE7340800402DE9F04700BF3249AB
:102DA000B1F90C10322201FB02F0FDF7B9FC8246AA
:102DB0002E49FDF7EFFA8146FDF71DFD07462C4A27
:102DC0002C4BFDF7CCFB0546FDF7F6FC04B2002CBE
:102DD00006DDC4F30D0040F48040234908810FE074
:102DE000002C06DAC4F30D0040F400401E490881AF
:102DF00006E02CB91C48808800F440401A4908813C
:102E00001949B1F90E10322201FB02F0FDF788FCDE
:102E100082461649FDF7BEFA8146FDF7ECFC0746EF
:102E2000134A144BFDF79BFB0546FDF7C5FC04B2A6
:102E3000002C06DDC4F30D0040F480400A494881AF
:102E40000FE0002C06DAC4F30D0040F40040064900
:102E5000488106E02CB90448C08800F4404002498B
:102E60004881BDE8F08700005C4B00200000A543CE
:102E7000A11B9241838669407047000010B504464B
:102E800000F048F8224807F0E1F92149091F887845
:102E900007F013FA1E49091FC87807F017FA032034
:102EA00007F036FA07F0F3F9032007F0E0F9012CF8
:102EB00018D10F21002009F093FC01211C2009F0FA
:102EC0008FFC06211D2009F08BFC0121084609F02A
:102ED00087FCFF21E12009F083FCFF21E22009F0BB
:102EE0007FFC13E00E21002009F07AFC01211C2058
:102EF00009F076FC06211D2009F072FCFF21E1207B
:102F000009F06EFCFF21E22009F06AFC10BD000010
:102F1000A446002000B589B001210D2001F048F938
:102F200001214248FFF714F90121102001F040F976
:102F30000121C80301F01CF93820ADF8000003207E
:102F40008DF8020018208DF8030069463848FFF715
:102F500073F82020ADF8000010208DF803006946BA
:102F60003448FFF769F84FF40040ADF800006946B7
:102F70003148FFF761F84FF40050ADF800004820E9
:102F80008DF8030069462B48FFF756F80D21022003
:102F9000FFF732F84FF40050019000208DF8080040
:102FA0000C208DF8090001208DF80A0001A8FEF719
:102FB000A5FD28208DF8200006208DF82100002096
:102FC0008DF8220001208DF8230008A800F038F8C1
:102FD0000020ADF80C004FF48270ADF80E00002018
:102FE000ADF81000ADF81200ADF814004FF4007009
:102FF000ADF816001020ADF818000020ADF81A004A
:103000000720ADF81C0003A90C4801F04DFC01217C
:103010000A4801F0F7F94FF400410748FFF7EBF8D1
:1030200020210448FFF7E5F809B000BD0002300098
:10303000000C01400010014000080140003C00402D
:1030400070B5002100230F22C47804B3154C246806
:1030500004F4E064C4F5E064210AC1F10403CA4049
:10306000447804FA03F184781440214309010E4C9A
:103070000678A155047804F01F050124AC400578BA
:103080006D11AD0005F1E025C5F8004109E00478B7
:1030900004F01F050124AC40044D0678761145F874
:1030A000264070BD0CED00E000E400E080E100E0AF
:1030B00002490143024A1160704700000000FA050E
:1030C0000CED00E010B5A2B0802102A8FDF7BDF81C
:1030D000002414E004F1B001C8B200F0C7F90020E8
:1030E00000F0C4F9102000F0C1F902A880234022AA
:1030F0003C210090044806F014F9601CC4B2082C6E
:10310000E8DB22B010BD0000340100202DE9F84FAB
:1031100080460E4692461C46DDF82890002700BFE8
:10312000E11704EB5171C910A4EBC10131B920467C
:10313000E11704EB5171C1F3C70506E02046E11722
:1031400004EB5171C910491CCDB235460FE0294638
:10315000404600F071F809EB0700802340223C2133
:103160000090054806F0DDF88037681CC5B2A5421E
:10317000EDDBBDE8F88F00003401002010B54FF4FE
:10318000FA7004F0FFF84FF4FA7004F0FBF8AE2088
:1031900000F06CF9202000F069F9102000F066F9C9
:1031A000B02000F063F9C82000F060F9002000F0C2
:1031B0005DF9102000F05AF9402000F057F9812005
:1031C00000F054F9FF2000F051F9A12000F04EF971
:1031D000A62000F04BF9A82000F048F93F2000F0AD
:1031E00045F9A42000F042F9D32000F03FF9002077
:1031F00000F03CF9D52000F039F9F02000F036F964
:10320000D92000F033F9222000F030F9DA2000F064
:103210002DF9122000F02AF9DB2000F027F92020F8
:1032200000F024F98D2000F021F9142000F01EF99F
:10323000AF2000F01BF910BD70B504460D4605F136
:10324000B001C8B200F012F9102141EA141000F0E8
:103250000DF904F00F0000F009F970BD30B59FB012
:103260002C494868FDF7C7FA044622460B462AA1B6
:1032700015A802F04BFE012315AA0021084600F014
:1032800085F824490868FDF7B6FA044622460B463D
:1032900026A11AA802F03AFE01231AAA1946002014
:1032A00000F074F82648028826A110A802F02EFE2D
:1032B000012310AA0221002000F068F825480288A6
:1032C00025A10BA802F022FE01230BAA0321002056
:1032D00000F05CF82448B0F9002024A106A802F010
:1032E00015FE012306AA0421002000F04FF81E4815
:1032F000B0F9022021A101A802F008FE012301AAD1
:103300000521002000F042F8322008F0ADFF1FB088
:1033100030BD0000040100204D61696E2020566F11
:103320006C746167653A25352E3266005365727696
:103330006F20566F6C746167653A25352E326600D2
:10334000E800002064697374616E6365313A253565
:10335000646D6D00F800002064697374616E6365CC
:10336000323A2535646D6D005C4B00206D6F746FD3
:1033700072315F70776D3A25356400006D6F746F40
:1033800072325F70776D3A25356400002DE9F84F91
:1033900005468846164699460027BA460024B9F1E4
:1033A000010F03D0B9F1020F57D122E01DE0305DCB
:1033B0002038C7B27E2D04DD002508F1010000F0A1
:1033C000FF0841462846FFF737FF07EB470024492F
:1033D00001EB4000062340223C210090214805F0EB
:1033E000A0FFA81DC5B2601CC4B2305D0028DED1AC
:1033F00033E02EE0305D2038C7B2782D04DD0025A3
:1034000008F1010000F0FF0841462846FFF714FFCD
:10341000154800EB0710082340223C21009011487A
:1034200005F07FFF08F10100C1B22846FFF704FF55
:10343000082000EB07100C490844082340223C21D7
:103440000090084805F06DFF05F10800C5B2601C4A
:10345000C4B2305D0028CDD100BF00BFBDE8F88FF9
:10346000C0D8000834010020E8DA000810B504468E
:10347000234600223C21024805F0CFFF10BD00008A
:103480003401002010B504464FF07E512068FDF74E
:103490001BFA03D24FF07E50206006E00021206826
:1034A000FDF708FA01D20020206010BD2DE9F84F89
:1034B00005460026B1460024287AC0F17F00C600E8
:1034C000B146E8797F3800EB80000644E8797F3820
:1034D00000EB8000A9EB0009F9480680A0F80290F3
:1034E0006979A1F17F00FDF71BF980F00047F549EC
:1034F0003846FCF74FFFF44908600868F349FCF7C9
:1035000049FF0090FDF777F907460022F04BFCF7E2
:103510007FFF8246FDF7B2F9EB4908600846FFF7E6
:10352000B1FFE9490868FEF701FAEA490880A97A7B
:10353000687A41EA002404F48040D0B104F0080025
:10354000B8B9E1494868FDF756F98246E24AE34BCB
:10355000FCF7FFFF0746FDF791F9DB494860081DBE
:10356000FFF790FFD8494868FEF7E0F9D94948804D
:103570001CE004F48040C8B904F00800B0B1D2499E
:103580004868FDF738F98246D34AD44BFCF740FF30
:103590000746FDF773F9CC494860081DFFF772FF35
:1035A000C9494868FEF7C2F9CA49488004F4004096
:1035B00040B304F0040028BBC3498868FDF71BF939
:1035C0008246C54AC54BFCF7C4FF0746FDF756F9CE
:1035D000BD49886001F10800FFF754FFBA498868C7
:1035E000FDF709F90746BE4ABE4BFDF717F902D2AF
:1035F000BD48B5498860B4498868FEF797F9B54970
:1036000088802AE004F4004038BB04F0040020B3B2
:10361000AD498868FDF7EFF80746AF4AAF4BFCF7B6
:10362000F7FE8246FDF72AF9A749886001F10800F4
:10363000FFF728FFA4498868FDF7DDF80746AB4A85
:10364000AB4BFDF703F902D2AA489F4988609E4917
:103650008868FEF76BF99F49888004F48050D8B1E0
:1036600004F48060C0B99849C868FDF7C4F80746FB
:10367000994A9A4BFCF76DFF8246FDF7FFF8924995
:10368000C86001F10C00FFF7FDFE8F49C868FEF726
:103690004DF99049C8801DE004F48050D0B904F47D
:1036A0008060B8B18849C868FDF7A5F807468A4A1E
:1036B0008A4BFCF7ADFE8246FDF7E0F88249C86010
:1036C00001F10C00FFF7DEFE7F49C868FEF72EF916
:1036D0008049C88004F40050D8B104F40060C0B937
:1036E00079490869FDF787F807467B4A7B4BFCF769
:1036F00030FF8246FDF7C2F87349086101F11000FE
:10370000FFF7C0FE70490869FEF710F9714908819A
:103710001DE004F40050D0B904F40060B8B16A4967
:103720000869FDF768F807466B4A6C4BFCF770FEBA
:103730008246FDF7A3F86449086101F11000FFF724
:10374000A1FE61490869FEF7F1F86249088104F0B9
:103750008000D8B104F02000C0B95B494869FDF78A
:103760004AF882465C4A5D4BFCF7F3FE0746FDF7DC
:1037700085F85549486101F11400FFF783FE52496D
:103780004869FEF7D3F8534948811DE004F08000F2
:10379000D0B904F02000B8B14B494869FDF72BF8C7
:1037A00082464D4A4D4BFCF733FE0746FDF766F85F
:1037B0004549486101F11400FFF764FE4249486938
:1037C000FEF7B4F84349488104F01000D8B104F082
:1037D0004000C0B93C498869FDF70DF882463E4A71
:1037E0003E4BFCF7B6FE0746FDF748F836498861C0
:1037F00001F11800FFF746FE33498869FEF796F895
:10380000344988811DE004F01000D0B904F0400074
:10381000B8B12D498869FCF7EEFF07462E4A2F4BB9
:10382000FCF7F6FD8246FDF729F82749886101F18A
:103830001800FFF727FE24498869FEF777F8254925
:10384000888104F40070D8B104F48070C0B91E49B6
:10385000C869FCF7D0FF07461F4A204BFCF779FEEA
:103860008246FDF70BF81849C86101F11C00FFF70B
:1038700009FE1549C869FEF759F81649C8811DE0C7
:1038800004F40070D0B904F48070B8B10E49C8696E
:10389000FCF7B1FF0746104A104BFCF7B9FD824612
:1038A000FCF7ECFF0849C86101F11C00FFF7EAFDD5
:1038B0000549C869FEF73AF80649C881BDE8F88F9E
:1038C0005C4B00200000FE42B40000200000E040FD
:1038D0000000E03F1A0100207B14AE47E17A743FFC
:1038E0009A9999999999B93FCDCCCC3DCDCCCCCC76
:1038F000CCCCEC3F6666663F08B50121102000F095
:1039000057FC0120ADF8000010208DF803000320C3
:103910008DF8020069460248FEF78EFB08BD0000E4
:103920000010014008B50121102000F041FC0220E8
:10393000ADF8000048208DF8030003208DF8020048
:1039400069460248FEF778FB08BD00000010014000
:1039500086B0FDF7C1FAFEF79FFEFFF7CDFFFFF738
:10396000E1FF00BF4FF47A7008F07EFC0221754839
:10397000FEF736FC20B901217248FEF73CFC00E05E
:10398000F0E74FF400416F48FEF735FC4FF48041FB
:103990006C48FEF730FC02E0642008F065FC022170
:1039A0006848FEF71DFC0028F6D002E0642008F00D
:1039B0005BFC654800780028F8D0C2E0022161482D
:1039C000FEF70EFCE0B940F2DC5008F04DFC02219D
:1039D0005C48FEF705FC0028EFD101205A49087029
:1039E00041F2707008F040FC00BF02215548FEF71C
:1039F000F7FB0028F9D001215248FEF7FAFBA0E0BE
:103A00005248007850B94FF400414E48FEF7F1FBA0
:103A10004FF480414B48FEF7ECFB29E04B4800781F
:103A2000012809D1C1034748FEF7E5FB4FF4804167
:103A30004448FEF7DEFB1BE044480078022809D129
:103A400081034048FEF7D5FB4FF480413D48FEF727
:103A5000D2FB0DE03D480078032809D14FF4004126
:103A60003848FEF7C8FB4FF480413648FEF7C3FBE9
:103A700037490888FCF75DFE4FF08B410090FCF75A
:103A800089FC0190FCF7B7FE4FF06632314BCDE96F
:103A90000201FCF764FD824600222F4BFCF75FFD1C
:103AA00080462E4A2E4BFCF75AFD06460F462D49FE
:103AB0000868FCF7A0FE8046284A2B4BFCF74FFD18
:103AC00032463B46CDE90401FCF7A2FC0446FCF774
:103AD000D5FE244908601E494888FCF72AFE834623
:103AE0004FF08B41FCF756FC8246FCF784FE4FF00A
:103AF0006632184BCDE90001FCF731FD80461B4AC8
:103B00001B4BFCF72CFD0646144A154BFCF727FD12
:103B1000CDE9040113494868FCF76DFE06460F4ADB
:103B2000114BFCF71CFDCDE90201DDE90423FCF794
:103B30006FFC0446FCF7A2FE0A494860142008F016
:103B400093FB3BE70010014010010020D40100204E
:103B50000001002066660A40000026409A99999963
:103B60009999C93F040100209999E93FCFF753E3A0
:103B7000A59B344030B58BB00446A078112854D1B1
:103B80004AF6AA20ADF8040019208DF806000C2092
:103B90008DF80700DE4800798DF80800DC4841798F
:103BA0008DF8091081798DF80A10C1798DF80B1004
:103BB000017A8DF80C1081788DF80D109DF80700B2
:103BC000801E81B201A8FDF755FCADF82800002544
:103BD0000CE000BF8021CF4801F0EDFF0028F9D0B4
:103BE00001A8415DCB4802F0B4F86D1C9DF80700B8
:103BF000801EA842EDDC00BF8021C64801F0DBFF3B
:103C00000028F9D0BDF82810C24802F0A2F800BF81
:103C10008021C04801F0CFFF0028F9D0BDF828006E
:103C20000112BC4802F095F86FE1A078122855D136
:103C30002179B748017161794171A1798171E17987
:103C4000C171217A017200F087FE18B101208DF850
:103C5000080002E000208DF808004AF6AA20ADF81E
:103C600004001A208DF8060007208DF807009DF843
:103C70000700801E81B201A8FDF7FCFBADF828000B
:103C800000250CE000BF8021A24801F094FF00282D
:103C9000F9D001A8415D9F4802F05BF86D1C9DF8CA
:103CA0000700801EA842EDDC00BF8021994801F08A
:103CB00082FF0028F9D0BDF82810964802F049F894
:103CC00000BF8021934801F076FF0028F9D0BDF8AD
:103CD000280001128F4802F03CF816E1A078132862
:103CE0004DD120798A49887000F036FE18B1012044
:103CF0008DF8080002E000208DF808004AF6AA209E
:103D0000ADF804001B208DF8060007208DF8070091
:103D10009DF80700801E81B201A8FDF7ABFBADF84E
:103D2000280000250CE000BF80217A4801F043FF05
:103D30000028F9D001A8415D764802F00AF86D1C10
:103D40009DF80700801EA842EDDC00BF802171486D
:103D500001F031FF0028F9D0BDF828106D4801F0BE
:103D6000F8FF00BF80216B4801F025FF0028F9D043
:103D7000BDF828000112674801F0EBFFC5E0A0780C
:103D8000152803D12046FFF791FBBEE0A078162846
:103D90007DD12179607941EA00205F490880A179CD
:103DA000E07941EA00205C494880217A607A41EA62
:103DB000002059498880A17AE07A41EA00205649DA
:103DC000C880217B607B41EA002053490881A17BA8
:103DD000E07B41EA002050494881217C607C41EA37
:103DE00000204D498881A17CE07C41EA00204A49BD
:103DF000C881617D207D41EA002048498880E17DBD
:103E0000A07D41EA00204549C880207E44490870D1
:103E10004AF6AA20ADF804001E208DF806001120F5
:103E20008DF8070000208DF808003C480089011239
:103E30008DF809103948017A8DF80A10408901126D
:103E40008DF80B103548817A8DF80C109DF807001D
:103E5000801E81B201A8FDF70DFBADF828000025FA
:103E60000CE000BF80212B4801F0A5FE0028F9D00E
:103E700001A8415D274801F06CFF6D1C9DF807000B
:103E8000801EA842EDDC00BF8021224800E016E041
:103E900001F091FE0028F7D0BDF828101D4801F070
:103EA00058FF00BF80211B4801F085FE0028F9D093
:103EB000BDF828000112174801F04BFF25E0A0785B
:103EC000212815D12079012802D1164908701CE05B
:103ED0002079022802D11349087016E020790328BE
:103EE00002D11049087010E000200E4908700CE063
:103EF000A078092802D0A0781D2806D100231A46F0
:103F000021460948006808F08DFE0BB030BD000066
:103F1000A0460020003801401A0100205C4B002020
:103F2000D40100204C000020980000202DE9FF5F04
:103F300005460C464FF07E502968FCF7A1F98246F1
:103F40002969FCF79DF98146296AFCF799F98046B1
:103F50004FF07A51FCF7ECF906463046FDF7BDFE0E
:103F60008046FDF7C3FE206072492068FCF7ACFC78
:103F700021D24FF07A502168FCF70CFA8346E969A8
:103F80006869FCF7CFF980465946FCF7D1F96060C3
:103F9000A968A869FCF7C6F980465946FCF7C8F934
:103FA000A060E9686868FCF7BDF980465946FCF7EF
:103FB000BFF9E06084E04FF07E502968FCF760F9BB
:103FC0004FF07C510390FCF7B3F982463146FCF781
:103FD000A9F98146FDF781FE8046FDF787FE606006
:103FE0004FF07E502969FCF74BF94FF07C5103905C
:103FF000FCF79EF982463146FCF794F98146FDF7BD
:104000006CFE8046FDF772FEA0604FF07E50296A7C
:10401000FCF736F94FF07C510390FCF789F98246A2
:104020003146FCF77FF98146FDF757FE8046FDF7E4
:104030005DFEE060E9686868FCF722F980460021CF
:10404000FCF738FC11D2A06880F00040A060E9695C
:104050006869FCF715F980460021FCF735FC1AD297
:10406000E06880F00040E06015E0E9686868FCF70F
:1040700007F980460021FCF727FC0CD2E969686942
:10408000FCF7FEF880460021FCF714FC03D2E06840
:1040900080F00040E060E9696869FCF743F9804618
:1040A0000021FCF707FC0BD2606880F000406060E4
:1040B000A06880F00040A060E06880F00040E06010
:1040C000E1680846FCF734F90390A1680846FCF75C
:1040D0002FF9029061680846FCF72AF901902168DF
:1040E0000846FCF725F900900199FCF7C9F88246CB
:1040F0000299FCF7C5F881460399FCF7C1F88046A0
:10410000FDF7FEFD074639462068FCF711F92060EF
:1041100039466068FCF70CF960603946A068FCF726
:1041200007F9A0603946E068FCF702F9E060BDE8F5
:10413000FF9F00000AD7233C01460020034A506835
:1041400020F44040084350607047000000100240D7
:1041500029B1064A52690243044B5A6104E0034AFA
:1041600052698243014B5A617047000000100240BF
:1041700029B1064AD2690243044BDA6104E0034ADA
:10418000D2698243014BDA6170470000001002409F
:1041900029B1064A12690243044B1A6104E0034A3A
:1041A00012698243014B1A617047000000100240FF
:1041B00029B1064A92690243044B9A6104E0034A1A
:1041C00092698243014B9A617047000000100240DF
:1041D00030B500210022002400232D4D6D6805F02C
:1041E0000C0121B1042905D0082923D105E0294D6E
:1041F000056022E0274D05601FE0254D6D6805F440
:104200007012234D6D6805F48034022505EB92424F
:104210001CB9214D554305600BE01D4D6D6805F43B
:1042200000351DB11C4D5543056002E0194D554345
:10423000056002E0174D056000BF00BF144D6D68BA
:1042400005F0F0010909154D6B5C0568DD4045601E
:104250000F4D6D6805F4E061090A104D6B5C45680F
:10426000DD4085600A4D6D6805F46051C90A0B4D4B
:104270006B5C4568DD40C560054D6D6805F44041E7
:10428000890B074D6B5CC568B5FBF3F5056130BD67
:104290000010024000127A0000093D00E2010020F7
:1042A000F201002094B007F0AFF820214448FDF758
:1042B000A2FF83E04248C06880F010004049C86017
:1042C00000231A460AA93F48006808F06FFB01283E
:1042D0001BD19DF82B00821E0AA96846FBF79CFFA4
:1042E000BDF84C00C1B29DF82B00801E0DF80010E7
:1042F000BDF84C0001129DF82B00401E0DF8001077
:104300009DF82B10684606F025F800236422194614
:104310002D48006808F04AFB0DF12B010AA805F0B2
:1043200035FF05469DF82B00801E0AA9095C9DF803
:104330002B00401E0AAA105C41EA0020ADF84C0098
:1043400065B922480088401C20490880084600883A
:10435000022802DD00201E4908702FE09DF82B0086
:10436000801E81B20AA8FDF785F804469DF82B004F
:10437000202815DCBDF84C000006B0EB046F0FD10F
:10438000BDF84C000012B0EB242F09D10AA8FFF7AA
:104390008DF800200D49088001200D4908700CE0BF
:1043A0000A480088401C09490880084600880228FD
:1043B00002DD00200649087000E000BF7AE7000037
:1043C00000100140980000209C000020A200002066
:1043D000A00000200848B0F90000084988810020AA
:1043E000054908800648B0F900000449C88100204A
:1043F00003490880704700002A0100205C4B002020
:104400002C01002021B1028842F04002028004E029
:1044100002884FF6BF731A400280704770B5054698
:104420000C4616464FF480511048FDF7E2FE03207B
:1044300000F0B0F9C4F3074000F0ACF9C4F3072072
:1044400000F0A8F9E0B200F0A5F904E0FF2000F0C8
:10445000A1F928706D1C301EA6F101018EB2F5D1B4
:104460004FF480510148FDF7C6FE70BD000C0140BD
:104470002DE9F05F07460E4614464FF00008C1468E
:10448000C2460025AB4606F0FF0ACAF10000C5B2DD
:104490002046E11704EB1161C1F30728E11704EB93
:1044A00011610912A4EB012101F0FF09BAF1000F1B
:1044B00020D1B8F1000F05D122463146384600F030
:1044C000CBF864E009E04FF480723146384600F0E2
:1044D000C3F806F5807607F58077B8F10000A8F1FB
:1044E000010101F0FF08EED14A463146384600F09E
:1044F000B3F84CE0B8F1000F18D1A94510DDA9EBD5
:10450000050000F0FF0B2A463146384600F0A4F8BB
:104510002E442F445A463146384600F09DF836E086
:1045200022463146384600F097F830E0601B84B2EE
:104530002046E11704EB1161C1F30728E11704EBF2
:1045400011610912A4EB012101F0FF092A4631464D
:10455000384600F081F82E442F4409E04FF4807271
:104560003146384600F078F806F5807607F5807712
:10457000B8F10000A8F1010101F0FF08EED1B9F196
:10458000000F04D04A463146384600F065F8BDE8D1
:10459000F09F000000B587B001218803FFF7E8FD18
:1045A00001214CF20800FFF703FE4FF48050ADF8F4
:1045B000040003208DF8060010208DF8070001A9E3
:1045C0002348FDF739FD4FF40050ADF804001820E2
:1045D0008DF8070001A91E48FDF72EFD4FF480401D
:1045E000ADF8040001A91A48FDF726FD4FF400407C
:1045F000ADF8040001A91648FDF71EFD4FF48051E7
:104600001348FDF7F8FD0020ADF808004FF4827064
:10461000ADF80A000020ADF80C000220ADF80E0045
:104620000120ADF810004002ADF812000020ADF8F6
:104630001400ADF816000720ADF8180002A90548CF
:1046400000F032F901210348FFF7DCFE07B000BD9E
:10465000000C01400038004070B505460C46164677
:1046600000F0F0F84FF480511548FDF7C2FD02202C
:1046700000F090F8C4F3074000F08CF8C4F3072072
:1046800000F088F8E0B200F085F8B6F5807F04DD30
:104690004FF480760BA001F029FC03E0287800F0AD
:1046A00079F86D1C301EA6F101018EB2F6D14FF4DF
:1046B00080510348FDF79FFD00F0A8F870BD000091
:1046C000000C01403C3C2D464C4153482D45525274
:1046D0004F522D3E3E205350495F464C4153485F58
:1046E00050616765577269746520746F6F206C61E3
:1046F000726765210A0000002DE9F04100240025C1
:10470000002600274FF480510F48FDF772FD9F20CF
:1047100000F040F8FF2000F03DF80546FF2000F0D3
:1047200039F80646FF2000F035F807464FF480516F
:104730000548FDF760FD280440EA062040EA07042A
:104740002046BDE8F0810000000C014010B5044691
:1047500000F078F800F05AF84FF480510C48FDF75B
:1047600048FD202000F016F8C4F3074000F012F8CE
:10477000C4F3072000F00EF8E0B200F00BF84FF49D
:1047800080510348FDF737FD00F040F810BD0000F0
:10479000000C014010B504464FF4805019490860E0
:1047A0000AE018490868411E164A116020B9002025
:1047B00000F0B2F8C0B210BD0221134800F066F854
:1047C0000028EED02146104800F06CF84FF48050DD
:1047D0000C4908600AE00B490868411E094A11604B
:1047E00020B9012000F098F8C0B2E4E701210648A2
:1047F00000F04CF80028EED0034800F050F8C0B2AA
:10480000D9E700000C0100200038004010B500245A
:104810004FF480510A48FDF7ECFC0520FFF7BAFF82
:1048200000BFFF20FFF7B6FF044604F00100002898
:10483000F7D14FF480510248FDF7DDFC10BD0000B8
:10484000000C014010B54FF480510648FDF7D1FC33
:104850000620FFF79FFF4FF480510248FDF7CBFC85
:1048600010BD0000000C014010B54FF48051064807
:10487000FDF7BFFCAB20FFF78DFF4FF480510248DE
:10488000FDF7B9FC10BD0000000C014002460020FD
:1048900013890B400BB1012000E000207047014656
:1048A000888970478181704710B50022028802F420
:1048B00041520B884C8823438C882343CC88234364
:1048C0000C8923434C8923438C892343CC8923437C
:1048D0001A430280838B4FF2FF74234083830B8A39
:1048E000038210BD70B504460D4629462046FFF7E9
:1048F000D9FF00BF02212046FFF7C8FF0028F9D0EA
:1049000000BF01212046FFF7C1FF0028F9D0204653
:10491000FFF7C5FFC0B270BD10B50446214602A026
:1049200001F0E4FA002010BD3C3C2D464C415348B8
:104930002D4552524F522D3E3E2053504920B5C86E
:10494000B4FDB3ACCAB1216572726F72436F646516
:10495000203D2025640A00002DE9FE4300250026A5
:10496000002400274FF004094FF0010800200090B8
:1049700001900290434800798DF800004148407949
:104980008DF801003F4880798DF802003D48C079DC
:104990008DF803003B48007A8DF804003948807890
:1049A0008DF805003748007B8DF806003548808972
:1049B000000A8DF807003348C068000C8DF8080025
:1049C0003048C068000E8DF809000A216846FCF7DF
:1049D00051FD0746F8B28DF80A0038128DF80B0029
:1049E000FDF75CF93420FDF7D3F82748FDF7D6F83A
:1049F0008146254D00BF19E000261DF80410601CFB
:104A00001DF8000041EA0021A01C1DF8000041EA49
:104A10000041E01C1DF8000041EA006631462846CE
:104A2000FDF706F981462D1D201DC4B20C2C02DABB
:104A3000B9F1040FE0D0FDF7F1F8134D002418E0B0
:104A40001DF80410601C1DF8000041EA0021A01CA4
:104A50001DF8000041EA0041E01C1DF8000041EA99
:104A600000662868B04201D04FF000082D1D201DBF
:104A7000C4B20C2C02DAB8F1000FE1D14046BDE817
:104A8000FE830000A046002000F8030894B0002038
:104A900011901290139000BF834604F087FA0446E9
:104AA00000200690814606F091FE06F023FF0020CC
:104AB000D049087002E0642007F0D6FBCD480078AA
:104AC0000028F8D02146CC4806F094FDCA49183198
:104AD000C948FCF73FFF00BF8AE100235A1E194670
:104AE000C648006807F062FF01287DD104F05EFA35
:104AF0000446C348007808B1082000E0002000F117
:104B00000E0AC04853463B2268210090BE4804F07C
:104B1000D9FBBC48FDF77AFBB948007818B1B94811
:104B20000E30FDF7F7FBB94911984860129888607C
:104B3000B749B1F90C10A1F1F100FBF7FFFD0746F1
:104B4000B44AB54BFBF77DFD0546FBF797FE069093
:104B5000AF49B1F90E10A1F14800FBF7E1FD814624
:104B600000210698FBF7B0FE21D800214846FBF74C
:104B7000A1FE1CD249460698FBF70CFC0190FBF7FE
:104B80003AFECDE9020101F0DBFF4FF00052A34BEA
:104B9000CDE90401FBF7E3FC07460022A04BFBF73D
:104BA00037FC0546FBF76AFE9849C86075E00021AE
:104BB0000698FBF77FFE23D200214846FBF77AFEDA
:104BC0001ED849460698FBF7E5FB0190FBF713FE5C
:104BD000CDE9020101F0B4FF07464FF000528F4BC0
:104BE000FBF7BDFC054600E05FE000228C4BFBF7C5
:104BF0000FFCCDE90401FBF741FE8449C8604CE09D
:104C000000210698FBF756FE21D800214846FBF705
:104C10005BFE1CD249460698FBF7BCFB0190FBF7F4
:104C2000EAFDCDE9020101F08BFF4FF000527B4B12
:104C3000CDE90401FBF793FC05460022794BFBF715
:104C4000E7FB0746FBF71AFE7049C86025E0002124
:104C50000698FBF739FE20D200214846FBF734FEC8
:104C60001BD849460698FBF795FB0190FBF7C3FD5F
:104C7000CDE9020101F064FF05464FF00052674B99
:104C8000FBF76DFC0022674BCDE90401FBF7C0FB8D
:104C90000746FBF7F3FD5D49C86000BF6248C06886
:104CA00080F010006049C86000BF604800780128AB
:104CB0007ED1A4EB0B000A287BD94AF6AA20ADF8D6
:104CC0001C0029208DF81E0018208DF81F00504868
:104CD00000788DF820004E480088010A07A841712D
:104CE0004B48817807A8817149484088010A07A884
:104CF000C1714748017907A8017245488088010AB7
:104D000007A841724248817907A881724048C0884B
:104D1000010A07A8C1723E48017A07A801733C48FE
:104D20000089010A07A841733948817A07A881736D
:104D300037484089010A07A8C1733548017B07A895
:104D4000017433488089010A07A841743048817B87
:104D500007A881742E48C089010A07A8C1742C488D
:104D6000017C07A801752A48008A010A07A8417535
:104D70009DF81F00801E81B207A8FCF77BFBADF8F1
:104D8000400000250CE000BF8021294800F013FFFF
:104D90000028F9D007A8415D254800F0DAFF6D1C16
:104DA0009DF81F00801EA842EDDC00BF802101E0BD
:104DB00019E01DE01E4800F0FEFE0028F6D0BDF808
:104DC00040101B4800F0C5FF00BF8021184800F0CC
:104DD000F2FE0028F9D0BDF840000112144800F09E
:104DE000B8FFA34604E011480078022800D000BFB5
:104DF00073E6000010010020A01A002048000020E7
:104E00003B000020C01B002034010020D41A0020E9
:104E1000D61B0020A4703D0AD7A3F03FDCA54C4070
:104E20000080564000E07040001001404C0000201F
:104E30000038014010B500F041F900F033FA10BD20
:104E400010B500F001F810BD0CB5002001900090E5
:104E50003348006840F480303149086000BF304872
:104E6000006800F4003000900198401C0190009808
:104E700018B90198B0F5A06FF1D12948006800F485
:104E8000003010B10120009001E000200090009857
:104E9000012843D12348006840F0100021490860F0
:104EA0000846006820F0030008600846006840F0EB
:104EB000020008601A48406819494860084640687E
:104EC00048600846406840F4806048600846406892
:104ED00020F47C1048600846406840F4E8104860C0
:104EE0000846006840F08070086000BF0C48006809
:104EF00000F000700028F9D00948406820F0030055
:104F0000074948600846406840F00200486000BF1A
:104F10000348406800F00C000828F9D10CBD0000DF
:104F2000001002400020024000B50346B3F57A7F2E
:104F300002DD4FF47A7303E013F57A7F00DA0B4B4E
:104F4000002B08DB99B20120FDF700FF00210220B1
:104F5000FDF7FCFE08E000210120FDF7F7FE5842B6
:104F600081B20220FDF7F2FE00BD000018FCFFFF39
:104F700000B50346B3F57A7F02DD4FF47A7303E0A0
:104F800013F57A7F00DA0B4B002B08DB002103209E
:104F9000FDF7DCFE99B20420FDF7D8FE08E0584288
:104FA00081B20320FDF7D2FE00210420FDF7CEFEE2
:104FB00000BD000018FCFFFF0246082A00DD704714
:104FC00040F6C413994200DDF9E7B1F5FA7F00DA43
:104FD000F5E7042A03DD0D48131FDAB200E00C48A0
:104FE000012A06D0022A06D0032A06D0042A09D1B3
:104FF00005E0818607E0018705E0818703E0A0F8EE
:10500000401000E000BF00BF00BFD8E700340140FF
:1050100000040040042808D14FF0E021096941F064
:1050200004014FF0E022116107E04FF0E02109692F
:1050300021F004014FF0E0221161704710B508F033
:1050400075F8012802D007F03FFC04E00248006830
:10505000401C0149086010BD1400002010B5134821
:10506000006840F001001149086008464068104996
:1050700008400E494860084600680E4908400B4940
:1050800008600846006820F48020086008464068F0
:1050900020F4FE0048604FF41F008860FFF7D0FE48
:1050A0004FF000600449086010BD0000001002408D
:1050B0000000FFF8FFFFF6FE08ED00E000B589B044
:1050C00001210420FFF774F8C020ADF8200018205B
:1050D0008DF8230003208DF8220008A93448FCF73E
:1050E000ABFF01210820FFF763F80320ADF8200093
:1050F00018208DF8230003208DF8220008A92D48E0
:10510000FCF79AFF01210220FFF732F844F62060F5
:10511000ADF818004720ADF814000020ADF81A00D3
:10512000ADF816008DF81C0005A9234800F0ACFA74
:105130006020ADF804000120ADF806000020ADF8B5
:105140000C0040F2DC50ADF80A0001A91A4800F04A
:105150003FF90821184800F087F940F2DC50ADF81B
:105160000A0001A9144800F089F90821124800F04A
:10517000D7F940F2DC50ADF80A0001A90E4800F062
:10518000DDF908210C4800F029FA40F2DC50ADF8B6
:105190000A0001A9084800F02BFA0821064800F08F
:1051A00065FA0121044800F0EEF809B000BD0000E6
:1051B00000080140000C01400004004000B589B027
:1051C00001210820FEF7F4FF4FF47070ADF82000C5
:1051D00018208DF8230003208DF8220008A9294803
:1051E000FCF72AFF01210420FEF7C2FF4FF47A707A
:1051F000ADF818004720ADF814000020ADF81A00F3
:10520000ADF816008DF81C0005A91F4800F03CFA07
:105210006020ADF804000120ADF806000020ADF8D4
:105220000C00ADF80A0001A9174800F0D1F80821D8
:10523000154800F019F90020ADF80A0001A912483C
:1052400000F01CF90821104800F06AF90020ADF8C0
:105250000A0001A90C4800F071F908210A4800F081
:10526000BDF90020ADF80A0001A9074800F0C0F917
:105270000821054800F0FAF90121034800F083F8FD
:1052800009B000BD000C014000080040044800883F
:105290000348008820F001000149088070470000A1
:1052A000100C004000B589B0012142F21000FEF759
:1052B0007FFF4FF47070ADF8200018208DF82300A8
:1052C00003208DF8220008A92B48FCF7B5FE44F610
:1052D0002060ADF818004720ADF814000020ADF8AC
:1052E0001A00ADF816008DF81C0005A9234800F03F
:1052F000CBF96020ADF804000120ADF806000020D5
:10530000ADF80C0040F2DC50ADF80A0001A91B48D2
:1053100000F05EF80821194800F0A6F840F2DC50D1
:10532000ADF80A0001A9154800F0A8F808211348B3
:1053300000F0F6F840F2DC50ADF80A0001A90F4881
:1053400000F0FCF808210D4800F048F940F2DC506C
:10535000ADF80A0001A9094800F04AF908210748F8
:1053600000F084F90121054800F00DF801210348FF
:1053700000F015F809B000BD0010014000340140F4
:10538000CA430282704721B1028842F001020280C2
:1053900004E002884FF6FE731A400280704731B174
:1053A000B0F8442042F40042A0F8442005E0B0F8F0
:1053B0004420C2F30E02A0F8442070471AB183893A
:1053C0000B43838102E083898B4383817047000014
:1053D00070B5002400220023058C4FF6FE76354080
:1053E0000584028C8388048B4FF68F752C40B51E84
:1053F0002C400D882C43751E2A400D892A434D8868
:105400002A43144DA8420BD0134DA84208D0134D87
:10541000A84205D0124DA84202D0124DA84213D185
:105420004FF6F7752A404D892A434FF6FB752A40FF
:105430008D882A434FF6FF652B404FF6FF552B40D2
:105440008D892B43CD892B4383800483CD8885862A
:10545000028470BD002C0140003401400040014036
:1054600000440140004801400A460021018B4FF6EC
:10547000F7731940114301837047000070B5002491
:1054800000220023058C4FF6EF7635400584028C10
:105490008388048B48F6FF752C404FF6FF452C405F
:1054A0000D884FF6FF7606EA05252C434FF6DF758B
:1054B0002A400D8906EA05152A434D8806EA051596
:1054C0002A43154DA84202D0144DA8421DD14FF6D3
:1054D0007F752A404D894FF6FF7606EA05152A4367
:1054E0004FF6BF752A408D8806EA05152A434FF608
:1054F000FF352B404FF2FF752B408D8906EA85055D
:105500002B43CD8906EA85052B4383800483CD8810
:105510000587028470BD0000002C0140003401406A
:105520000A460021018B4FF2FF7319404FF6FF73BB
:1055300003EA0223194301837047000070B5002479
:1055400000220023058C4FF6FF6635400584028C4F
:105550008388848B4FF68F752C404FF6FC752C405A
:105560000D882C434FF6FF552A400D894FF6FF76E4
:1055700006EA05252A434D8806EA05252A43154DE6
:10558000A84202D0144DA8421DD14FF2FF752A4007
:105590004D894FF6FF7606EA05252A434FF6FF357B
:1055A0002A408D8806EA05252A434EF6FF752B40D2
:1055B0004DF6FF752B408D8906EA05152B43CD89E5
:1055C00006EA05152B4383808483CD888587028472
:1055D00070BD0000002C0140003401400A4600214B
:1055E000818B4FF6F7731940114381837047000098
:1055F00070B5002200230024058C4EF6FF7635405E
:105600000584038C8488828B48F6FF752A404FF608
:10561000FF452A400D884FF6FF7606EA05252A4306
:105620004DF6FF752B400D8906EA05352B434D8855
:1056300006EA05352B430B4DA84202D00A4DA8427D
:1056400008D14BF6FF752C408D894FF6FF7606EAA0
:1056500085152C4384808283CD88A0F84050038434
:1056600070BD0000002C0140003401400A460021BA
:10567000818B4FF2FF7319404FF6FF7303EA022349
:105680001943818370470000002202881D4B984215
:105690000ED01D4B98420BD0B0F1804F08D01B4B61
:1056A000984205D01A4B984202D01A4B984204D126
:1056B0004FF68F731A404B881A43174B984207D006
:1056C000164B984204D04FF6FF431A40CB881A433A
:1056D00002808B8883850B8803850A4B98420BD008
:1056E000094B984208D00E4B984205D00D4B98427A
:1056F00002D00D4B984201D10B7A0386012383829D
:1057000070470000002C01400034014000040040BC
:1057100000080040000C0040001000400014004051
:1057200000400140004401400048014010B540F2F3
:105730002551184800F04CFA30B31748007870B97A
:10574000144800F001FB4FF6FF7101EA00201349F5
:10575000088011480078401C0F49087018E00E4876
:105760000078012811D10B4800F0EEFA0B490988A6
:1057700008430A4908800846008809490880064805
:105780000078401C0449087002E0024800F0DCFA8E
:1057900010BD0000004C0040EA000020EC0000209A
:1057A000E800002010B588B0044601211120FEF762
:1057B000FFFC0121C804FEF7DBFC4FF48060ADF86C
:1057C0001C0018208DF81F0003208DF81E0007A96B
:1057D0002448FCF731FC4FF40060ADF81C000420B5
:1057E0008DF81F0007A91F48FCF726FC0394002032
:1057F000ADF81000ADF81200ADF81400ADF81800C7
:105800000C20ADF8160003A9174800F031FA00206B
:10581000ADF80400ADF806004FF40070ADF80800D4
:105820000020ADF80A0001A90F4800F0A7F93420C4
:105830008DF8000006208DF8010000208DF8020090
:1058400001208DF803006846FDF7FAFB012240F2C3
:105850002551054800F0E6F90121034800F09FF9C1
:1058600008B010BD00100140004C004010B540F2DF
:105870002551184800F0ACF930B31748007870B9DA
:10588000144800F061FA4FF6FF7101EA0020134955
:10589000088011480078401C0F49087018E00E4835
:1058A0000078012811D10B4800F04EFA0B49098805
:1058B00008430A49088008460088094908800648C4
:1058C0000078401C0449087002E0024800F03CFAED
:1058D00010BD000000500040FA000020FC00002035
:1058E000F800002010B588B0044601213120FEF7F1
:1058F0005FFC01210805FEF73BFC4FF48050ADF83A
:105900001C0018208DF81F0003208DF81E0007A929
:105910002348FCF791FB0420ADF81C008DF81F0014
:1059200007A92048FCF788FB03940020ADF810007D
:10593000ADF81200ADF81400ADF818000C20ADF869
:10594000160003A9184800F093F90020ADF80400F0
:10595000ADF806004FF40070ADF808000020ADF877
:105960000A0001A9104800F009F935208DF800005F
:1059700006208DF8010000208DF8020001208DF82E
:1059800003006846FDF75CFB012240F22551064802
:1059900000F048F90121044800F001F908B010BDF9
:1059A00000100140001401400050004010B50024D8
:1059B00040F22551444800F00BF900280DD0424830
:1059C00000F0C2F9C4B24148008838B9AA2C79D194
:1059D0003E480088401C3D49088073E03B480088F1
:1059E00001280FD1AA2C09D138480088401C37491A
:1059F00008804AF6AA203649088063E0002033492F
:105A000008805FE031480088022807D12F480088CD
:105A1000401C2E4908802E48847053E02B48008893
:105A200003280FD129480088401C28490880202CD1
:105A300002DC2748C47045E000202449088024493E
:105A4000C8703FE02248C078801E204909888842FB
:105A50000BDD1E480088001F1D49091D0C541B4802
:105A60000088401C194908802CE01948C078801E25
:105A700016490988884207D115488484134800884C
:105A8000401C124908801DE01148C078401E0F4993
:105A90000988884211D10E48808C40EA04200C49C4
:105AA000888400231A460B48006807F0A1F90020FB
:105AB000064908800649C87004E0002003490880B0
:105AC0000349C87010BD000000380140D400002018
:105AD000344B0020D800002010B586B004460121C8
